{
  "address": "0xC44F46A31B752b773685be6B5ce8616fFeb97C8D",
  "abi": [
    {
      "inputs": [
        {
          "internalType": "address",
          "name": "owner",
          "type": "address"
        },
        {
          "internalType": "uint256[2]",
          "name": "commitmentMapperEdDSAPubKey",
          "type": "uint256[2]"
        },
        {
          "internalType": "address",
          "name": "commitmentMapperAddress",
          "type": "address"
        }
      ],
      "stateMutability": "nonpayable",
      "type": "constructor"
    },
    {
      "inputs": [
        {
          "internalType": "uint256[2]",
          "name": "pubKey",
          "type": "uint256[2]"
        }
      ],
      "name": "PubKeyNotValid",
      "type": "error"
    },
    {
      "anonymous": false,
      "inputs": [
        {
          "indexed": false,
          "internalType": "uint8",
          "name": "version",
          "type": "uint8"
        }
      ],
      "name": "Initialized",
      "type": "event"
    },
    {
      "anonymous": false,
      "inputs": [
        {
          "indexed": true,
          "internalType": "address",
          "name": "previousOwner",
          "type": "address"
        },
        {
          "indexed": true,
          "internalType": "address",
          "name": "newOwner",
          "type": "address"
        }
      ],
      "name": "OwnershipTransferred",
      "type": "event"
    },
    {
      "anonymous": false,
      "inputs": [
        {
          "indexed": false,
          "internalType": "address",
          "name": "newAddress",
          "type": "address"
        }
      ],
      "name": "UpdatedCommitmentMapperAddress",
      "type": "event"
    },
    {
      "anonymous": false,
      "inputs": [
        {
          "indexed": false,
          "internalType": "uint256[2]",
          "name": "newEdDSAPubKey",
          "type": "uint256[2]"
        }
      ],
      "name": "UpdatedCommitmentMapperEdDSAPubKey",
      "type": "event"
    },
    {
      "inputs": [],
      "name": "IMPLEMENTATION_VERSION",
      "outputs": [
        {
          "internalType": "uint8",
          "name": "",
          "type": "uint8"
        }
      ],
      "stateMutability": "view",
      "type": "function"
    },
    {
      "inputs": [],
      "name": "getAddress",
      "outputs": [
        {
          "internalType": "address",
          "name": "",
          "type": "address"
        }
      ],
      "stateMutability": "view",
      "type": "function"
    },
    {
      "inputs": [],
      "name": "getEdDSAPubKey",
      "outputs": [
        {
          "internalType": "uint256[2]",
          "name": "",
          "type": "uint256[2]"
        }
      ],
      "stateMutability": "view",
      "type": "function"
    },
    {
      "inputs": [
        {
          "internalType": "address",
          "name": "ownerAddress",
          "type": "address"
        },
        {
          "internalType": "uint256[2]",
          "name": "commitmentMapperEdDSAPubKey",
          "type": "uint256[2]"
        },
        {
          "internalType": "address",
          "name": "commitmentMapperAddress",
          "type": "address"
        }
      ],
      "name": "initialize",
      "outputs": [],
      "stateMutability": "nonpayable",
      "type": "function"
    },
    {
      "inputs": [],
      "name": "owner",
      "outputs": [
        {
          "internalType": "address",
          "name": "",
          "type": "address"
        }
      ],
      "stateMutability": "view",
      "type": "function"
    },
    {
      "inputs": [],
      "name": "renounceOwnership",
      "outputs": [],
      "stateMutability": "nonpayable",
      "type": "function"
    },
    {
      "inputs": [
        {
          "internalType": "address",
          "name": "newOwner",
          "type": "address"
        }
      ],
      "name": "transferOwnership",
      "outputs": [],
      "stateMutability": "nonpayable",
      "type": "function"
    },
    {
      "inputs": [
        {
          "internalType": "address",
          "name": "newAddress",
          "type": "address"
        }
      ],
      "name": "updateCommitmentMapperAddress",
      "outputs": [],
      "stateMutability": "nonpayable",
      "type": "function"
    },
    {
      "inputs": [
        {
          "internalType": "uint256[2]",
          "name": "newEdDSAPubKey",
          "type": "uint256[2]"
        }
      ],
      "name": "updateCommitmentMapperEdDSAPubKey",
      "outputs": [],
      "stateMutability": "nonpayable",
      "type": "function"
    }
  ],
  "transactionHash": "0x3b19d54c9fb944fd66faf0dacddd1a72b32ac6cd073a2d128530ddace942e432",
  "args": [
    "0xaee4acd5c4Bf516330ca8fe11B07206fC6709294",
    [
      "0x0c6c16efc72c198f4549bd069f1e57f091885234b9c140286d80ef431151d644",
      "0x12c54731563d974ead25d469d2263fdf0e230d5a09f6cd40a06e60210610d642"
    ],
    "0x0000000000000000000000000000000000000000"
  ],
  "numDeployments": 5,
  "solcInputHash": "6edb98fea2bf424a369954d0e80655f6",
  "bytecode": "0x60806040523480156200001157600080fd5b5060405162000abe38038062000abe833981016040819052620000349162000313565b6200003f3362000055565b6200004c838383620000b0565b505050620003ef565b600080546001600160a01b038381166201000081810262010000600160b01b0319851617855560405193049190911692909183917f8be0079c531659141344cd1fd0a4f28419497f9722a3daafe3b4186f6b6457e091a35050565b600054600290610100900460ff16158015620000d3575060005460ff8083169116105b6200013b5760405162461bcd60e51b815260206004820152602e60248201527f496e697469616c697a61626c653a20636f6e747261637420697320616c72656160448201526d191e481a5b9a5d1a585b1a5e995960921b606482015260840160405180910390fd5b6000805461ffff191660ff831617610100178155620001686000546201000090046001600160a01b031690565b6001600160a01b031614806200017d5750303b155b15620001a4576200018e8462000055565b6200019983620001eb565b620001a48262000237565b6000805461ff001916905560405160ff821681527f7f26b83ff96e1f2b6a682f133852f6798a09c465da95921460cefb38474024989060200160405180910390a150505050565b620001fa600182600262000286565b507f9d99ec80e15298d9dae698493e9c61daaae3977b0f131ded44fc6b0f7766ab15816040516200022c9190620003bc565b60405180910390a150565b600380546001600160a01b0319166001600160a01b0383169081179091556040519081527fa37a473be736ea014730a555941f412164222d9d1b07f5a0a61932a1b3c3f2f4906020016200022c565b8260028101928215620002b7579160200282015b82811115620002b75782518255916020019190600101906200029a565b50620002c5929150620002c9565b5090565b5b80821115620002c55760008155600101620002ca565b80516001600160a01b0381168114620002f857600080fd5b919050565b634e487b7160e01b600052604160045260246000fd5b6000806000608084860312156200032957600080fd5b6200033484620002e0565b9250602085603f8601126200034857600080fd5b604080519081016001600160401b03811182821017156200036d576200036d620002fd565b6040528060608701888111156200038357600080fd5b8388015b81811015620003a0578051835291840191840162000387565b50829550620003af81620002e0565b9450505050509250925092565b60408101818360005b6002811015620003e6578151835260209283019290910190600101620003c5565b50505092915050565b6106bf80620003ff6000396000f3fe608060405234801561001057600080fd5b50600436106100935760003560e01c8063727b2d5c11610066578063727b2d5c146100f4578063754b377c1461010757806378cf75d7146101215780638da5cb5b14610134578063f2fde38b1461014b57600080fd5b806338cc48311461009857806359a80d0d146100c25780637098a5f4146100d7578063715018a6146100ec575b600080fd5b6003546001600160a01b03165b6040516001600160a01b0390911681526020015b60405180910390f35b6100ca61015e565b6040516100b9919061053c565b6100ea6100e53660046105eb565b610198565b005b6100ea6101ac565b6100ea61010236600461062a565b6101c0565b61010f600281565b60405160ff90911681526020016100b9565b6100ea61012f366004610645565b6101d1565b6000546201000090046001600160a01b03166100a5565b6100ea61015936600461062a565b610303565b6101666104cb565b60408051808201918290529060019060029082845b81548152602001906001019080831161017b575050505050905090565b6101a0610379565b6101a9816103da565b50565b6101b4610379565b6101be6000610422565b565b6101c8610379565b6101a98161047d565b600054600290610100900460ff161580156101f3575060005460ff8083169116105b61025b5760405162461bcd60e51b815260206004820152602e60248201527f496e697469616c697a61626c653a20636f6e747261637420697320616c72656160448201526d191e481a5b9a5d1a585b1a5e995960921b60648201526084015b60405180910390fd5b6000805461ffff191660ff8316176101001781556102886000546001600160a01b03620100009091041690565b6001600160a01b0316148061029c5750303b155b156102bc576102aa84610422565b6102b3836103da565b6102bc8261047d565b6000805461ff001916905560405160ff821681527f7f26b83ff96e1f2b6a682f133852f6798a09c465da95921460cefb38474024989060200160405180910390a150505050565b61030b610379565b6001600160a01b0381166103705760405162461bcd60e51b815260206004820152602660248201527f4f776e61626c653a206e6577206f776e657220697320746865207a65726f206160448201526564647265737360d01b6064820152608401610252565b6101a981610422565b6000546001600160a01b03620100009091041633146101be5760405162461bcd60e51b815260206004820181905260248201527f4f776e61626c653a2063616c6c6572206973206e6f7420746865206f776e65726044820152606401610252565b6103e760018260026104e9565b507f9d99ec80e15298d9dae698493e9c61daaae3977b0f131ded44fc6b0f7766ab1581604051610417919061053c565b60405180910390a150565b600080546001600160a01b038381166201000081810262010000600160b01b0319851617855560405193049190911692909183917f8be0079c531659141344cd1fd0a4f28419497f9722a3daafe3b4186f6b6457e091a35050565b600380546001600160a01b0319166001600160a01b0383169081179091556040519081527fa37a473be736ea014730a555941f412164222d9d1b07f5a0a61932a1b3c3f2f490602001610417565b60405180604001604052806002906020820280368337509192915050565b8260028101928215610517579160200282015b828111156105175782518255916020019190600101906104fc565b50610523929150610527565b5090565b5b808211156105235760008155600101610528565b60408101818360005b6002811015610564578151835260209283019290910190600101610545565b50505092915050565b600082601f83011261057e57600080fd5b6040516040810181811067ffffffffffffffff821117156105af57634e487b7160e01b600052604160045260246000fd5b80604052508060408401858111156105c657600080fd5b845b818110156105e05780358352602092830192016105c8565b509195945050505050565b6000604082840312156105fd57600080fd5b610607838361056d565b9392505050565b80356001600160a01b038116811461062557600080fd5b919050565b60006020828403121561063c57600080fd5b6106078261060e565b60008060006080848603121561065a57600080fd5b6106638461060e565b9250610672856020860161056d565b91506106806060850161060e565b9050925092509256fea2646970667358221220d4b69e1f79868deff972c669c62c01ccfa63a6b030214293debea10ed567f04f64736f6c634300080e0033",
  "devdoc": {
    "author": "Sismo",
    "kind": "dev",
    "methods": {
      "constructor": {
        "details": "Constructor",
        "params": {
          "commitmentMapperAddress": "Address of the commitment mapper",
          "commitmentMapperEdDSAPubKey": "EdDSA public key of the commitment mapper",
          "owner": "Owner of the contract, can update public key and address"
        }
      },
      "getAddress()": {
        "details": "Getter of the address of the commitment mapper"
      },
      "getEdDSAPubKey()": {
        "details": "Getter of the EdDSA public key of the commitment mapper"
      },
      "initialize(address,uint256[2],address)": {
        "details": "Initializes the contract, to be called by the proxy delegating calls to this implementation",
        "params": {
          "commitmentMapperAddress": "Address of the commitment mapper",
          "commitmentMapperEdDSAPubKey": "EdDSA public key of the commitment mapper",
          "ownerAddress": "Owner of the contract, can update public key and address"
        }
      },
      "owner()": {
        "details": "Returns the address of the current owner."
      },
      "renounceOwnership()": {
        "details": "Leaves the contract without owner. It will not be possible to call `onlyOwner` functions anymore. Can only be called by the current owner. NOTE: Renouncing ownership will leave the contract without an owner, thereby removing any functionality that is only available to the owner."
      },
      "transferOwnership(address)": {
        "details": "Transfers ownership of the contract to a new account (`newOwner`). Can only be called by the current owner."
      },
      "updateCommitmentMapperAddress(address)": {
        "details": "Updates the address",
        "params": {
          "newAddress": "new address"
        }
      },
      "updateCommitmentMapperEdDSAPubKey(uint256[2])": {
        "details": "Updates the EdDSA public key",
        "params": {
          "newEdDSAPubKey": "new EdDSA pubic key"
        }
      }
    },
    "title": "Commitment Mapper Registry Contract",
    "version": 1
  },
  "userdoc": {
    "kind": "user",
    "methods": {
      "initialize(address,uint256[2],address)": {
        "notice": "The reinitializer modifier is needed to configure modules that are added through upgrades and that require initialization."
      }
    },
    "notice": "This contract stores information about the commitment mapper. Its ethereum address and its EdDSA public key For more information: https://commitment-mapper.docs.sismo.io*",
    "version": 1
  },
  "storageLayout": {
    "storage": [
      {
        "astId": 935,
        "contract": "contracts/periphery/utils/CommitmentMapperRegistry.sol:CommitmentMapperRegistry",
        "label": "_initialized",
        "offset": 0,
        "slot": "0",
        "type": "t_uint8"
      },
      {
        "astId": 938,
        "contract": "contracts/periphery/utils/CommitmentMapperRegistry.sol:CommitmentMapperRegistry",
        "label": "_initializing",
        "offset": 1,
        "slot": "0",
        "type": "t_bool"
      },
      {
        "astId": 396,
        "contract": "contracts/periphery/utils/CommitmentMapperRegistry.sol:CommitmentMapperRegistry",
        "label": "_owner",
        "offset": 2,
        "slot": "0",
        "type": "t_address"
      },
      {
        "astId": 15766,
        "contract": "contracts/periphery/utils/CommitmentMapperRegistry.sol:CommitmentMapperRegistry",
        "label": "_commitmentMapperPubKey",
        "offset": 0,
        "slot": "1",
        "type": "t_array(t_uint256)2_storage"
      },
      {
        "astId": 15768,
        "contract": "contracts/periphery/utils/CommitmentMapperRegistry.sol:CommitmentMapperRegistry",
        "label": "_commitmentMapperAddress",
        "offset": 0,
        "slot": "3",
        "type": "t_address"
      }
    ],
    "types": {
      "t_address": {
        "encoding": "inplace",
        "label": "address",
        "numberOfBytes": "20"
      },
      "t_array(t_uint256)2_storage": {
        "base": "t_uint256",
        "encoding": "inplace",
        "label": "uint256[2]",
        "numberOfBytes": "64"
      },
      "t_bool": {
        "encoding": "inplace",
        "label": "bool",
        "numberOfBytes": "1"
      },
      "t_uint256": {
        "encoding": "inplace",
        "label": "uint256",
        "numberOfBytes": "32"
      },
      "t_uint8": {
        "encoding": "inplace",
        "label": "uint8",
        "numberOfBytes": "1"
      }
    }
  }
}