{
  "address": "0xbC356247570B2584E567F7eF7a54e09Ec668400B",
  "abi": [
    {
      "inputs": [
        {
          "internalType": "address",
          "name": "attestationsRegistryAddress",
          "type": "address"
        }
      ],
      "stateMutability": "nonpayable",
      "type": "constructor"
    },
    {
      "inputs": [],
      "name": "DifferentRequestsDestinations",
      "type": "error"
    },
    {
      "anonymous": false,
      "inputs": [
        {
          "indexed": false,
          "internalType": "address",
          "name": "destination",
          "type": "address"
        }
      ],
      "name": "EarlyUserAttestationGenerated",
      "type": "event"
    },
    {
      "inputs": [],
      "name": "ATTESTATIONS_REGISTRY",
      "outputs": [
        {
          "internalType": "contract IAttestationsRegistry",
          "name": "",
          "type": "address"
        }
      ],
      "stateMutability": "view",
      "type": "function"
    },
    {
      "inputs": [],
      "name": "EARLY_USER_BADGE_END_DATE",
      "outputs": [
        {
          "internalType": "uint32",
          "name": "",
          "type": "uint32"
        }
      ],
      "stateMutability": "view",
      "type": "function"
    },
    {
      "inputs": [],
      "name": "EARLY_USER_COLLECTION",
      "outputs": [
        {
          "internalType": "uint256",
          "name": "",
          "type": "uint256"
        }
      ],
      "stateMutability": "view",
      "type": "function"
    },
    {
      "inputs": [
        {
          "internalType": "address[]",
          "name": "attesters",
          "type": "address[]"
        },
        {
          "components": [
            {
              "components": [
                {
                  "internalType": "uint256",
                  "name": "groupId",
                  "type": "uint256"
                },
                {
                  "internalType": "uint256",
                  "name": "claimedValue",
                  "type": "uint256"
                },
                {
                  "internalType": "bytes",
                  "name": "extraData",
                  "type": "bytes"
                }
              ],
              "internalType": "struct Claim[]",
              "name": "claims",
              "type": "tuple[]"
            },
            {
              "internalType": "address",
              "name": "destination",
              "type": "address"
            }
          ],
          "internalType": "struct Request[]",
          "name": "requests",
          "type": "tuple[]"
        },
        {
          "internalType": "bytes[]",
          "name": "proofDataArray",
          "type": "bytes[]"
        }
      ],
      "name": "batchBuildAttestations",
      "outputs": [
        {
          "components": [
            {
              "internalType": "uint256",
              "name": "collectionId",
              "type": "uint256"
            },
            {
              "internalType": "address",
              "name": "owner",
              "type": "address"
            },
            {
              "internalType": "address",
              "name": "issuer",
              "type": "address"
            },
            {
              "internalType": "uint256",
              "name": "value",
              "type": "uint256"
            },
            {
              "internalType": "uint32",
              "name": "timestamp",
              "type": "uint32"
            },
            {
              "internalType": "bytes",
              "name": "extraData",
              "type": "bytes"
            }
          ],
          "internalType": "struct Attestation[][]",
          "name": "",
          "type": "tuple[][]"
        }
      ],
      "stateMutability": "view",
      "type": "function"
    },
    {
      "inputs": [
        {
          "internalType": "address[]",
          "name": "attesters",
          "type": "address[]"
        },
        {
          "components": [
            {
              "components": [
                {
                  "internalType": "uint256",
                  "name": "groupId",
                  "type": "uint256"
                },
                {
                  "internalType": "uint256",
                  "name": "claimedValue",
                  "type": "uint256"
                },
                {
                  "internalType": "bytes",
                  "name": "extraData",
                  "type": "bytes"
                }
              ],
              "internalType": "struct Claim[]",
              "name": "claims",
              "type": "tuple[]"
            },
            {
              "internalType": "address",
              "name": "destination",
              "type": "address"
            }
          ],
          "internalType": "struct Request[]",
          "name": "requests",
          "type": "tuple[]"
        },
        {
          "internalType": "bytes[]",
          "name": "proofDataArray",
          "type": "bytes[]"
        }
      ],
      "name": "batchGenerateAttestations",
      "outputs": [
        {
          "components": [
            {
              "internalType": "uint256",
              "name": "collectionId",
              "type": "uint256"
            },
            {
              "internalType": "address",
              "name": "owner",
              "type": "address"
            },
            {
              "internalType": "address",
              "name": "issuer",
              "type": "address"
            },
            {
              "internalType": "uint256",
              "name": "value",
              "type": "uint256"
            },
            {
              "internalType": "uint32",
              "name": "timestamp",
              "type": "uint32"
            },
            {
              "internalType": "bytes",
              "name": "extraData",
              "type": "bytes"
            }
          ],
          "internalType": "struct Attestation[][]",
          "name": "",
          "type": "tuple[][]"
        }
      ],
      "stateMutability": "nonpayable",
      "type": "function"
    },
    {
      "inputs": [
        {
          "internalType": "address",
          "name": "attester",
          "type": "address"
        },
        {
          "components": [
            {
              "components": [
                {
                  "internalType": "uint256",
                  "name": "groupId",
                  "type": "uint256"
                },
                {
                  "internalType": "uint256",
                  "name": "claimedValue",
                  "type": "uint256"
                },
                {
                  "internalType": "bytes",
                  "name": "extraData",
                  "type": "bytes"
                }
              ],
              "internalType": "struct Claim[]",
              "name": "claims",
              "type": "tuple[]"
            },
            {
              "internalType": "address",
              "name": "destination",
              "type": "address"
            }
          ],
          "internalType": "struct Request",
          "name": "request",
          "type": "tuple"
        },
        {
          "internalType": "bytes",
          "name": "proofData",
          "type": "bytes"
        }
      ],
      "name": "buildAttestations",
      "outputs": [
        {
          "components": [
            {
              "internalType": "uint256",
              "name": "collectionId",
              "type": "uint256"
            },
            {
              "internalType": "address",
              "name": "owner",
              "type": "address"
            },
            {
              "internalType": "address",
              "name": "issuer",
              "type": "address"
            },
            {
              "internalType": "uint256",
              "name": "value",
              "type": "uint256"
            },
            {
              "internalType": "uint32",
              "name": "timestamp",
              "type": "uint32"
            },
            {
              "internalType": "bytes",
              "name": "extraData",
              "type": "bytes"
            }
          ],
          "internalType": "struct Attestation[]",
          "name": "",
          "type": "tuple[]"
        }
      ],
      "stateMutability": "view",
      "type": "function"
    },
    {
      "inputs": [
        {
          "internalType": "address",
          "name": "attester",
          "type": "address"
        },
        {
          "components": [
            {
              "components": [
                {
                  "internalType": "uint256",
                  "name": "groupId",
                  "type": "uint256"
                },
                {
                  "internalType": "uint256",
                  "name": "claimedValue",
                  "type": "uint256"
                },
                {
                  "internalType": "bytes",
                  "name": "extraData",
                  "type": "bytes"
                }
              ],
              "internalType": "struct Claim[]",
              "name": "claims",
              "type": "tuple[]"
            },
            {
              "internalType": "address",
              "name": "destination",
              "type": "address"
            }
          ],
          "internalType": "struct Request",
          "name": "request",
          "type": "tuple"
        },
        {
          "internalType": "bytes",
          "name": "proofData",
          "type": "bytes"
        }
      ],
      "name": "generateAttestations",
      "outputs": [
        {
          "components": [
            {
              "internalType": "uint256",
              "name": "collectionId",
              "type": "uint256"
            },
            {
              "internalType": "address",
              "name": "owner",
              "type": "address"
            },
            {
              "internalType": "address",
              "name": "issuer",
              "type": "address"
            },
            {
              "internalType": "uint256",
              "name": "value",
              "type": "uint256"
            },
            {
              "internalType": "uint32",
              "name": "timestamp",
              "type": "uint32"
            },
            {
              "internalType": "bytes",
              "name": "extraData",
              "type": "bytes"
            }
          ],
          "internalType": "struct Attestation[]",
          "name": "",
          "type": "tuple[]"
        }
      ],
      "stateMutability": "nonpayable",
      "type": "function"
    }
  ],
  "transactionHash": "0xfc0d4a8674abc716a6b42e21b3b0cc239542fe95dedc0d4f0ede26a710955db5",
  "args": [
    "0xC999390A856e0633f945dD851DeeCE15b533ccA3"
  ],
  "numDeployments": 1,
  "solcInputHash": "c872f238f220b3571ef309821a459203",
  "bytecode": "0x60a060405234801561001057600080fd5b506040516110e43803806110e483398101604081905261002f91610040565b6001600160a01b0316608052610070565b60006020828403121561005257600080fd5b81516001600160a01b038116811461006957600080fd5b9392505050565b60805161104b610099600039600081816101020152818161051901526106bd015261104b6000f3fe608060405234801561001057600080fd5b506004361061007d5760003560e01c806389a504771161005b57806389a50477146100e7578063ac9d6541146100fd578063aebddc691461013c578063c0a92c911461014f57600080fd5b80630a60387d14610082578063369b88be146100a75780633ee490ce146100c7575b600080fd5b61008d6363226b0081565b60405163ffffffff90911681526020015b60405180910390f35b6100ba6100b5366004610805565b610162565b60405161009e91906108cf565b6100da6100d5366004610a0d565b61031d565b60405161009e9190610ab9565b6100ef600081565b60405190815260200161009e565b6101247f000000000000000000000000000000000000000000000000000000000000000081565b6040516001600160a01b03909116815260200161009e565b6100da61014a366004610a0d565b610350565b6100ba61015d366004610805565b61035e565b606060008667ffffffffffffffff81111561017f5761017f610b84565b6040519080825280602002602001820160405280156101b257816020015b606081526020019060019003908161019d5790505b5090506000868660008181106101ca576101ca610b9a565b90506020028101906101dc9190610bb0565b6101ed906040810190602001610bd0565b905060005b8881101561030757816001600160a01b031688888381811061021657610216610b9a565b90506020028101906102289190610bb0565b610239906040810190602001610bd0565b6001600160a01b0316146102605760405163f1b973df60e01b815260040160405180910390fd5b6102d78a8a8381811061027557610275610b9a565b905060200201602081019061028a9190610bd0565b89898481811061029c5761029c610b9a565b90506020028101906102ae9190610bb0565b8888858181106102c0576102c0610b9a565b90506020028101906102d29190610bf4565b610463565b8382815181106102e9576102e9610b9a565b602002602001018190525080806102ff90610c3b565b9150506101f2565b50610311816104dd565b50979650505050505050565b6060600061032d86868686610463565b90506103476103426040870160208801610bd0565b6104dd565b95945050505050565b606061034785858585610769565b606060008667ffffffffffffffff81111561037b5761037b610b84565b6040519080825280602002602001820160405280156103ae57816020015b60608152602001906001900390816103995790505b50905060005b87811015610311576104338989838181106103d1576103d1610b9a565b90506020020160208101906103e69190610bd0565b8888848181106103f8576103f8610b9a565b905060200281019061040a9190610bb0565b87878581811061041c5761041c610b9a565b905060200281019061042e9190610bf4565b610769565b82828151811061044557610445610b9a565b6020026020010181905250808061045b90610c3b565b9150506103b4565b60405163e60f999f60e01b81526060906001600160a01b0386169063e60f999f9061049690879087908790600401610c8b565b6000604051808303816000875af11580156104b5573d6000803e3d6000fd5b505050506040513d6000823e601f3d908101601f191682016040526103479190810190610e9d565b426363226b0063ffffffff82161015610765576040516211023960e41b81526000600482018190526001600160a01b03848116602484015290917f0000000000000000000000000000000000000000000000000000000000000000909116906301102390906044016020604051808303816000875af1158015610564573d6000803e3d6000fd5b505050506040513d601f19601f820116820180604052508101906105889190610ff3565b90508061076357604080516001808252818301909252600091816020015b6105f76040518060c001604052806000815260200160006001600160a01b0316815260200160006001600160a01b0316815260200160008152602001600063ffffffff168152602001606081525090565b8152602001906001900390816105a65790505090506040518060c0016040528060008152602001856001600160a01b03168152602001306001600160a01b03168152602001600181526020018463ffffffff1681526020016040518060400160405280601b81526020017f57697468207374726f6e67206c6f76652066726f6d205369736d6f00000000008152508152508160008151811061069b5761069b610b9a565b602090810291909101015260405163ebc5c09360e01b81526001600160a01b037f0000000000000000000000000000000000000000000000000000000000000000169063ebc5c093906106f2908490600401610ab9565b600060405180830381600087803b15801561070c57600080fd5b505af1158015610720573d6000803e3d6000fd5b50506040516001600160a01b03871681527f65566f56ce57729c92989973ff6ac5bdd213f57bf75d7248c4190d6d3634738e9250602001905060405180910390a1505b505b5050565b604051630af411a360e41b81526060906001600160a01b0386169063af411a309061079c90879087908790600401610c8b565b600060405180830381865afa1580156104b5573d6000803e3d6000fd5b60008083601f8401126107cb57600080fd5b50813567ffffffffffffffff8111156107e357600080fd5b6020830191508360208260051b85010111156107fe57600080fd5b9250929050565b6000806000806000806060878903121561081e57600080fd5b863567ffffffffffffffff8082111561083657600080fd5b6108428a838b016107b9565b9098509650602089013591508082111561085b57600080fd5b6108678a838b016107b9565b9096509450604089013591508082111561088057600080fd5b5061088d89828a016107b9565b979a9699509497509295939492505050565b60005b838110156108ba5781810151838201526020016108a2565b838111156108c9576000848401525b50505050565b60208152600060208201835180825260408401915060408160051b8501016020860160005b838110156109d957868303603f19018552815180518085526020918201918086019190600582901b87010160005b828110156109bf57601f1980898403018552855180518452602081015160018060a01b03808216602087015280604084015116604087015250506060810151606085015263ffffffff608082015116608085015260a0810151905060c060a085015280518060c086015261099d8160e087016020850161089f565b6020978801979690960195601f019091169290920160e0019150600101610922565b5060209889019890965094909401935050506001016108f4565b50909695505050505050565b6001600160a01b03811681146109fa57600080fd5b50565b8035610a08816109e5565b919050565b60008060008060608587031215610a2357600080fd5b8435610a2e816109e5565b9350602085013567ffffffffffffffff80821115610a4b57600080fd5b9086019060408289031215610a5f57600080fd5b90935060408601359080821115610a7557600080fd5b818701915087601f830112610a8957600080fd5b813581811115610a9857600080fd5b886020828501011115610aaa57600080fd5b95989497505060200194505050565b60006020808301818452808551808352604092508286019150828160051b87010184880160005b83811015610b7657888303603f19018552815180518452878101516001600160a01b03908116898601528782015116878501526060808201519085015260808082015163ffffffff169085015260a09081015160c091850182905280519185018290529060e090610b5681838801858d0161089f565b96890196601f01601f191694909401909301925090860190600101610ae0565b509098975050505050505050565b634e487b7160e01b600052604160045260246000fd5b634e487b7160e01b600052603260045260246000fd5b60008235603e19833603018112610bc657600080fd5b9190910192915050565b600060208284031215610be257600080fd5b8135610bed816109e5565b9392505050565b6000808335601e19843603018112610c0b57600080fd5b83018035915067ffffffffffffffff821115610c2657600080fd5b6020019150368190038213156107fe57600080fd5b600060018201610c5b57634e487b7160e01b600052601160045260246000fd5b5060010190565b81835281816020850137506000828201602090810191909152601f909101601f19169091010190565b60006040808352608083018635601e19883603018112610caa57600080fd5b87018035602080830167ffffffffffffffff80841115610cc957600080fd5b8360051b803603831315610cdc57600080fd5b878a018890529584905260a09589018601956000908a01607e1936889003015b86831015610d96578b8903609f190182528435818112610d1b57600080fd5b8801868101358a528a8101358a88015260608082013536839003603e19018112610d4457600080fd5b9091018b8101919088013586811115610d5c57600080fd5b803603831315610d6b57600080fd5b818d8d0152610d7d828d018285610c62565b9b50505094860194506001929092019190850190610cfc565b5050505050610da6818b016109fd565b6001600160a01b0381166060890152945086840381880152505050610dcc818688610c62565b979650505050505050565b60405160c0810167ffffffffffffffff81118282101715610dfa57610dfa610b84565b60405290565b604051601f8201601f1916810167ffffffffffffffff81118282101715610e2957610e29610b84565b604052919050565b600082601f830112610e4257600080fd5b815167ffffffffffffffff811115610e5c57610e5c610b84565b610e6f601f8201601f1916602001610e00565b818152846020838601011115610e8457600080fd5b610e9582602083016020870161089f565b949350505050565b60006020808385031215610eb057600080fd5b825167ffffffffffffffff80821115610ec857600080fd5b818501915085601f830112610edc57600080fd5b815181811115610eee57610eee610b84565b8060051b610efd858201610e00565b9182528381018501918581019089841115610f1757600080fd5b86860192505b83831015610fe657825185811115610f355760008081fd5b860160c0818c03601f1901811315610f4d5760008081fd5b610f55610dd7565b898301518152604080840151610f6a816109e5565b828c0152606084810151610f7d816109e5565b8083850152506080915081850151818401525060a08085015163ffffffff81168114610fa95760008081fd5b83830152928401519289841115610fc257600091508182fd5b610fd08f8d86880101610e31565b9083015250845250509186019190860190610f1d565b9998505050505050505050565b60006020828403121561100557600080fd5b81518015158114610bed57600080fdfea26469706673582212206eab9b350687ecccafd79868df619e95a4ffb1f38b3590296e186abb24b904f864736f6c634300080e0033",
  "devdoc": {
    "author": "Sismo",
    "kind": "dev",
    "methods": {
      "batchBuildAttestations(address[],((uint256,uint256,bytes)[],address)[],bytes[])": {
        "details": "build the attestations from multiple user requests. Forwards to the build function of targeted attester",
        "params": {
          "attesters": "Targeted attesters",
          "proofDataArray": "Data sent along the request to prove its validity",
          "requests": "User requests"
        },
        "returns": {
          "_0": "attestations Attestations that will be recorded"
        }
      },
      "batchGenerateAttestations(address[],((uint256,uint256,bytes)[],address)[],bytes[])": {
        "details": "generate multiple attestations at once, to the same destination, generates an early user attestation",
        "params": {
          "attesters": "Attesters targeted by the attesters",
          "proofDataArray": "Data sent with each request",
          "requests": "Requests sent to attester"
        }
      },
      "buildAttestations(address,((uint256,uint256,bytes)[],address),bytes)": {
        "details": "build the attestations from a user request targeting a specific attester. Forwards to the build function of targeted attester",
        "params": {
          "attester": "Targeted attester",
          "proofData": "Data sent along the request to prove its validity",
          "request": "User request"
        },
        "returns": {
          "_0": "attestations Attestations that will be recorded"
        }
      },
      "constructor": {
        "details": "Constructor",
        "params": {
          "attestationsRegistryAddress": "Attestations registry contract address"
        }
      },
      "generateAttestations(address,((uint256,uint256,bytes)[],address),bytes)": {
        "details": "Forward a request to an attester and generates an early user attestation",
        "params": {
          "attester": "Attester targeted by the request",
          "proofData": "Data provided to the attester to back the request",
          "request": "Request sent to the attester"
        }
      }
    },
    "title": "Front",
    "version": 1
  },
  "userdoc": {
    "kind": "user",
    "methods": {},
    "notice": "This is the Front contract of the Sismo protocol Behind a proxy, it routes attestations request to the targeted attester and can perform some actions This specific implementation rewards early users with a early user attestation if they used sismo before ethcc conference For more information: https://front.docs.sismo.io",
    "version": 1
  },
  "storageLayout": {
    "storage": [],
    "types": null
  }
}