{
  "address": "0x2c45760c0902152A5E3f5335C654eFC13Af4daf7",
  "abi": [
    {
      "inputs": [
        {
          "internalType": "address",
          "name": "owner",
          "type": "address"
        }
      ],
      "stateMutability": "nonpayable",
      "type": "constructor"
    },
    {
      "inputs": [],
      "name": "CannotRegisterForZeroAddress",
      "type": "error"
    },
    {
      "inputs": [],
      "name": "CannotUnregisterForZeroAddress",
      "type": "error"
    },
    {
      "anonymous": false,
      "inputs": [
        {
          "indexed": false,
          "internalType": "uint8",
          "name": "version",
          "type": "uint8"
        }
      ],
      "name": "Initialized",
      "type": "event"
    },
    {
      "anonymous": false,
      "inputs": [
        {
          "indexed": true,
          "internalType": "address",
          "name": "previousOwner",
          "type": "address"
        },
        {
          "indexed": true,
          "internalType": "address",
          "name": "newOwner",
          "type": "address"
        }
      ],
      "name": "OwnershipTransferred",
      "type": "event"
    },
    {
      "anonymous": false,
      "inputs": [
        {
          "indexed": false,
          "internalType": "uint256",
          "name": "root",
          "type": "uint256"
        }
      ],
      "name": "RegisteredRootForAll",
      "type": "event"
    },
    {
      "anonymous": false,
      "inputs": [
        {
          "indexed": false,
          "internalType": "address",
          "name": "attester",
          "type": "address"
        },
        {
          "indexed": false,
          "internalType": "uint256",
          "name": "root",
          "type": "uint256"
        }
      ],
      "name": "RegisteredRootForAttester",
      "type": "event"
    },
    {
      "anonymous": false,
      "inputs": [
        {
          "indexed": false,
          "internalType": "uint256",
          "name": "root",
          "type": "uint256"
        }
      ],
      "name": "UnregisteredRootForAll",
      "type": "event"
    },
    {
      "anonymous": false,
      "inputs": [
        {
          "indexed": false,
          "internalType": "address",
          "name": "attester",
          "type": "address"
        },
        {
          "indexed": false,
          "internalType": "uint256",
          "name": "root",
          "type": "uint256"
        }
      ],
      "name": "UnregisteredRootForAttester",
      "type": "event"
    },
    {
      "inputs": [],
      "name": "IMPLEMENTATION_VERSION",
      "outputs": [
        {
          "internalType": "uint8",
          "name": "",
          "type": "uint8"
        }
      ],
      "stateMutability": "view",
      "type": "function"
    },
    {
      "inputs": [
        {
          "internalType": "address",
          "name": "",
          "type": "address"
        },
        {
          "internalType": "uint256",
          "name": "",
          "type": "uint256"
        }
      ],
      "name": "_roots",
      "outputs": [
        {
          "internalType": "bool",
          "name": "",
          "type": "bool"
        }
      ],
      "stateMutability": "view",
      "type": "function"
    },
    {
      "inputs": [
        {
          "internalType": "address",
          "name": "ownerAddress",
          "type": "address"
        }
      ],
      "name": "initialize",
      "outputs": [],
      "stateMutability": "nonpayable",
      "type": "function"
    },
    {
      "inputs": [
        {
          "internalType": "address",
          "name": "attester",
          "type": "address"
        },
        {
          "internalType": "uint256",
          "name": "root",
          "type": "uint256"
        }
      ],
      "name": "isRootAvailableForAttester",
      "outputs": [
        {
          "internalType": "bool",
          "name": "",
          "type": "bool"
        }
      ],
      "stateMutability": "view",
      "type": "function"
    },
    {
      "inputs": [
        {
          "internalType": "uint256",
          "name": "root",
          "type": "uint256"
        }
      ],
      "name": "isRootAvailableForMe",
      "outputs": [
        {
          "internalType": "bool",
          "name": "",
          "type": "bool"
        }
      ],
      "stateMutability": "view",
      "type": "function"
    },
    {
      "inputs": [],
      "name": "owner",
      "outputs": [
        {
          "internalType": "address",
          "name": "",
          "type": "address"
        }
      ],
      "stateMutability": "view",
      "type": "function"
    },
    {
      "inputs": [
        {
          "internalType": "uint256",
          "name": "root",
          "type": "uint256"
        }
      ],
      "name": "registerRootForAll",
      "outputs": [],
      "stateMutability": "nonpayable",
      "type": "function"
    },
    {
      "inputs": [
        {
          "internalType": "address",
          "name": "attester",
          "type": "address"
        },
        {
          "internalType": "uint256",
          "name": "root",
          "type": "uint256"
        }
      ],
      "name": "registerRootForAttester",
      "outputs": [],
      "stateMutability": "nonpayable",
      "type": "function"
    },
    {
      "inputs": [],
      "name": "renounceOwnership",
      "outputs": [],
      "stateMutability": "nonpayable",
      "type": "function"
    },
    {
      "inputs": [
        {
          "internalType": "address",
          "name": "newOwner",
          "type": "address"
        }
      ],
      "name": "transferOwnership",
      "outputs": [],
      "stateMutability": "nonpayable",
      "type": "function"
    },
    {
      "inputs": [
        {
          "internalType": "uint256",
          "name": "root",
          "type": "uint256"
        }
      ],
      "name": "unregisterRootForAll",
      "outputs": [],
      "stateMutability": "nonpayable",
      "type": "function"
    },
    {
      "inputs": [
        {
          "internalType": "address",
          "name": "attester",
          "type": "address"
        },
        {
          "internalType": "uint256",
          "name": "root",
          "type": "uint256"
        }
      ],
      "name": "unregisterRootForAttester",
      "outputs": [],
      "stateMutability": "nonpayable",
      "type": "function"
    }
  ],
  "transactionHash": "0xec4dd05d39c34bc5ae07cc921c2c7566d3d2bf77c7f0425c414c8aca9c08282a",
  "args": [
    "0x7e2305312099748bbd6a31bff27a8218edd4cbd2"
  ],
  "numDeployments": 2,
  "solcInputHash": "6edb98fea2bf424a369954d0e80655f6",
  "bytecode": "0x608060405234801561001057600080fd5b5060405161099538038061099583398101604081905261002f916101be565b61003833610047565b610041816100a2565b506101ee565b600080546001600160a01b038381166201000081810262010000600160b01b0319851617855560405193049190911692909183917f8be0079c531659141344cd1fd0a4f28419497f9722a3daafe3b4186f6b6457e091a35050565b600054600290610100900460ff161580156100c4575060005460ff8083169116105b61012b5760405162461bcd60e51b815260206004820152602e60248201527f496e697469616c697a61626c653a20636f6e747261637420697320616c72656160448201526d191e481a5b9a5d1a585b1a5e995960921b606482015260840160405180910390fd5b6000805461ffff191660ff8316176101001781556101576000546201000090046001600160a01b031690565b6001600160a01b0316148061016b5750303b155b156101795761017982610047565b6000805461ff001916905560405160ff821681527f7f26b83ff96e1f2b6a682f133852f6798a09c465da95921460cefb38474024989060200160405180910390a15050565b6000602082840312156101d057600080fd5b81516001600160a01b03811681146101e757600080fd5b9392505050565b610798806101fd6000396000f3fe608060405234801561001057600080fd5b50600436106100b45760003560e01c8063be4a605611610071578063be4a605614610170578063c4d66de814610183578063e5e477a014610196578063ebea45cb146101a9578063f2fde38b146101bc578063fe7e7750146101cf57600080fd5b80632f56be56146100b95780634e473f8f146100ce578063715018a6146100f6578063754b377c146100fe57806380b404ce146101185780638da5cb5b14610146575b600080fd5b6100cc6100c7366004610704565b6101e2565b005b6100e16100dc366004610704565b61021f565b60405190151581526020015b60405180910390f35b6100cc610285565b610106600281565b60405160ff90911681526020016100ed565b6100e1610126366004610704565b600160209081526000928352604080842090915290825290205460ff1681565b6000546201000090046001600160a01b03166040516001600160a01b0390911681526020016100ed565b6100cc61017e36600461072e565b610299565b6100cc610191366004610747565b6102af565b6100e16101a436600461072e565b6103ce565b6100cc6101b7366004610704565b61042a565b6100cc6101ca366004610747565b610463565b6100cc6101dd36600461072e565b6104d9565b6101ea6104ec565b6001600160a01b03821661021157604051639e95e88b60e01b815260040160405180910390fd5b61021b828261054d565b5050565b6001600160a01b038216600090815260016020908152604080832084845290915281205460ff168061027e575060008281527fa6eef7e35abe7026729641147f7915573c7e97b47efa546f5f6e3230263bcb49602052604090205460ff165b9392505050565b61028d6104ec565b61029760006105ef565b565b6102a16104ec565b6102ac60008261054d565b50565b600054600290610100900460ff161580156102d1575060005460ff8083169116105b6103395760405162461bcd60e51b815260206004820152602e60248201527f496e697469616c697a61626c653a20636f6e747261637420697320616c72656160448201526d191e481a5b9a5d1a585b1a5e995960921b60648201526084015b60405180910390fd5b6000805461ffff191660ff8316176101001781556103666000546001600160a01b03620100009091041690565b6001600160a01b0316148061037a5750303b155b1561038857610388826105ef565b6000805461ff001916905560405160ff821681527f7f26b83ff96e1f2b6a682f133852f6798a09c465da95921460cefb3847402498906020015b60405180910390a15050565b33600090815260016020908152604080832084845290915281205460ff1680610424575060008281527fa6eef7e35abe7026729641147f7915573c7e97b47efa546f5f6e3230263bcb49602052604090205460ff165b92915050565b6104326104ec565b6001600160a01b03821661045957604051631b25a00160e31b815260040160405180910390fd5b61021b828261064a565b61046b6104ec565b6001600160a01b0381166104d05760405162461bcd60e51b815260206004820152602660248201527f4f776e61626c653a206e6577206f776e657220697320746865207a65726f206160448201526564647265737360d01b6064820152608401610330565b6102ac816105ef565b6104e16104ec565b6102ac60008261064a565b6000546001600160a01b03620100009091041633146102975760405162461bcd60e51b815260206004820181905260248201527f4f776e61626c653a2063616c6c6572206973206e6f7420746865206f776e65726044820152606401610330565b6001600160a01b0382166000818152600160208181526040808420868552909152909120805460ff191690911790556105b0576040518181527f22f0a171f00eeea3af5276d1f77587471dcc3bde32d62560046549b34bacd38a906020016103c2565b604080516001600160a01b0384168152602081018390527f21cdff046578afe71b78f95ac4891306af3a9b9eb71e2f0ef380b35b487d2f1291016103c2565b600080546001600160a01b038381166201000081810262010000600160b01b0319851617855560405193049190911692909183917f8be0079c531659141344cd1fd0a4f28419497f9722a3daafe3b4186f6b6457e091a35050565b6001600160a01b03821660008181526001602090815260408083208584529091529020805460ff191690556106a9576040518181527f7261c2abe5e576aac50024de639315f10783f67935bf118bbb49b33c20ef70ef906020016103c2565b604080516001600160a01b0384168152602081018390527fba8195cc62a4086b7cd93d22db90e43ae42d8b5febd8c66b3453771e455b7a3391016103c2565b80356001600160a01b03811681146106ff57600080fd5b919050565b6000806040838503121561071757600080fd5b610720836106e8565b946020939093013593505050565b60006020828403121561074057600080fd5b5035919050565b60006020828403121561075957600080fd5b61027e826106e856fea264697066735822122096da5c8d33677e6203057d911bba2c609059e50119bb896ec169d0349a48641d64736f6c634300080e0033",
  "devdoc": {
    "author": "Sismo",
    "kind": "dev",
    "methods": {
      "constructor": {
        "details": "Constructor",
        "params": {
          "owner": "Owner of the contract, can register/ unregister roots"
        }
      },
      "initialize(address)": {
        "details": "Initializes the contract, to be called by the proxy delegating calls to this implementation",
        "params": {
          "ownerAddress": "Owner of the contract, can update public key and address"
        }
      },
      "isRootAvailableForAttester(address,uint256)": {
        "details": "Initializes the contract, to be called by the proxy delegating calls to this implementation",
        "params": {
          "attester": "Owner of the contract, can update public key and address",
          "root": "Owner of the contract, can update public key and address"
        }
      },
      "isRootAvailableForMe(uint256)": {
        "details": "returns whether a root is available for a caller (msg.sender)",
        "params": {
          "root": "root to check whether it is registered for me or not"
        }
      },
      "owner()": {
        "details": "Returns the address of the current owner."
      },
      "registerRootForAll(uint256)": {
        "details": "Registers a root, available for all contracts",
        "params": {
          "root": "Root to register"
        }
      },
      "registerRootForAttester(address,uint256)": {
        "details": "Register a root available for an attester",
        "params": {
          "attester": "Attester which will have the root available",
          "root": "Root to register"
        }
      },
      "renounceOwnership()": {
        "details": "Leaves the contract without owner. It will not be possible to call `onlyOwner` functions anymore. Can only be called by the current owner. NOTE: Renouncing ownership will leave the contract without an owner, thereby removing any functionality that is only available to the owner."
      },
      "transferOwnership(address)": {
        "details": "Transfers ownership of the contract to a new account (`newOwner`). Can only be called by the current owner."
      },
      "unregisterRootForAll(uint256)": {
        "details": "Unregister a root, available for all contracts",
        "params": {
          "root": "Root to unregister"
        }
      },
      "unregisterRootForAttester(address,uint256)": {
        "details": "Unregister a root for an attester",
        "params": {
          "attester": "Attester which will no longer have the root available",
          "root": "Root to unregister"
        }
      }
    },
    "title": "Attesters Groups Registry",
    "version": 1
  },
  "userdoc": {
    "kind": "user",
    "methods": {
      "initialize(address)": {
        "notice": "The reinitializer modifier is needed to configure modules that are added through upgrades and that require initialization."
      }
    },
    "notice": "This contract stores that data required by attesters to be available so they can verify user claims This contract is deployed behind a proxy and this implementation is focused on storing merkle roots For more information: https://available-roots-registry.docs.sismo.io*",
    "version": 1
  },
  "storageLayout": {
    "storage": [
      {
        "astId": 935,
        "contract": "contracts/periphery/utils/AvailableRootsRegistry.sol:AvailableRootsRegistry",
        "label": "_initialized",
        "offset": 0,
        "slot": "0",
        "type": "t_uint8"
      },
      {
        "astId": 938,
        "contract": "contracts/periphery/utils/AvailableRootsRegistry.sol:AvailableRootsRegistry",
        "label": "_initializing",
        "offset": 1,
        "slot": "0",
        "type": "t_bool"
      },
      {
        "astId": 396,
        "contract": "contracts/periphery/utils/AvailableRootsRegistry.sol:AvailableRootsRegistry",
        "label": "_owner",
        "offset": 2,
        "slot": "0",
        "type": "t_address"
      },
      {
        "astId": 15495,
        "contract": "contracts/periphery/utils/AvailableRootsRegistry.sol:AvailableRootsRegistry",
        "label": "_roots",
        "offset": 0,
        "slot": "1",
        "type": "t_mapping(t_address,t_mapping(t_uint256,t_bool))"
      }
    ],
    "types": {
      "t_address": {
        "encoding": "inplace",
        "label": "address",
        "numberOfBytes": "20"
      },
      "t_bool": {
        "encoding": "inplace",
        "label": "bool",
        "numberOfBytes": "1"
      },
      "t_mapping(t_address,t_mapping(t_uint256,t_bool))": {
        "encoding": "mapping",
        "key": "t_address",
        "label": "mapping(address => mapping(uint256 => bool))",
        "numberOfBytes": "32",
        "value": "t_mapping(t_uint256,t_bool)"
      },
      "t_mapping(t_uint256,t_bool)": {
        "encoding": "mapping",
        "key": "t_uint256",
        "label": "mapping(uint256 => bool)",
        "numberOfBytes": "32",
        "value": "t_bool"
      },
      "t_uint256": {
        "encoding": "inplace",
        "label": "uint256",
        "numberOfBytes": "32"
      },
      "t_uint8": {
        "encoding": "inplace",
        "label": "uint8",
        "numberOfBytes": "1"
      }
    }
  }
}