{
  "address": "0xeF5b2Be9a6075a61bCA4384abc375485d5e196c3",
  "abi": [
    {
      "inputs": [
        {
          "internalType": "string",
          "name": "uri",
          "type": "string"
        },
        {
          "internalType": "address",
          "name": "owner",
          "type": "address"
        }
      ],
      "stateMutability": "nonpayable",
      "type": "constructor"
    },
    {
      "inputs": [],
      "name": "BadgesNonTransferrable",
      "type": "error"
    },
    {
      "anonymous": false,
      "inputs": [
        {
          "indexed": true,
          "internalType": "address",
          "name": "account",
          "type": "address"
        },
        {
          "indexed": true,
          "internalType": "address",
          "name": "operator",
          "type": "address"
        },
        {
          "indexed": false,
          "internalType": "bool",
          "name": "approved",
          "type": "bool"
        }
      ],
      "name": "ApprovalForAll",
      "type": "event"
    },
    {
      "anonymous": false,
      "inputs": [
        {
          "indexed": false,
          "internalType": "uint8",
          "name": "version",
          "type": "uint8"
        }
      ],
      "name": "Initialized",
      "type": "event"
    },
    {
      "anonymous": false,
      "inputs": [
        {
          "indexed": true,
          "internalType": "bytes32",
          "name": "role",
          "type": "bytes32"
        },
        {
          "indexed": true,
          "internalType": "bytes32",
          "name": "previousAdminRole",
          "type": "bytes32"
        },
        {
          "indexed": true,
          "internalType": "bytes32",
          "name": "newAdminRole",
          "type": "bytes32"
        }
      ],
      "name": "RoleAdminChanged",
      "type": "event"
    },
    {
      "anonymous": false,
      "inputs": [
        {
          "indexed": true,
          "internalType": "bytes32",
          "name": "role",
          "type": "bytes32"
        },
        {
          "indexed": true,
          "internalType": "address",
          "name": "account",
          "type": "address"
        },
        {
          "indexed": true,
          "internalType": "address",
          "name": "sender",
          "type": "address"
        }
      ],
      "name": "RoleGranted",
      "type": "event"
    },
    {
      "anonymous": false,
      "inputs": [
        {
          "indexed": true,
          "internalType": "bytes32",
          "name": "role",
          "type": "bytes32"
        },
        {
          "indexed": true,
          "internalType": "address",
          "name": "account",
          "type": "address"
        },
        {
          "indexed": true,
          "internalType": "address",
          "name": "sender",
          "type": "address"
        }
      ],
      "name": "RoleRevoked",
      "type": "event"
    },
    {
      "anonymous": false,
      "inputs": [
        {
          "indexed": true,
          "internalType": "address",
          "name": "operator",
          "type": "address"
        },
        {
          "indexed": true,
          "internalType": "address",
          "name": "from",
          "type": "address"
        },
        {
          "indexed": true,
          "internalType": "address",
          "name": "to",
          "type": "address"
        },
        {
          "indexed": false,
          "internalType": "uint256[]",
          "name": "ids",
          "type": "uint256[]"
        },
        {
          "indexed": false,
          "internalType": "uint256[]",
          "name": "values",
          "type": "uint256[]"
        }
      ],
      "name": "TransferBatch",
      "type": "event"
    },
    {
      "anonymous": false,
      "inputs": [
        {
          "indexed": true,
          "internalType": "address",
          "name": "operator",
          "type": "address"
        },
        {
          "indexed": true,
          "internalType": "address",
          "name": "from",
          "type": "address"
        },
        {
          "indexed": true,
          "internalType": "address",
          "name": "to",
          "type": "address"
        },
        {
          "indexed": false,
          "internalType": "uint256",
          "name": "id",
          "type": "uint256"
        },
        {
          "indexed": false,
          "internalType": "uint256",
          "name": "value",
          "type": "uint256"
        }
      ],
      "name": "TransferSingle",
      "type": "event"
    },
    {
      "anonymous": false,
      "inputs": [
        {
          "indexed": false,
          "internalType": "string",
          "name": "value",
          "type": "string"
        },
        {
          "indexed": true,
          "internalType": "uint256",
          "name": "id",
          "type": "uint256"
        }
      ],
      "name": "URI",
      "type": "event"
    },
    {
      "inputs": [],
      "name": "DEFAULT_ADMIN_ROLE",
      "outputs": [
        {
          "internalType": "bytes32",
          "name": "",
          "type": "bytes32"
        }
      ],
      "stateMutability": "view",
      "type": "function"
    },
    {
      "inputs": [],
      "name": "EVENT_TRIGGERER_ROLE",
      "outputs": [
        {
          "internalType": "bytes32",
          "name": "",
          "type": "bytes32"
        }
      ],
      "stateMutability": "view",
      "type": "function"
    },
    {
      "inputs": [
        {
          "internalType": "address",
          "name": "account",
          "type": "address"
        },
        {
          "internalType": "uint256",
          "name": "id",
          "type": "uint256"
        }
      ],
      "name": "balanceOf",
      "outputs": [
        {
          "internalType": "uint256",
          "name": "",
          "type": "uint256"
        }
      ],
      "stateMutability": "view",
      "type": "function"
    },
    {
      "inputs": [
        {
          "internalType": "address[]",
          "name": "accounts",
          "type": "address[]"
        },
        {
          "internalType": "uint256[]",
          "name": "ids",
          "type": "uint256[]"
        }
      ],
      "name": "balanceOfBatch",
      "outputs": [
        {
          "internalType": "uint256[]",
          "name": "",
          "type": "uint256[]"
        }
      ],
      "stateMutability": "view",
      "type": "function"
    },
    {
      "inputs": [],
      "name": "getAttestationsRegistry",
      "outputs": [
        {
          "internalType": "address",
          "name": "",
          "type": "address"
        }
      ],
      "stateMutability": "view",
      "type": "function"
    },
    {
      "inputs": [
        {
          "internalType": "bytes32",
          "name": "role",
          "type": "bytes32"
        }
      ],
      "name": "getRoleAdmin",
      "outputs": [
        {
          "internalType": "bytes32",
          "name": "",
          "type": "bytes32"
        }
      ],
      "stateMutability": "view",
      "type": "function"
    },
    {
      "inputs": [
        {
          "internalType": "bytes32",
          "name": "role",
          "type": "bytes32"
        },
        {
          "internalType": "address",
          "name": "account",
          "type": "address"
        }
      ],
      "name": "grantRole",
      "outputs": [],
      "stateMutability": "nonpayable",
      "type": "function"
    },
    {
      "inputs": [
        {
          "internalType": "bytes32",
          "name": "role",
          "type": "bytes32"
        },
        {
          "internalType": "address",
          "name": "account",
          "type": "address"
        }
      ],
      "name": "hasRole",
      "outputs": [
        {
          "internalType": "bool",
          "name": "",
          "type": "bool"
        }
      ],
      "stateMutability": "view",
      "type": "function"
    },
    {
      "inputs": [
        {
          "internalType": "string",
          "name": "uri",
          "type": "string"
        },
        {
          "internalType": "address",
          "name": "owner",
          "type": "address"
        }
      ],
      "name": "initialize",
      "outputs": [],
      "stateMutability": "nonpayable",
      "type": "function"
    },
    {
      "inputs": [
        {
          "internalType": "address",
          "name": "account",
          "type": "address"
        },
        {
          "internalType": "address",
          "name": "operator",
          "type": "address"
        }
      ],
      "name": "isApprovedForAll",
      "outputs": [
        {
          "internalType": "bool",
          "name": "",
          "type": "bool"
        }
      ],
      "stateMutability": "view",
      "type": "function"
    },
    {
      "inputs": [
        {
          "internalType": "bytes32",
          "name": "role",
          "type": "bytes32"
        },
        {
          "internalType": "address",
          "name": "account",
          "type": "address"
        }
      ],
      "name": "renounceRole",
      "outputs": [],
      "stateMutability": "nonpayable",
      "type": "function"
    },
    {
      "inputs": [
        {
          "internalType": "bytes32",
          "name": "role",
          "type": "bytes32"
        },
        {
          "internalType": "address",
          "name": "account",
          "type": "address"
        }
      ],
      "name": "revokeRole",
      "outputs": [],
      "stateMutability": "nonpayable",
      "type": "function"
    },
    {
      "inputs": [
        {
          "internalType": "address",
          "name": "from",
          "type": "address"
        },
        {
          "internalType": "address",
          "name": "to",
          "type": "address"
        },
        {
          "internalType": "uint256[]",
          "name": "ids",
          "type": "uint256[]"
        },
        {
          "internalType": "uint256[]",
          "name": "amounts",
          "type": "uint256[]"
        },
        {
          "internalType": "bytes",
          "name": "data",
          "type": "bytes"
        }
      ],
      "name": "safeBatchTransferFrom",
      "outputs": [],
      "stateMutability": "nonpayable",
      "type": "function"
    },
    {
      "inputs": [
        {
          "internalType": "address",
          "name": "from",
          "type": "address"
        },
        {
          "internalType": "address",
          "name": "to",
          "type": "address"
        },
        {
          "internalType": "uint256",
          "name": "id",
          "type": "uint256"
        },
        {
          "internalType": "uint256",
          "name": "amount",
          "type": "uint256"
        },
        {
          "internalType": "bytes",
          "name": "data",
          "type": "bytes"
        }
      ],
      "name": "safeTransferFrom",
      "outputs": [],
      "stateMutability": "nonpayable",
      "type": "function"
    },
    {
      "inputs": [
        {
          "internalType": "address",
          "name": "operator",
          "type": "address"
        },
        {
          "internalType": "bool",
          "name": "approved",
          "type": "bool"
        }
      ],
      "name": "setApprovalForAll",
      "outputs": [],
      "stateMutability": "nonpayable",
      "type": "function"
    },
    {
      "inputs": [
        {
          "internalType": "address",
          "name": "attestationsRegistry",
          "type": "address"
        }
      ],
      "name": "setAttestationsRegistry",
      "outputs": [],
      "stateMutability": "nonpayable",
      "type": "function"
    },
    {
      "inputs": [
        {
          "internalType": "string",
          "name": "uri",
          "type": "string"
        }
      ],
      "name": "setUri",
      "outputs": [],
      "stateMutability": "nonpayable",
      "type": "function"
    },
    {
      "inputs": [
        {
          "internalType": "bytes4",
          "name": "interfaceId",
          "type": "bytes4"
        }
      ],
      "name": "supportsInterface",
      "outputs": [
        {
          "internalType": "bool",
          "name": "",
          "type": "bool"
        }
      ],
      "stateMutability": "view",
      "type": "function"
    },
    {
      "inputs": [
        {
          "internalType": "address",
          "name": "operator",
          "type": "address"
        },
        {
          "internalType": "address",
          "name": "from",
          "type": "address"
        },
        {
          "internalType": "address",
          "name": "to",
          "type": "address"
        },
        {
          "internalType": "uint256",
          "name": "id",
          "type": "uint256"
        },
        {
          "internalType": "uint256",
          "name": "value",
          "type": "uint256"
        }
      ],
      "name": "triggerTransferEvent",
      "outputs": [],
      "stateMutability": "nonpayable",
      "type": "function"
    },
    {
      "inputs": [
        {
          "internalType": "uint256",
          "name": "",
          "type": "uint256"
        }
      ],
      "name": "uri",
      "outputs": [
        {
          "internalType": "string",
          "name": "",
          "type": "string"
        }
      ],
      "stateMutability": "view",
      "type": "function"
    }
  ],
  "transactionHash": "0x44779aaab645e183e32b6763cd9f9387dcb0cd0cb51622c64b05679e8a79b60e",
  "args": [
    "https://metadata-dev.badges.zikies.io/default-badges/local/{id}.json",
    "0xb01ee322C4f028B8A6BFcD2a5d48107dc5bC99EC"
  ],
  "numDeployments": 1,
  "solcInputHash": "166704d46dbd9cfd00d5a3cb8077a32e",
  "bytecode": "0x60806040523480156200001157600080fd5b506040516200215c3803806200215c83398101604081905262000034916200031f565b81620000408162000055565b506200004d82826200006e565b50506200044c565b80516200006a90600490602084019062000246565b5050565b600054610100900460ff16158080156200008f5750600054600160ff909116105b80620000bf5750620000ac30620001af60201b620009131760201c565b158015620000bf575060005460ff166001145b620001275760405162461bcd60e51b815260206004820152602e60248201527f496e697469616c697a61626c653a20636f6e747261637420697320616c72656160448201526d191e481a5b9a5d1a585b1a5e995960921b606482015260840160405180910390fd5b6000805460ff1916600117905580156200014b576000805461ff0019166101001790555b620001568362000055565b62000163600083620001be565b8015620001aa576000805461ff0019169055604051600181527f7f26b83ff96e1f2b6a682f133852f6798a09c465da95921460cefb38474024989060200160405180910390a15b505050565b6001600160a01b03163b151590565b60008281526001602090815260408083206001600160a01b038516845290915290205460ff166200006a5760008281526001602081815260408084206001600160a01b0386168086529252808420805460ff19169093179092559051339285917f2f8788117e7eff1d82e926ec794901d17c78024a50270940304540a733656f0d9190a45050565b828054620002549062000410565b90600052602060002090601f016020900481019282620002785760008555620002c3565b82601f106200029357805160ff1916838001178555620002c3565b82800160010185558215620002c3579182015b82811115620002c3578251825591602001919060010190620002a6565b50620002d1929150620002d5565b5090565b5b80821115620002d15760008155600101620002d6565b634e487b7160e01b600052604160045260246000fd5b80516001600160a01b03811681146200031a57600080fd5b919050565b600080604083850312156200033357600080fd5b82516001600160401b03808211156200034b57600080fd5b818501915085601f8301126200036057600080fd5b815181811115620003755762000375620002ec565b604051601f8201601f19908116603f01168101908382118183101715620003a057620003a0620002ec565b81604052828152602093508884848701011115620003bd57600080fd5b600091505b82821015620003e15784820184015181830185015290830190620003c2565b82821115620003f35760008484830101525b95506200040591505085820162000302565b925050509250929050565b600181811c908216806200042557607f821691505b6020821081036200044657634e487b7160e01b600052602260045260246000fd5b50919050565b611d00806200045c6000396000f3fe608060405234801561001057600080fd5b506004361061012b5760003560e01c8063730cb7d5116100ad578063a22cb46511610071578063a22cb465146102ae578063b3c1cb21146102c1578063d547741f146102d4578063e985e9c5146102e7578063f242432a146102fa57600080fd5b8063730cb7d5146102525780637ab4339d1461026d57806391d14854146102805780639b642de114610293578063a217fddf146102a657600080fd5b80632f2ff15d116100f45780632f2ff15d146101d257806336568abe146101e557806344112ed8146101f85780634e1273f41461021f578063710b30961461023f57600080fd5b8062fdd58e1461013057806301ffc9a7146101565780630e89341c14610179578063248a9ca3146101995780632eb2c2d6146101bd575b600080fd5b61014361013e3660046112d9565b61030d565b6040519081526020015b60405180910390f35b610169610164366004611319565b61038a565b604051901515815260200161014d565b61018c610187366004611336565b61039b565b60405161014d91906113ab565b6101436101a7366004611336565b6000908152600160208190526040909120015490565b6101d06101cb36600461150a565b61042f565b005b6101d06101e03660046115b4565b610484565b6101d06101f33660046115b4565b6104af565b6101437fe6cd5415a09470f57cb652d653ef635ecd9a997fef2537decaf18eb7545b7fa481565b61023261022d3660046115e0565b61052d565b60405161014d91906116e6565b6101d061024d3660046116f9565b610657565b6005546040516001600160a01b03909116815260200161014d565b6101d061027b36600461174e565b6106e9565b61016961028e3660046115b4565b610807565b6101d06102a1366004611793565b610832565b610143600081565b6101d06102bc3660046117d0565b610846565b6101d06102cf36600461180c565b61085f565b6101d06102e23660046115b4565b61088d565b6101696102f5366004611827565b6108b3565b6101d0610308366004611851565b6108ce565b60055460405163461e4f1960e11b8152600481018390526001600160a01b0384811660248301526000921690638c3c9e3290604401602060405180830381865afa15801561035f573d6000803e3d6000fd5b505050506040513d601f19601f8201168201806040525081019061038391906118b6565b9392505050565b600061039582610922565b92915050565b6060600480546103aa906118cf565b80601f01602080910402602001604051908101604052809291908181526020018280546103d6906118cf565b80156104235780601f106103f857610100808354040283529160200191610423565b820191906000526020600020905b81548152906001019060200180831161040657829003601f168201915b50505050509050919050565b6001600160a01b03851633148061044b575061044b85336108b3565b6104705760405162461bcd60e51b815260040161046790611909565b60405180910390fd5b61047d8585858585610962565b5050505050565b600082815260016020819052604090912001546104a081610b50565b6104aa8383610b5d565b505050565b6001600160a01b038116331461051f5760405162461bcd60e51b815260206004820152602f60248201527f416363657373436f6e74726f6c3a2063616e206f6e6c792072656e6f756e636560448201526e103937b632b9903337b91039b2b63360891b6064820152608401610467565b6105298282610bc8565b5050565b606081518351146105925760405162461bcd60e51b815260206004820152602960248201527f455243313135353a206163636f756e747320616e6420696473206c656e677468604482015268040dad2e6dac2e8c6d60bb1b6064820152608401610467565b6000835167ffffffffffffffff8111156105ae576105ae6113be565b6040519080825280602002602001820160405280156105d7578160200160208202803683370190505b50905060005b845181101561064f576106228582815181106105fb576105fb611957565b602002602001015185838151811061061557610615611957565b602002602001015161030d565b82828151811061063457610634611957565b602090810291909101015261064881611983565b90506105dd565b509392505050565b7fe6cd5415a09470f57cb652d653ef635ecd9a997fef2537decaf18eb7545b7fa461068181610b50565b836001600160a01b0316856001600160a01b0316876001600160a01b03167fc3d58168c5ae7397731d063d5bbf3d657854427343f4c083240f7aacaa2d0f6286866040516106d9929190918252602082015260400190565b60405180910390a4505050505050565b600054610100900460ff16158080156107095750600054600160ff909116105b806107235750303b158015610723575060005460ff166001145b6107865760405162461bcd60e51b815260206004820152602e60248201527f496e697469616c697a61626c653a20636f6e747261637420697320616c72656160448201526d191e481a5b9a5d1a585b1a5e995960921b6064820152608401610467565b6000805460ff1916600117905580156107a9576000805461ff0019166101001790555b6107b283610c2f565b6107bd600083610b5d565b80156104aa576000805461ff0019169055604051600181527f7f26b83ff96e1f2b6a682f133852f6798a09c465da95921460cefb38474024989060200160405180910390a1505050565b60009182526001602090815260408084206001600160a01b0393909316845291905290205460ff1690565b600061083d81610b50565b61052982610c2f565b6040516309a711b960e31b815260040160405180910390fd5b600061086a81610b50565b50600580546001600160a01b0319166001600160a01b0392909216919091179055565b600082815260016020819052604090912001546108a981610b50565b6104aa8383610bc8565b60006040516309a711b960e31b815260040160405180910390fd5b6001600160a01b0385163314806108ea57506108ea85336108b3565b6109065760405162461bcd60e51b815260040161046790611909565b61047d8585858585610c42565b6001600160a01b03163b151590565b60006001600160e01b03198216636cdb3d1360e11b148061095357506001600160e01b031982166303a24d0760e21b145b80610395575061039582610d7e565b81518351146109c45760405162461bcd60e51b815260206004820152602860248201527f455243313135353a2069647320616e6420616d6f756e7473206c656e677468206044820152670dad2e6dac2e8c6d60c31b6064820152608401610467565b6001600160a01b0384166109ea5760405162461bcd60e51b81526004016104679061199c565b336109f9818787878787610846565b60005b8451811015610ae2576000858281518110610a1957610a19611957565b602002602001015190506000858381518110610a3757610a37611957565b60209081029190910181015160008481526002835260408082206001600160a01b038e168352909352919091205490915081811015610a885760405162461bcd60e51b8152600401610467906119e1565b60008381526002602090815260408083206001600160a01b038e8116855292528083208585039055908b16825281208054849290610ac7908490611a2b565b9250508190555050505080610adb90611983565b90506109fc565b50846001600160a01b0316866001600160a01b0316826001600160a01b03167f4a39dc06d4c0dbc64b70af90fd698a233a518aa5d07e595d983b8c0526c8f7fb8787604051610b32929190611a43565b60405180910390a4610b48818787878787610db3565b505050505050565b610b5a8133610f17565b50565b610b678282610807565b6105295760008281526001602081815260408084206001600160a01b0386168086529252808420805460ff19169093179092559051339285917f2f8788117e7eff1d82e926ec794901d17c78024a50270940304540a733656f0d9190a45050565b610bd28282610807565b156105295760008281526001602090815260408083206001600160a01b0385168085529252808320805460ff1916905551339285917ff6391f5c32d9c69d2a47ea670b442974b53935d1edc7fd64eb21e047a839171b9190a45050565b8051610529906004906020840190611224565b6001600160a01b038416610c685760405162461bcd60e51b81526004016104679061199c565b336000610c7485610f70565b90506000610c8185610f70565b9050610c91838989858589610846565b60008681526002602090815260408083206001600160a01b038c16845290915290205485811015610cd45760405162461bcd60e51b8152600401610467906119e1565b60008781526002602090815260408083206001600160a01b038d8116855292528083208985039055908a16825281208054889290610d13908490611a2b565b909155505060408051888152602081018890526001600160a01b03808b16928c821692918816917fc3d58168c5ae7397731d063d5bbf3d657854427343f4c083240f7aacaa2d0f62910160405180910390a4610d73848a8a8a8a8a610fbb565b505050505050505050565b60006001600160e01b03198216637965db0b60e01b148061039557506301ffc9a760e01b6001600160e01b0319831614610395565b6001600160a01b0384163b15610b485760405163bc197c8160e01b81526001600160a01b0385169063bc197c8190610df79089908990889088908890600401611a71565b6020604051808303816000875af1925050508015610e32575060408051601f3d908101601f19168201909252610e2f91810190611acf565b60015b610ede57610e3e611aec565b806308c379a003610e775750610e52611b08565b80610e5d5750610e79565b8060405162461bcd60e51b815260040161046791906113ab565b505b60405162461bcd60e51b815260206004820152603460248201527f455243313135353a207472616e7366657220746f206e6f6e2d455243313135356044820152732932b1b2b4bb32b91034b6b83632b6b2b73a32b960611b6064820152608401610467565b6001600160e01b0319811663bc197c8160e01b14610f0e5760405162461bcd60e51b815260040161046790611b92565b50505050505050565b610f218282610807565b61052957610f2e81611076565b610f39836020611088565b604051602001610f4a929190611bda565b60408051601f198184030181529082905262461bcd60e51b8252610467916004016113ab565b60408051600180825281830190925260609160009190602080830190803683370190505090508281600081518110610faa57610faa611957565b602090810291909101015292915050565b6001600160a01b0384163b15610b485760405163f23a6e6160e01b81526001600160a01b0385169063f23a6e6190610fff9089908990889088908890600401611c4f565b6020604051808303816000875af192505050801561103a575060408051601f3d908101601f1916820190925261103791810190611acf565b60015b61104657610e3e611aec565b6001600160e01b0319811663f23a6e6160e01b14610f0e5760405162461bcd60e51b815260040161046790611b92565b60606103956001600160a01b03831660145b60606000611097836002611c94565b6110a2906002611a2b565b67ffffffffffffffff8111156110ba576110ba6113be565b6040519080825280601f01601f1916602001820160405280156110e4576020820181803683370190505b509050600360fc1b816000815181106110ff576110ff611957565b60200101906001600160f81b031916908160001a905350600f60fb1b8160018151811061112e5761112e611957565b60200101906001600160f81b031916908160001a9053506000611152846002611c94565b61115d906001611a2b565b90505b60018111156111d5576f181899199a1a9b1b9c1cb0b131b232b360811b85600f166010811061119157611191611957565b1a60f81b8282815181106111a7576111a7611957565b60200101906001600160f81b031916908160001a90535060049490941c936111ce81611cb3565b9050611160565b5083156103835760405162461bcd60e51b815260206004820181905260248201527f537472696e67733a20686578206c656e67746820696e73756666696369656e746044820152606401610467565b828054611230906118cf565b90600052602060002090601f0160209004810192826112525760008555611298565b82601f1061126b57805160ff1916838001178555611298565b82800160010185558215611298579182015b8281111561129857825182559160200191906001019061127d565b506112a49291506112a8565b5090565b5b808211156112a457600081556001016112a9565b80356001600160a01b03811681146112d457600080fd5b919050565b600080604083850312156112ec57600080fd5b6112f5836112bd565b946020939093013593505050565b6001600160e01b031981168114610b5a57600080fd5b60006020828403121561132b57600080fd5b813561038381611303565b60006020828403121561134857600080fd5b5035919050565b60005b8381101561136a578181015183820152602001611352565b83811115611379576000848401525b50505050565b6000815180845261139781602086016020860161134f565b601f01601f19169290920160200192915050565b602081526000610383602083018461137f565b634e487b7160e01b600052604160045260246000fd5b601f8201601f1916810167ffffffffffffffff811182821017156113fa576113fa6113be565b6040525050565b600067ffffffffffffffff82111561141b5761141b6113be565b5060051b60200190565b600082601f83011261143657600080fd5b8135602061144382611401565b60405161145082826113d4565b83815260059390931b850182019282810191508684111561147057600080fd5b8286015b8481101561148b5780358352918301918301611474565b509695505050505050565b600082601f8301126114a757600080fd5b813567ffffffffffffffff8111156114c1576114c16113be565b6040516114d8601f8301601f1916602001826113d4565b8181528460208386010111156114ed57600080fd5b816020850160208301376000918101602001919091529392505050565b600080600080600060a0868803121561152257600080fd5b61152b866112bd565b9450611539602087016112bd565b9350604086013567ffffffffffffffff8082111561155657600080fd5b61156289838a01611425565b9450606088013591508082111561157857600080fd5b61158489838a01611425565b9350608088013591508082111561159a57600080fd5b506115a788828901611496565b9150509295509295909350565b600080604083850312156115c757600080fd5b823591506115d7602084016112bd565b90509250929050565b600080604083850312156115f357600080fd5b823567ffffffffffffffff8082111561160b57600080fd5b818501915085601f83011261161f57600080fd5b8135602061162c82611401565b60405161163982826113d4565b83815260059390931b850182019282810191508984111561165957600080fd5b948201945b8386101561167e5761166f866112bd565b8252948201949082019061165e565b9650508601359250508082111561169457600080fd5b506116a185828601611425565b9150509250929050565b600081518084526020808501945080840160005b838110156116db578151875295820195908201906001016116bf565b509495945050505050565b60208152600061038360208301846116ab565b600080600080600060a0868803121561171157600080fd5b61171a866112bd565b9450611728602087016112bd565b9350611736604087016112bd565b94979396509394606081013594506080013592915050565b6000806040838503121561176157600080fd5b823567ffffffffffffffff81111561177857600080fd5b61178485828601611496565b9250506115d7602084016112bd565b6000602082840312156117a557600080fd5b813567ffffffffffffffff8111156117bc57600080fd5b6117c884828501611496565b949350505050565b600080604083850312156117e357600080fd5b6117ec836112bd565b91506020830135801515811461180157600080fd5b809150509250929050565b60006020828403121561181e57600080fd5b610383826112bd565b6000806040838503121561183a57600080fd5b611843836112bd565b91506115d7602084016112bd565b600080600080600060a0868803121561186957600080fd5b611872866112bd565b9450611880602087016112bd565b93506040860135925060608601359150608086013567ffffffffffffffff8111156118aa57600080fd5b6115a788828901611496565b6000602082840312156118c857600080fd5b5051919050565b600181811c908216806118e357607f821691505b60208210810361190357634e487b7160e01b600052602260045260246000fd5b50919050565b6020808252602e908201527f455243313135353a2063616c6c6572206973206e6f7420746f6b656e206f776e60408201526d195c881bdc88185c1c1c9bdd995960921b606082015260800190565b634e487b7160e01b600052603260045260246000fd5b634e487b7160e01b600052601160045260246000fd5b6000600182016119955761199561196d565b5060010190565b60208082526025908201527f455243313135353a207472616e7366657220746f20746865207a65726f206164604082015264647265737360d81b606082015260800190565b6020808252602a908201527f455243313135353a20696e73756666696369656e742062616c616e636520666f60408201526939103a3930b739b332b960b11b606082015260800190565b60008219821115611a3e57611a3e61196d565b500190565b604081526000611a5660408301856116ab565b8281036020840152611a6881856116ab565b95945050505050565b6001600160a01b0386811682528516602082015260a060408201819052600090611a9d908301866116ab565b8281036060840152611aaf81866116ab565b90508281036080840152611ac3818561137f565b98975050505050505050565b600060208284031215611ae157600080fd5b815161038381611303565b600060033d1115611b055760046000803e5060005160e01c5b90565b600060443d1015611b165790565b6040516003193d81016004833e81513d67ffffffffffffffff8160248401118184111715611b4657505050505090565b8285019150815181811115611b5e5750505050505090565b843d8701016020828501011115611b785750505050505090565b611b87602082860101876113d4565b509095945050505050565b60208082526028908201527f455243313135353a204552433131353552656365697665722072656a656374656040820152676420746f6b656e7360c01b606082015260800190565b7f416363657373436f6e74726f6c3a206163636f756e7420000000000000000000815260008351611c1281601785016020880161134f565b7001034b99036b4b9b9b4b733903937b6329607d1b6017918401918201528351611c4381602884016020880161134f565b01602801949350505050565b6001600160a01b03868116825285166020820152604081018490526060810183905260a060808201819052600090611c899083018461137f565b979650505050505050565b6000816000190483118215151615611cae57611cae61196d565b500290565b600081611cc257611cc261196d565b50600019019056fea264697066735822122062a592dfd80ccf42304d4bf0cdaa8a534ef88fb548bd20de9458cac3dc11834a64736f6c634300080e0033",
  "devdoc": {
    "author": "Sismo",
    "kind": "dev",
    "methods": {
      "balanceOf(address,uint256)": {
        "details": "Main function of the ERC1155 badge The balance of a user is equal to the value of the underlying attestation. attestationCollectionId == badgeId",
        "params": {
          "account": "Address to check badge balance (= value of attestation)",
          "id": "Badge Id to check (= attestationCollectionId)"
        }
      },
      "balanceOfBatch(address[],uint256[])": {
        "details": "See {IERC1155-balanceOfBatch}. Requirements: - `accounts` and `ids` must have the same length."
      },
      "constructor": {
        "details": "Constructor",
        "params": {
          "owner": "Owner of the contract, super admin, can setup roles and update the attestation registry",
          "uri": "Uri for the metadata of badges"
        }
      },
      "getAttestationsRegistry()": {
        "details": "Getter of the attestations registry"
      },
      "getRoleAdmin(bytes32)": {
        "details": "Returns the admin role that controls `role`. See {grantRole} and {revokeRole}. To change a role's admin, use {_setRoleAdmin}."
      },
      "grantRole(bytes32,address)": {
        "details": "Grants `role` to `account`. If `account` had not been already granted `role`, emits a {RoleGranted} event. Requirements: - the caller must have ``role``'s admin role. May emit a {RoleGranted} event."
      },
      "hasRole(bytes32,address)": {
        "details": "Returns `true` if `account` has been granted `role`."
      },
      "initialize(string,address)": {
        "details": "Initializes the contract, to be called by the proxy delegating calls to this implementation",
        "params": {
          "owner": "Owner of the contract, super admin, can setup roles and update the attestation registry",
          "uri": "Uri for the metadata of badges"
        }
      },
      "isApprovedForAll(address,address)": {
        "details": "Reverts, this is a non transferable ERC115 contract"
      },
      "renounceRole(bytes32,address)": {
        "details": "Revokes `role` from the calling account. Roles are often managed via {grantRole} and {revokeRole}: this function's purpose is to provide a mechanism for accounts to lose their privileges if they are compromised (such as when a trusted device is misplaced). If the calling account had been revoked `role`, emits a {RoleRevoked} event. Requirements: - the caller must be `account`. May emit a {RoleRevoked} event."
      },
      "revokeRole(bytes32,address)": {
        "details": "Revokes `role` from `account`. If `account` had been granted `role`, emits a {RoleRevoked} event. Requirements: - the caller must have ``role``'s admin role. May emit a {RoleRevoked} event."
      },
      "safeBatchTransferFrom(address,address,uint256[],uint256[],bytes)": {
        "details": "See {IERC1155-safeBatchTransferFrom}."
      },
      "safeTransferFrom(address,address,uint256,uint256,bytes)": {
        "details": "See {IERC1155-safeTransferFrom}."
      },
      "setApprovalForAll(address,bool)": {
        "details": "Reverts, this is a non transferable ERC115 contract"
      },
      "setAttestationsRegistry(address)": {
        "details": "Set the attestations registry address. Can only be called by owner (default admin)",
        "params": {
          "attestationsRegistry": "new attestations registry address"
        }
      },
      "setUri(string)": {
        "details": "Set the URI. Can only be called by owner (default admin)",
        "params": {
          "uri": "new attestations registry address"
        }
      },
      "supportsInterface(bytes4)": {
        "details": "ERC165"
      },
      "triggerTransferEvent(address,address,address,uint256,uint256)": {
        "details": "Emits a TransferSingle event, so subgraphs and other off-chain apps relying on events can see badge minting/burning can only be called by address having the EVENT_TRIGGERER_ROLE (attestations registry address)",
        "params": {
          "from": "address(0) if minting, address of the badge holder if burning",
          "id": "badgeId for which to trigger the event",
          "operator": "who is calling the TransferEvent",
          "to": "address of the badge holder is minting, address(0) if burning",
          "value": "minted/burned balance"
        }
      },
      "uri(uint256)": {
        "details": "See {IERC1155MetadataURI-uri}. This implementation returns the same URI for *all* token types. It relies on the token type ID substitution mechanism https://eips.ethereum.org/EIPS/eip-1155#metadata[defined in the EIP]. Clients calling this function must replace the `\\{id\\}` substring with the actual token type ID."
      }
    },
    "title": "Badges contract",
    "version": 1
  },
  "userdoc": {
    "kind": "user",
    "methods": {},
    "notice": "Stateless, Non-transferrable ERC1155 contract. Reads balance from the values of attestations The associated attestations registry triggers TransferSingle events from this contract It allows badge \"shadow mints and burns\" to be caught by off-chain platforms For more information: https://badges.docs.sismo.io",
    "version": 1
  },
  "storageLayout": {
    "storage": [
      {
        "astId": 935,
        "contract": "contracts/core/Badges.sol:Badges",
        "label": "_initialized",
        "offset": 0,
        "slot": "0",
        "type": "t_uint8"
      },
      {
        "astId": 938,
        "contract": "contracts/core/Badges.sol:Badges",
        "label": "_initializing",
        "offset": 1,
        "slot": "0",
        "type": "t_bool"
      },
      {
        "astId": 24,
        "contract": "contracts/core/Badges.sol:Badges",
        "label": "_roles",
        "offset": 0,
        "slot": "1",
        "type": "t_mapping(t_bytes32,t_struct(RoleData)19_storage)"
      },
      {
        "astId": 1231,
        "contract": "contracts/core/Badges.sol:Badges",
        "label": "_balances",
        "offset": 0,
        "slot": "2",
        "type": "t_mapping(t_uint256,t_mapping(t_address,t_uint256))"
      },
      {
        "astId": 1237,
        "contract": "contracts/core/Badges.sol:Badges",
        "label": "_operatorApprovals",
        "offset": 0,
        "slot": "3",
        "type": "t_mapping(t_address,t_mapping(t_address,t_bool))"
      },
      {
        "astId": 1239,
        "contract": "contracts/core/Badges.sol:Badges",
        "label": "_uri",
        "offset": 0,
        "slot": "4",
        "type": "t_string_storage"
      },
      {
        "astId": 12407,
        "contract": "contracts/core/Badges.sol:Badges",
        "label": "_attestationsRegistry",
        "offset": 0,
        "slot": "5",
        "type": "t_contract(IAttestationsRegistry)13127"
      }
    ],
    "types": {
      "t_address": {
        "encoding": "inplace",
        "label": "address",
        "numberOfBytes": "20"
      },
      "t_bool": {
        "encoding": "inplace",
        "label": "bool",
        "numberOfBytes": "1"
      },
      "t_bytes32": {
        "encoding": "inplace",
        "label": "bytes32",
        "numberOfBytes": "32"
      },
      "t_contract(IAttestationsRegistry)13127": {
        "encoding": "inplace",
        "label": "contract IAttestationsRegistry",
        "numberOfBytes": "20"
      },
      "t_mapping(t_address,t_bool)": {
        "encoding": "mapping",
        "key": "t_address",
        "label": "mapping(address => bool)",
        "numberOfBytes": "32",
        "value": "t_bool"
      },
      "t_mapping(t_address,t_mapping(t_address,t_bool))": {
        "encoding": "mapping",
        "key": "t_address",
        "label": "mapping(address => mapping(address => bool))",
        "numberOfBytes": "32",
        "value": "t_mapping(t_address,t_bool)"
      },
      "t_mapping(t_address,t_uint256)": {
        "encoding": "mapping",
        "key": "t_address",
        "label": "mapping(address => uint256)",
        "numberOfBytes": "32",
        "value": "t_uint256"
      },
      "t_mapping(t_bytes32,t_struct(RoleData)19_storage)": {
        "encoding": "mapping",
        "key": "t_bytes32",
        "label": "mapping(bytes32 => struct AccessControl.RoleData)",
        "numberOfBytes": "32",
        "value": "t_struct(RoleData)19_storage"
      },
      "t_mapping(t_uint256,t_mapping(t_address,t_uint256))": {
        "encoding": "mapping",
        "key": "t_uint256",
        "label": "mapping(uint256 => mapping(address => uint256))",
        "numberOfBytes": "32",
        "value": "t_mapping(t_address,t_uint256)"
      },
      "t_string_storage": {
        "encoding": "bytes",
        "label": "string",
        "numberOfBytes": "32"
      },
      "t_struct(RoleData)19_storage": {
        "encoding": "inplace",
        "label": "struct AccessControl.RoleData",
        "members": [
          {
            "astId": 16,
            "contract": "contracts/core/Badges.sol:Badges",
            "label": "members",
            "offset": 0,
            "slot": "0",
            "type": "t_mapping(t_address,t_bool)"
          },
          {
            "astId": 18,
            "contract": "contracts/core/Badges.sol:Badges",
            "label": "adminRole",
            "offset": 0,
            "slot": "1",
            "type": "t_bytes32"
          }
        ],
        "numberOfBytes": "64"
      },
      "t_uint256": {
        "encoding": "inplace",
        "label": "uint256",
        "numberOfBytes": "32"
      },
      "t_uint8": {
        "encoding": "inplace",
        "label": "uint8",
        "numberOfBytes": "1"
      }
    }
  }
}