{
  "address": "0x8B3875da5892f998f4F624370d5d4Fdd3fdb6B1C",
  "abi": [
    {
      "inputs": [
        {
          "internalType": "string",
          "name": "uri",
          "type": "string"
        },
        {
          "internalType": "address",
          "name": "owner",
          "type": "address"
        }
      ],
      "stateMutability": "nonpayable",
      "type": "constructor"
    },
    {
      "inputs": [],
      "name": "BadgesNonTransferrable",
      "type": "error"
    },
    {
      "anonymous": false,
      "inputs": [
        {
          "indexed": true,
          "internalType": "address",
          "name": "account",
          "type": "address"
        },
        {
          "indexed": true,
          "internalType": "address",
          "name": "operator",
          "type": "address"
        },
        {
          "indexed": false,
          "internalType": "bool",
          "name": "approved",
          "type": "bool"
        }
      ],
      "name": "ApprovalForAll",
      "type": "event"
    },
    {
      "anonymous": false,
      "inputs": [
        {
          "indexed": true,
          "internalType": "bytes32",
          "name": "role",
          "type": "bytes32"
        },
        {
          "indexed": true,
          "internalType": "bytes32",
          "name": "previousAdminRole",
          "type": "bytes32"
        },
        {
          "indexed": true,
          "internalType": "bytes32",
          "name": "newAdminRole",
          "type": "bytes32"
        }
      ],
      "name": "RoleAdminChanged",
      "type": "event"
    },
    {
      "anonymous": false,
      "inputs": [
        {
          "indexed": true,
          "internalType": "bytes32",
          "name": "role",
          "type": "bytes32"
        },
        {
          "indexed": true,
          "internalType": "address",
          "name": "account",
          "type": "address"
        },
        {
          "indexed": true,
          "internalType": "address",
          "name": "sender",
          "type": "address"
        }
      ],
      "name": "RoleGranted",
      "type": "event"
    },
    {
      "anonymous": false,
      "inputs": [
        {
          "indexed": true,
          "internalType": "bytes32",
          "name": "role",
          "type": "bytes32"
        },
        {
          "indexed": true,
          "internalType": "address",
          "name": "account",
          "type": "address"
        },
        {
          "indexed": true,
          "internalType": "address",
          "name": "sender",
          "type": "address"
        }
      ],
      "name": "RoleRevoked",
      "type": "event"
    },
    {
      "anonymous": false,
      "inputs": [
        {
          "indexed": true,
          "internalType": "address",
          "name": "operator",
          "type": "address"
        },
        {
          "indexed": true,
          "internalType": "address",
          "name": "from",
          "type": "address"
        },
        {
          "indexed": true,
          "internalType": "address",
          "name": "to",
          "type": "address"
        },
        {
          "indexed": false,
          "internalType": "uint256[]",
          "name": "ids",
          "type": "uint256[]"
        },
        {
          "indexed": false,
          "internalType": "uint256[]",
          "name": "values",
          "type": "uint256[]"
        }
      ],
      "name": "TransferBatch",
      "type": "event"
    },
    {
      "anonymous": false,
      "inputs": [
        {
          "indexed": true,
          "internalType": "address",
          "name": "operator",
          "type": "address"
        },
        {
          "indexed": true,
          "internalType": "address",
          "name": "from",
          "type": "address"
        },
        {
          "indexed": true,
          "internalType": "address",
          "name": "to",
          "type": "address"
        },
        {
          "indexed": false,
          "internalType": "uint256",
          "name": "id",
          "type": "uint256"
        },
        {
          "indexed": false,
          "internalType": "uint256",
          "name": "value",
          "type": "uint256"
        }
      ],
      "name": "TransferSingle",
      "type": "event"
    },
    {
      "anonymous": false,
      "inputs": [
        {
          "indexed": false,
          "internalType": "string",
          "name": "value",
          "type": "string"
        },
        {
          "indexed": true,
          "internalType": "uint256",
          "name": "id",
          "type": "uint256"
        }
      ],
      "name": "URI",
      "type": "event"
    },
    {
      "inputs": [],
      "name": "DEFAULT_ADMIN_ROLE",
      "outputs": [
        {
          "internalType": "bytes32",
          "name": "",
          "type": "bytes32"
        }
      ],
      "stateMutability": "view",
      "type": "function"
    },
    {
      "inputs": [],
      "name": "EVENT_TRIGGERER_ROLE",
      "outputs": [
        {
          "internalType": "bytes32",
          "name": "",
          "type": "bytes32"
        }
      ],
      "stateMutability": "view",
      "type": "function"
    },
    {
      "inputs": [
        {
          "internalType": "address",
          "name": "account",
          "type": "address"
        },
        {
          "internalType": "uint256",
          "name": "id",
          "type": "uint256"
        }
      ],
      "name": "balanceOf",
      "outputs": [
        {
          "internalType": "uint256",
          "name": "",
          "type": "uint256"
        }
      ],
      "stateMutability": "view",
      "type": "function"
    },
    {
      "inputs": [
        {
          "internalType": "address[]",
          "name": "accounts",
          "type": "address[]"
        },
        {
          "internalType": "uint256[]",
          "name": "ids",
          "type": "uint256[]"
        }
      ],
      "name": "balanceOfBatch",
      "outputs": [
        {
          "internalType": "uint256[]",
          "name": "",
          "type": "uint256[]"
        }
      ],
      "stateMutability": "view",
      "type": "function"
    },
    {
      "inputs": [],
      "name": "getAttestationsRegistry",
      "outputs": [
        {
          "internalType": "address",
          "name": "",
          "type": "address"
        }
      ],
      "stateMutability": "view",
      "type": "function"
    },
    {
      "inputs": [
        {
          "internalType": "bytes32",
          "name": "role",
          "type": "bytes32"
        }
      ],
      "name": "getRoleAdmin",
      "outputs": [
        {
          "internalType": "bytes32",
          "name": "",
          "type": "bytes32"
        }
      ],
      "stateMutability": "view",
      "type": "function"
    },
    {
      "inputs": [
        {
          "internalType": "bytes32",
          "name": "role",
          "type": "bytes32"
        },
        {
          "internalType": "address",
          "name": "account",
          "type": "address"
        }
      ],
      "name": "grantRole",
      "outputs": [],
      "stateMutability": "nonpayable",
      "type": "function"
    },
    {
      "inputs": [
        {
          "internalType": "bytes32",
          "name": "role",
          "type": "bytes32"
        },
        {
          "internalType": "address",
          "name": "account",
          "type": "address"
        }
      ],
      "name": "hasRole",
      "outputs": [
        {
          "internalType": "bool",
          "name": "",
          "type": "bool"
        }
      ],
      "stateMutability": "view",
      "type": "function"
    },
    {
      "inputs": [
        {
          "internalType": "string",
          "name": "uri",
          "type": "string"
        },
        {
          "internalType": "address",
          "name": "owner",
          "type": "address"
        }
      ],
      "name": "initialize",
      "outputs": [],
      "stateMutability": "nonpayable",
      "type": "function"
    },
    {
      "inputs": [
        {
          "internalType": "address",
          "name": "account",
          "type": "address"
        },
        {
          "internalType": "address",
          "name": "operator",
          "type": "address"
        }
      ],
      "name": "isApprovedForAll",
      "outputs": [
        {
          "internalType": "bool",
          "name": "",
          "type": "bool"
        }
      ],
      "stateMutability": "view",
      "type": "function"
    },
    {
      "inputs": [
        {
          "internalType": "bytes32",
          "name": "role",
          "type": "bytes32"
        },
        {
          "internalType": "address",
          "name": "account",
          "type": "address"
        }
      ],
      "name": "renounceRole",
      "outputs": [],
      "stateMutability": "nonpayable",
      "type": "function"
    },
    {
      "inputs": [
        {
          "internalType": "bytes32",
          "name": "role",
          "type": "bytes32"
        },
        {
          "internalType": "address",
          "name": "account",
          "type": "address"
        }
      ],
      "name": "revokeRole",
      "outputs": [],
      "stateMutability": "nonpayable",
      "type": "function"
    },
    {
      "inputs": [
        {
          "internalType": "address",
          "name": "from",
          "type": "address"
        },
        {
          "internalType": "address",
          "name": "to",
          "type": "address"
        },
        {
          "internalType": "uint256[]",
          "name": "ids",
          "type": "uint256[]"
        },
        {
          "internalType": "uint256[]",
          "name": "amounts",
          "type": "uint256[]"
        },
        {
          "internalType": "bytes",
          "name": "data",
          "type": "bytes"
        }
      ],
      "name": "safeBatchTransferFrom",
      "outputs": [],
      "stateMutability": "nonpayable",
      "type": "function"
    },
    {
      "inputs": [
        {
          "internalType": "address",
          "name": "from",
          "type": "address"
        },
        {
          "internalType": "address",
          "name": "to",
          "type": "address"
        },
        {
          "internalType": "uint256",
          "name": "id",
          "type": "uint256"
        },
        {
          "internalType": "uint256",
          "name": "amount",
          "type": "uint256"
        },
        {
          "internalType": "bytes",
          "name": "data",
          "type": "bytes"
        }
      ],
      "name": "safeTransferFrom",
      "outputs": [],
      "stateMutability": "nonpayable",
      "type": "function"
    },
    {
      "inputs": [
        {
          "internalType": "address",
          "name": "operator",
          "type": "address"
        },
        {
          "internalType": "bool",
          "name": "approved",
          "type": "bool"
        }
      ],
      "name": "setApprovalForAll",
      "outputs": [],
      "stateMutability": "nonpayable",
      "type": "function"
    },
    {
      "inputs": [
        {
          "internalType": "address",
          "name": "attestationsRegistry",
          "type": "address"
        }
      ],
      "name": "setAttestationsRegistry",
      "outputs": [],
      "stateMutability": "nonpayable",
      "type": "function"
    },
    {
      "inputs": [
        {
          "internalType": "string",
          "name": "uri",
          "type": "string"
        }
      ],
      "name": "setUri",
      "outputs": [],
      "stateMutability": "nonpayable",
      "type": "function"
    },
    {
      "inputs": [
        {
          "internalType": "bytes4",
          "name": "interfaceId",
          "type": "bytes4"
        }
      ],
      "name": "supportsInterface",
      "outputs": [
        {
          "internalType": "bool",
          "name": "",
          "type": "bool"
        }
      ],
      "stateMutability": "view",
      "type": "function"
    },
    {
      "inputs": [
        {
          "internalType": "address",
          "name": "operator",
          "type": "address"
        },
        {
          "internalType": "address",
          "name": "from",
          "type": "address"
        },
        {
          "internalType": "address",
          "name": "to",
          "type": "address"
        },
        {
          "internalType": "uint256",
          "name": "id",
          "type": "uint256"
        },
        {
          "internalType": "uint256",
          "name": "value",
          "type": "uint256"
        }
      ],
      "name": "triggerTransferEvent",
      "outputs": [],
      "stateMutability": "nonpayable",
      "type": "function"
    },
    {
      "inputs": [
        {
          "internalType": "uint256",
          "name": "",
          "type": "uint256"
        }
      ],
      "name": "uri",
      "outputs": [
        {
          "internalType": "string",
          "name": "",
          "type": "string"
        }
      ],
      "stateMutability": "view",
      "type": "function"
    }
  ],
  "transactionHash": "0xcb4112753001350ab85b58335ffdde51c30f731b78306a2185bcdce79f7d86ed",
  "args": [
    "https://metadata-dev.badges.zikies.io/default-badges/local/{id}.json",
    "0xb01ee322C4f028B8A6BFcD2a5d48107dc5bC99EC"
  ],
  "numDeployments": 1,
  "solcInputHash": "ddee74ab32d7fd2413b571558be47026",
  "bytecode": "0x60806040523480156200001157600080fd5b50604051620021de380380620021de8339810160408190526200003491620002de565b81620000408162000055565b506200004d82826200006e565b50506200040b565b80516200006a90600490602084019062000205565b5050565b600054610100900460ff166200008b5760005460ff161562000095565b6200009562000150565b620000fd5760405162461bcd60e51b815260206004820152602e60248201527f496e697469616c697a61626c653a20636f6e747261637420697320616c72656160448201526d191e481a5b9a5d1a585b1a5e995960921b606482015260840160405180910390fd5b600054610100900460ff1615801562000120576000805461ffff19166101011790555b6200012b8362000055565b620001386000836200016e565b80156200014b576000805461ff00191690555b505050565b60006200016830620001f660201b620009511760201c565b15905090565b60008281526001602090815260408083206001600160a01b038516845290915290205460ff166200006a5760008281526001602081815260408084206001600160a01b0386168086529252808420805460ff19169093179092559051339285917f2f8788117e7eff1d82e926ec794901d17c78024a50270940304540a733656f0d9190a45050565b6001600160a01b03163b151590565b8280546200021390620003cf565b90600052602060002090601f01602090048101928262000237576000855562000282565b82601f106200025257805160ff191683800117855562000282565b8280016001018555821562000282579182015b828111156200028257825182559160200191906001019062000265565b506200029092915062000294565b5090565b5b8082111562000290576000815560010162000295565b634e487b7160e01b600052604160045260246000fd5b80516001600160a01b0381168114620002d957600080fd5b919050565b60008060408385031215620002f257600080fd5b82516001600160401b03808211156200030a57600080fd5b818501915085601f8301126200031f57600080fd5b815181811115620003345762000334620002ab565b604051601f8201601f19908116603f011681019083821181831017156200035f576200035f620002ab565b816040528281526020935088848487010111156200037c57600080fd5b600091505b82821015620003a0578482018401518183018501529083019062000381565b82821115620003b25760008484830101525b9550620003c4915050858201620002c1565b925050509250929050565b600181811c90821680620003e457607f821691505b6020821081036200040557634e487b7160e01b600052602260045260246000fd5b50919050565b611dc3806200041b6000396000f3fe608060405234801561001057600080fd5b506004361061012b5760003560e01c8063730cb7d5116100ad578063a22cb46511610071578063a22cb465146102ae578063b3c1cb21146102c1578063d547741f146102d4578063e985e9c5146102e7578063f242432a1461032357600080fd5b8063730cb7d5146102525780637ab4339d1461026d57806391d14854146102805780639b642de114610293578063a217fddf146102a657600080fd5b80632f2ff15d116100f45780632f2ff15d146101d257806336568abe146101e557806344112ed8146101f85780634e1273f41461021f578063710b30961461023f57600080fd5b8062fdd58e1461013057806301ffc9a7146101565780630e89341c14610179578063248a9ca3146101995780632eb2c2d6146101bd575b600080fd5b61014361013e3660046113e7565b610336565b6040519081526020015b60405180910390f35b61016961016436600461142a565b6103b3565b604051901515815260200161014d565b61018c610187366004611447565b6103c4565b60405161014d91906114bc565b6101436101a7366004611447565b6000908152600160208190526040909120015490565b6101d06101cb36600461161b565b610458565b005b6101d06101e03660046116c5565b6104f4565b6101d06101f33660046116c5565b610520565b6101437fe6cd5415a09470f57cb652d653ef635ecd9a997fef2537decaf18eb7545b7fa481565b61023261022d3660046116f1565b61059e565b60405161014d91906117f7565b6101d061024d36600461180a565b6106c8565b6005546040516001600160a01b03909116815260200161014d565b6101d061027b36600461185f565b61075b565b61016961028e3660046116c5565b610829565b6101d06102a13660046118a4565b610854565b610143600081565b6101d06102bc3660046118e1565b610869565b6101d06102cf36600461191d565b610874565b6101d06102e23660046116c5565b6108a3565b6101696102f5366004611938565b6001600160a01b03918216600090815260036020908152604080832093909416825291909152205460ff1690565b6101d0610331366004611962565b6108ca565b60055460405163461e4f1960e11b8152600481018390526001600160a01b0384811660248301526000921690638c3c9e3290604401602060405180830381865afa158015610388573d6000803e3d6000fd5b505050506040513d601f19601f820116820180604052508101906103ac91906119c7565b9392505050565b60006103be82610960565b92915050565b6060600480546103d3906119e0565b80601f01602080910402602001604051908101604052809291908181526020018280546103ff906119e0565b801561044c5780601f106104215761010080835404028352916020019161044c565b820191906000526020600020905b81548152906001019060200180831161042f57829003601f168201915b50505050509050919050565b6001600160a01b038516331480610474575061047485336102f5565b6104e05760405162461bcd60e51b815260206004820152603260248201527f455243313135353a207472616e736665722063616c6c6572206973206e6f74206044820152711bdddb995c881b9bdc88185c1c1c9bdd995960721b60648201526084015b60405180910390fd5b6104ed85858585856109a0565b5050505050565b600082815260016020819052604090912001546105118133610b8e565b61051b8383610bf2565b505050565b6001600160a01b03811633146105905760405162461bcd60e51b815260206004820152602f60248201527f416363657373436f6e74726f6c3a2063616e206f6e6c792072656e6f756e636560448201526e103937b632b9903337b91039b2b63360891b60648201526084016104d7565b61059a8282610c5d565b5050565b606081518351146106035760405162461bcd60e51b815260206004820152602960248201527f455243313135353a206163636f756e747320616e6420696473206c656e677468604482015268040dad2e6dac2e8c6d60bb1b60648201526084016104d7565b6000835167ffffffffffffffff81111561061f5761061f6114cf565b604051908082528060200260200182016040528015610648578160200160208202803683370190505b50905060005b84518110156106c05761069385828151811061066c5761066c611a1a565b602002602001015185838151811061068657610686611a1a565b6020026020010151610336565b8282815181106106a5576106a5611a1a565b60209081029190910101526106b981611a46565b905061064e565b509392505050565b7fe6cd5415a09470f57cb652d653ef635ecd9a997fef2537decaf18eb7545b7fa46106f38133610b8e565b836001600160a01b0316856001600160a01b0316876001600160a01b03167fc3d58168c5ae7397731d063d5bbf3d657854427343f4c083240f7aacaa2d0f62868660405161074b929190918252602082015260400190565b60405180910390a4505050505050565b600054610100900460ff166107765760005460ff161561077a565b303b155b6107dd5760405162461bcd60e51b815260206004820152602e60248201527f496e697469616c697a61626c653a20636f6e747261637420697320616c72656160448201526d191e481a5b9a5d1a585b1a5e995960921b60648201526084016104d7565b600054610100900460ff161580156107ff576000805461ffff19166101011790555b61080883610cc4565b610813600083610bf2565b801561051b576000805461ff0019169055505050565b60009182526001602090815260408084206001600160a01b0393909316845291905290205460ff1690565b60006108608133610b8e565b61059a82610cc4565b61059a338383610cd7565b60006108808133610b8e565b50600580546001600160a01b0319166001600160a01b0392909216919091179055565b600082815260016020819052604090912001546108c08133610b8e565b61051b8383610c5d565b6001600160a01b0385163314806108e657506108e685336102f5565b6109445760405162461bcd60e51b815260206004820152602960248201527f455243313135353a2063616c6c6572206973206e6f74206f776e6572206e6f7260448201526808185c1c1c9bdd995960ba1b60648201526084016104d7565b6104ed8585858585610db7565b6001600160a01b03163b151590565b60006001600160e01b03198216636cdb3d1360e11b148061099157506001600160e01b031982166303a24d0760e21b145b806103be57506103be82610ee7565b8151835114610a025760405162461bcd60e51b815260206004820152602860248201527f455243313135353a2069647320616e6420616d6f756e7473206c656e677468206044820152670dad2e6dac2e8c6d60c31b60648201526084016104d7565b6001600160a01b038416610a285760405162461bcd60e51b81526004016104d790611a5f565b33610a37818787878787610f1c565b60005b8451811015610b20576000858281518110610a5757610a57611a1a565b602002602001015190506000858381518110610a7557610a75611a1a565b60209081029190910181015160008481526002835260408082206001600160a01b038e168352909352919091205490915081811015610ac65760405162461bcd60e51b81526004016104d790611aa4565b60008381526002602090815260408083206001600160a01b038e8116855292528083208585039055908b16825281208054849290610b05908490611aee565b9250508190555050505080610b1990611a46565b9050610a3a565b50846001600160a01b0316866001600160a01b0316826001600160a01b03167f4a39dc06d4c0dbc64b70af90fd698a233a518aa5d07e595d983b8c0526c8f7fb8787604051610b70929190611b06565b60405180910390a4610b86818787878787610f35565b505050505050565b610b988282610829565b61059a57610bb0816001600160a01b03166014611090565b610bbb836020611090565b604051602001610bcc929190611b34565b60408051601f198184030181529082905262461bcd60e51b82526104d7916004016114bc565b610bfc8282610829565b61059a5760008281526001602081815260408084206001600160a01b0386168086529252808420805460ff19169093179092559051339285917f2f8788117e7eff1d82e926ec794901d17c78024a50270940304540a733656f0d9190a45050565b610c678282610829565b1561059a5760008281526001602090815260408083206001600160a01b0385168085529252808320805460ff1916905551339285917ff6391f5c32d9c69d2a47ea670b442974b53935d1edc7fd64eb21e047a839171b9190a45050565b805161059a906004906020840190611332565b816001600160a01b0316836001600160a01b031603610d4a5760405162461bcd60e51b815260206004820152602960248201527f455243313135353a2073657474696e6720617070726f76616c20737461747573604482015268103337b91039b2b63360b91b60648201526084016104d7565b6001600160a01b03838116600081815260036020908152604080832094871680845294825291829020805460ff191686151590811790915591519182527f17307eab39ab6107e8899845ad3d59bd9653f200f220920489ca2b5937696c31910160405180910390a3505050565b6001600160a01b038416610ddd5760405162461bcd60e51b81526004016104d790611a5f565b33610dfc818787610ded8861122c565b610df68861122c565b87610f1c565b60008481526002602090815260408083206001600160a01b038a16845290915290205483811015610e3f5760405162461bcd60e51b81526004016104d790611aa4565b60008581526002602090815260408083206001600160a01b038b8116855292528083208785039055908816825281208054869290610e7e908490611aee565b909155505060408051868152602081018690526001600160a01b03808916928a821692918616917fc3d58168c5ae7397731d063d5bbf3d657854427343f4c083240f7aacaa2d0f62910160405180910390a4610ede828888888888611277565b50505050505050565b60006001600160e01b03198216637965db0b60e01b14806103be57506301ffc9a760e01b6001600160e01b03198316146103be565b6040516309a711b960e31b815260040160405180910390fd5b6001600160a01b0384163b15610b865760405163bc197c8160e01b81526001600160a01b0385169063bc197c8190610f799089908990889088908890600401611ba9565b6020604051808303816000875af1925050508015610fb4575060408051601f3d908101601f19168201909252610fb191810190611c07565b60015b61106057610fc0611c24565b806308c379a003610ff95750610fd4611c40565b80610fdf5750610ffb565b8060405162461bcd60e51b81526004016104d791906114bc565b505b60405162461bcd60e51b815260206004820152603460248201527f455243313135353a207472616e7366657220746f206e6f6e20455243313135356044820152732932b1b2b4bb32b91034b6b83632b6b2b73a32b960611b60648201526084016104d7565b6001600160e01b0319811663bc197c8160e01b14610ede5760405162461bcd60e51b81526004016104d790611cca565b6060600061109f836002611d12565b6110aa906002611aee565b67ffffffffffffffff8111156110c2576110c26114cf565b6040519080825280601f01601f1916602001820160405280156110ec576020820181803683370190505b509050600360fc1b8160008151811061110757611107611a1a565b60200101906001600160f81b031916908160001a905350600f60fb1b8160018151811061113657611136611a1a565b60200101906001600160f81b031916908160001a905350600061115a846002611d12565b611165906001611aee565b90505b60018111156111dd576f181899199a1a9b1b9c1cb0b131b232b360811b85600f166010811061119957611199611a1a565b1a60f81b8282815181106111af576111af611a1a565b60200101906001600160f81b031916908160001a90535060049490941c936111d681611d31565b9050611168565b5083156103ac5760405162461bcd60e51b815260206004820181905260248201527f537472696e67733a20686578206c656e67746820696e73756666696369656e7460448201526064016104d7565b6040805160018082528183019092526060916000919060208083019080368337019050509050828160008151811061126657611266611a1a565b602090810291909101015292915050565b6001600160a01b0384163b15610b865760405163f23a6e6160e01b81526001600160a01b0385169063f23a6e61906112bb9089908990889088908890600401611d48565b6020604051808303816000875af19250505080156112f6575060408051601f3d908101601f191682019092526112f391810190611c07565b60015b61130257610fc0611c24565b6001600160e01b0319811663f23a6e6160e01b14610ede5760405162461bcd60e51b81526004016104d790611cca565b82805461133e906119e0565b90600052602060002090601f01602090048101928261136057600085556113a6565b82601f1061137957805160ff19168380011785556113a6565b828001600101855582156113a6579182015b828111156113a657825182559160200191906001019061138b565b506113b29291506113b6565b5090565b5b808211156113b257600081556001016113b7565b80356001600160a01b03811681146113e257600080fd5b919050565b600080604083850312156113fa57600080fd5b611403836113cb565b946020939093013593505050565b6001600160e01b03198116811461142757600080fd5b50565b60006020828403121561143c57600080fd5b81356103ac81611411565b60006020828403121561145957600080fd5b5035919050565b60005b8381101561147b578181015183820152602001611463565b8381111561148a576000848401525b50505050565b600081518084526114a8816020860160208601611460565b601f01601f19169290920160200192915050565b6020815260006103ac6020830184611490565b634e487b7160e01b600052604160045260246000fd5b601f8201601f1916810167ffffffffffffffff8111828210171561150b5761150b6114cf565b6040525050565b600067ffffffffffffffff82111561152c5761152c6114cf565b5060051b60200190565b600082601f83011261154757600080fd5b8135602061155482611512565b60405161156182826114e5565b83815260059390931b850182019282810191508684111561158157600080fd5b8286015b8481101561159c5780358352918301918301611585565b509695505050505050565b600082601f8301126115b857600080fd5b813567ffffffffffffffff8111156115d2576115d26114cf565b6040516115e9601f8301601f1916602001826114e5565b8181528460208386010111156115fe57600080fd5b816020850160208301376000918101602001919091529392505050565b600080600080600060a0868803121561163357600080fd5b61163c866113cb565b945061164a602087016113cb565b9350604086013567ffffffffffffffff8082111561166757600080fd5b61167389838a01611536565b9450606088013591508082111561168957600080fd5b61169589838a01611536565b935060808801359150808211156116ab57600080fd5b506116b8888289016115a7565b9150509295509295909350565b600080604083850312156116d857600080fd5b823591506116e8602084016113cb565b90509250929050565b6000806040838503121561170457600080fd5b823567ffffffffffffffff8082111561171c57600080fd5b818501915085601f83011261173057600080fd5b8135602061173d82611512565b60405161174a82826114e5565b83815260059390931b850182019282810191508984111561176a57600080fd5b948201945b8386101561178f57611780866113cb565b8252948201949082019061176f565b965050860135925050808211156117a557600080fd5b506117b285828601611536565b9150509250929050565b600081518084526020808501945080840160005b838110156117ec578151875295820195908201906001016117d0565b509495945050505050565b6020815260006103ac60208301846117bc565b600080600080600060a0868803121561182257600080fd5b61182b866113cb565b9450611839602087016113cb565b9350611847604087016113cb565b94979396509394606081013594506080013592915050565b6000806040838503121561187257600080fd5b823567ffffffffffffffff81111561188957600080fd5b611895858286016115a7565b9250506116e8602084016113cb565b6000602082840312156118b657600080fd5b813567ffffffffffffffff8111156118cd57600080fd5b6118d9848285016115a7565b949350505050565b600080604083850312156118f457600080fd5b6118fd836113cb565b91506020830135801515811461191257600080fd5b809150509250929050565b60006020828403121561192f57600080fd5b6103ac826113cb565b6000806040838503121561194b57600080fd5b611954836113cb565b91506116e8602084016113cb565b600080600080600060a0868803121561197a57600080fd5b611983866113cb565b9450611991602087016113cb565b93506040860135925060608601359150608086013567ffffffffffffffff8111156119bb57600080fd5b6116b8888289016115a7565b6000602082840312156119d957600080fd5b5051919050565b600181811c908216806119f457607f821691505b602082108103611a1457634e487b7160e01b600052602260045260246000fd5b50919050565b634e487b7160e01b600052603260045260246000fd5b634e487b7160e01b600052601160045260246000fd5b600060018201611a5857611a58611a30565b5060010190565b60208082526025908201527f455243313135353a207472616e7366657220746f20746865207a65726f206164604082015264647265737360d81b606082015260800190565b6020808252602a908201527f455243313135353a20696e73756666696369656e742062616c616e636520666f60408201526939103a3930b739b332b960b11b606082015260800190565b60008219821115611b0157611b01611a30565b500190565b604081526000611b1960408301856117bc565b8281036020840152611b2b81856117bc565b95945050505050565b7f416363657373436f6e74726f6c3a206163636f756e7420000000000000000000815260008351611b6c816017850160208801611460565b7001034b99036b4b9b9b4b733903937b6329607d1b6017918401918201528351611b9d816028840160208801611460565b01602801949350505050565b6001600160a01b0386811682528516602082015260a060408201819052600090611bd5908301866117bc565b8281036060840152611be781866117bc565b90508281036080840152611bfb8185611490565b98975050505050505050565b600060208284031215611c1957600080fd5b81516103ac81611411565b600060033d1115611c3d5760046000803e5060005160e01c5b90565b600060443d1015611c4e5790565b6040516003193d81016004833e81513d67ffffffffffffffff8160248401118184111715611c7e57505050505090565b8285019150815181811115611c965750505050505090565b843d8701016020828501011115611cb05750505050505090565b611cbf602082860101876114e5565b509095945050505050565b60208082526028908201527f455243313135353a204552433131353552656365697665722072656a656374656040820152676420746f6b656e7360c01b606082015260800190565b6000816000190483118215151615611d2c57611d2c611a30565b500290565b600081611d4057611d40611a30565b506000190190565b6001600160a01b03868116825285166020820152604081018490526060810183905260a060808201819052600090611d8290830184611490565b97965050505050505056fea2646970667358221220317dacb4b6900e7dfecfdaa97dbb0082f85182a364bff474b738708885ea258064736f6c634300080e0033",
  "devdoc": {
    "author": "Sismo",
    "kind": "dev",
    "methods": {
      "balanceOf(address,uint256)": {
        "details": "Main function of the ERC1155 badge The balance of a user is equal to the value of the underlying attestation. attestationCollectionId == badgeId",
        "params": {
          "account": "Address to check badge balance (= value of attestation)",
          "id": "Badge Id to check (= attestationCollectionId)"
        }
      },
      "balanceOfBatch(address[],uint256[])": {
        "details": "See {IERC1155-balanceOfBatch}. Requirements: - `accounts` and `ids` must have the same length."
      },
      "constructor": {
        "details": "Constructor",
        "params": {
          "owner": "Owner of the contract, super admin, can setup roles and update the attestation registry",
          "uri": "Uri for the metadata of badges"
        }
      },
      "getAttestationsRegistry()": {
        "details": "Getter of the attestations registry"
      },
      "getRoleAdmin(bytes32)": {
        "details": "Returns the admin role that controls `role`. See {grantRole} and {revokeRole}. To change a role's admin, use {_setRoleAdmin}."
      },
      "grantRole(bytes32,address)": {
        "details": "Grants `role` to `account`. If `account` had not been already granted `role`, emits a {RoleGranted} event. Requirements: - the caller must have ``role``'s admin role."
      },
      "hasRole(bytes32,address)": {
        "details": "Returns `true` if `account` has been granted `role`."
      },
      "initialize(string,address)": {
        "details": "Initializes the contract, to be called by the proxy delegating calls to this implementation",
        "params": {
          "owner": "Owner of the contract, super admin, can setup roles and update the attestation registry",
          "uri": "Uri for the metadata of badges"
        }
      },
      "isApprovedForAll(address,address)": {
        "details": "See {IERC1155-isApprovedForAll}."
      },
      "renounceRole(bytes32,address)": {
        "details": "Revokes `role` from the calling account. Roles are often managed via {grantRole} and {revokeRole}: this function's purpose is to provide a mechanism for accounts to lose their privileges if they are compromised (such as when a trusted device is misplaced). If the calling account had been revoked `role`, emits a {RoleRevoked} event. Requirements: - the caller must be `account`."
      },
      "revokeRole(bytes32,address)": {
        "details": "Revokes `role` from `account`. If `account` had been granted `role`, emits a {RoleRevoked} event. Requirements: - the caller must have ``role``'s admin role."
      },
      "safeBatchTransferFrom(address,address,uint256[],uint256[],bytes)": {
        "details": "See {IERC1155-safeBatchTransferFrom}."
      },
      "safeTransferFrom(address,address,uint256,uint256,bytes)": {
        "details": "See {IERC1155-safeTransferFrom}."
      },
      "setApprovalForAll(address,bool)": {
        "details": "See {IERC1155-setApprovalForAll}."
      },
      "setAttestationsRegistry(address)": {
        "details": "Set the attestations registry address. Can only be called by owner (default admin)",
        "params": {
          "attestationsRegistry": "new attestations registry address"
        }
      },
      "setUri(string)": {
        "details": "Set the URI. Can only be called by owner (default admin)",
        "params": {
          "uri": "new attestations registry address"
        }
      },
      "supportsInterface(bytes4)": {
        "details": "ERC165"
      },
      "triggerTransferEvent(address,address,address,uint256,uint256)": {
        "details": "Emits a TransferSingle event, so subgraphs and other off-chain apps relying on events can see badge minting/burning can only be called by address having the EVENT_TRIGGERER_ROLE (attestations registry address)",
        "params": {
          "from": "address(0) if minting, address of the badge holder if burning",
          "id": "badgeId for which to trigger the event",
          "operator": "who is calling the TransferEvent",
          "to": "address of the badge holder is minting, address(0) if burning",
          "value": "minted/burned balance"
        }
      },
      "uri(uint256)": {
        "details": "See {IERC1155MetadataURI-uri}. This implementation returns the same URI for *all* token types. It relies on the token type ID substitution mechanism https://eips.ethereum.org/EIPS/eip-1155#metadata[defined in the EIP]. Clients calling this function must replace the `\\{id\\}` substring with the actual token type ID."
      }
    },
    "title": "Badges contract",
    "version": 1
  },
  "userdoc": {
    "kind": "user",
    "methods": {},
    "notice": "Stateless, Non-transferrable ERC1155 contract. Reads balance from the values of attestations The associated attestations registry triggers TransferSingle events from this contract It allows badge \"shadow mints and burns\" to be caught by off-chain platforms For more information: https://badges.docs.sismo.io",
    "version": 1
  },
  "storageLayout": {
    "storage": [
      {
        "astId": 936,
        "contract": "contracts/core/Badges.sol:Badges",
        "label": "_initialized",
        "offset": 0,
        "slot": "0",
        "type": "t_bool"
      },
      {
        "astId": 939,
        "contract": "contracts/core/Badges.sol:Badges",
        "label": "_initializing",
        "offset": 1,
        "slot": "0",
        "type": "t_bool"
      },
      {
        "astId": 24,
        "contract": "contracts/core/Badges.sol:Badges",
        "label": "_roles",
        "offset": 0,
        "slot": "1",
        "type": "t_mapping(t_bytes32,t_struct(RoleData)19_storage)"
      },
      {
        "astId": 1121,
        "contract": "contracts/core/Badges.sol:Badges",
        "label": "_balances",
        "offset": 0,
        "slot": "2",
        "type": "t_mapping(t_uint256,t_mapping(t_address,t_uint256))"
      },
      {
        "astId": 1127,
        "contract": "contracts/core/Badges.sol:Badges",
        "label": "_operatorApprovals",
        "offset": 0,
        "slot": "3",
        "type": "t_mapping(t_address,t_mapping(t_address,t_bool))"
      },
      {
        "astId": 1129,
        "contract": "contracts/core/Badges.sol:Badges",
        "label": "_uri",
        "offset": 0,
        "slot": "4",
        "type": "t_string_storage"
      },
      {
        "astId": 8083,
        "contract": "contracts/core/Badges.sol:Badges",
        "label": "_attestationsRegistry",
        "offset": 0,
        "slot": "5",
        "type": "t_contract(IAttestationsRegistry)8759"
      }
    ],
    "types": {
      "t_address": {
        "encoding": "inplace",
        "label": "address",
        "numberOfBytes": "20"
      },
      "t_bool": {
        "encoding": "inplace",
        "label": "bool",
        "numberOfBytes": "1"
      },
      "t_bytes32": {
        "encoding": "inplace",
        "label": "bytes32",
        "numberOfBytes": "32"
      },
      "t_contract(IAttestationsRegistry)8759": {
        "encoding": "inplace",
        "label": "contract IAttestationsRegistry",
        "numberOfBytes": "20"
      },
      "t_mapping(t_address,t_bool)": {
        "encoding": "mapping",
        "key": "t_address",
        "label": "mapping(address => bool)",
        "numberOfBytes": "32",
        "value": "t_bool"
      },
      "t_mapping(t_address,t_mapping(t_address,t_bool))": {
        "encoding": "mapping",
        "key": "t_address",
        "label": "mapping(address => mapping(address => bool))",
        "numberOfBytes": "32",
        "value": "t_mapping(t_address,t_bool)"
      },
      "t_mapping(t_address,t_uint256)": {
        "encoding": "mapping",
        "key": "t_address",
        "label": "mapping(address => uint256)",
        "numberOfBytes": "32",
        "value": "t_uint256"
      },
      "t_mapping(t_bytes32,t_struct(RoleData)19_storage)": {
        "encoding": "mapping",
        "key": "t_bytes32",
        "label": "mapping(bytes32 => struct AccessControl.RoleData)",
        "numberOfBytes": "32",
        "value": "t_struct(RoleData)19_storage"
      },
      "t_mapping(t_uint256,t_mapping(t_address,t_uint256))": {
        "encoding": "mapping",
        "key": "t_uint256",
        "label": "mapping(uint256 => mapping(address => uint256))",
        "numberOfBytes": "32",
        "value": "t_mapping(t_address,t_uint256)"
      },
      "t_string_storage": {
        "encoding": "bytes",
        "label": "string",
        "numberOfBytes": "32"
      },
      "t_struct(RoleData)19_storage": {
        "encoding": "inplace",
        "label": "struct AccessControl.RoleData",
        "members": [
          {
            "astId": 16,
            "contract": "contracts/core/Badges.sol:Badges",
            "label": "members",
            "offset": 0,
            "slot": "0",
            "type": "t_mapping(t_address,t_bool)"
          },
          {
            "astId": 18,
            "contract": "contracts/core/Badges.sol:Badges",
            "label": "adminRole",
            "offset": 0,
            "slot": "1",
            "type": "t_bytes32"
          }
        ],
        "numberOfBytes": "64"
      },
      "t_uint256": {
        "encoding": "inplace",
        "label": "uint256",
        "numberOfBytes": "32"
      }
    }
  }
}