{
  "address": "0xe52EB1f52349F98c09a5B11B0E3fA7f269268Add",
  "abi": [
    {
      "inputs": [
        {
          "internalType": "address",
          "name": "owner",
          "type": "address"
        },
        {
          "internalType": "uint256[2]",
          "name": "commitmentMapperEdDSAPubKey",
          "type": "uint256[2]"
        },
        {
          "internalType": "address",
          "name": "commitmentMapperAddress",
          "type": "address"
        }
      ],
      "stateMutability": "nonpayable",
      "type": "constructor"
    },
    {
      "inputs": [
        {
          "internalType": "uint256[2]",
          "name": "pubKey",
          "type": "uint256[2]"
        }
      ],
      "name": "PubKeyNotValid",
      "type": "error"
    },
    {
      "anonymous": false,
      "inputs": [
        {
          "indexed": false,
          "internalType": "uint8",
          "name": "version",
          "type": "uint8"
        }
      ],
      "name": "Initialized",
      "type": "event"
    },
    {
      "anonymous": false,
      "inputs": [
        {
          "indexed": true,
          "internalType": "address",
          "name": "previousOwner",
          "type": "address"
        },
        {
          "indexed": true,
          "internalType": "address",
          "name": "newOwner",
          "type": "address"
        }
      ],
      "name": "OwnershipTransferred",
      "type": "event"
    },
    {
      "anonymous": false,
      "inputs": [
        {
          "indexed": false,
          "internalType": "address",
          "name": "newAddress",
          "type": "address"
        }
      ],
      "name": "UpdatedCommitmentMapperAddress",
      "type": "event"
    },
    {
      "anonymous": false,
      "inputs": [
        {
          "indexed": false,
          "internalType": "uint256[2]",
          "name": "newEdDSAPubKey",
          "type": "uint256[2]"
        }
      ],
      "name": "UpdatedCommitmentMapperEdDSAPubKey",
      "type": "event"
    },
    {
      "inputs": [],
      "name": "getAddress",
      "outputs": [
        {
          "internalType": "address",
          "name": "",
          "type": "address"
        }
      ],
      "stateMutability": "view",
      "type": "function"
    },
    {
      "inputs": [],
      "name": "getEdDSAPubKey",
      "outputs": [
        {
          "internalType": "uint256[2]",
          "name": "",
          "type": "uint256[2]"
        }
      ],
      "stateMutability": "view",
      "type": "function"
    },
    {
      "inputs": [
        {
          "internalType": "address",
          "name": "owner",
          "type": "address"
        },
        {
          "internalType": "uint256[2]",
          "name": "commitmentMapperEdDSAPubKey",
          "type": "uint256[2]"
        },
        {
          "internalType": "address",
          "name": "commitmentMapperAddress",
          "type": "address"
        }
      ],
      "name": "initialize",
      "outputs": [],
      "stateMutability": "nonpayable",
      "type": "function"
    },
    {
      "inputs": [],
      "name": "owner",
      "outputs": [
        {
          "internalType": "address",
          "name": "",
          "type": "address"
        }
      ],
      "stateMutability": "view",
      "type": "function"
    },
    {
      "inputs": [],
      "name": "renounceOwnership",
      "outputs": [],
      "stateMutability": "nonpayable",
      "type": "function"
    },
    {
      "inputs": [
        {
          "internalType": "address",
          "name": "newOwner",
          "type": "address"
        }
      ],
      "name": "transferOwnership",
      "outputs": [],
      "stateMutability": "nonpayable",
      "type": "function"
    },
    {
      "inputs": [
        {
          "internalType": "address",
          "name": "newAddress",
          "type": "address"
        }
      ],
      "name": "updateCommitmentMapperAddress",
      "outputs": [],
      "stateMutability": "nonpayable",
      "type": "function"
    },
    {
      "inputs": [
        {
          "internalType": "uint256[2]",
          "name": "newEdDSAPubKey",
          "type": "uint256[2]"
        }
      ],
      "name": "updateCommitmentMapperEdDSAPubKey",
      "outputs": [],
      "stateMutability": "nonpayable",
      "type": "function"
    }
  ],
  "transactionHash": "0x3f659164822cad207ce7604c7ae76acfdf48c2cc0ab3ae339bbd36ca85b7abf2",
  "args": [
    "0xb01ee322C4f028B8A6BFcD2a5d48107dc5bC99EC",
    [
      "0x1e468ad0fcde4edec429cd41eb28a0e78d4f31fa2c25172ef677468b2b38a9dc",
      "0x2b6e9a8e3b8ed419cca51e2e2ee7ae07d2902454deca17d7da7b00ae4a798add"
    ],
    "0x0000000000000000000000000000000000000000"
  ],
  "numDeployments": 1,
  "solcInputHash": "166704d46dbd9cfd00d5a3cb8077a32e",
  "bytecode": "0x60806040523480156200001157600080fd5b5060405162000ac138038062000ac1833981016040819052620000349162000332565b6200003f3362000055565b6200004c838383620000b0565b5050506200040e565b600080546001600160a01b038381166201000081810262010000600160b01b0319851617855560405193049190911692909183917f8be0079c531659141344cd1fd0a4f28419497f9722a3daafe3b4186f6b6457e091a35050565b600054610100900460ff1615808015620000d15750600054600160ff909116105b80620001015750620000ee30620001fb60201b6200034e1760201c565b15801562000101575060005460ff166001145b620001695760405162461bcd60e51b815260206004820152602e60248201527f496e697469616c697a61626c653a20636f6e747261637420697320616c72656160448201526d191e481a5b9a5d1a585b1a5e995960921b606482015260840160405180910390fd5b6000805460ff1916600117905580156200018d576000805461ff0019166101001790555b620001988462000055565b620001a3836200020a565b620001ae8262000256565b8015620001f5576000805461ff0019169055604051600181527f7f26b83ff96e1f2b6a682f133852f6798a09c465da95921460cefb38474024989060200160405180910390a15b50505050565b6001600160a01b03163b151590565b620002196001826002620002a5565b507f9d99ec80e15298d9dae698493e9c61daaae3977b0f131ded44fc6b0f7766ab15816040516200024b9190620003db565b60405180910390a150565b600380546001600160a01b0319166001600160a01b0383169081179091556040519081527fa37a473be736ea014730a555941f412164222d9d1b07f5a0a61932a1b3c3f2f4906020016200024b565b8260028101928215620002d6579160200282015b82811115620002d6578251825591602001919060010190620002b9565b50620002e4929150620002e8565b5090565b5b80821115620002e45760008155600101620002e9565b80516001600160a01b03811681146200031757600080fd5b919050565b634e487b7160e01b600052604160045260246000fd5b6000806000608084860312156200034857600080fd5b6200035384620002ff565b9250602085603f8601126200036757600080fd5b604080519081016001600160401b03811182821017156200038c576200038c6200031c565b604052806060870188811115620003a257600080fd5b8388015b81811015620003bf5780518352918401918401620003a6565b50829550620003ce81620002ff565b9450505050509250925092565b60408101818360005b600281101562000405578151835260209283019290910190600101620003e4565b50505092915050565b6106a3806200041e6000396000f3fe608060405234801561001057600080fd5b50600436106100885760003560e01c8063727b2d5c1161005b578063727b2d5c146100e957806378cf75d7146100fc5780638da5cb5b1461010f578063f2fde38b1461012657600080fd5b806338cc48311461008d57806359a80d0d146100b75780637098a5f4146100cc578063715018a6146100e1575b600080fd5b6003546001600160a01b03165b6040516001600160a01b0390911681526020015b60405180910390f35b6100bf610139565b6040516100ae9190610520565b6100df6100da3660046105cf565b610173565b005b6100df610187565b6100df6100f736600461060e565b61019b565b6100df61010a366004610629565b6101ac565b6000546201000090046001600160a01b031661009a565b6100df61013436600461060e565b6102d8565b6101416104af565b60408051808201918290529060019060029082845b815481526020019060010190808311610156575050505050905090565b61017b61035d565b610184816103be565b50565b61018f61035d565b6101996000610406565b565b6101a361035d565b61018481610461565b600054610100900460ff16158080156101cc5750600054600160ff909116105b806101e65750303b1580156101e6575060005460ff166001145b61024e5760405162461bcd60e51b815260206004820152602e60248201527f496e697469616c697a61626c653a20636f6e747261637420697320616c72656160448201526d191e481a5b9a5d1a585b1a5e995960921b60648201526084015b60405180910390fd5b6000805460ff191660011790558015610271576000805461ff0019166101001790555b61027a84610406565b610283836103be565b61028c82610461565b80156102d2576000805461ff0019169055604051600181527f7f26b83ff96e1f2b6a682f133852f6798a09c465da95921460cefb38474024989060200160405180910390a15b50505050565b6102e061035d565b6001600160a01b0381166103455760405162461bcd60e51b815260206004820152602660248201527f4f776e61626c653a206e6577206f776e657220697320746865207a65726f206160448201526564647265737360d01b6064820152608401610245565b61018481610406565b6001600160a01b03163b151590565b6000546001600160a01b03620100009091041633146101995760405162461bcd60e51b815260206004820181905260248201527f4f776e61626c653a2063616c6c6572206973206e6f7420746865206f776e65726044820152606401610245565b6103cb60018260026104cd565b507f9d99ec80e15298d9dae698493e9c61daaae3977b0f131ded44fc6b0f7766ab15816040516103fb9190610520565b60405180910390a150565b600080546001600160a01b038381166201000081810262010000600160b01b0319851617855560405193049190911692909183917f8be0079c531659141344cd1fd0a4f28419497f9722a3daafe3b4186f6b6457e091a35050565b600380546001600160a01b0319166001600160a01b0383169081179091556040519081527fa37a473be736ea014730a555941f412164222d9d1b07f5a0a61932a1b3c3f2f4906020016103fb565b60405180604001604052806002906020820280368337509192915050565b82600281019282156104fb579160200282015b828111156104fb5782518255916020019190600101906104e0565b5061050792915061050b565b5090565b5b80821115610507576000815560010161050c565b60408101818360005b6002811015610548578151835260209283019290910190600101610529565b50505092915050565b600082601f83011261056257600080fd5b6040516040810181811067ffffffffffffffff8211171561059357634e487b7160e01b600052604160045260246000fd5b80604052508060408401858111156105aa57600080fd5b845b818110156105c45780358352602092830192016105ac565b509195945050505050565b6000604082840312156105e157600080fd5b6105eb8383610551565b9392505050565b80356001600160a01b038116811461060957600080fd5b919050565b60006020828403121561062057600080fd5b6105eb826105f2565b60008060006080848603121561063e57600080fd5b610647846105f2565b92506106568560208601610551565b9150610664606085016105f2565b9050925092509256fea2646970667358221220938ba636c15aee4d9719b35d8e2f78feda0bbe494dd3e347ffc5788e49b8564164736f6c634300080e0033",
  "devdoc": {
    "author": "Sismo",
    "kind": "dev",
    "methods": {
      "constructor": {
        "details": "Constructor",
        "params": {
          "commitmentMapperAddress": "Address of the commitment mapper",
          "commitmentMapperEdDSAPubKey": "EdDSA public key of the commitment mapper",
          "owner": "Owner of the contract, can update public key and address"
        }
      },
      "getAddress()": {
        "details": "Getter of the address of the commitment mapper"
      },
      "getEdDSAPubKey()": {
        "details": "Getter of the EdDSA public key of the commitment mapper"
      },
      "initialize(address,uint256[2],address)": {
        "details": "Initializes the contract, to be called by the proxy delegating calls to this implementation",
        "params": {
          "commitmentMapperAddress": "Address of the commitment mapper",
          "commitmentMapperEdDSAPubKey": "EdDSA public key of the commitment mapper",
          "owner": "Owner of the contract, can update public key and address"
        }
      },
      "owner()": {
        "details": "Returns the address of the current owner."
      },
      "renounceOwnership()": {
        "details": "Leaves the contract without owner. It will not be possible to call `onlyOwner` functions anymore. Can only be called by the current owner. NOTE: Renouncing ownership will leave the contract without an owner, thereby removing any functionality that is only available to the owner."
      },
      "transferOwnership(address)": {
        "details": "Transfers ownership of the contract to a new account (`newOwner`). Can only be called by the current owner."
      },
      "updateCommitmentMapperAddress(address)": {
        "details": "Updates the address",
        "params": {
          "newAddress": "new address"
        }
      },
      "updateCommitmentMapperEdDSAPubKey(uint256[2])": {
        "details": "Updates the EdDSA public key",
        "params": {
          "newEdDSAPubKey": "new EdDSA pubic key"
        }
      }
    },
    "title": "Commitment Mapper Registry Contract",
    "version": 1
  },
  "userdoc": {
    "kind": "user",
    "methods": {},
    "notice": "This contract stores information about the commitment mapper. Its ethereum address and its EdDSA public key For more information: https://commitment-mapper.docs.sismo.io*",
    "version": 1
  },
  "storageLayout": {
    "storage": [
      {
        "astId": 935,
        "contract": "contracts/periphery/utils/CommitmentMapperRegistry.sol:CommitmentMapperRegistry",
        "label": "_initialized",
        "offset": 0,
        "slot": "0",
        "type": "t_uint8"
      },
      {
        "astId": 938,
        "contract": "contracts/periphery/utils/CommitmentMapperRegistry.sol:CommitmentMapperRegistry",
        "label": "_initializing",
        "offset": 1,
        "slot": "0",
        "type": "t_bool"
      },
      {
        "astId": 396,
        "contract": "contracts/periphery/utils/CommitmentMapperRegistry.sol:CommitmentMapperRegistry",
        "label": "_owner",
        "offset": 2,
        "slot": "0",
        "type": "t_address"
      },
      {
        "astId": 14839,
        "contract": "contracts/periphery/utils/CommitmentMapperRegistry.sol:CommitmentMapperRegistry",
        "label": "_commitmentMapperPubKey",
        "offset": 0,
        "slot": "1",
        "type": "t_array(t_uint256)2_storage"
      },
      {
        "astId": 14841,
        "contract": "contracts/periphery/utils/CommitmentMapperRegistry.sol:CommitmentMapperRegistry",
        "label": "_commitmentMapperAddress",
        "offset": 0,
        "slot": "3",
        "type": "t_address"
      }
    ],
    "types": {
      "t_address": {
        "encoding": "inplace",
        "label": "address",
        "numberOfBytes": "20"
      },
      "t_array(t_uint256)2_storage": {
        "base": "t_uint256",
        "encoding": "inplace",
        "label": "uint256[2]",
        "numberOfBytes": "64"
      },
      "t_bool": {
        "encoding": "inplace",
        "label": "bool",
        "numberOfBytes": "1"
      },
      "t_uint256": {
        "encoding": "inplace",
        "label": "uint256",
        "numberOfBytes": "32"
      },
      "t_uint8": {
        "encoding": "inplace",
        "label": "uint8",
        "numberOfBytes": "1"
      }
    }
  }
}