{
  "address": "0x0F9b95a5c9012afdAe1afe12A3868834a6913D86",
  "abi": [
    {
      "inputs": [
        {
          "internalType": "address",
          "name": "owner",
          "type": "address"
        },
        {
          "internalType": "uint256[2]",
          "name": "commitmentMapperEdDSAPubKey",
          "type": "uint256[2]"
        },
        {
          "internalType": "address",
          "name": "commitmentMapperAddress",
          "type": "address"
        }
      ],
      "stateMutability": "nonpayable",
      "type": "constructor"
    },
    {
      "inputs": [
        {
          "internalType": "uint256[2]",
          "name": "pubKey",
          "type": "uint256[2]"
        }
      ],
      "name": "PubKeyNotValid",
      "type": "error"
    },
    {
      "anonymous": false,
      "inputs": [
        {
          "indexed": true,
          "internalType": "address",
          "name": "previousOwner",
          "type": "address"
        },
        {
          "indexed": true,
          "internalType": "address",
          "name": "newOwner",
          "type": "address"
        }
      ],
      "name": "OwnershipTransferred",
      "type": "event"
    },
    {
      "anonymous": false,
      "inputs": [
        {
          "indexed": false,
          "internalType": "address",
          "name": "newAddress",
          "type": "address"
        }
      ],
      "name": "UpdatedCommitmentMapperAddress",
      "type": "event"
    },
    {
      "anonymous": false,
      "inputs": [
        {
          "indexed": false,
          "internalType": "uint256[2]",
          "name": "newEdDSAPubKey",
          "type": "uint256[2]"
        }
      ],
      "name": "UpdatedCommitmentMapperEdDSAPubKey",
      "type": "event"
    },
    {
      "inputs": [],
      "name": "getAddress",
      "outputs": [
        {
          "internalType": "address",
          "name": "",
          "type": "address"
        }
      ],
      "stateMutability": "view",
      "type": "function"
    },
    {
      "inputs": [],
      "name": "getEdDSAPubKey",
      "outputs": [
        {
          "internalType": "uint256[2]",
          "name": "",
          "type": "uint256[2]"
        }
      ],
      "stateMutability": "view",
      "type": "function"
    },
    {
      "inputs": [
        {
          "internalType": "address",
          "name": "owner",
          "type": "address"
        },
        {
          "internalType": "uint256[2]",
          "name": "commitmentMapperEdDSAPubKey",
          "type": "uint256[2]"
        },
        {
          "internalType": "address",
          "name": "commitmentMapperAddress",
          "type": "address"
        }
      ],
      "name": "initialize",
      "outputs": [],
      "stateMutability": "nonpayable",
      "type": "function"
    },
    {
      "inputs": [],
      "name": "owner",
      "outputs": [
        {
          "internalType": "address",
          "name": "",
          "type": "address"
        }
      ],
      "stateMutability": "view",
      "type": "function"
    },
    {
      "inputs": [],
      "name": "renounceOwnership",
      "outputs": [],
      "stateMutability": "nonpayable",
      "type": "function"
    },
    {
      "inputs": [
        {
          "internalType": "address",
          "name": "newOwner",
          "type": "address"
        }
      ],
      "name": "transferOwnership",
      "outputs": [],
      "stateMutability": "nonpayable",
      "type": "function"
    },
    {
      "inputs": [
        {
          "internalType": "address",
          "name": "newAddress",
          "type": "address"
        }
      ],
      "name": "updateCommitmentMapperAddress",
      "outputs": [],
      "stateMutability": "nonpayable",
      "type": "function"
    },
    {
      "inputs": [
        {
          "internalType": "uint256[2]",
          "name": "newEdDSAPubKey",
          "type": "uint256[2]"
        }
      ],
      "name": "updateCommitmentMapperEdDSAPubKey",
      "outputs": [],
      "stateMutability": "nonpayable",
      "type": "function"
    }
  ],
  "transactionHash": "0x382abad39db0ddb5a222d2006327b8553259d7d06d87edd4a3f819837c57d9f0",
  "args": [
    "0xb01ee322C4f028B8A6BFcD2a5d48107dc5bC99EC",
    [
      "0x1e468ad0fcde4edec429cd41eb28a0e78d4f31fa2c25172ef677468b2b38a9dc",
      "0x2b6e9a8e3b8ed419cca51e2e2ee7ae07d2902454deca17d7da7b00ae4a798add"
    ],
    "0x0000000000000000000000000000000000000000"
  ],
  "numDeployments": 1,
  "solcInputHash": "ddee74ab32d7fd2413b571558be47026",
  "bytecode": "0x60806040523480156200001157600080fd5b5060405162000aac38038062000aac8339810160408190526200003491620002f1565b6200003f3362000055565b6200004c838383620000b0565b505050620003cd565b600080546001600160a01b038381166201000081810262010000600160b01b0319851617855560405193049190911692909183917f8be0079c531659141344cd1fd0a4f28419497f9722a3daafe3b4186f6b6457e091a35050565b600054610100900460ff16620000cd5760005460ff1615620000d7565b620000d76200019c565b6200013f5760405162461bcd60e51b815260206004820152602e60248201527f496e697469616c697a61626c653a20636f6e747261637420697320616c72656160448201526d191e481a5b9a5d1a585b1a5e995960921b606482015260840160405180910390fd5b600054610100900460ff1615801562000162576000805461ffff19166101011790555b6200016d8462000055565b6200017883620001ba565b620001838262000206565b801562000196576000805461ff00191690555b50505050565b6000620001b4306200025560201b620003a61760201c565b15905090565b620001c9600182600262000264565b507f9d99ec80e15298d9dae698493e9c61daaae3977b0f131ded44fc6b0f7766ab1581604051620001fb91906200039a565b60405180910390a150565b600380546001600160a01b0319166001600160a01b0383169081179091556040519081527fa37a473be736ea014730a555941f412164222d9d1b07f5a0a61932a1b3c3f2f490602001620001fb565b6001600160a01b03163b151590565b826002810192821562000295579160200282015b828111156200029557825182559160200191906001019062000278565b50620002a3929150620002a7565b5090565b5b80821115620002a35760008155600101620002a8565b80516001600160a01b0381168114620002d657600080fd5b919050565b634e487b7160e01b600052604160045260246000fd5b6000806000608084860312156200030757600080fd5b6200031284620002be565b9250602085603f8601126200032657600080fd5b604080519081016001600160401b03811182821017156200034b576200034b620002db565b6040528060608701888111156200036157600080fd5b8388015b818110156200037e578051835291840191840162000365565b508295506200038d81620002be565b9450505050509250925092565b60408101818360005b6002811015620003c4578151835260209283019290910190600101620003a3565b50505092915050565b6106cf80620003dd6000396000f3fe608060405234801561001057600080fd5b50600436106100885760003560e01c8063727b2d5c1161005b578063727b2d5c146100e957806378cf75d7146100fc5780638da5cb5b1461010f578063f2fde38b1461012657600080fd5b806338cc48311461008d57806359a80d0d146100b75780637098a5f4146100cc578063715018a6146100e1575b600080fd5b6003546001600160a01b03165b6040516001600160a01b0390911681526020015b60405180910390f35b6100bf610139565b6040516100ae9190610517565b6100df6100da3660046105c6565b610173565b005b6100df6101b9565b6100df6100f7366004610605565b6101f6565b6100df61010a366004610620565b610230565b6000546201000090046001600160a01b031661009a565b6100df610134366004610605565b610307565b6101416104a6565b60408051808201918290529060019060029082845b815481526020019060010190808311610156575050505050905090565b6000546001600160a01b03620100009091041633146101ad5760405162461bcd60e51b81526004016101a490610664565b60405180910390fd5b6101b6816103b5565b50565b6000546001600160a01b03620100009091041633146101ea5760405162461bcd60e51b81526004016101a490610664565b6101f460006103fd565b565b6000546001600160a01b03620100009091041633146102275760405162461bcd60e51b81526004016101a490610664565b6101b681610458565b600054610100900460ff1661024b5760005460ff161561024f565b303b155b6102b25760405162461bcd60e51b815260206004820152602e60248201527f496e697469616c697a61626c653a20636f6e747261637420697320616c72656160448201526d191e481a5b9a5d1a585b1a5e995960921b60648201526084016101a4565b600054610100900460ff161580156102d4576000805461ffff19166101011790555b6102dd846103fd565b6102e6836103b5565b6102ef82610458565b8015610301576000805461ff00191690555b50505050565b6000546001600160a01b03620100009091041633146103385760405162461bcd60e51b81526004016101a490610664565b6001600160a01b03811661039d5760405162461bcd60e51b815260206004820152602660248201527f4f776e61626c653a206e6577206f776e657220697320746865207a65726f206160448201526564647265737360d01b60648201526084016101a4565b6101b6816103fd565b6001600160a01b03163b151590565b6103c260018260026104c4565b507f9d99ec80e15298d9dae698493e9c61daaae3977b0f131ded44fc6b0f7766ab15816040516103f29190610517565b60405180910390a150565b600080546001600160a01b038381166201000081810262010000600160b01b0319851617855560405193049190911692909183917f8be0079c531659141344cd1fd0a4f28419497f9722a3daafe3b4186f6b6457e091a35050565b600380546001600160a01b0319166001600160a01b0383169081179091556040519081527fa37a473be736ea014730a555941f412164222d9d1b07f5a0a61932a1b3c3f2f4906020016103f2565b60405180604001604052806002906020820280368337509192915050565b82600281019282156104f2579160200282015b828111156104f25782518255916020019190600101906104d7565b506104fe929150610502565b5090565b5b808211156104fe5760008155600101610503565b60408101818360005b600281101561053f578151835260209283019290910190600101610520565b50505092915050565b600082601f83011261055957600080fd5b6040516040810181811067ffffffffffffffff8211171561058a57634e487b7160e01b600052604160045260246000fd5b80604052508060408401858111156105a157600080fd5b845b818110156105bb5780358352602092830192016105a3565b509195945050505050565b6000604082840312156105d857600080fd5b6105e28383610548565b9392505050565b80356001600160a01b038116811461060057600080fd5b919050565b60006020828403121561061757600080fd5b6105e2826105e9565b60008060006080848603121561063557600080fd5b61063e846105e9565b925061064d8560208601610548565b915061065b606085016105e9565b90509250925092565b6020808252818101527f4f776e61626c653a2063616c6c6572206973206e6f7420746865206f776e657260408201526060019056fea2646970667358221220271c8d1b92c1de0a925f374df3a4a1f3e28159bc20885014e3b7a7b839b55cf264736f6c634300080e0033",
  "devdoc": {
    "author": "Sismo",
    "kind": "dev",
    "methods": {
      "constructor": {
        "details": "Constructor",
        "params": {
          "commitmentMapperAddress": "Address of the commitment mapper",
          "commitmentMapperEdDSAPubKey": "EdDSA public key of the commitment mapper",
          "owner": "Owner of the contract, can update public key and address"
        }
      },
      "getAddress()": {
        "details": "Getter of the address of the commitment mapper"
      },
      "getEdDSAPubKey()": {
        "details": "Getter of the EdDSA public key of the commitment mapper"
      },
      "initialize(address,uint256[2],address)": {
        "details": "Initializes the contract, to be called by the proxy delegating calls to this implementation",
        "params": {
          "commitmentMapperAddress": "Address of the commitment mapper",
          "commitmentMapperEdDSAPubKey": "EdDSA public key of the commitment mapper",
          "owner": "Owner of the contract, can update public key and address"
        }
      },
      "owner()": {
        "details": "Returns the address of the current owner."
      },
      "renounceOwnership()": {
        "details": "Leaves the contract without owner. It will not be possible to call `onlyOwner` functions anymore. Can only be called by the current owner. NOTE: Renouncing ownership will leave the contract without an owner, thereby removing any functionality that is only available to the owner."
      },
      "transferOwnership(address)": {
        "details": "Transfers ownership of the contract to a new account (`newOwner`). Can only be called by the current owner."
      },
      "updateCommitmentMapperAddress(address)": {
        "details": "Updates the address",
        "params": {
          "newAddress": "new address"
        }
      },
      "updateCommitmentMapperEdDSAPubKey(uint256[2])": {
        "details": "Updates the EdDSA public key",
        "params": {
          "newEdDSAPubKey": "new EdDSA pubic key"
        }
      }
    },
    "title": "Commitment Mapper Registry Contract",
    "version": 1
  },
  "userdoc": {
    "kind": "user",
    "methods": {},
    "notice": "This contract stores information about the commitment mapper. Its ethereum address and its EdDSA public key For more information: https://commitment-mapper.docs.sismo.io*",
    "version": 1
  },
  "storageLayout": {
    "storage": [
      {
        "astId": 936,
        "contract": "contracts/periphery/utils/CommitmentMapperRegistry.sol:CommitmentMapperRegistry",
        "label": "_initialized",
        "offset": 0,
        "slot": "0",
        "type": "t_bool"
      },
      {
        "astId": 939,
        "contract": "contracts/periphery/utils/CommitmentMapperRegistry.sol:CommitmentMapperRegistry",
        "label": "_initializing",
        "offset": 1,
        "slot": "0",
        "type": "t_bool"
      },
      {
        "astId": 389,
        "contract": "contracts/periphery/utils/CommitmentMapperRegistry.sol:CommitmentMapperRegistry",
        "label": "_owner",
        "offset": 2,
        "slot": "0",
        "type": "t_address"
      },
      {
        "astId": 10478,
        "contract": "contracts/periphery/utils/CommitmentMapperRegistry.sol:CommitmentMapperRegistry",
        "label": "_commitmentMapperPubKey",
        "offset": 0,
        "slot": "1",
        "type": "t_array(t_uint256)2_storage"
      },
      {
        "astId": 10480,
        "contract": "contracts/periphery/utils/CommitmentMapperRegistry.sol:CommitmentMapperRegistry",
        "label": "_commitmentMapperAddress",
        "offset": 0,
        "slot": "3",
        "type": "t_address"
      }
    ],
    "types": {
      "t_address": {
        "encoding": "inplace",
        "label": "address",
        "numberOfBytes": "20"
      },
      "t_array(t_uint256)2_storage": {
        "base": "t_uint256",
        "encoding": "inplace",
        "label": "uint256[2]",
        "numberOfBytes": "64"
      },
      "t_bool": {
        "encoding": "inplace",
        "label": "bool",
        "numberOfBytes": "1"
      },
      "t_uint256": {
        "encoding": "inplace",
        "label": "uint256",
        "numberOfBytes": "32"
      }
    }
  }
}