{
  "address": "0xa73a8094E303A823a8b64089fFD79913E76092cF",
  "abi": [
    {
      "inputs": [
        {
          "internalType": "address",
          "name": "attestationsRegistryAddress",
          "type": "address"
        },
        {
          "internalType": "address",
          "name": "hydraS1VerifierAddress",
          "type": "address"
        },
        {
          "internalType": "address",
          "name": "availableRootsRegistryAddress",
          "type": "address"
        },
        {
          "internalType": "address",
          "name": "commitmentMapperAddress",
          "type": "address"
        },
        {
          "internalType": "uint256",
          "name": "collectionIdFirst",
          "type": "uint256"
        },
        {
          "internalType": "uint256",
          "name": "collectionIdLast",
          "type": "uint256"
        }
      ],
      "stateMutability": "nonpayable",
      "type": "constructor"
    },
    {
      "inputs": [
        {
          "internalType": "uint256",
          "name": "expectedAccountsTreeValue",
          "type": "uint256"
        },
        {
          "internalType": "uint256",
          "name": "inputAccountsTreeValue",
          "type": "uint256"
        }
      ],
      "name": "AccountsTreeValueMismatch",
      "type": "error"
    },
    {
      "inputs": [],
      "name": "AttestationDeletionNotImplemented",
      "type": "error"
    },
    {
      "inputs": [
        {
          "internalType": "uint256",
          "name": "expectedChainId",
          "type": "uint256"
        },
        {
          "internalType": "uint256",
          "name": "chainId",
          "type": "uint256"
        }
      ],
      "name": "ChainIdMismatch",
      "type": "error"
    },
    {
      "inputs": [
        {
          "internalType": "uint256",
          "name": "claimLength",
          "type": "uint256"
        }
      ],
      "name": "ClaimsLengthDifferentThanOne",
      "type": "error"
    },
    {
      "inputs": [
        {
          "internalType": "uint256",
          "name": "collectionId",
          "type": "uint256"
        }
      ],
      "name": "CollectionIdOutOfBound",
      "type": "error"
    },
    {
      "inputs": [
        {
          "internalType": "uint256",
          "name": "expectedX",
          "type": "uint256"
        },
        {
          "internalType": "uint256",
          "name": "expectedY",
          "type": "uint256"
        },
        {
          "internalType": "uint256",
          "name": "inputX",
          "type": "uint256"
        },
        {
          "internalType": "uint256",
          "name": "inputY",
          "type": "uint256"
        }
      ],
      "name": "CommitmentMapperPubKeyMismatch",
      "type": "error"
    },
    {
      "inputs": [
        {
          "internalType": "address",
          "name": "expectedDestination",
          "type": "address"
        },
        {
          "internalType": "address",
          "name": "inputDestination",
          "type": "address"
        }
      ],
      "name": "DestinationMismatch",
      "type": "error"
    },
    {
      "inputs": [
        {
          "internalType": "uint256",
          "name": "expectedExternalNullifier",
          "type": "uint256"
        },
        {
          "internalType": "uint256",
          "name": "externalNullifier",
          "type": "uint256"
        }
      ],
      "name": "ExternalNullifierMismatch",
      "type": "error"
    },
    {
      "inputs": [
        {
          "internalType": "uint256",
          "name": "expectedGroupId",
          "type": "uint256"
        },
        {
          "internalType": "uint256",
          "name": "groupId",
          "type": "uint256"
        }
      ],
      "name": "GroupIdAndPropertiesMismatch",
      "type": "error"
    },
    {
      "inputs": [
        {
          "internalType": "string",
          "name": "reason",
          "type": "string"
        }
      ],
      "name": "InvalidGroth16Proof",
      "type": "error"
    },
    {
      "inputs": [
        {
          "internalType": "bool",
          "name": "expectedStrictness",
          "type": "bool"
        },
        {
          "internalType": "bool",
          "name": "strictNess",
          "type": "bool"
        }
      ],
      "name": "IsStrictMismatch",
      "type": "error"
    },
    {
      "inputs": [
        {
          "internalType": "uint256",
          "name": "nullifier",
          "type": "uint256"
        }
      ],
      "name": "NullifierUsed",
      "type": "error"
    },
    {
      "inputs": [
        {
          "internalType": "uint256",
          "name": "inputRoot",
          "type": "uint256"
        }
      ],
      "name": "RegistryRootMismatch",
      "type": "error"
    },
    {
      "inputs": [
        {
          "internalType": "uint256",
          "name": "expectedValue",
          "type": "uint256"
        },
        {
          "internalType": "uint256",
          "name": "inputValue",
          "type": "uint256"
        }
      ],
      "name": "ValueMismatch",
      "type": "error"
    },
    {
      "anonymous": false,
      "inputs": [
        {
          "components": [
            {
              "internalType": "uint256",
              "name": "collectionId",
              "type": "uint256"
            },
            {
              "internalType": "address",
              "name": "owner",
              "type": "address"
            },
            {
              "internalType": "address",
              "name": "issuer",
              "type": "address"
            },
            {
              "internalType": "uint256",
              "name": "value",
              "type": "uint256"
            },
            {
              "internalType": "uint32",
              "name": "timestamp",
              "type": "uint32"
            },
            {
              "internalType": "bytes",
              "name": "extraData",
              "type": "bytes"
            }
          ],
          "indexed": false,
          "internalType": "struct Attestation",
          "name": "attestation",
          "type": "tuple"
        }
      ],
      "name": "AttestationDeleted",
      "type": "event"
    },
    {
      "anonymous": false,
      "inputs": [
        {
          "components": [
            {
              "internalType": "uint256",
              "name": "collectionId",
              "type": "uint256"
            },
            {
              "internalType": "address",
              "name": "owner",
              "type": "address"
            },
            {
              "internalType": "address",
              "name": "issuer",
              "type": "address"
            },
            {
              "internalType": "uint256",
              "name": "value",
              "type": "uint256"
            },
            {
              "internalType": "uint32",
              "name": "timestamp",
              "type": "uint32"
            },
            {
              "internalType": "bytes",
              "name": "extraData",
              "type": "bytes"
            }
          ],
          "indexed": false,
          "internalType": "struct Attestation",
          "name": "attestation",
          "type": "tuple"
        }
      ],
      "name": "AttestationGenerated",
      "type": "event"
    },
    {
      "anonymous": false,
      "inputs": [
        {
          "indexed": false,
          "internalType": "uint8",
          "name": "version",
          "type": "uint8"
        }
      ],
      "name": "Initialized",
      "type": "event"
    },
    {
      "anonymous": false,
      "inputs": [
        {
          "indexed": false,
          "internalType": "uint256",
          "name": "nullifier",
          "type": "uint256"
        },
        {
          "indexed": false,
          "internalType": "address",
          "name": "newOwner",
          "type": "address"
        }
      ],
      "name": "NullifierDestinationUpdated",
      "type": "event"
    },
    {
      "inputs": [],
      "name": "AUTHORIZED_COLLECTION_ID_FIRST",
      "outputs": [
        {
          "internalType": "uint256",
          "name": "",
          "type": "uint256"
        }
      ],
      "stateMutability": "view",
      "type": "function"
    },
    {
      "inputs": [],
      "name": "AUTHORIZED_COLLECTION_ID_LAST",
      "outputs": [
        {
          "internalType": "uint256",
          "name": "",
          "type": "uint256"
        }
      ],
      "stateMutability": "view",
      "type": "function"
    },
    {
      "inputs": [
        {
          "components": [
            {
              "components": [
                {
                  "internalType": "uint256",
                  "name": "groupId",
                  "type": "uint256"
                },
                {
                  "internalType": "uint256",
                  "name": "claimedValue",
                  "type": "uint256"
                },
                {
                  "internalType": "bytes",
                  "name": "extraData",
                  "type": "bytes"
                }
              ],
              "internalType": "struct Claim[]",
              "name": "claims",
              "type": "tuple[]"
            },
            {
              "internalType": "address",
              "name": "destination",
              "type": "address"
            }
          ],
          "internalType": "struct Request",
          "name": "request",
          "type": "tuple"
        },
        {
          "internalType": "bytes",
          "name": "",
          "type": "bytes"
        }
      ],
      "name": "buildAttestations",
      "outputs": [
        {
          "components": [
            {
              "internalType": "uint256",
              "name": "collectionId",
              "type": "uint256"
            },
            {
              "internalType": "address",
              "name": "owner",
              "type": "address"
            },
            {
              "internalType": "address",
              "name": "issuer",
              "type": "address"
            },
            {
              "internalType": "uint256",
              "name": "value",
              "type": "uint256"
            },
            {
              "internalType": "uint32",
              "name": "timestamp",
              "type": "uint32"
            },
            {
              "internalType": "bytes",
              "name": "extraData",
              "type": "bytes"
            }
          ],
          "internalType": "struct Attestation[]",
          "name": "",
          "type": "tuple[]"
        }
      ],
      "stateMutability": "view",
      "type": "function"
    },
    {
      "inputs": [
        {
          "internalType": "uint256[]",
          "name": "collectionIds",
          "type": "uint256[]"
        },
        {
          "internalType": "address",
          "name": "attestationsOwner",
          "type": "address"
        },
        {
          "internalType": "bytes",
          "name": "proofData",
          "type": "bytes"
        }
      ],
      "name": "deleteAttestations",
      "outputs": [
        {
          "components": [
            {
              "internalType": "uint256",
              "name": "collectionId",
              "type": "uint256"
            },
            {
              "internalType": "address",
              "name": "owner",
              "type": "address"
            },
            {
              "internalType": "address",
              "name": "issuer",
              "type": "address"
            },
            {
              "internalType": "uint256",
              "name": "value",
              "type": "uint256"
            },
            {
              "internalType": "uint32",
              "name": "timestamp",
              "type": "uint32"
            },
            {
              "internalType": "bytes",
              "name": "extraData",
              "type": "bytes"
            }
          ],
          "internalType": "struct Attestation[]",
          "name": "",
          "type": "tuple[]"
        }
      ],
      "stateMutability": "nonpayable",
      "type": "function"
    },
    {
      "inputs": [
        {
          "components": [
            {
              "components": [
                {
                  "internalType": "uint256",
                  "name": "groupId",
                  "type": "uint256"
                },
                {
                  "internalType": "uint256",
                  "name": "claimedValue",
                  "type": "uint256"
                },
                {
                  "internalType": "bytes",
                  "name": "extraData",
                  "type": "bytes"
                }
              ],
              "internalType": "struct Claim[]",
              "name": "claims",
              "type": "tuple[]"
            },
            {
              "internalType": "address",
              "name": "destination",
              "type": "address"
            }
          ],
          "internalType": "struct Request",
          "name": "request",
          "type": "tuple"
        },
        {
          "internalType": "bytes",
          "name": "proofData",
          "type": "bytes"
        }
      ],
      "name": "generateAttestations",
      "outputs": [
        {
          "components": [
            {
              "internalType": "uint256",
              "name": "collectionId",
              "type": "uint256"
            },
            {
              "internalType": "address",
              "name": "owner",
              "type": "address"
            },
            {
              "internalType": "address",
              "name": "issuer",
              "type": "address"
            },
            {
              "internalType": "uint256",
              "name": "value",
              "type": "uint256"
            },
            {
              "internalType": "uint32",
              "name": "timestamp",
              "type": "uint32"
            },
            {
              "internalType": "bytes",
              "name": "extraData",
              "type": "bytes"
            }
          ],
          "internalType": "struct Attestation[]",
          "name": "",
          "type": "tuple[]"
        }
      ],
      "stateMutability": "nonpayable",
      "type": "function"
    },
    {
      "inputs": [],
      "name": "getAttestationRegistry",
      "outputs": [
        {
          "internalType": "contract IAttestationsRegistry",
          "name": "",
          "type": "address"
        }
      ],
      "stateMutability": "view",
      "type": "function"
    },
    {
      "inputs": [],
      "name": "getAvailableRootsRegistry",
      "outputs": [
        {
          "internalType": "contract IAvailableRootsRegistry",
          "name": "",
          "type": "address"
        }
      ],
      "stateMutability": "view",
      "type": "function"
    },
    {
      "inputs": [],
      "name": "getCommitmentMapperRegistry",
      "outputs": [
        {
          "internalType": "contract ICommitmentMapperRegistry",
          "name": "",
          "type": "address"
        }
      ],
      "stateMutability": "view",
      "type": "function"
    },
    {
      "inputs": [
        {
          "internalType": "uint256",
          "name": "nullifier",
          "type": "uint256"
        }
      ],
      "name": "getDestinationOfNullifier",
      "outputs": [
        {
          "internalType": "address",
          "name": "",
          "type": "address"
        }
      ],
      "stateMutability": "view",
      "type": "function"
    },
    {
      "inputs": [],
      "name": "getVerifier",
      "outputs": [
        {
          "internalType": "contract HydraS1Verifier",
          "name": "",
          "type": "address"
        }
      ],
      "stateMutability": "view",
      "type": "function"
    }
  ],
  "transactionHash": "0x65f15042229d5d55edc5112c84a50d9ac3cdf40c6257b221c76146c05c5a2faf",
  "args": [
    "0x3D7220043f746FA5a087cD53460D48a5C0990980",
    "0xF7b494E07466759367BD71Eb4f545593eed4B854",
    "0x4CA636f37b577BfEEcE58eEc19053AC4490365BB",
    "0xe52EB1f52349F98c09a5B11B0E3fA7f269268Add",
    "10000001",
    "20000000"
  ],
  "numDeployments": 1,
  "solcInputHash": "166704d46dbd9cfd00d5a3cb8077a32e",
  "bytecode": "0x6101406040523480156200001257600080fd5b5060405162001f6438038062001f64833981016040819052620000359162000081565b6001600160a01b0394851660805292841660c05290831660a0529190921660e0526101005261012052620000f0565b80516001600160a01b03811681146200007c57600080fd5b919050565b60008060008060008060c087890312156200009b57600080fd5b620000a68762000064565b9550620000b66020880162000064565b9450620000c66040880162000064565b9350620000d66060880162000064565b92506080870151915060a087015190509295509295509295565b60805160a05160c05160e0516101005161012051611dee620001766000396000818161015901526102b901526000818161012401526102910152600081816101c30152818161048a0152818161066b015261078c01526000818161017d0152610c3701526000818160d50152610cd301526000818160fb0152610e340152611dee6000f3fe608060405234801561001057600080fd5b506004361061009e5760003560e01c8063918447af11610066578063918447af1461017b578063af411a30146101a1578063bfa66585146101c1578063c776adde146101e7578063e60f999f146101fa57600080fd5b8063063599db146100a35780632254f98e146100d357806346657fe9146100f957806354846d7a1461011f5780637000b05114610154575b600080fd5b6100b66100b13660046112d5565b61020d565b6040516001600160a01b0390911681526020015b60405180910390f35b7f00000000000000000000000000000000000000000000000000000000000000006100b6565b7f00000000000000000000000000000000000000000000000000000000000000006100b6565b6101467f000000000000000000000000000000000000000000000000000000000000000081565b6040519081526020016100ca565b6101467f000000000000000000000000000000000000000000000000000000000000000081565b7f00000000000000000000000000000000000000000000000000000000000000006100b6565b6101b46101af366004611336565b61022c565b6040516100ca9190611461565b7f00000000000000000000000000000000000000000000000000000000000000006100b6565b6101b46101f53660046114e8565b610393565b6101b4610208366004611336565b61074e565b6000818152600160205260408120546001600160a01b03165b92915050565b6060600061024161023c86611646565b61086a565b60408051600180825281830190925291925060009190816020015b6102646111b3565b81526020019060019003908161025c5750506060830151519091506000906102b5906001600160801b03167f00000000000000000000000000000000000000000000000000000000000000006117d5565b90507f000000000000000000000000000000000000000000000000000000000000000081111561030057604051637bbf29e360e01b8152600481018290526024015b60405180910390fd5b60003090506040518060c0016040528083815260200185604001516001600160a01b03168152602001826001600160a01b031681526020018560200151815260200185606001516020015163ffffffff168152602001604051806020016040528060008152508152508360008151811061037c5761037c6117ed565b602090810291909101015250909695505050505050565b60606000856001600160401b038111156103af576103af611599565b6040519080825280602002602001820160405280156103d8578160200160208202803683370190505b5090506000866001600160401b038111156103f5576103f5611599565b60405190808252806020026020018201604052801561041e578160200160208202803683370190505b5090506000876001600160401b0381111561043b5761043b611599565b60405190808252806020026020018201604052801561047457816020015b6104616111b3565b8152602001906001900390816104595790505b50905060005b88811015610648576000806000807f00000000000000000000000000000000000000000000000000000000000000006001600160a01b0316633be1ced78f8f888181106104c9576104c96117ed565b905060200201358e6040518363ffffffff1660e01b81526004016105009291909182526001600160a01b0316602082015260400190565b600060405180830381865afa15801561051d573d6000803e3d6000fd5b505050506040513d6000823e601f3d908101601f191682016040526105459190810190611817565b93509350935093508b888681518110610560576105606117ed565b60200260200101906001600160a01b031690816001600160a01b0316815250508d8d86818110610592576105926117ed565b905060200201358786815181106105ab576105ab6117ed565b6020026020010181815250506040518060c001604052808f8f888181106105d4576105d46117ed565b9050602002013581526020018d6001600160a01b03168152602001856001600160a01b031681526020018481526020018363ffffffff16815260200182815250868681518110610626576106266117ed565b6020026020010181905250505050508080610640906118c6565b91505061047a565b506106548187876108ef565b60405163811a6af760e01b81526001600160a01b037f0000000000000000000000000000000000000000000000000000000000000000169063811a6af7906106a290869086906004016118df565b600060405180830381600087803b1580156106bc57600080fd5b505af11580156106d0573d6000803e3d6000fd5b5050505060005b88811015610741577f01cba57fa881d11e8be5640b6abefb9709f2dd45f776051b2cf5cb8ea23fa56b828281518110610712576107126117ed565b60200260200101516040516107279190611963565b60405180910390a180610739816118c6565b9150506106d7565b5098975050505050505050565b606061075b848484610908565b600061076885858561022c565b9050610775858585610950565b60405163ebc5c09360e01b81526001600160a01b037f0000000000000000000000000000000000000000000000000000000000000000169063ebc5c093906107c1908490600401611461565b600060405180830381600087803b1580156107db57600080fd5b505af11580156107ef573d6000803e3d6000fd5b5050505060005b8151811015610861577f336e708b72b2b4a27a0c25e8cce7f97512e7f1e8dcaf800b100075e62c1eb1fc828281518110610832576108326117ed565b60200260200101516040516108479190611963565b60405180910390a180610859816118c6565b9150506107f6565b50949350505050565b610872611201565b6000826000015160008151811061088b5761088b6117ed565b6020026020010151905061089e816109eb565b600081604001518060200190518101906108b89190611986565b60408051608081018252845181526020948501518582015295909301516001600160a01b0316928501929092525060608301525090565b604051630d5cd8d960e11b815260040160405180910390fd5b600061091682840184611ab5565b9050600061092382610a2f565b9050600061093361023c87611646565b905061093f8183610ad9565b61094883610e0a565b505050505050565b600061095c8383610fa3565b6000818152600160205260409020549091506001600160a01b031680158015906109a757506109916040860160208701611b86565b6001600160a01b0316816001600160a01b031614155b156109c85760405163093b5a1d60e31b8152600481018390526024016102f7565b6109e1826109dc6040880160208901611b86565b610fc8565b5050505050565b50565b60006109fa826040015161102e565b82519091508114610a2b5781516040516337e3d1ab60e01b81526102f7918391600401918252602082015260400190565b5050565b610a37611264565b604051806101200160405280610a4c84611063565b6001600160a01b03168152602001610a6384611078565b8152602001610a7184611087565b8152602001610a7f84611096565b8152602001610a8d846110a5565b8152602001610a9b846110b4565b8152602001610aa9846110c3565b8152602001610ac18460200151610120015160011490565b15158152602001610ad1846110d2565b905292915050565b815160c082015114610b0e57815160c082015160405163fe405c7760e01b8152600481019290925260248201526044016102f7565b81606001516040015115158160e00151151503610b5957606082015160409081015160e08301519151634629f1b560e11b8152901515600482015290151560248201526044016102f7565b81604001516001600160a01b031681600001516001600160a01b031614610bad57604082810151825191516370a8d99b60e11b81526001600160a01b039182166004820152911660248201526044016102f7565b46816020015114610be0576020810151604051630432cec160e31b815246600482015260248101919091526044016102f7565b81602001518160a0015114610c1b57602082015160a0820151604051630626ade360e41b8152600481019290925260248201526044016102f7565b604081810151905163072f23bd60e51b815260048101919091527f00000000000000000000000000000000000000000000000000000000000000006001600160a01b03169063e5e477a090602401602060405180830381865afa158015610c86573d6000803e3d6000fd5b505050506040513d601f19601f82011682018060405250810190610caa9190611ba3565b610ccf57806040015160405163cbfe7bc360e01b81526004016102f791815260200190565b60007f00000000000000000000000000000000000000000000000000000000000000006001600160a01b03166359a80d0d6040518163ffffffff1660e01b81526004016040805180830381865afa158015610d2e573d6000803e3d6000fd5b505050506040513d601f19601f82011682018060405250810190610d529190611bbe565b805161010084015151919250141580610d7957506020808201516101008401519091015114155b15610dc3578051602080830151610100850151805192015160405163318d812b60e01b815260048101949094526024840191909152604483019190915260648201526084016102f7565b6000610dce8461112a565b905080836060015114610e04576060830151604051630e6efbdd60e21b81526102f7918391600401918252602082015260400190565b50505050565b805180516020808301516040938401519185015193516379ddb87b60e11b81526001600160a01b037f0000000000000000000000000000000000000000000000000000000000000000169463f3bb70f694610e6d94909392909190600401611c3a565b602060405180830381865afa925050508015610ea6575060408051601f3d908101601f19168201909252610ea391810190611ba3565b60015b610f7c57610eb2611cbe565b806308c379a003610eeb5750610ec6611cda565b80610ed15750610f2a565b8060405162dd577760e81b81526004016102f79190611d63565b634e487b7103610f2a57610efd611d76565b90610f085750610f2a565b60405162dd577760e81b815260206004820152600060248201526044016102f7565b3d808015610f54576040519150601f19603f3d011682016040523d82523d6000602084013e610f59565b606091505b5060405162dd577760e81b815260206004820152600060248201526044016102f7565b80610a2b5760405162dd577760e81b815260206004820152600060248201526044016102f7565b600080610fb283850185611ab5565b90506000610fbf826110a5565b95945050505050565b60008281526001602090815260409182902080546001600160a01b0319166001600160a01b0385169081179091558251858152918201527f0c5a122814a29e22d1363dacdd6f7c95345b70890f97e65eacb5565da28116ac910160405180910390a15050565b80516020820120600090610226907f30644e72e131a029b85045b68181585d2833e84879b9709143e1f593f000000190611d96565b6020810151600090815b602002015192915050565b6020810151600090600161106d565b6020810151600090600461106d565b6020810151600090600561106d565b6020810151600090600661106d565b6020810151600090600761106d565b6020810151600090600861106d565b6110da6112b7565b604051806040016040528083602001516002600a81106110fc576110fc6117ed565b6020020151815260200183602001516003600a811061111d5761111d6117ed565b6020020151905292915050565b600080611148308460600151600001516001600160801b031661114f565b9392505050565b604080516001600160a01b03841660208201529081018290526000907f30644e72e131a029b85045b68181585d2833e84879b9709143e1f593f0000001906060016040516020818303038152906040528051906020012060001c6111489190611d96565b6040518060c001604052806000815260200160006001600160a01b0316815260200160006001600160a01b0316815260200160008152602001600063ffffffff168152602001606081525090565b6040518060800160405280600081526020016000815260200160006001600160a01b0316815260200161125f604051806060016040528060006001600160801b03168152602001600063ffffffff1681526020016000151581525090565b905290565b60405180610120016040528060006001600160a01b0316815260200160008152602001600081526020016000815260200160008152602001600081526020016000815260200160001515815260200161125f5b60405180604001604052806002906020820280368337509192915050565b6000602082840312156112e757600080fd5b5035919050565b60008083601f84011261130057600080fd5b5081356001600160401b0381111561131757600080fd5b60208301915083602082850101111561132f57600080fd5b9250929050565b60008060006040848603121561134b57600080fd5b83356001600160401b038082111561136257600080fd5b908501906040828803121561137657600080fd5b9093506020850135908082111561138c57600080fd5b50611399868287016112ee565b9497909650939450505050565b60005b838110156113c15781810151838201526020016113a9565b83811115610e045750506000910152565b600081518084526113ea8160208601602086016113a6565b601f01601f19169290920160200192915050565b805182526000602082015160018060a01b03808216602086015280604085015116604086015250506060820151606084015263ffffffff608083015116608084015260a082015160c060a085015261145960c08501826113d2565b949350505050565b6000602080830181845280855180835260408601915060408160051b870101925083870160005b828110156114b657603f198886030184526114a48583516113fe565b94509285019290850190600101611488565b5092979650505050505050565b6001600160a01b03811681146109e857600080fd5b80356114e3816114c3565b919050565b60008060008060006060868803121561150057600080fd5b85356001600160401b038082111561151757600080fd5b818801915088601f83011261152b57600080fd5b81358181111561153a57600080fd5b8960208260051b850101111561154f57600080fd5b60208301975080965050611565602089016114d8565b9450604088013591508082111561157b57600080fd5b50611588888289016112ee565b969995985093965092949392505050565b634e487b7160e01b600052604160045260246000fd5b604081018181106001600160401b03821117156115ce576115ce611599565b60405250565b606081018181106001600160401b03821117156115ce576115ce611599565b601f8201601f191681016001600160401b038111828210171561161857611618611599565b6040525050565b60006001600160401b0382111561163857611638611599565b50601f01601f191660200190565b6000604080833603121561165957600080fd5b8051611664816115af565b83356001600160401b038082111561167b57600080fd5b9085019036601f83011261168e57600080fd5b81356020828211156116a2576116a2611599565b8160051b86516116b4838301826115f3565b928352848101820192828101368511156116cd57600080fd5b83870192505b848310156117a1578235868111156116eb5760008081fd5b8701606036829003601f19018113156117045760008081fd5b8a5161170f816115d4565b8287013581528b830135818801529082013590888211156117305760008081fd5b9181019136603f84011261174657600091508182fd5b8683013591506117558261161f565b8c5161176182826115f3565b838152368e85870101111561177857600091508182fd5b838e86018a830137600093810189019390935250808c01919091528252509183019183016116d3565b508652506117b08882016114d8565b90850152509195945050505050565b634e487b7160e01b600052601160045260246000fd5b600082198211156117e8576117e86117bf565b500190565b634e487b7160e01b600052603260045260246000fd5b805163ffffffff811681146114e357600080fd5b6000806000806080858703121561182d57600080fd5b8451611838816114c3565b6020860151909450925061184e60408601611803565b915060608501516001600160401b0381111561186957600080fd5b8501601f8101871361187a57600080fd5b80516118858161161f565b60405161189282826115f3565b8281528960208486010111156118a757600080fd5b6118b88360208301602087016113a6565b969995985093965050505050565b6000600182016118d8576118d86117bf565b5060010190565b604080825283519082018190526000906020906060840190828701845b828110156119215781516001600160a01b0316845292840192908401906001016118fc565b5050508381038285015284518082528583019183019060005b818110156119565783518352928401929184019160010161193a565b5090979650505050505050565b60208152600061114860208301846113fe565b805180151581146114e357600080fd5b60006060828403121561199857600080fd5b604051606081018181106001600160401b03821117156119ba576119ba611599565b60405282516001600160801b03811681146119d457600080fd5b81526119e260208401611803565b60208201526119f360408401611976565b60408201529392505050565b600082601f830112611a1057600080fd5b604051611a1c816115af565b806040840185811115611a2e57600080fd5b845b81811015611a48578035835260209283019201611a30565b509195945050505050565b600082601f830112611a6457600080fd5b6040516101408082018281106001600160401b0382111715611a8857611a88611599565b60405283018185821115611a9b57600080fd5b845b82811015611a48578035825260209182019101611a9d565b6000818303610240811215611ac957600080fd5b60408051611ad6816115af565b61010080841215611ae657600080fd5b82519350611af3846115d4565b611afd87876119ff565b845286605f870112611b0e57600080fd5b8251611b19816115af565b8060c0880189811115611b2b57600080fd5b8589015b81811015611b5057611b418b826119ff565b83526020909201918601611b2f565b50826020880152611b618a826119ff565b86880152505050838252611b7787828801611a53565b60208301525095945050505050565b600060208284031215611b9857600080fd5b8135611148816114c3565b600060208284031215611bb557600080fd5b61114882611976565b600060408284031215611bd057600080fd5b82601f830112611bdf57600080fd5b604051611beb816115af565b806040840185811115611bfd57600080fd5b845b81811015611a48578051835260209283019201611bff565b8060005b6002811015610e04578151845260209384019390910190600101611c1b565b6102408101611c498287611c17565b60408083018660005b6002811015611c7957611c66838351611c17565b9183019160209190910190600101611c52565b50505050611c8a60c0830185611c17565b61010082018360005b600a811015611cb2578151835260209283019290910190600101611c93565b50505095945050505050565b600060033d1115611cd75760046000803e5060005160e01c5b90565b600060443d1015611ce85790565b6040516003193d81016004833e81513d6001600160401b038160248401118184111715611d1757505050505090565b8285019150815181811115611d2f5750505050505090565b843d8701016020828501011115611d495750505050505090565b611d58602082860101876115f3565b509095945050505050565b60208152600061114860208301846113d2565b60008060233d1115611d92576020600460003e50506000516001905b9091565b600082611db357634e487b7160e01b600052601260045260246000fd5b50069056fea2646970667358221220fc0f81ea70dc5b1b411d8567e2c5b797fa84e964cfbae4b169bfd9ce43725c6964736f6c634300080e0033",
  "devdoc": {
    "author": "Sismo",
    "errors": {
      "CollectionIdOutOfBound(uint256)": [
        {
          "details": "Error when the collectionId of an attestation overflow the AUTHORIZED_COLLECTION_ID_LAST*"
        }
      ],
      "NullifierUsed(uint256)": [
        {
          "details": "Error when the nullifier is already used for a destination address*"
        }
      ]
    },
    "kind": "dev",
    "methods": {
      "buildAttestations(((uint256,uint256,bytes)[],address),bytes)": {
        "details": "Returns attestations that will be recorded, constructed from the user request",
        "params": {
          "request": "users request. Claim of having an account part of a group of accounts"
        }
      },
      "constructor": {
        "details": "Constructor. Initializes the contract",
        "params": {
          "attestationsRegistryAddress": "Attestations Registry contract on which the attester will write attestations",
          "availableRootsRegistryAddress": "Registry storing the available groups for this attester (e.g roots of registry merkle trees)",
          "collectionIdFirst": "Id of the first collection in which the attester is supposed to record",
          "collectionIdLast": "Id of the last collection in which the attester is supposed to record",
          "commitmentMapperAddress": "commitment mapper's public key registry",
          "hydraS1VerifierAddress": "ZK Snark Hydra-S1 Verifier contract"
        }
      },
      "deleteAttestations(uint256[],address,bytes)": {
        "details": "External facing function. Allows to delete attestations by submitting proof",
        "params": {
          "attestationsOwner": "Owner of attestations to delete",
          "collectionIds": "Collection identifier of attestations to delete",
          "proofData": "Data sent along the deletion request to prove its validity"
        },
        "returns": {
          "_0": "attestations Attestations that were deleted"
        }
      },
      "generateAttestations(((uint256,uint256,bytes)[],address),bytes)": {
        "details": "Main external function. Allows to generate attestations by making a request and submitting proof",
        "params": {
          "proofData": "Data sent along the request to prove its validity",
          "request": "User request"
        },
        "returns": {
          "_0": "attestations Attestations that has been recorded"
        }
      },
      "getAttestationRegistry()": {
        "details": "Attestation registry getter",
        "returns": {
          "_0": "attestationRegistry"
        }
      },
      "getAvailableRootsRegistry()": {
        "details": "Getter of Roots Registry Contract"
      },
      "getCommitmentMapperRegistry()": {
        "details": "Getter of Commitment Mapper Registry contract"
      },
      "getDestinationOfNullifier(uint256)": {
        "details": "Getter, returns the last attestation destination of a nullifier",
        "params": {
          "nullifier": "nullifier used*"
        }
      },
      "getVerifier()": {
        "details": "Getter of Hydra-S1 Verifier contract"
      }
    },
    "stateVariables": {
      "AUTHORIZED_COLLECTION_ID_FIRST": {
        "details": "Getter returns of the first collection in which the attester is supposed to record*"
      },
      "AUTHORIZED_COLLECTION_ID_LAST": {
        "details": "Getter returns of the last collection in which the attester is supposed to record*"
      }
    },
    "title": "Hydra-S1 Simple Attester",
    "version": 1
  },
  "userdoc": {
    "kind": "user",
    "methods": {},
    "notice": "This attester is part of the family of the Hydra-S1 Attesters. Hydra-S1 attesters enable users to prove they have an account in a group in a privacy preserving way. The Hydra-S1 Base abstract contract is inherited and holds the complex Hydra S1 verification logic. We invite readers to refer to:    - https://hydra-s1.docs.sismo.io for a full guide through the Hydra-S1 ZK Attestations    - https://hydra-s1-circuits.docs.sismo.io for circuits, prover and verifiers of Hydra-S1 This specific attester has the following characteristics: - Zero Knowledge   One cannot deduct from an attestation what source account was used to generate the underlying proof - Non Strict (scores)   If a user can generate an attestation of max value 100, they can also generate any attestation with value < 100.   This attester generate attestations of scores - Nullified   Each source account gets one nullifier per claim (i.e only one attestation per source account per claim)   For people used to semaphore/ tornado cash people:   nullifier = hash(sourceSecret, externalNullifier) <=> nullifierHash = hash(IdNullifier, externalNullifier) - Renewable   A nullifier can actually be reused as long as the destination of the attestation remains the same   It enables users to renew their attestations*",
    "version": 1
  },
  "storageLayout": {
    "storage": [
      {
        "astId": 935,
        "contract": "contracts/attesters/hydra-s1/HydraS1SimpleAttester.sol:HydraS1SimpleAttester",
        "label": "_initialized",
        "offset": 0,
        "slot": "0",
        "type": "t_uint8"
      },
      {
        "astId": 938,
        "contract": "contracts/attesters/hydra-s1/HydraS1SimpleAttester.sol:HydraS1SimpleAttester",
        "label": "_initializing",
        "offset": 1,
        "slot": "0",
        "type": "t_bool"
      },
      {
        "astId": 7523,
        "contract": "contracts/attesters/hydra-s1/HydraS1SimpleAttester.sol:HydraS1SimpleAttester",
        "label": "_nullifiersDestinations",
        "offset": 0,
        "slot": "1",
        "type": "t_mapping(t_uint256,t_address)"
      }
    ],
    "types": {
      "t_address": {
        "encoding": "inplace",
        "label": "address",
        "numberOfBytes": "20"
      },
      "t_bool": {
        "encoding": "inplace",
        "label": "bool",
        "numberOfBytes": "1"
      },
      "t_mapping(t_uint256,t_address)": {
        "encoding": "mapping",
        "key": "t_uint256",
        "label": "mapping(uint256 => address)",
        "numberOfBytes": "32",
        "value": "t_address"
      },
      "t_uint256": {
        "encoding": "inplace",
        "label": "uint256",
        "numberOfBytes": "32"
      },
      "t_uint8": {
        "encoding": "inplace",
        "label": "uint8",
        "numberOfBytes": "1"
      }
    }
  }
}