{
  "address": "0x35764BeB995D7eF99A30748e1cB79A3D37Cb129A",
  "abi": [
    {
      "inputs": [
        {
          "internalType": "address",
          "name": "attestationsRegistryAddress",
          "type": "address"
        },
        {
          "internalType": "address",
          "name": "hydraS1VerifierAddress",
          "type": "address"
        },
        {
          "internalType": "address",
          "name": "availableRootsRegistryAddress",
          "type": "address"
        },
        {
          "internalType": "address",
          "name": "commitmentMapperAddress",
          "type": "address"
        },
        {
          "internalType": "uint256",
          "name": "collectionIdFirst",
          "type": "uint256"
        },
        {
          "internalType": "uint256",
          "name": "collectionIdLast",
          "type": "uint256"
        },
        {
          "internalType": "uint256",
          "name": "soulboundCooldownDuration",
          "type": "uint256"
        }
      ],
      "stateMutability": "nonpayable",
      "type": "constructor"
    },
    {
      "inputs": [
        {
          "internalType": "uint256",
          "name": "expectedAccountsTreeValue",
          "type": "uint256"
        },
        {
          "internalType": "uint256",
          "name": "inputAccountsTreeValue",
          "type": "uint256"
        }
      ],
      "name": "AccountsTreeValueMismatch",
      "type": "error"
    },
    {
      "inputs": [],
      "name": "AttestationDeletionNotImplemented",
      "type": "error"
    },
    {
      "inputs": [
        {
          "internalType": "uint256",
          "name": "expectedChainId",
          "type": "uint256"
        },
        {
          "internalType": "uint256",
          "name": "chainId",
          "type": "uint256"
        }
      ],
      "name": "ChainIdMismatch",
      "type": "error"
    },
    {
      "inputs": [
        {
          "internalType": "uint256",
          "name": "claimLength",
          "type": "uint256"
        }
      ],
      "name": "ClaimsLengthDifferentThanOne",
      "type": "error"
    },
    {
      "inputs": [
        {
          "internalType": "uint256",
          "name": "collectionId",
          "type": "uint256"
        }
      ],
      "name": "CollectionIdOutOfBound",
      "type": "error"
    },
    {
      "inputs": [
        {
          "internalType": "uint256",
          "name": "expectedX",
          "type": "uint256"
        },
        {
          "internalType": "uint256",
          "name": "expectedY",
          "type": "uint256"
        },
        {
          "internalType": "uint256",
          "name": "inputX",
          "type": "uint256"
        },
        {
          "internalType": "uint256",
          "name": "inputY",
          "type": "uint256"
        }
      ],
      "name": "CommitmentMapperPubKeyMismatch",
      "type": "error"
    },
    {
      "inputs": [
        {
          "internalType": "address",
          "name": "expectedDestination",
          "type": "address"
        },
        {
          "internalType": "address",
          "name": "inputDestination",
          "type": "address"
        }
      ],
      "name": "DestinationMismatch",
      "type": "error"
    },
    {
      "inputs": [
        {
          "internalType": "uint256",
          "name": "expectedGroupId",
          "type": "uint256"
        },
        {
          "internalType": "uint256",
          "name": "groupId",
          "type": "uint256"
        }
      ],
      "name": "GroupIdAndPropertiesMismatch",
      "type": "error"
    },
    {
      "inputs": [
        {
          "internalType": "string",
          "name": "reason",
          "type": "string"
        }
      ],
      "name": "InvalidGroth16Proof",
      "type": "error"
    },
    {
      "inputs": [
        {
          "internalType": "bool",
          "name": "expectedStrictness",
          "type": "bool"
        },
        {
          "internalType": "bool",
          "name": "strictNess",
          "type": "bool"
        }
      ],
      "name": "IsStrictMismatch",
      "type": "error"
    },
    {
      "inputs": [
        {
          "internalType": "uint256",
          "name": "ticket",
          "type": "uint256"
        },
        {
          "internalType": "address",
          "name": "sender",
          "type": "address"
        }
      ],
      "name": "NotAttestationOwner",
      "type": "error"
    },
    {
      "inputs": [
        {
          "internalType": "uint256",
          "name": "inputRoot",
          "type": "uint256"
        }
      ],
      "name": "RegistryRootMismatch",
      "type": "error"
    },
    {
      "inputs": [
        {
          "internalType": "uint256",
          "name": "ticketData",
          "type": "uint256"
        }
      ],
      "name": "TicketFrozen",
      "type": "error"
    },
    {
      "inputs": [
        {
          "internalType": "uint256",
          "name": "expectedTicketIdentifier",
          "type": "uint256"
        },
        {
          "internalType": "uint256",
          "name": "ticketIdentifier",
          "type": "uint256"
        }
      ],
      "name": "TicketIdentifierMismatch",
      "type": "error"
    },
    {
      "inputs": [
        {
          "components": [
            {
              "internalType": "address",
              "name": "destination",
              "type": "address"
            },
            {
              "internalType": "uint32",
              "name": "cooldownStart",
              "type": "uint32"
            }
          ],
          "internalType": "struct IHydraS1SoulboundAttester.TicketData",
          "name": "ticketData",
          "type": "tuple"
        }
      ],
      "name": "TicketUsedAndOnCooldown",
      "type": "error"
    },
    {
      "inputs": [
        {
          "internalType": "uint256",
          "name": "expectedValue",
          "type": "uint256"
        },
        {
          "internalType": "uint256",
          "name": "inputValue",
          "type": "uint256"
        }
      ],
      "name": "ValueMismatch",
      "type": "error"
    },
    {
      "anonymous": false,
      "inputs": [
        {
          "components": [
            {
              "internalType": "uint256",
              "name": "collectionId",
              "type": "uint256"
            },
            {
              "internalType": "address",
              "name": "owner",
              "type": "address"
            },
            {
              "internalType": "address",
              "name": "issuer",
              "type": "address"
            },
            {
              "internalType": "uint256",
              "name": "value",
              "type": "uint256"
            },
            {
              "internalType": "uint32",
              "name": "timestamp",
              "type": "uint32"
            },
            {
              "internalType": "bytes",
              "name": "extraData",
              "type": "bytes"
            }
          ],
          "indexed": false,
          "internalType": "struct Attestation",
          "name": "attestation",
          "type": "tuple"
        }
      ],
      "name": "AttestationDeleted",
      "type": "event"
    },
    {
      "anonymous": false,
      "inputs": [
        {
          "components": [
            {
              "internalType": "uint256",
              "name": "collectionId",
              "type": "uint256"
            },
            {
              "internalType": "address",
              "name": "owner",
              "type": "address"
            },
            {
              "internalType": "address",
              "name": "issuer",
              "type": "address"
            },
            {
              "internalType": "uint256",
              "name": "value",
              "type": "uint256"
            },
            {
              "internalType": "uint32",
              "name": "timestamp",
              "type": "uint32"
            },
            {
              "internalType": "bytes",
              "name": "extraData",
              "type": "bytes"
            }
          ],
          "indexed": false,
          "internalType": "struct Attestation",
          "name": "attestation",
          "type": "tuple"
        }
      ],
      "name": "AttestationGenerated",
      "type": "event"
    },
    {
      "anonymous": false,
      "inputs": [
        {
          "indexed": false,
          "internalType": "uint256",
          "name": "ticket",
          "type": "uint256"
        },
        {
          "indexed": false,
          "internalType": "address",
          "name": "newOwner",
          "type": "address"
        }
      ],
      "name": "TicketDestinationUpdated",
      "type": "event"
    },
    {
      "anonymous": false,
      "inputs": [
        {
          "indexed": false,
          "internalType": "uint256",
          "name": "ticket",
          "type": "uint256"
        }
      ],
      "name": "TicketSetOnCooldown",
      "type": "event"
    },
    {
      "inputs": [],
      "name": "AUTHORIZED_COLLECTION_ID_FIRST",
      "outputs": [
        {
          "internalType": "uint256",
          "name": "",
          "type": "uint256"
        }
      ],
      "stateMutability": "view",
      "type": "function"
    },
    {
      "inputs": [],
      "name": "AUTHORIZED_COLLECTION_ID_LAST",
      "outputs": [
        {
          "internalType": "uint256",
          "name": "",
          "type": "uint256"
        }
      ],
      "stateMutability": "view",
      "type": "function"
    },
    {
      "inputs": [],
      "name": "SOULBOUND_COOLDOWN_DURATION",
      "outputs": [
        {
          "internalType": "uint256",
          "name": "",
          "type": "uint256"
        }
      ],
      "stateMutability": "view",
      "type": "function"
    },
    {
      "inputs": [
        {
          "components": [
            {
              "components": [
                {
                  "internalType": "uint256",
                  "name": "groupId",
                  "type": "uint256"
                },
                {
                  "internalType": "uint256",
                  "name": "claimedValue",
                  "type": "uint256"
                },
                {
                  "internalType": "bytes",
                  "name": "extraData",
                  "type": "bytes"
                }
              ],
              "internalType": "struct Claim[]",
              "name": "claims",
              "type": "tuple[]"
            },
            {
              "internalType": "address",
              "name": "destination",
              "type": "address"
            }
          ],
          "internalType": "struct Request",
          "name": "request",
          "type": "tuple"
        },
        {
          "internalType": "bytes",
          "name": "proofData",
          "type": "bytes"
        }
      ],
      "name": "buildAttestations",
      "outputs": [
        {
          "components": [
            {
              "internalType": "uint256",
              "name": "collectionId",
              "type": "uint256"
            },
            {
              "internalType": "address",
              "name": "owner",
              "type": "address"
            },
            {
              "internalType": "address",
              "name": "issuer",
              "type": "address"
            },
            {
              "internalType": "uint256",
              "name": "value",
              "type": "uint256"
            },
            {
              "internalType": "uint32",
              "name": "timestamp",
              "type": "uint32"
            },
            {
              "internalType": "bytes",
              "name": "extraData",
              "type": "bytes"
            }
          ],
          "internalType": "struct Attestation[]",
          "name": "",
          "type": "tuple[]"
        }
      ],
      "stateMutability": "view",
      "type": "function"
    },
    {
      "inputs": [
        {
          "internalType": "uint256[]",
          "name": "collectionIds",
          "type": "uint256[]"
        },
        {
          "internalType": "address",
          "name": "attestationsOwner",
          "type": "address"
        },
        {
          "internalType": "bytes",
          "name": "proofData",
          "type": "bytes"
        }
      ],
      "name": "deleteAttestations",
      "outputs": [
        {
          "components": [
            {
              "internalType": "uint256",
              "name": "collectionId",
              "type": "uint256"
            },
            {
              "internalType": "address",
              "name": "owner",
              "type": "address"
            },
            {
              "internalType": "address",
              "name": "issuer",
              "type": "address"
            },
            {
              "internalType": "uint256",
              "name": "value",
              "type": "uint256"
            },
            {
              "internalType": "uint32",
              "name": "timestamp",
              "type": "uint32"
            },
            {
              "internalType": "bytes",
              "name": "extraData",
              "type": "bytes"
            }
          ],
          "internalType": "struct Attestation[]",
          "name": "",
          "type": "tuple[]"
        }
      ],
      "stateMutability": "nonpayable",
      "type": "function"
    },
    {
      "inputs": [
        {
          "components": [
            {
              "components": [
                {
                  "internalType": "uint256",
                  "name": "groupId",
                  "type": "uint256"
                },
                {
                  "internalType": "uint256",
                  "name": "claimedValue",
                  "type": "uint256"
                },
                {
                  "internalType": "bytes",
                  "name": "extraData",
                  "type": "bytes"
                }
              ],
              "internalType": "struct Claim[]",
              "name": "claims",
              "type": "tuple[]"
            },
            {
              "internalType": "address",
              "name": "destination",
              "type": "address"
            }
          ],
          "internalType": "struct Request",
          "name": "request",
          "type": "tuple"
        },
        {
          "internalType": "bytes",
          "name": "proofData",
          "type": "bytes"
        }
      ],
      "name": "generateAttestations",
      "outputs": [
        {
          "components": [
            {
              "internalType": "uint256",
              "name": "collectionId",
              "type": "uint256"
            },
            {
              "internalType": "address",
              "name": "owner",
              "type": "address"
            },
            {
              "internalType": "address",
              "name": "issuer",
              "type": "address"
            },
            {
              "internalType": "uint256",
              "name": "value",
              "type": "uint256"
            },
            {
              "internalType": "uint32",
              "name": "timestamp",
              "type": "uint32"
            },
            {
              "internalType": "bytes",
              "name": "extraData",
              "type": "bytes"
            }
          ],
          "internalType": "struct Attestation[]",
          "name": "",
          "type": "tuple[]"
        }
      ],
      "stateMutability": "nonpayable",
      "type": "function"
    },
    {
      "inputs": [],
      "name": "getAttestationRegistry",
      "outputs": [
        {
          "internalType": "contract IAttestationsRegistry",
          "name": "",
          "type": "address"
        }
      ],
      "stateMutability": "view",
      "type": "function"
    },
    {
      "inputs": [],
      "name": "getAvailableRootsRegistry",
      "outputs": [
        {
          "internalType": "contract IAvailableRootsRegistry",
          "name": "",
          "type": "address"
        }
      ],
      "stateMutability": "view",
      "type": "function"
    },
    {
      "inputs": [],
      "name": "getCommitmentMapperRegistry",
      "outputs": [
        {
          "internalType": "contract ICommitmentMapperRegistry",
          "name": "",
          "type": "address"
        }
      ],
      "stateMutability": "view",
      "type": "function"
    },
    {
      "inputs": [
        {
          "internalType": "uint256",
          "name": "userTicket",
          "type": "uint256"
        }
      ],
      "name": "getDestinationOfTicket",
      "outputs": [
        {
          "internalType": "address",
          "name": "",
          "type": "address"
        }
      ],
      "stateMutability": "view",
      "type": "function"
    },
    {
      "inputs": [
        {
          "internalType": "uint256",
          "name": "userTicket",
          "type": "uint256"
        }
      ],
      "name": "getTicketData",
      "outputs": [
        {
          "components": [
            {
              "internalType": "address",
              "name": "destination",
              "type": "address"
            },
            {
              "internalType": "uint32",
              "name": "cooldownStart",
              "type": "uint32"
            }
          ],
          "internalType": "struct IHydraS1SoulboundAttester.TicketData",
          "name": "",
          "type": "tuple"
        }
      ],
      "stateMutability": "view",
      "type": "function"
    },
    {
      "inputs": [],
      "name": "getVerifier",
      "outputs": [
        {
          "internalType": "contract HydraS1Verifier",
          "name": "",
          "type": "address"
        }
      ],
      "stateMutability": "view",
      "type": "function"
    },
    {
      "inputs": [
        {
          "internalType": "uint256",
          "name": "userTicket",
          "type": "uint256"
        }
      ],
      "name": "isTicketOnCooldown",
      "outputs": [
        {
          "internalType": "bool",
          "name": "",
          "type": "bool"
        }
      ],
      "stateMutability": "view",
      "type": "function"
    }
  ],
  "transactionHash": "0x2d93ac219c7a0231be18042df6fc4e64c8e8b5389d07670ea7e21ada03f1b07c",
  "args": [
    "0xFc93DEEad3DbBc81C42a0403Ba954f2b2097c815",
    "0x3E32f688cf768b67b938Bed4D3Cca5a97130D8A0",
    "0xfE394023c2B16Ba30d0B86d3Bf3A5C59F37e2935",
    "0xf294395eDF00da254cba98821Fd89Ec609Dc1122",
    "20000001",
    "30000000",
    "295200"
  ],
  "numDeployments": 1,
  "solcInputHash": "c070bd412d121737c51722d693b21789",
  "bytecode": "0x6101606040523480156200001257600080fd5b506040516200228138038062002281833981016040819052620000359162000088565b6001600160a01b0395861660805293851660c05291841660a0529390921660e05261010092909252610120526101405262000102565b80516001600160a01b03811681146200008357600080fd5b919050565b600080600080600080600060e0888a031215620000a457600080fd5b620000af886200006b565b9650620000bf602089016200006b565b9550620000cf604089016200006b565b9450620000df606089016200006b565b93506080880151925060a0880151915060c0880151905092959891949750929550565b60805160a05160c05160e0516101005161012051610140516120e66200019b6000396000818161013e01526109440152600081816101ad01526103c901526000818161017301526103a101526000818161023a015281816104e7015281816106d301526108110152600081816101d10152610f3801526000818160d60152610fd4015260008181610115015261112f01526120e66000f3fe608060405234801561001057600080fd5b50600436106100cf5760003560e01c8063918447af1161008c578063bfa6658511610066578063bfa6658514610238578063c776adde1461025e578063d9895e6a14610271578063e60f999f146102ae57600080fd5b8063918447af146101cf57806392cf369d146101f5578063af411a301461021857600080fd5b80632254f98e146100d457806346657fe9146101135780634e5cf9331461013957806354846d7a1461016e57806363e4afc2146101955780637000b051146101a8575b600080fd5b7f00000000000000000000000000000000000000000000000000000000000000005b6040516001600160a01b0390911681526020015b60405180910390f35b7f00000000000000000000000000000000000000000000000000000000000000006100f6565b6101607f000000000000000000000000000000000000000000000000000000000000000081565b60405190815260200161010a565b6101607f000000000000000000000000000000000000000000000000000000000000000081565b6100f66101a33660046115a8565b6102c1565b6101607f000000000000000000000000000000000000000000000000000000000000000081565b7f00000000000000000000000000000000000000000000000000000000000000006100f6565b6102086102033660046115a8565b6102e0565b604051901515815260200161010a565b61022b61022636600461160a565b6102f3565b60405161010a9190611736565b7f00000000000000000000000000000000000000000000000000000000000000006100f6565b61022b61026c3660046117bd565b6104ce565b61028461027f3660046115a8565b6107b6565b6040805182516001600160a01b0316815260209283015163ffffffff16928101929092520161010a565b61022b6102bc36600461160a565b6107d3565b6000818152600160205260408120546001600160a01b03165b92915050565b60006102da6102ee836108ef565b61093f565b6060600061030861030386611920565b61097f565b60408051600180825281830190925291925060009190816020015b6103746040518060c001604052806000815260200160006001600160a01b0316815260200160006001600160a01b0316815260200160008152602001600063ffffffff168152602001606081525090565b8152602001906001900390816103235750506060830151519091506000906103c5906001600160801b03167f0000000000000000000000000000000000000000000000000000000000000000611ab0565b90507f000000000000000000000000000000000000000000000000000000000000000081111561041057604051637bbf29e360e01b8152600481018290526024015b60405180910390fd5b30600061041d8888610a04565b90506040518060c001604052808481526020018a60200160208101906104439190611ac8565b6001600160a01b03168152602001836001600160a01b031681526020018660200151815260200186606001516020015163ffffffff1681526020018260405160200161049191815260200190565b604051602081830303815290604052815250846000815181106104b6576104b6611ae5565b60209081029190910101525091979650505050505050565b60608060608060005b888110156106a5576000806000807f00000000000000000000000000000000000000000000000000000000000000006001600160a01b0316633be1ced78f8f8881811061052657610526611ae5565b905060200201358e6040518363ffffffff1660e01b815260040161055d9291909182526001600160a01b0316602082015260400190565b600060405180830381865afa15801561057a573d6000803e3d6000fd5b505050506040513d6000823e601f3d908101601f191682016040526105a29190810190611b0f565b93509350935093508b8886815181106105bd576105bd611ae5565b60200260200101906001600160a01b031690816001600160a01b0316815250508d8d868181106105ef576105ef611ae5565b9050602002013587868151811061060857610608611ae5565b6020026020010181815250506040518060c001604052808f8f8881811061063157610631611ae5565b9050602002013581526020018d6001600160a01b03168152602001856001600160a01b031681526020018481526020018363ffffffff1681526020018281525086868151811061068357610683611ae5565b602002602001018190525050505050808061069d90611bbf565b9150506104d7565b506106b1818787610a29565b6106bc818787610ac4565b60405163811a6af760e01b81526001600160a01b037f0000000000000000000000000000000000000000000000000000000000000000169063811a6af79061070a9086908690600401611bd8565b600060405180830381600087803b15801561072457600080fd5b505af1158015610738573d6000803e3d6000fd5b5050505060005b888110156107a9577f01cba57fa881d11e8be5640b6abefb9709f2dd45f776051b2cf5cb8ea23fa56b82828151811061077a5761077a611ae5565b602002602001015160405161078f9190611c5c565b60405180910390a1806107a181611bbf565b91505061073f565b5098975050505050505050565b60408051808201909152600080825260208201526102da826108ef565b60606107e0848484610b9a565b60006107ed8585856102f3565b90506107fa858585610be2565b60405163ebc5c09360e01b81526001600160a01b037f0000000000000000000000000000000000000000000000000000000000000000169063ebc5c09390610846908490600401611736565b600060405180830381600087803b15801561086057600080fd5b505af1158015610874573d6000803e3d6000fd5b5050505060005b81518110156108e6577f336e708b72b2b4a27a0c25e8cce7f97512e7f1e8dcaf800b100075e62c1eb1fc8282815181106108b7576108b7611ae5565b60200260200101516040516108cc9190611c5c565b60405180910390a1806108de81611bbf565b91505061087b565b50949350505050565b6040805180820190915260008082526020820152506000908152600160209081526040918290208251808401909352546001600160a01b0381168352600160a01b900463ffffffff169082015290565b6000427f0000000000000000000000000000000000000000000000000000000000000000836020015163ffffffff166109789190611ab0565b1092915050565b6109876114d4565b600082600001516000815181106109a0576109a0611ae5565b602002602001015190506109b381610cd6565b600081604001518060200190518101906109cd9190611c7f565b60408051608081018252845181526020948501518582015295909301516001600160a01b0316928501929092525060608301525090565b600080610a1383850185611db0565b90506000610a2082610d1a565b95945050505050565b60005b8351811015610abe57600084600081518110610a4a57610a4a611ae5565b602002602001015160a00151806020019051810190610a699190611e81565b6000818152600160205260409020549091506001600160a01b03163314610aab5760405162f8a2bf60e81b815260048101829052336024820152604401610407565b5080610ab681611bbf565b915050610a2c565b50505050565b60005b8351811015610abe576000848281518110610ae457610ae4611ae5565b602002602001015160a00151806020019051810190610b039190611e81565b6000818152600160209081526040918290208251808401909352546001600160a01b0381168352600160a01b900463ffffffff1690820152909150610b479061093f565b1515600103610b6c57604051632fcfdde360e11b815260048101829052602401610407565b600090815260016020526040902080546001600160a01b031916905580610b9281611bbf565b915050610ac7565b6000610ba882840184611db0565b90506000610bb582610d30565b90506000610bc561030387611920565b9050610bd18183610dda565b610bda83611105565b505050505050565b6000610bee8383610a04565b6000818152600160209081526040918290208251808401909352546001600160a01b038116808452600160a01b90910463ffffffff16918301919091529192509015801590610c625750610c486040860160208701611ac8565b6001600160a01b031681600001516001600160a01b031614155b15610cb357610c708161093f565b15610caa57604051633f8ffaa560e01b815281516001600160a01b03166004820152602082015163ffffffff166024820152604401610407565b610cb38261129e565b610ccc82610cc76040880160208901611ac8565b6112ff565b5050505050565b50565b6000610ce58260400151611365565b82519091508114610d165781516040516337e3d1ab60e01b8152610407918391600401918252602082015260400190565b5050565b602081015160009060065b602002015192915050565b610d38611537565b604051806101200160405280610d4d8461139a565b6001600160a01b03168152602001610d64846113a8565b8152602001610d72846113b7565b8152602001610d80846113c6565b8152602001610d8e84610d1a565b8152602001610d9c846113d5565b8152602001610daa846113e4565b8152602001610dc28460200151610120015160011490565b15158152602001610dd2846113f3565b905292915050565b815160c082015114610e0f57815160c082015160405163fe405c7760e01b815260048101929092526024820152604401610407565b81606001516040015115158160e00151151503610e5a57606082015160409081015160e08301519151634629f1b560e11b815290151560048201529015156024820152604401610407565b81604001516001600160a01b031681600001516001600160a01b031614610eae57604082810151825191516370a8d99b60e11b81526001600160a01b03918216600482015291166024820152604401610407565b46816020015114610ee1576020810151604051630432cec160e31b81524660048201526024810191909152604401610407565b81602001518160a0015114610f1c57602082015160a0820151604051630626ade360e41b815260048101929092526024820152604401610407565b604081810151905163072f23bd60e51b815260048101919091527f00000000000000000000000000000000000000000000000000000000000000006001600160a01b03169063e5e477a090602401602060405180830381865afa158015610f87573d6000803e3d6000fd5b505050506040513d601f19601f82011682018060405250810190610fab9190611e9a565b610fd057806040015160405163cbfe7bc360e01b815260040161040791815260200190565b60007f00000000000000000000000000000000000000000000000000000000000000006001600160a01b03166359a80d0d6040518163ffffffff1660e01b81526004016040805180830381865afa15801561102f573d6000803e3d6000fd5b505050506040513d601f19601f820116820180604052508101906110539190611eb5565b80516101008401515191925014158061107a57506020808201516101008401519091015114155b156110c4578051602080830151610100850151805192015160405163318d812b60e01b81526004810194909452602484019190915260448301919091526064820152608401610407565b60006110cf8461144b565b905080836060015114610abe5760608301516040516377bb6d2760e11b8152610407918391600401918252602082015260400190565b805180516020808301516040938401519185015193516379ddb87b60e11b81526001600160a01b037f0000000000000000000000000000000000000000000000000000000000000000169463f3bb70f69461116894909392909190600401611f31565b602060405180830381865afa9250505080156111a1575060408051601f3d908101601f1916820190925261119e91810190611e9a565b60015b611277576111ad611fb5565b806308c379a0036111e657506111c1611fd1565b806111cc5750611225565b8060405162dd577760e81b8152600401610407919061205b565b634e487b7103611225576111f861206e565b906112035750611225565b60405162dd577760e81b81526020600482015260006024820152604401610407565b3d80801561124f576040519150601f19603f3d011682016040523d82523d6000602084013e611254565b606091505b5060405162dd577760e81b81526020600482015260006024820152604401610407565b80610d165760405162dd577760e81b81526020600482015260006024820152604401610407565b600081815260016020908152604091829020805463ffffffff60a01b1916600160a01b4263ffffffff160217905590518281527f49ab97b1dc68eafe79e6e7f8ff996d00259888e84cb401cf9ec8d39adf7ab196910160405180910390a150565b60008281526001602090815260409182902080546001600160a01b0319166001600160a01b0385169081179091558251858152918201527f38ff70eda64ebd48cbf0a5a4e1be5c5d509a7cdb60258e5a9210c1c0508dcbef910160405180910390a15050565b805160208201206000906102da907f30644e72e131a029b85045b68181585d2833e84879b9709143e1f593f00000019061208e565b602081015160009081610d25565b60208101516000906001610d25565b60208101516000906004610d25565b60208101516000906005610d25565b60208101516000906007610d25565b60208101516000906008610d25565b6113fb61158a565b604051806040016040528083602001516002600a811061141d5761141d611ae5565b6020020151815260200183602001516003600a811061143e5761143e611ae5565b6020020151905292915050565b600080611469308460600151600001516001600160801b0316611470565b9392505050565b604080516001600160a01b03841660208201529081018290526000907f30644e72e131a029b85045b68181585d2833e84879b9709143e1f593f0000001906060016040516020818303038152906040528051906020012060001c611469919061208e565b6040518060800160405280600081526020016000815260200160006001600160a01b03168152602001611532604051806060016040528060006001600160801b03168152602001600063ffffffff1681526020016000151581525090565b905290565b60405180610120016040528060006001600160a01b031681526020016000815260200160008152602001600081526020016000815260200160008152602001600081526020016000151581526020016115325b60405180604001604052806002906020820280368337509192915050565b6000602082840312156115ba57600080fd5b5035919050565b60008083601f8401126115d357600080fd5b50813567ffffffffffffffff8111156115eb57600080fd5b60208301915083602082850101111561160357600080fd5b9250929050565b60008060006040848603121561161f57600080fd5b833567ffffffffffffffff8082111561163757600080fd5b908501906040828803121561164b57600080fd5b9093506020850135908082111561166157600080fd5b5061166e868287016115c1565b9497909650939450505050565b60005b8381101561169657818101518382015260200161167e565b83811115610abe5750506000910152565b600081518084526116bf81602086016020860161167b565b601f01601f19169290920160200192915050565b805182526000602082015160018060a01b03808216602086015280604085015116604086015250506060820151606084015263ffffffff608083015116608084015260a082015160c060a085015261172e60c08501826116a7565b949350505050565b6000602080830181845280855180835260408601915060408160051b870101925083870160005b8281101561178b57603f198886030184526117798583516116d3565b9450928501929085019060010161175d565b5092979650505050505050565b6001600160a01b0381168114610cd357600080fd5b80356117b881611798565b919050565b6000806000806000606086880312156117d557600080fd5b853567ffffffffffffffff808211156117ed57600080fd5b818801915088601f83011261180157600080fd5b81358181111561181057600080fd5b8960208260051b850101111561182557600080fd5b6020830197508096505061183b602089016117ad565b9450604088013591508082111561185157600080fd5b5061185e888289016115c1565b969995985093965092949392505050565b634e487b7160e01b600052604160045260246000fd5b6040810181811067ffffffffffffffff821117156118a5576118a561186f565b60405250565b6060810181811067ffffffffffffffff821117156118a5576118a561186f565b601f8201601f1916810167ffffffffffffffff811182821017156118f1576118f161186f565b6040525050565b600067ffffffffffffffff8211156119125761191261186f565b50601f01601f191660200190565b6000604080833603121561193357600080fd5b805161193e81611885565b833567ffffffffffffffff8082111561195657600080fd5b9085019036601f83011261196957600080fd5b813560208282111561197d5761197d61186f565b8160051b865161198f838301826118cb565b928352848101820192828101368511156119a857600080fd5b83870192505b84831015611a7c578235868111156119c65760008081fd5b8701606036829003601f19018113156119df5760008081fd5b8a516119ea816118ab565b8287013581528b83013581880152908201359088821115611a0b5760008081fd5b9181019136603f840112611a2157600091508182fd5b868301359150611a30826118f8565b8c51611a3c82826118cb565b838152368e858701011115611a5357600091508182fd5b838e86018a830137600093810189019390935250808c01919091528252509183019183016119ae565b50865250611a8b8882016117ad565b90850152509195945050505050565b634e487b7160e01b600052601160045260246000fd5b60008219821115611ac357611ac3611a9a565b500190565b600060208284031215611ada57600080fd5b813561146981611798565b634e487b7160e01b600052603260045260246000fd5b805163ffffffff811681146117b857600080fd5b60008060008060808587031215611b2557600080fd5b8451611b3081611798565b60208601519094509250611b4660408601611afb565b9150606085015167ffffffffffffffff811115611b6257600080fd5b8501601f81018713611b7357600080fd5b8051611b7e816118f8565b604051611b8b82826118cb565b828152896020848601011115611ba057600080fd5b611bb183602083016020870161167b565b969995985093965050505050565b600060018201611bd157611bd1611a9a565b5060010190565b604080825283519082018190526000906020906060840190828701845b82811015611c1a5781516001600160a01b031684529284019290840190600101611bf5565b5050508381038285015284518082528583019183019060005b81811015611c4f57835183529284019291840191600101611c33565b5090979650505050505050565b60208152600061146960208301846116d3565b805180151581146117b857600080fd5b600060608284031215611c9157600080fd5b6040516060810181811067ffffffffffffffff82111715611cb457611cb461186f565b60405282516001600160801b0381168114611cce57600080fd5b8152611cdc60208401611afb565b6020820152611ced60408401611c6f565b60408201529392505050565b600082601f830112611d0a57600080fd5b604051611d1681611885565b806040840185811115611d2857600080fd5b845b81811015611d42578035835260209283019201611d2a565b509195945050505050565b600082601f830112611d5e57600080fd5b60405161014080820182811067ffffffffffffffff82111715611d8357611d8361186f565b60405283018185821115611d9657600080fd5b845b82811015611d42578035825260209182019101611d98565b6000818303610240811215611dc457600080fd5b60408051611dd181611885565b61010080841215611de157600080fd5b82519350611dee846118ab565b611df88787611cf9565b845286605f870112611e0957600080fd5b8251611e1481611885565b8060c0880189811115611e2657600080fd5b8589015b81811015611e4b57611e3c8b82611cf9565b83526020909201918601611e2a565b50826020880152611e5c8a82611cf9565b86880152505050838252611e7287828801611d4d565b60208301525095945050505050565b600060208284031215611e9357600080fd5b5051919050565b600060208284031215611eac57600080fd5b61146982611c6f565b600060408284031215611ec757600080fd5b82601f830112611ed657600080fd5b604051611ee281611885565b806040840185811115611ef457600080fd5b845b81811015611d42578051835260209283019201611ef6565b8060005b6002811015610abe578151845260209384019390910190600101611f12565b6102408101611f408287611f0e565b60408083018660005b6002811015611f7057611f5d838351611f0e565b9183019160209190910190600101611f49565b50505050611f8160c0830185611f0e565b61010082018360005b600a811015611fa9578151835260209283019290910190600101611f8a565b50505095945050505050565b600060033d1115611fce5760046000803e5060005160e01c5b90565b600060443d1015611fdf5790565b6040516003193d81016004833e81513d67ffffffffffffffff816024840111818411171561200f57505050505090565b82850191508151818111156120275750505050505090565b843d87010160208285010111156120415750505050505090565b612050602082860101876118cb565b509095945050505050565b60208152600061146960208301846116a7565b60008060233d111561208a576020600460003e50506000516001905b9091565b6000826120ab57634e487b7160e01b600052601260045260246000fd5b50069056fea26469706673582212208023a26bac26b772a7715c7f741d86e877ab44cf035d0042fbcc719e73615f7f64736f6c634300080e0033",
  "devdoc": {
    "author": "Sismo",
    "kind": "dev",
    "methods": {
      "buildAttestations(((uint256,uint256,bytes)[],address),bytes)": {
        "details": "Returns the actual attestations constructed from the user request",
        "params": {
          "proofData": "snark public input as well as snark proof",
          "request": "users request. Claim of having an account part of a group of accounts"
        }
      },
      "constructor": {
        "details": "Constructor. Initializes the contract",
        "params": {
          "attestationsRegistryAddress": "Attestations Registry contract on which the attester will write attestations",
          "availableRootsRegistryAddress": "Registry storing the available groups for this attester (e.g roots of registry merkle trees)",
          "collectionIdFirst": "Id of the first collection in which the attester is supposed to record",
          "collectionIdLast": "Id of the last collection in which the attester is supposed to record",
          "commitmentMapperAddress": "commitment mapper's public key registry",
          "hydraS1VerifierAddress": "ZK Snark Hydra-S1 Verifier contract"
        }
      },
      "deleteAttestations(uint256[],address,bytes)": {
        "details": "External facing function. Allows to delete attestations by submitting proof",
        "params": {
          "attestationsOwner": "Owner of attestations to delete",
          "collectionIds": "Collection identifier of attestations to delete",
          "proofData": "Data sent along the deletion request to prove its validity"
        },
        "returns": {
          "_0": "attestations Attestations that were deleted"
        }
      },
      "generateAttestations(((uint256,uint256,bytes)[],address),bytes)": {
        "details": "Main external function. Allows to generate attestations by making a request and submitting proof",
        "params": {
          "proofData": "Data sent along the request to prove its validity",
          "request": "User request"
        },
        "returns": {
          "_0": "attestations Attestations that has been recorded"
        }
      },
      "getAttestationRegistry()": {
        "details": "Attestation registry getter",
        "returns": {
          "_0": "attestationRegistry"
        }
      },
      "getAvailableRootsRegistry()": {
        "details": "Getter of Roots Registry Contract"
      },
      "getCommitmentMapperRegistry()": {
        "details": "Getter of Commitment Mapper Registry contract"
      },
      "getDestinationOfTicket(uint256)": {
        "details": "Getter, returns the last attestation destination of a ticket",
        "params": {
          "userTicket": "ticket used*"
        }
      },
      "getTicketData(uint256)": {
        "details": "Getter, returns the data linked to a ticket",
        "params": {
          "userTicket": "ticket used*"
        }
      },
      "getVerifier()": {
        "details": "Getter of Hydra-S1 Verifier contract"
      },
      "isTicketOnCooldown(uint256)": {
        "details": "returns whether a ticket is on cooldown or not",
        "params": {
          "userTicket": "ticket used*"
        }
      }
    },
    "stateVariables": {
      "AUTHORIZED_COLLECTION_ID_FIRST": {
        "details": "Getter returns of the first collection in which the attester is supposed to record*"
      },
      "AUTHORIZED_COLLECTION_ID_LAST": {
        "details": "Getter returns of the last collection in which the attester is supposed to record*"
      },
      "SOULBOUND_COOLDOWN_DURATION": {
        "details": "Getter returns of the duration of the cooldown period after having used a ticket*"
      }
    },
    "title": "Hydra-S1 Soulbound Attester",
    "version": 1
  },
  "userdoc": {
    "kind": "user",
    "methods": {},
    "notice": "This attester is part of the family of the Hydra-S1 Attesters. Hydra-S1 attesters enable users to prove they have an account in a group in a privacy preserving way. The Hydra-S1 Base abstract contract is inherited and holds the complex Hydra S1 verification logic. We invite readers to refer to:    - https://hydra-s1.docs.sismo.io for a full guide through the Hydra-S1 ZK Attestations    - https://hydra-s1-circuits.docs.sismo.io for circuits, prover and verifiers of Hydra-S1 This specific attester has the following characteristics: - Zero Knowledge   One cannot deduct from an attestation what source account was used to generate the underlying proof - Non Strict (scores)   If a user can generate an attestation of max value 100, they can also generate any attestation with value < 100.   This attester generate attestations of scores - Ticketed   Each source account gets one userTicket per claim (i.e only one attestation per source account per claim)   For people used to semaphore/ tornado cash people:   userTicket = hash(sourceSecret, ticketIdentifier) <=> nullifierHash = hash(IdNullifier, externalNullifier) - SoulBound (with cooldown period)   A user can chose to delete attestations or generate attestation to a new destination.   When deleting/ sending to a new destination, the ticket will enter a cooldown period, so it remains occasional   User will need to wait until the end of the cooldown period before being able to delete or switch destination again   One can however know that the former and the new destinations were created using the same userTicket - Renewable   A userTicket can actually be reused as long as the destination of the attestation remains the same   It enables users to renew or update their attestations*",
    "version": 1
  },
  "storageLayout": {
    "storage": [
      {
        "astId": 936,
        "contract": "contracts/attesters/hydra-s1/variants/HydraS1SoulboundAttester.sol:HydraS1SoulboundAttester",
        "label": "_initialized",
        "offset": 0,
        "slot": "0",
        "type": "t_bool"
      },
      {
        "astId": 939,
        "contract": "contracts/attesters/hydra-s1/variants/HydraS1SoulboundAttester.sol:HydraS1SoulboundAttester",
        "label": "_initializing",
        "offset": 1,
        "slot": "0",
        "type": "t_bool"
      },
      {
        "astId": 6592,
        "contract": "contracts/attesters/hydra-s1/variants/HydraS1SoulboundAttester.sol:HydraS1SoulboundAttester",
        "label": "_userTicketsData",
        "offset": 0,
        "slot": "1",
        "type": "t_mapping(t_uint256,t_struct(TicketData)6019_storage)"
      }
    ],
    "types": {
      "t_address": {
        "encoding": "inplace",
        "label": "address",
        "numberOfBytes": "20"
      },
      "t_bool": {
        "encoding": "inplace",
        "label": "bool",
        "numberOfBytes": "1"
      },
      "t_mapping(t_uint256,t_struct(TicketData)6019_storage)": {
        "encoding": "mapping",
        "key": "t_uint256",
        "label": "mapping(uint256 => struct IHydraS1SoulboundAttester.TicketData)",
        "numberOfBytes": "32",
        "value": "t_struct(TicketData)6019_storage"
      },
      "t_struct(TicketData)6019_storage": {
        "encoding": "inplace",
        "label": "struct IHydraS1SoulboundAttester.TicketData",
        "members": [
          {
            "astId": 6016,
            "contract": "contracts/attesters/hydra-s1/variants/HydraS1SoulboundAttester.sol:HydraS1SoulboundAttester",
            "label": "destination",
            "offset": 0,
            "slot": "0",
            "type": "t_address"
          },
          {
            "astId": 6018,
            "contract": "contracts/attesters/hydra-s1/variants/HydraS1SoulboundAttester.sol:HydraS1SoulboundAttester",
            "label": "cooldownStart",
            "offset": 20,
            "slot": "0",
            "type": "t_uint32"
          }
        ],
        "numberOfBytes": "32"
      },
      "t_uint256": {
        "encoding": "inplace",
        "label": "uint256",
        "numberOfBytes": "32"
      },
      "t_uint32": {
        "encoding": "inplace",
        "label": "uint32",
        "numberOfBytes": "4"
      }
    }
  }
}