{
  "address": "0x8812f5A0616F39F66E97194dFdfFC59433201F8E",
  "abi": [
    {
      "inputs": [
        {
          "internalType": "address",
          "name": "owner",
          "type": "address"
        },
        {
          "internalType": "address",
          "name": "badgesAddress",
          "type": "address"
        }
      ],
      "stateMutability": "nonpayable",
      "type": "constructor"
    },
    {
      "inputs": [
        {
          "internalType": "address",
          "name": "issuer",
          "type": "address"
        }
      ],
      "name": "AttesterNotFound",
      "type": "error"
    },
    {
      "inputs": [
        {
          "internalType": "address",
          "name": "issuer",
          "type": "address"
        },
        {
          "internalType": "uint256",
          "name": "rangeIndex",
          "type": "uint256"
        },
        {
          "internalType": "uint256",
          "name": "expectedFirstId",
          "type": "uint256"
        },
        {
          "internalType": "uint256",
          "name": "expectedLastId",
          "type": "uint256"
        },
        {
          "internalType": "uint256",
          "name": "FirstId",
          "type": "uint256"
        },
        {
          "internalType": "uint256",
          "name": "lastCollectionId",
          "type": "uint256"
        }
      ],
      "name": "IdsMismatch",
      "type": "error"
    },
    {
      "inputs": [
        {
          "internalType": "address",
          "name": "issuer",
          "type": "address"
        },
        {
          "internalType": "uint256",
          "name": "collectionId",
          "type": "uint256"
        }
      ],
      "name": "IssuerNotAuthorized",
      "type": "error"
    },
    {
      "inputs": [
        {
          "internalType": "address[]",
          "name": "owners",
          "type": "address[]"
        },
        {
          "internalType": "uint256[]",
          "name": "collectionIds",
          "type": "uint256[]"
        }
      ],
      "name": "OwnersAndCollectionIdsLengthMismatch",
      "type": "error"
    },
    {
      "inputs": [
        {
          "internalType": "address",
          "name": "issuer",
          "type": "address"
        },
        {
          "internalType": "uint256",
          "name": "expectedArrayLength",
          "type": "uint256"
        },
        {
          "internalType": "uint256",
          "name": "rangeIndex",
          "type": "uint256"
        }
      ],
      "name": "RangeIndexOutOfBounds",
      "type": "error"
    },
    {
      "anonymous": false,
      "inputs": [
        {
          "components": [
            {
              "internalType": "uint256",
              "name": "collectionId",
              "type": "uint256"
            },
            {
              "internalType": "address",
              "name": "owner",
              "type": "address"
            },
            {
              "internalType": "address",
              "name": "issuer",
              "type": "address"
            },
            {
              "internalType": "uint256",
              "name": "value",
              "type": "uint256"
            },
            {
              "internalType": "uint32",
              "name": "timestamp",
              "type": "uint32"
            },
            {
              "internalType": "bytes",
              "name": "extraData",
              "type": "bytes"
            }
          ],
          "indexed": false,
          "internalType": "struct Attestation",
          "name": "attestation",
          "type": "tuple"
        }
      ],
      "name": "AttestationDeleted",
      "type": "event"
    },
    {
      "anonymous": false,
      "inputs": [
        {
          "components": [
            {
              "internalType": "uint256",
              "name": "collectionId",
              "type": "uint256"
            },
            {
              "internalType": "address",
              "name": "owner",
              "type": "address"
            },
            {
              "internalType": "address",
              "name": "issuer",
              "type": "address"
            },
            {
              "internalType": "uint256",
              "name": "value",
              "type": "uint256"
            },
            {
              "internalType": "uint32",
              "name": "timestamp",
              "type": "uint32"
            },
            {
              "internalType": "bytes",
              "name": "extraData",
              "type": "bytes"
            }
          ],
          "indexed": false,
          "internalType": "struct Attestation",
          "name": "attestation",
          "type": "tuple"
        }
      ],
      "name": "AttestationRecorded",
      "type": "event"
    },
    {
      "anonymous": false,
      "inputs": [
        {
          "indexed": false,
          "internalType": "address",
          "name": "issuer",
          "type": "address"
        },
        {
          "indexed": false,
          "internalType": "uint256",
          "name": "firstCollectionId",
          "type": "uint256"
        },
        {
          "indexed": false,
          "internalType": "uint256",
          "name": "lastCollectionId",
          "type": "uint256"
        }
      ],
      "name": "IssuerAuthorized",
      "type": "event"
    },
    {
      "anonymous": false,
      "inputs": [
        {
          "indexed": false,
          "internalType": "address",
          "name": "issuer",
          "type": "address"
        },
        {
          "indexed": false,
          "internalType": "uint256",
          "name": "firstCollectionId",
          "type": "uint256"
        },
        {
          "indexed": false,
          "internalType": "uint256",
          "name": "lastCollectionId",
          "type": "uint256"
        }
      ],
      "name": "IssuerUnauthorized",
      "type": "event"
    },
    {
      "anonymous": false,
      "inputs": [
        {
          "indexed": true,
          "internalType": "address",
          "name": "previousOwner",
          "type": "address"
        },
        {
          "indexed": true,
          "internalType": "address",
          "name": "newOwner",
          "type": "address"
        }
      ],
      "name": "OwnershipTransferred",
      "type": "event"
    },
    {
      "anonymous": false,
      "inputs": [
        {
          "indexed": false,
          "internalType": "address",
          "name": "account",
          "type": "address"
        }
      ],
      "name": "Paused",
      "type": "event"
    },
    {
      "anonymous": false,
      "inputs": [
        {
          "indexed": false,
          "internalType": "address",
          "name": "account",
          "type": "address"
        }
      ],
      "name": "Unpaused",
      "type": "event"
    },
    {
      "inputs": [
        {
          "internalType": "address",
          "name": "issuer",
          "type": "address"
        },
        {
          "internalType": "uint256",
          "name": "firstCollectionId",
          "type": "uint256"
        },
        {
          "internalType": "uint256",
          "name": "lastCollectionId",
          "type": "uint256"
        }
      ],
      "name": "authorizeRange",
      "outputs": [],
      "stateMutability": "nonpayable",
      "type": "function"
    },
    {
      "inputs": [
        {
          "internalType": "address",
          "name": "issuer",
          "type": "address"
        },
        {
          "components": [
            {
              "internalType": "uint256",
              "name": "min",
              "type": "uint256"
            },
            {
              "internalType": "uint256",
              "name": "max",
              "type": "uint256"
            }
          ],
          "internalType": "struct Range[]",
          "name": "ranges",
          "type": "tuple[]"
        }
      ],
      "name": "authorizeRanges",
      "outputs": [],
      "stateMutability": "nonpayable",
      "type": "function"
    },
    {
      "inputs": [
        {
          "internalType": "address[]",
          "name": "owners",
          "type": "address[]"
        },
        {
          "internalType": "uint256[]",
          "name": "collectionIds",
          "type": "uint256[]"
        }
      ],
      "name": "deleteAttestations",
      "outputs": [],
      "stateMutability": "nonpayable",
      "type": "function"
    },
    {
      "inputs": [
        {
          "internalType": "uint256",
          "name": "collectionId",
          "type": "uint256"
        },
        {
          "internalType": "address",
          "name": "owner",
          "type": "address"
        }
      ],
      "name": "getAttestationData",
      "outputs": [
        {
          "components": [
            {
              "internalType": "address",
              "name": "issuer",
              "type": "address"
            },
            {
              "internalType": "uint256",
              "name": "value",
              "type": "uint256"
            },
            {
              "internalType": "uint32",
              "name": "timestamp",
              "type": "uint32"
            },
            {
              "internalType": "bytes",
              "name": "extraData",
              "type": "bytes"
            }
          ],
          "internalType": "struct AttestationData",
          "name": "",
          "type": "tuple"
        }
      ],
      "stateMutability": "view",
      "type": "function"
    },
    {
      "inputs": [
        {
          "internalType": "uint256[]",
          "name": "collectionIds",
          "type": "uint256[]"
        },
        {
          "internalType": "address[]",
          "name": "owners",
          "type": "address[]"
        }
      ],
      "name": "getAttestationDataBatch",
      "outputs": [
        {
          "components": [
            {
              "internalType": "address",
              "name": "issuer",
              "type": "address"
            },
            {
              "internalType": "uint256",
              "name": "value",
              "type": "uint256"
            },
            {
              "internalType": "uint32",
              "name": "timestamp",
              "type": "uint32"
            },
            {
              "internalType": "bytes",
              "name": "extraData",
              "type": "bytes"
            }
          ],
          "internalType": "struct AttestationData[]",
          "name": "",
          "type": "tuple[]"
        }
      ],
      "stateMutability": "view",
      "type": "function"
    },
    {
      "inputs": [
        {
          "internalType": "uint256",
          "name": "collectionId",
          "type": "uint256"
        },
        {
          "internalType": "address",
          "name": "owner",
          "type": "address"
        }
      ],
      "name": "getAttestationDataTuple",
      "outputs": [
        {
          "internalType": "address",
          "name": "",
          "type": "address"
        },
        {
          "internalType": "uint256",
          "name": "",
          "type": "uint256"
        },
        {
          "internalType": "uint32",
          "name": "",
          "type": "uint32"
        },
        {
          "internalType": "bytes",
          "name": "",
          "type": "bytes"
        }
      ],
      "stateMutability": "view",
      "type": "function"
    },
    {
      "inputs": [
        {
          "internalType": "uint256",
          "name": "collectionId",
          "type": "uint256"
        },
        {
          "internalType": "address",
          "name": "owner",
          "type": "address"
        }
      ],
      "name": "getAttestationExtraData",
      "outputs": [
        {
          "internalType": "bytes",
          "name": "",
          "type": "bytes"
        }
      ],
      "stateMutability": "view",
      "type": "function"
    },
    {
      "inputs": [
        {
          "internalType": "uint256",
          "name": "collectionId",
          "type": "uint256"
        },
        {
          "internalType": "address",
          "name": "owner",
          "type": "address"
        }
      ],
      "name": "getAttestationIssuer",
      "outputs": [
        {
          "internalType": "address",
          "name": "",
          "type": "address"
        }
      ],
      "stateMutability": "view",
      "type": "function"
    },
    {
      "inputs": [
        {
          "internalType": "uint256",
          "name": "collectionId",
          "type": "uint256"
        },
        {
          "internalType": "address",
          "name": "owner",
          "type": "address"
        }
      ],
      "name": "getAttestationTimestamp",
      "outputs": [
        {
          "internalType": "uint32",
          "name": "",
          "type": "uint32"
        }
      ],
      "stateMutability": "view",
      "type": "function"
    },
    {
      "inputs": [
        {
          "internalType": "uint256",
          "name": "collectionId",
          "type": "uint256"
        },
        {
          "internalType": "address",
          "name": "owner",
          "type": "address"
        }
      ],
      "name": "getAttestationValue",
      "outputs": [
        {
          "internalType": "uint256",
          "name": "",
          "type": "uint256"
        }
      ],
      "stateMutability": "view",
      "type": "function"
    },
    {
      "inputs": [
        {
          "internalType": "uint256[]",
          "name": "collectionIds",
          "type": "uint256[]"
        },
        {
          "internalType": "address[]",
          "name": "owners",
          "type": "address[]"
        }
      ],
      "name": "getAttestationValueBatch",
      "outputs": [
        {
          "internalType": "uint256[]",
          "name": "",
          "type": "uint256[]"
        }
      ],
      "stateMutability": "view",
      "type": "function"
    },
    {
      "inputs": [
        {
          "internalType": "uint256",
          "name": "collectionId",
          "type": "uint256"
        },
        {
          "internalType": "address",
          "name": "owner",
          "type": "address"
        }
      ],
      "name": "hasAttestation",
      "outputs": [
        {
          "internalType": "bool",
          "name": "",
          "type": "bool"
        }
      ],
      "stateMutability": "view",
      "type": "function"
    },
    {
      "inputs": [
        {
          "internalType": "address",
          "name": "owner",
          "type": "address"
        }
      ],
      "name": "initialize",
      "outputs": [],
      "stateMutability": "nonpayable",
      "type": "function"
    },
    {
      "inputs": [
        {
          "internalType": "address",
          "name": "issuer",
          "type": "address"
        },
        {
          "internalType": "uint256",
          "name": "collectionId",
          "type": "uint256"
        }
      ],
      "name": "isAuthorized",
      "outputs": [
        {
          "internalType": "bool",
          "name": "",
          "type": "bool"
        }
      ],
      "stateMutability": "view",
      "type": "function"
    },
    {
      "inputs": [],
      "name": "owner",
      "outputs": [
        {
          "internalType": "address",
          "name": "",
          "type": "address"
        }
      ],
      "stateMutability": "view",
      "type": "function"
    },
    {
      "inputs": [],
      "name": "pause",
      "outputs": [],
      "stateMutability": "nonpayable",
      "type": "function"
    },
    {
      "inputs": [],
      "name": "paused",
      "outputs": [
        {
          "internalType": "bool",
          "name": "",
          "type": "bool"
        }
      ],
      "stateMutability": "view",
      "type": "function"
    },
    {
      "inputs": [
        {
          "components": [
            {
              "internalType": "uint256",
              "name": "collectionId",
              "type": "uint256"
            },
            {
              "internalType": "address",
              "name": "owner",
              "type": "address"
            },
            {
              "internalType": "address",
              "name": "issuer",
              "type": "address"
            },
            {
              "internalType": "uint256",
              "name": "value",
              "type": "uint256"
            },
            {
              "internalType": "uint32",
              "name": "timestamp",
              "type": "uint32"
            },
            {
              "internalType": "bytes",
              "name": "extraData",
              "type": "bytes"
            }
          ],
          "internalType": "struct Attestation[]",
          "name": "attestations",
          "type": "tuple[]"
        }
      ],
      "name": "recordAttestations",
      "outputs": [],
      "stateMutability": "nonpayable",
      "type": "function"
    },
    {
      "inputs": [],
      "name": "renounceOwnership",
      "outputs": [],
      "stateMutability": "nonpayable",
      "type": "function"
    },
    {
      "inputs": [
        {
          "internalType": "address",
          "name": "newOwner",
          "type": "address"
        }
      ],
      "name": "transferOwnership",
      "outputs": [],
      "stateMutability": "nonpayable",
      "type": "function"
    },
    {
      "inputs": [
        {
          "internalType": "address",
          "name": "issuer",
          "type": "address"
        },
        {
          "internalType": "uint256",
          "name": "rangeIndex",
          "type": "uint256"
        },
        {
          "internalType": "uint256",
          "name": "firstCollectionId",
          "type": "uint256"
        },
        {
          "internalType": "uint256",
          "name": "lastCollectionId",
          "type": "uint256"
        }
      ],
      "name": "unauthorizeRange",
      "outputs": [],
      "stateMutability": "nonpayable",
      "type": "function"
    },
    {
      "inputs": [
        {
          "internalType": "address",
          "name": "issuer",
          "type": "address"
        },
        {
          "components": [
            {
              "internalType": "uint256",
              "name": "min",
              "type": "uint256"
            },
            {
              "internalType": "uint256",
              "name": "max",
              "type": "uint256"
            }
          ],
          "internalType": "struct Range[]",
          "name": "ranges",
          "type": "tuple[]"
        },
        {
          "internalType": "uint256[]",
          "name": "rangeIndexes",
          "type": "uint256[]"
        }
      ],
      "name": "unauthorizeRanges",
      "outputs": [],
      "stateMutability": "nonpayable",
      "type": "function"
    },
    {
      "inputs": [],
      "name": "unpause",
      "outputs": [],
      "stateMutability": "nonpayable",
      "type": "function"
    }
  ],
  "transactionHash": "0xc146d9d5ebb870afff8f134df2e0dacb49ee0c6443d31a92a2a9cc02e5a1d8c9",
  "args": [
    "0xaee4acd5c4Bf516330ca8fe11B07206fC6709294",
    "0xF12494e3545D49616D9dFb78E5907E9078618a34"
  ],
  "numDeployments": 1,
  "solcInputHash": "c7c67c4a1ddf53de4ef76f8a114dfc39",
  "bytecode": "0x60a06040523480156200001157600080fd5b506040516200287b3803806200287b8339810160408190526200003491620001e4565b6200003f3362000069565b6000805462ff0000191690556200005682620000c6565b6001600160a01b0316608052506200021c565b600080546001600160a01b0383811663010000008181026301000000600160b81b0319851617855560405193049190911692909183917f8be0079c531659141344cd1fd0a4f28419497f9722a3daafe3b4186f6b6457e091a35050565b600054610100900460ff16620000e35760005460ff1615620000ed565b620000ed6200019a565b620001555760405162461bcd60e51b815260206004820152602e60248201527f496e697469616c697a61626c653a20636f6e747261637420697320616c72656160448201526d191e481a5b9a5d1a585b1a5e995960921b606482015260840160405180910390fd5b600054610100900460ff1615801562000178576000805461ffff19166101011790555b620001838262000069565b801562000196576000805461ff00191690555b5050565b6000620001b230620001b860201b620013d31760201c565b15905090565b6001600160a01b03163b151590565b80516001600160a01b0381168114620001df57600080fd5b919050565b60008060408385031215620001f857600080fd5b6200020383620001c7565b91506200021360208401620001c7565b90509250929050565b6080516126436200023860003960006119ed01526126436000f3fe608060405234801561001057600080fd5b506004361061014d5760003560e01c8063811a6af7116100c3578063c06d5db61161007c578063c06d5db614610326578063c4d66de814610339578063c7da9aa61461034c578063dc873d0114610381578063ebc5c093146103a1578063f2fde38b146103b457600080fd5b8063811a6af71461028b5780638456cb591461029e57806384c2ad82146102a65780638c3c9e32146102c65780638da5cb5b146102e7578063b88656731461031357600080fd5b80633be1ced7116101155780633be1ced7146102145780633f4ba83a146102375780635c975abb1461023f5780636d7fbb6714610250578063715018a6146102705780637cde0fe21461027857600080fd5b8063011023901461015257806314067f8b1461017a57806315027bda146101cc578063181dfdff146101ec5780632972b0f014610201575b600080fd5b610165610160366004611c35565b6103c7565b60405190151581526020015b60405180910390f35b6101b7610188366004611c35565b6000918252602080805260408084206001600160a01b0393909316845291905290206002015463ffffffff1690565b60405163ffffffff9091168152602001610171565b6101df6101da366004611d5d565b6103de565b6040516101719190611eb4565b6101ff6101fa366004611f95565b6104cf565b005b61016561020f366004612008565b610598565b610227610222366004611c35565b6105ab565b6040516101719493929190612032565b6101ff6106c1565b60005462010000900460ff16610165565b61026361025e366004611c35565b6106fd565b604051610171919061206f565b6101ff6107b5565b6101ff610286366004612082565b6107f1565b6101ff610299366004612100565b610833565b6101ff610c0f565b6102b96102b4366004611c35565b610c49565b604051610171919061216b565b6102d96102d4366004611c35565b610c76565b604051908152602001610171565b600054630100000090046001600160a01b03165b6040516001600160a01b039091168152602001610171565b6101ff61032136600461217e565b610c82565b6101ff6103343660046121cb565b610d17565b6101ff610347366004612204565b610d55565b6102fb61035a366004611c35565b6000918252602080805260408084206001600160a01b039384168552909152909120541690565b61039461038f366004611d5d565b610e18565b604051610171919061221f565b6101ff6103af366004612263565b610ed8565b6101ff6103c2366004612204565b611330565b60006103d383836113e2565b151590505b92915050565b6060600083516001600160401b038111156103fb576103fb611c61565b60405190808252806020026020018201604052801561044c57816020015b60408051608081018252600080825260208083018290529282015260608082015282526000199092019101816104195790505b50905060005b84518110156104c757610497858281518110610470576104706122a4565b602002602001015185838151811061048a5761048a6122a4565b602002602001015161140b565b8282815181106104a9576104a96122a4565b602002602001018190525080806104bf906122d0565b915050610452565b509392505050565b6000546001600160a01b03630100000090910416331461050a5760405162461bcd60e51b8152600401610501906122e9565b60405180910390fd5b60005b815181101561059257610580848284848151811061052d5761052d6122a4565b602002602001015161053f919061231e565b858481518110610551576105516122a4565b60200260200101516000015186858151811061056f5761056f6122a4565b60200260200101516020015161151a565b8061058a816122d0565b91505061050d565b50505050565b60006105a483836117b9565b9392505050565b6000828152602080805260408083206001600160a01b038086168552908352818420825160808101845281549092168252600181015493820193909352600283015463ffffffff1691810191909152600382018054849384936060938593919291838601919061061a90612335565b80601f016020809104026020016040519081016040528092919081815260200182805461064690612335565b80156106935780601f1061066857610100808354040283529160200191610693565b820191906000526020600020905b81548152906001019060200180831161067657829003601f168201915b505050919092525050815160208301516040840151606090940151919b909a50929850965090945050505050565b6000546001600160a01b0363010000009091041633146106f35760405162461bcd60e51b8152600401610501906122e9565b6106fb6117db565b565b6000828152602080805260408083206001600160a01b0385168452909152902060030180546060919061072f90612335565b80601f016020809104026020016040519081016040528092919081815260200182805461075b90612335565b80156107a85780601f1061077d576101008083540402835291602001916107a8565b820191906000526020600020905b81548152906001019060200180831161078b57829003601f168201915b5050505050905092915050565b6000546001600160a01b0363010000009091041633146107e75760405162461bcd60e51b8152600401610501906122e9565b6106fb6000611876565b6000546001600160a01b0363010000009091041633146108235760405162461bcd60e51b8152600401610501906122e9565b61082e8383836118d3565b505050565b60005462010000900460ff161561085c5760405162461bcd60e51b81526004016105019061236f565b8281146108845783838383604051638ceb003d60e01b81526004016105019493929190612399565b3360005b84811015610c07576000602060008686858181106108a8576108a86122a4565b90506020020135815260200190815260200160002060008888858181106108d1576108d16122a4565b90506020020160208101906108e69190612204565b6001600160a01b0390811682526020808301939093526040918201600020825160808101845281549092168252600181015493820193909352600283015463ffffffff169181019190915260038201805491929160608401919061094990612335565b80601f016020809104026020016040519081016040528092919081815260200182805461097590612335565b80156109c25780601f10610997576101008083540402835291602001916109c2565b820191906000526020600020905b8154815290600101906020018083116109a557829003601f168201915b50505050508152505090506109ef838686858181106109e3576109e36122a4565b905060200201356117b9565b610a395782858584818110610a0657610a066122a4565b60405163c522f21160e01b81526001600160a01b0390941660048501526020029190910135602483015250604401610501565b60206000868685818110610a4f57610a4f6122a4565b9050602002013581526020019081526020016000206000888885818110610a7857610a786122a4565b9050602002016020810190610a8d9190612204565b6001600160a01b031681526020810191909152604001600090812080546001600160a01b03191681556001810182905560028101805463ffffffff1916905590610ada6003830182611b46565b5050610b2b858584818110610af157610af16122a4565b90506020020135888885818110610b0a57610b0a6122a4565b9050602002016020810190610b1f9190612204565b83602001516000611965565b7f01cba57fa881d11e8be5640b6abefb9709f2dd45f776051b2cf5cb8ea23fa56b6040518060c00160405280878786818110610b6957610b696122a4565b905060200201358152602001898986818110610b8757610b876122a4565b9050602002016020810190610b9c9190612204565b6001600160a01b0316815260200183600001516001600160a01b0316815260200183602001518152602001836040015163ffffffff1681526020018360600151815250604051610bec919061241b565b60405180910390a15080610bff816122d0565b915050610888565b505050505050565b6000546001600160a01b036301000000909104163314610c415760405162461bcd60e51b8152600401610501906122e9565b6106fb611a56565b60408051608081018252600080825260208201819052918101919091526060808201526105a4838361140b565b60006105a483836113e2565b6000546001600160a01b036301000000909104163314610cb45760405162461bcd60e51b8152600401610501906122e9565b60005b815181101561082e57610d0583838381518110610cd657610cd66122a4565b602002602001015160000151848481518110610cf457610cf46122a4565b6020026020010151602001516118d3565b80610d0f816122d0565b915050610cb7565b6000546001600160a01b036301000000909104163314610d495760405162461bcd60e51b8152600401610501906122e9565b6105928484848461151a565b600054610100900460ff16610d705760005460ff1615610d74565b303b155b610dd75760405162461bcd60e51b815260206004820152602e60248201527f496e697469616c697a61626c653a20636f6e747261637420697320616c72656160448201526d191e481a5b9a5d1a585b1a5e995960921b6064820152608401610501565b600054610100900460ff16158015610df9576000805461ffff19166101011790555b610e0282611876565b8015610e14576000805461ff00191690555b5050565b6060600083516001600160401b03811115610e3557610e35611c61565b604051908082528060200260200182016040528015610e5e578160200160208202803683370190505b50905060005b84518110156104c757610ea9858281518110610e8257610e826122a4565b6020026020010151858381518110610e9c57610e9c6122a4565b60200260200101516113e2565b828281518110610ebb57610ebb6122a4565b602090810291909101015280610ed0816122d0565b915050610e64565b60005462010000900460ff1615610f015760405162461bcd60e51b81526004016105019061236f565b3360005b8281101561059257610f3b82858584818110610f2357610f236122a4565b9050602002810190610f35919061247c565b356117b9565b610f8f5781848483818110610f5257610f526122a4565b9050602002810190610f64919061247c565b60405163c522f21160e01b81526001600160a01b039092166004830152356024820152604401610501565b600060206000868685818110610fa757610fa76122a4565b9050602002810190610fb9919061247c565b6000013581526020019081526020016000206000868685818110610fdf57610fdf6122a4565b9050602002810190610ff1919061247c565b611002906040810190602001612204565b6001600160a01b03166001600160a01b031681526020019081526020016000206001015490506040518060800160405280868685818110611045576110456122a4565b9050602002810190611057919061247c565b611068906060810190604001612204565b6001600160a01b03168152602001868685818110611088576110886122a4565b905060200281019061109a919061247c565b6060013581526020018686858181106110b5576110b56122a4565b90506020028101906110c7919061247c565b6110d89060a08101906080016124b0565b63ffffffff1681526020018686858181106110f5576110f56122a4565b9050602002810190611107919061247c565b6111159060a08101906124cb565b8080601f01602080910402602001604051908101604052809392919081815260200183838082843760009201829052509390945250602092508890508786818110611162576111626122a4565b9050602002810190611174919061247c565b600001358152602001908152602001600020600087878681811061119a5761119a6122a4565b90506020028101906111ac919061247c565b6111bd906040810190602001612204565b6001600160a01b0390811682526020808301939093526040918201600020845181546001600160a01b03191692169190911781558383015160018201559083015160028201805463ffffffff191663ffffffff90921691909117905560608301518051919261123492600385019290910190611b80565b509050506112c385858481811061124d5761124d6122a4565b905060200281019061125f919061247c565b35868685818110611272576112726122a4565b9050602002810190611284919061247c565b611295906040810190602001612204565b838888878181106112a8576112a86122a4565b90506020028101906112ba919061247c565b60600135611965565b7f8c20c3acb6b5208b7affea2fd90dabc8d47e77cee9766c855ce42730505cb2058585848181106112f6576112f66122a4565b9050602002810190611308919061247c565b604051611315919061253a565b60405180910390a15080611328816122d0565b915050610f05565b6000546001600160a01b0363010000009091041633146113625760405162461bcd60e51b8152600401610501906122e9565b6001600160a01b0381166113c75760405162461bcd60e51b815260206004820152602660248201527f4f776e61626c653a206e6577206f776e657220697320746865207a65726f206160448201526564647265737360d01b6064820152608401610501565b6113d081611876565b50565b6001600160a01b03163b151590565b6000918252602080805260408084206001600160a01b0393909316845291905290206001015490565b60408051608081018252600080825260208201819052918101919091526060808201526000838152602080805260408083206001600160a01b03808716855290835292819020815160808101835281549094168452600181015492840192909252600282015463ffffffff169083015260038101805460608401919061149090612335565b80601f01602080910402602001604051908101604052809291908181526020018280546114bc90612335565b80156115095780601f106114de57610100808354040283529160200191611509565b820191906000526020600020905b8154815290600101906020018083116114ec57829003601f168201915b505050505081525050905092915050565b6000546001600160a01b03630100000090910416331461154c5760405162461bcd60e51b8152600401610501906122e9565b6001600160a01b03841660009081526010602052604090205483106115ae576001600160a01b038416600081815260106020526040908190205490516345e388eb60e01b81526004810192909252602482015260448101849052606401610501565b6001600160a01b03841660009081526010602052604081208054859081106115d8576115d86122a4565b600091825260208083206002909202909101546001600160a01b038816835260109091526040822080549193509086908110611616576116166122a4565b906000526020600020906002020160010154905081841415806116395750808314155b1561168557604051637a4dd76560e01b81526001600160a01b03871660048201526024810186905260448101839052606481018290526084810185905260a4810184905260c401610501565b6001600160a01b038616600090815260106020526040902080546116ab9060019061231e565b815481106116bb576116bb6122a4565b906000526020600020906002020160106000886001600160a01b03166001600160a01b0316815260200190815260200160002086815481106116ff576116ff6122a4565b60009182526020808320845460029093020191825560019384015493909101929092556001600160a01b0388168152601090915260409020805480611746576117466125f7565b6000828152602080822060026000199490940193840201828155600101919091559155604080516001600160a01b038916815291820186905281018490527f33cff58e54c3a8acae85cad63487b5dcf617521e33bb03f071299f374c29de1f9060600160405180910390a1505050505050565b6001600160a01b03821660009081526010602052604081206105a49083611ab8565b60005462010000900460ff1661182a5760405162461bcd60e51b815260206004820152601460248201527314185d5cd8589b194e881b9bdd081c185d5cd95960621b6044820152606401610501565b6000805462ff0000191690557f5db9ee0a495bf2e6ff9c91a7834c1ba4fdd244a5e8aa4e537bd38aeae4b073aa335b6040516001600160a01b03909116815260200160405180910390a1565b600080546001600160a01b0383811663010000008181026301000000600160b81b0319851617855560405193049190911692909183917f8be0079c531659141344cd1fd0a4f28419497f9722a3daafe3b4186f6b6457e091a35050565b60408051808201825283815260208082018481526001600160a01b03871660008181526010845285812080546001808201835591835291859020865160029093020191825592519201919091558351908152908101859052918201839052907fe7d6ac0b740347f7f96a97e6a9dc0f20f4f11eca65495315adc009a55b6762f89060600160405180910390a150505050565b818111306000826119765785611979565b60005b905060008361198957600061198b565b865b90506000846119a35761199e868861231e565b6119ad565b6119ad878761231e565b604051633885984b60e11b81526001600160a01b03868116600483015285811660248301528481166044830152606482018c9052608482018390529192507f00000000000000000000000000000000000000000000000000000000000000009091169063710b30969060a401600060405180830381600087803b158015611a3357600080fd5b505af1158015611a47573d6000803e3d6000fd5b50505050505050505050505050565b60005462010000900460ff1615611a7f5760405162461bcd60e51b81526004016105019061236f565b6000805462ff00001916620100001790557f62e78cea01bee320cd4e420270b5ea74000d11b0c9f74754ebdbfc544b05a2586118593390565b6000805b8354811015611b3c57838181548110611ad757611ad76122a4565b9060005260206000209060020201600001548310158015611b1b5750838181548110611b0557611b056122a4565b9060005260206000209060020201600101548311155b15611b2a5760019150506103d8565b80611b34816122d0565b915050611abc565b5060009392505050565b508054611b5290612335565b6000825580601f10611b62575050565b601f0160209004906000526020600020908101906113d09190611c04565b828054611b8c90612335565b90600052602060002090601f016020900481019282611bae5760008555611bf4565b82601f10611bc757805160ff1916838001178555611bf4565b82800160010185558215611bf4579182015b82811115611bf4578251825591602001919060010190611bd9565b50611c00929150611c04565b5090565b5b80821115611c005760008155600101611c05565b80356001600160a01b0381168114611c3057600080fd5b919050565b60008060408385031215611c4857600080fd5b82359150611c5860208401611c19565b90509250929050565b634e487b7160e01b600052604160045260246000fd5b604080519081016001600160401b0381118282101715611c9957611c99611c61565b60405290565b604051601f8201601f191681016001600160401b0381118282101715611cc757611cc7611c61565b604052919050565b60006001600160401b03821115611ce857611ce8611c61565b5060051b60200190565b600082601f830112611d0357600080fd5b81356020611d18611d1383611ccf565b611c9f565b82815260059290921b84018101918181019086841115611d3757600080fd5b8286015b84811015611d525780358352918301918301611d3b565b509695505050505050565b60008060408385031215611d7057600080fd5b82356001600160401b0380821115611d8757600080fd5b611d9386838701611cf2565b9350602091508185013581811115611daa57600080fd5b85019050601f81018613611dbd57600080fd5b8035611dcb611d1382611ccf565b81815260059190911b82018301908381019088831115611dea57600080fd5b928401925b82841015611e0f57611e0084611c19565b82529284019290840190611def565b80955050505050509250929050565b6000815180845260005b81811015611e4457602081850181015186830182015201611e28565b81811115611e56576000602083870101525b50601f01601f19169290920160200192915050565b60018060a01b0381511682526020810151602083015263ffffffff60408201511660408301526000606082015160806060850152611eac6080850182611e1e565b949350505050565b6000602080830181845280855180835260408601915060408160051b870101925083870160005b82811015611f0957603f19888603018452611ef7858351611e6b565b94509285019290850190600101611edb565b5092979650505050505050565b600082601f830112611f2757600080fd5b81356020611f37611d1383611ccf565b82815260069290921b84018101918181019086841115611f5657600080fd5b8286015b84811015611d525760408189031215611f735760008081fd5b611f7b611c77565b813581528482013585820152835291830191604001611f5a565b600080600060608486031215611faa57600080fd5b611fb384611c19565b925060208401356001600160401b0380821115611fcf57600080fd5b611fdb87838801611f16565b93506040860135915080821115611ff157600080fd5b50611ffe86828701611cf2565b9150509250925092565b6000806040838503121561201b57600080fd5b61202483611c19565b946020939093013593505050565b60018060a01b038516815283602082015263ffffffff831660408201526080606082015260006120656080830184611e1e565b9695505050505050565b6020815260006105a46020830184611e1e565b60008060006060848603121561209757600080fd5b6120a084611c19565b95602085013595506040909401359392505050565b60008083601f8401126120c757600080fd5b5081356001600160401b038111156120de57600080fd5b6020830191508360208260051b85010111156120f957600080fd5b9250929050565b6000806000806040858703121561211657600080fd5b84356001600160401b038082111561212d57600080fd5b612139888389016120b5565b9096509450602087013591508082111561215257600080fd5b5061215f878288016120b5565b95989497509550505050565b6020815260006105a46020830184611e6b565b6000806040838503121561219157600080fd5b61219a83611c19565b915060208301356001600160401b038111156121b557600080fd5b6121c185828601611f16565b9150509250929050565b600080600080608085870312156121e157600080fd5b6121ea85611c19565b966020860135965060408601359560600135945092505050565b60006020828403121561221657600080fd5b6105a482611c19565b6020808252825182820181905260009190848201906040850190845b818110156122575783518352928401929184019160010161223b565b50909695505050505050565b6000806020838503121561227657600080fd5b82356001600160401b0381111561228c57600080fd5b612298858286016120b5565b90969095509350505050565b634e487b7160e01b600052603260045260246000fd5b634e487b7160e01b600052601160045260246000fd5b6000600182016122e2576122e26122ba565b5060010190565b6020808252818101527f4f776e61626c653a2063616c6c6572206973206e6f7420746865206f776e6572604082015260600190565b600082821015612330576123306122ba565b500390565b600181811c9082168061234957607f821691505b60208210810361236957634e487b7160e01b600052602260045260246000fd5b50919050565b60208082526010908201526f14185d5cd8589b194e881c185d5cd95960821b604082015260600190565b6040808252810184905260008560608301825b878110156123da576001600160a01b036123c584611c19565b168252602092830192909101906001016123ac565b5083810360208501528481526001600160fb1b038511156123fa57600080fd5b8460051b915081866020830137600091016020019081529695505050505050565b60208152815160208201526000602083015160018060a01b03808216604085015280604086015116606085015250506060830151608083015263ffffffff60808401511660a083015260a083015160c080840152611eac60e0840182611e1e565b6000823560be1983360301811261249257600080fd5b9190910192915050565b803563ffffffff81168114611c3057600080fd5b6000602082840312156124c257600080fd5b6105a48261249c565b6000808335601e198436030181126124e257600080fd5b8301803591506001600160401b038211156124fc57600080fd5b6020019150368190038213156120f957600080fd5b81835281816020850137506000828201602090810191909152601f909101601f19169091010190565b6020815281356020820152600061255360208401611c19565b60018060a01b0380821660408501528061256f60408701611c19565b16606085015250506060830135608083015263ffffffff6125926080850161249c565b1660a083015260a0830135601e198436030181126125af57600080fd5b83016020810190356001600160401b038111156125cb57600080fd5b8036038213156125da57600080fd5b60c0808501526125ee60e085018284612511565b95945050505050565b634e487b7160e01b600052603160045260246000fdfea26469706673582212208c8ee55074d6fbc4f64c05512852a1590038e3eed679507bebd8242c2dff3f4564736f6c634300080e0033",
  "devdoc": {
    "author": "Sismo",
    "kind": "dev",
    "methods": {
      "authorizeRange(address,uint256,uint256)": {
        "details": "Authorize an issuer for a specific range",
        "params": {
          "firstCollectionId": "First collection Id of the range for which the issuer will be authorized",
          "issuer": "Issuer that will be authorized",
          "lastCollectionId": "Last collection Id of the range for which the issuer will be authorized"
        }
      },
      "authorizeRanges(address,(uint256,uint256)[])": {
        "details": "Authorize an issuer for specific ranges",
        "params": {
          "issuer": "Issuer that will be authorized",
          "ranges": "Ranges for which the issuer will be authorized"
        }
      },
      "constructor": {
        "details": "Constructor.",
        "params": {
          "badgesAddress": "Stateless ERC1155 Badges contract",
          "owner": "Owner of the contract, has the right to authorize/unauthorize attestations issuers"
        }
      },
      "deleteAttestations(address[],uint256[])": {
        "details": "Delete function to be called by authorized issuers",
        "params": {
          "collectionIds": "The collection ids of the attestations to be deleted",
          "owners": "The owners of the attestations to be deleted"
        }
      },
      "getAttestationData(uint256,address)": {
        "details": "Getter of the data of a specific attestation",
        "params": {
          "collectionId": "Collection identifier of the targeted attestation",
          "owner": "Owner of the targeted attestation"
        }
      },
      "getAttestationDataBatch(uint256[],address[])": {
        "details": "Getter of the data of specific attestations",
        "params": {
          "collectionIds": "Collection identifiers of the targeted attestations",
          "owners": "Owners of the targeted attestations"
        }
      },
      "getAttestationDataTuple(uint256,address)": {
        "details": "Getter of the data of a specific attestation as tuple",
        "params": {
          "collectionId": "Collection identifier of the targeted attestation",
          "owner": "Owner of the targeted attestation"
        }
      },
      "getAttestationExtraData(uint256,address)": {
        "details": "Getter of the extraData of a specific attestation",
        "params": {
          "collectionId": "Collection identifier of the targeted attestation",
          "owner": "Owner of the targeted attestation"
        }
      },
      "getAttestationIssuer(uint256,address)": {
        "details": "Getter of the issuer of a specific attestation",
        "params": {
          "collectionId": "Collection identifier of the targeted attestation",
          "owner": "Owner of the targeted attestation"
        }
      },
      "getAttestationTimestamp(uint256,address)": {
        "details": "Getter of the timestamp of a specific attestation",
        "params": {
          "collectionId": "Collection identifier of the targeted attestation",
          "owner": "Owner of the targeted attestation"
        }
      },
      "getAttestationValue(uint256,address)": {
        "details": "Getter of the value of a specific attestation",
        "params": {
          "collectionId": "Collection identifier of the targeted attestation",
          "owner": "Owner of the targeted attestation"
        }
      },
      "getAttestationValueBatch(uint256[],address[])": {
        "details": "Getter of the values of specific attestations",
        "params": {
          "collectionIds": "Collection identifiers of the targeted attestations",
          "owners": "Owners of the targeted attestations"
        }
      },
      "hasAttestation(uint256,address)": {
        "details": "Returns whether a user has an attestation from a collection",
        "params": {
          "collectionId": "Collection identifier of the targeted attestation",
          "owner": "Owner of the targeted attestation"
        }
      },
      "initialize(address)": {
        "details": "Initialize function, to be called by the proxy delegating calls to this implementation",
        "params": {
          "owner": "Owner of the contract, has the right to authorize/unauthorize attestations issuers"
        }
      },
      "isAuthorized(address,uint256)": {
        "details": "Returns whether a specific issuer is authorized or not to record in a specific attestations collection",
        "params": {
          "collectionId": "Collection Id for which the issuer will be checked",
          "issuer": "Issuer to be checked"
        }
      },
      "owner()": {
        "details": "Returns the address of the current owner."
      },
      "pause()": {
        "details": "Pauses the registry. Issuers can no longer record or delete attestations"
      },
      "paused()": {
        "details": "Returns true if the contract is paused, and false otherwise."
      },
      "recordAttestations((uint256,address,address,uint256,uint32,bytes)[])": {
        "details": "Main function to be called by authorized issuers",
        "params": {
          "attestations": "Attestations to be recorded (creates a new one or overrides an existing one)"
        }
      },
      "renounceOwnership()": {
        "details": "Leaves the contract without owner. It will not be possible to call `onlyOwner` functions anymore. Can only be called by the current owner. NOTE: Renouncing ownership will leave the contract without an owner, thereby removing any functionality that is only available to the owner."
      },
      "transferOwnership(address)": {
        "details": "Transfers ownership of the contract to a new account (`newOwner`). Can only be called by the current owner."
      },
      "unauthorizeRange(address,uint256,uint256,uint256)": {
        "details": "Unauthorize an issuer for a specific range",
        "params": {
          "firstCollectionId": "First collection Id of the range for which the issuer will be unauthorized",
          "issuer": "Issuer that will be unauthorized",
          "lastCollectionId": "Last collection Id of the range for which the issuer will be unauthorized",
          "rangeIndex": "Index of the range to be unauthorized"
        }
      },
      "unauthorizeRanges(address,(uint256,uint256)[],uint256[])": {
        "details": "Unauthorize an issuer for specific ranges",
        "params": {
          "issuer": "Issuer that will be unauthorized",
          "ranges": "Ranges for which the issuer will be unauthorized"
        }
      },
      "unpause()": {
        "details": "Unpauses the registry"
      }
    },
    "title": "Attestations Registry",
    "version": 1
  },
  "userdoc": {
    "kind": "user",
    "methods": {},
    "notice": "Main contract of Sismo, stores all recorded attestations in attestations collections Only authorized attestations issuers can record attestation in the registry Attesters that expect to record in the Attestations Registry must be authorized issuers For more information: https://attestations-registry.docs.sismo.io For each attestation recorded, a badge is received by the user The badge is the Non transferrable NFT representation of an attestation  Its ERC1155 contract is stateless, balances are read directly from the registry. Badge balances <=> Attestations values After the creation or update of an attestation, the registry triggers a TransferSingle event from the ERC1155 Badges contracts It enables off-chain apps such as opensea to catch the \"shadow mint\" of the badge*",
    "version": 1
  },
  "storageLayout": {
    "storage": [
      {
        "astId": 12107,
        "contract": "contracts/core/AttestationsRegistry.sol:AttestationsRegistry",
        "label": "_initialized",
        "offset": 0,
        "slot": "0",
        "type": "t_bool"
      },
      {
        "astId": 12109,
        "contract": "contracts/core/AttestationsRegistry.sol:AttestationsRegistry",
        "label": "_initializing",
        "offset": 1,
        "slot": "0",
        "type": "t_bool"
      },
      {
        "astId": 12111,
        "contract": "contracts/core/AttestationsRegistry.sol:AttestationsRegistry",
        "label": "_paused",
        "offset": 2,
        "slot": "0",
        "type": "t_bool"
      },
      {
        "astId": 12113,
        "contract": "contracts/core/AttestationsRegistry.sol:AttestationsRegistry",
        "label": "_owner",
        "offset": 3,
        "slot": "0",
        "type": "t_address"
      },
      {
        "astId": 12117,
        "contract": "contracts/core/AttestationsRegistry.sol:AttestationsRegistry",
        "label": "_placeHolders",
        "offset": 0,
        "slot": "1",
        "type": "t_array(t_uint256)15_storage"
      },
      {
        "astId": 12123,
        "contract": "contracts/core/AttestationsRegistry.sol:AttestationsRegistry",
        "label": "_authorizedRanges",
        "offset": 0,
        "slot": "16",
        "type": "t_mapping(t_address,t_array(t_struct(Range)12729_storage)dyn_storage)"
      },
      {
        "astId": 12127,
        "contract": "contracts/core/AttestationsRegistry.sol:AttestationsRegistry",
        "label": "_placeHolders2",
        "offset": 0,
        "slot": "17",
        "type": "t_array(t_uint256)15_storage"
      },
      {
        "astId": 12134,
        "contract": "contracts/core/AttestationsRegistry.sol:AttestationsRegistry",
        "label": "_attestationsData",
        "offset": 0,
        "slot": "32",
        "type": "t_mapping(t_uint256,t_mapping(t_address,t_struct(AttestationData)11761_storage))"
      }
    ],
    "types": {
      "t_address": {
        "encoding": "inplace",
        "label": "address",
        "numberOfBytes": "20"
      },
      "t_array(t_struct(Range)12729_storage)dyn_storage": {
        "base": "t_struct(Range)12729_storage",
        "encoding": "dynamic_array",
        "label": "struct Range[]",
        "numberOfBytes": "32"
      },
      "t_array(t_uint256)15_storage": {
        "base": "t_uint256",
        "encoding": "inplace",
        "label": "uint256[15]",
        "numberOfBytes": "480"
      },
      "t_bool": {
        "encoding": "inplace",
        "label": "bool",
        "numberOfBytes": "1"
      },
      "t_bytes_storage": {
        "encoding": "bytes",
        "label": "bytes",
        "numberOfBytes": "32"
      },
      "t_mapping(t_address,t_array(t_struct(Range)12729_storage)dyn_storage)": {
        "encoding": "mapping",
        "key": "t_address",
        "label": "mapping(address => struct Range[])",
        "numberOfBytes": "32",
        "value": "t_array(t_struct(Range)12729_storage)dyn_storage"
      },
      "t_mapping(t_address,t_struct(AttestationData)11761_storage)": {
        "encoding": "mapping",
        "key": "t_address",
        "label": "mapping(address => struct AttestationData)",
        "numberOfBytes": "32",
        "value": "t_struct(AttestationData)11761_storage"
      },
      "t_mapping(t_uint256,t_mapping(t_address,t_struct(AttestationData)11761_storage))": {
        "encoding": "mapping",
        "key": "t_uint256",
        "label": "mapping(uint256 => mapping(address => struct AttestationData))",
        "numberOfBytes": "32",
        "value": "t_mapping(t_address,t_struct(AttestationData)11761_storage)"
      },
      "t_struct(AttestationData)11761_storage": {
        "encoding": "inplace",
        "label": "struct AttestationData",
        "members": [
          {
            "astId": 11754,
            "contract": "contracts/core/AttestationsRegistry.sol:AttestationsRegistry",
            "label": "issuer",
            "offset": 0,
            "slot": "0",
            "type": "t_address"
          },
          {
            "astId": 11756,
            "contract": "contracts/core/AttestationsRegistry.sol:AttestationsRegistry",
            "label": "value",
            "offset": 0,
            "slot": "1",
            "type": "t_uint256"
          },
          {
            "astId": 11758,
            "contract": "contracts/core/AttestationsRegistry.sol:AttestationsRegistry",
            "label": "timestamp",
            "offset": 0,
            "slot": "2",
            "type": "t_uint32"
          },
          {
            "astId": 11760,
            "contract": "contracts/core/AttestationsRegistry.sol:AttestationsRegistry",
            "label": "extraData",
            "offset": 0,
            "slot": "3",
            "type": "t_bytes_storage"
          }
        ],
        "numberOfBytes": "128"
      },
      "t_struct(Range)12729_storage": {
        "encoding": "inplace",
        "label": "struct Range",
        "members": [
          {
            "astId": 12726,
            "contract": "contracts/core/AttestationsRegistry.sol:AttestationsRegistry",
            "label": "min",
            "offset": 0,
            "slot": "0",
            "type": "t_uint256"
          },
          {
            "astId": 12728,
            "contract": "contracts/core/AttestationsRegistry.sol:AttestationsRegistry",
            "label": "max",
            "offset": 0,
            "slot": "1",
            "type": "t_uint256"
          }
        ],
        "numberOfBytes": "64"
      },
      "t_uint256": {
        "encoding": "inplace",
        "label": "uint256",
        "numberOfBytes": "32"
      },
      "t_uint32": {
        "encoding": "inplace",
        "label": "uint32",
        "numberOfBytes": "4"
      }
    }
  }
}