{
  "address": "0x87D34A8341DaA73410E1adEa3c41bbA50568a643",
  "abi": [
    {
      "inputs": [
        {
          "internalType": "address",
          "name": "attestationsRegistryAddress",
          "type": "address"
        },
        {
          "internalType": "address",
          "name": "hydraS1VerifierAddress",
          "type": "address"
        },
        {
          "internalType": "address",
          "name": "availableRootsRegistryAddress",
          "type": "address"
        },
        {
          "internalType": "address",
          "name": "commitmentMapperAddress",
          "type": "address"
        },
        {
          "internalType": "uint256",
          "name": "collectionIdFirst",
          "type": "uint256"
        },
        {
          "internalType": "uint256",
          "name": "collectionIdLast",
          "type": "uint256"
        },
        {
          "internalType": "uint256",
          "name": "soulboundCooldownDuration",
          "type": "uint256"
        }
      ],
      "stateMutability": "nonpayable",
      "type": "constructor"
    },
    {
      "inputs": [
        {
          "internalType": "uint256",
          "name": "expectedAccountsTreeValue",
          "type": "uint256"
        },
        {
          "internalType": "uint256",
          "name": "inputAccountsTreeValue",
          "type": "uint256"
        }
      ],
      "name": "AccountsTreeValueMismatch",
      "type": "error"
    },
    {
      "inputs": [],
      "name": "AttestationDeletionNotImplemented",
      "type": "error"
    },
    {
      "inputs": [
        {
          "internalType": "uint256",
          "name": "expectedChainId",
          "type": "uint256"
        },
        {
          "internalType": "uint256",
          "name": "chainId",
          "type": "uint256"
        }
      ],
      "name": "ChainIdMismatch",
      "type": "error"
    },
    {
      "inputs": [
        {
          "internalType": "uint256",
          "name": "claimLength",
          "type": "uint256"
        }
      ],
      "name": "ClaimsLengthDifferentThanOne",
      "type": "error"
    },
    {
      "inputs": [
        {
          "internalType": "uint256",
          "name": "collectionId",
          "type": "uint256"
        }
      ],
      "name": "CollectionIdOutOfBound",
      "type": "error"
    },
    {
      "inputs": [
        {
          "internalType": "uint256",
          "name": "expectedX",
          "type": "uint256"
        },
        {
          "internalType": "uint256",
          "name": "expectedY",
          "type": "uint256"
        },
        {
          "internalType": "uint256",
          "name": "inputX",
          "type": "uint256"
        },
        {
          "internalType": "uint256",
          "name": "inputY",
          "type": "uint256"
        }
      ],
      "name": "CommitmentMapperPubKeyMismatch",
      "type": "error"
    },
    {
      "inputs": [
        {
          "internalType": "address",
          "name": "expectedDestination",
          "type": "address"
        },
        {
          "internalType": "address",
          "name": "inputDestination",
          "type": "address"
        }
      ],
      "name": "DestinationMismatch",
      "type": "error"
    },
    {
      "inputs": [
        {
          "internalType": "uint256",
          "name": "expectedGroupId",
          "type": "uint256"
        },
        {
          "internalType": "uint256",
          "name": "groupId",
          "type": "uint256"
        }
      ],
      "name": "GroupIdAndPropertiesMismatch",
      "type": "error"
    },
    {
      "inputs": [
        {
          "internalType": "string",
          "name": "reason",
          "type": "string"
        }
      ],
      "name": "InvalidGroth16Proof",
      "type": "error"
    },
    {
      "inputs": [
        {
          "internalType": "bool",
          "name": "expectedStrictness",
          "type": "bool"
        },
        {
          "internalType": "bool",
          "name": "strictNess",
          "type": "bool"
        }
      ],
      "name": "IsStrictMismatch",
      "type": "error"
    },
    {
      "inputs": [
        {
          "internalType": "uint256",
          "name": "ticket",
          "type": "uint256"
        },
        {
          "internalType": "address",
          "name": "sender",
          "type": "address"
        }
      ],
      "name": "NotAttestationOwner",
      "type": "error"
    },
    {
      "inputs": [
        {
          "internalType": "uint256",
          "name": "inputRoot",
          "type": "uint256"
        }
      ],
      "name": "RegistryRootMismatch",
      "type": "error"
    },
    {
      "inputs": [
        {
          "internalType": "uint256",
          "name": "ticketData",
          "type": "uint256"
        }
      ],
      "name": "TicketFrozen",
      "type": "error"
    },
    {
      "inputs": [
        {
          "internalType": "uint256",
          "name": "expectedTicketIdentifier",
          "type": "uint256"
        },
        {
          "internalType": "uint256",
          "name": "ticketIdentifier",
          "type": "uint256"
        }
      ],
      "name": "TicketIdentifierMismatch",
      "type": "error"
    },
    {
      "inputs": [
        {
          "components": [
            {
              "internalType": "address",
              "name": "destination",
              "type": "address"
            },
            {
              "internalType": "uint32",
              "name": "cooldownStart",
              "type": "uint32"
            }
          ],
          "internalType": "struct IHydraS1SoulboundAttester.TicketData",
          "name": "ticketData",
          "type": "tuple"
        }
      ],
      "name": "TicketUsedAndOnCooldown",
      "type": "error"
    },
    {
      "inputs": [
        {
          "internalType": "uint256",
          "name": "expectedValue",
          "type": "uint256"
        },
        {
          "internalType": "uint256",
          "name": "inputValue",
          "type": "uint256"
        }
      ],
      "name": "ValueMismatch",
      "type": "error"
    },
    {
      "anonymous": false,
      "inputs": [
        {
          "components": [
            {
              "internalType": "uint256",
              "name": "collectionId",
              "type": "uint256"
            },
            {
              "internalType": "address",
              "name": "owner",
              "type": "address"
            },
            {
              "internalType": "address",
              "name": "issuer",
              "type": "address"
            },
            {
              "internalType": "uint256",
              "name": "value",
              "type": "uint256"
            },
            {
              "internalType": "uint32",
              "name": "timestamp",
              "type": "uint32"
            },
            {
              "internalType": "bytes",
              "name": "extraData",
              "type": "bytes"
            }
          ],
          "indexed": false,
          "internalType": "struct Attestation",
          "name": "attestation",
          "type": "tuple"
        }
      ],
      "name": "AttestationDeleted",
      "type": "event"
    },
    {
      "anonymous": false,
      "inputs": [
        {
          "components": [
            {
              "internalType": "uint256",
              "name": "collectionId",
              "type": "uint256"
            },
            {
              "internalType": "address",
              "name": "owner",
              "type": "address"
            },
            {
              "internalType": "address",
              "name": "issuer",
              "type": "address"
            },
            {
              "internalType": "uint256",
              "name": "value",
              "type": "uint256"
            },
            {
              "internalType": "uint32",
              "name": "timestamp",
              "type": "uint32"
            },
            {
              "internalType": "bytes",
              "name": "extraData",
              "type": "bytes"
            }
          ],
          "indexed": false,
          "internalType": "struct Attestation",
          "name": "attestation",
          "type": "tuple"
        }
      ],
      "name": "AttestationGenerated",
      "type": "event"
    },
    {
      "anonymous": false,
      "inputs": [
        {
          "indexed": false,
          "internalType": "uint256",
          "name": "ticket",
          "type": "uint256"
        },
        {
          "indexed": false,
          "internalType": "address",
          "name": "newOwner",
          "type": "address"
        }
      ],
      "name": "TicketDestinationUpdated",
      "type": "event"
    },
    {
      "anonymous": false,
      "inputs": [
        {
          "indexed": false,
          "internalType": "uint256",
          "name": "ticket",
          "type": "uint256"
        }
      ],
      "name": "TicketSetOnCooldown",
      "type": "event"
    },
    {
      "inputs": [],
      "name": "AUTHORIZED_COLLECTION_ID_FIRST",
      "outputs": [
        {
          "internalType": "uint256",
          "name": "",
          "type": "uint256"
        }
      ],
      "stateMutability": "view",
      "type": "function"
    },
    {
      "inputs": [],
      "name": "AUTHORIZED_COLLECTION_ID_LAST",
      "outputs": [
        {
          "internalType": "uint256",
          "name": "",
          "type": "uint256"
        }
      ],
      "stateMutability": "view",
      "type": "function"
    },
    {
      "inputs": [],
      "name": "SOULBOUND_COOLDOWN_DURATION",
      "outputs": [
        {
          "internalType": "uint256",
          "name": "",
          "type": "uint256"
        }
      ],
      "stateMutability": "view",
      "type": "function"
    },
    {
      "inputs": [
        {
          "components": [
            {
              "components": [
                {
                  "internalType": "uint256",
                  "name": "groupId",
                  "type": "uint256"
                },
                {
                  "internalType": "uint256",
                  "name": "claimedValue",
                  "type": "uint256"
                },
                {
                  "internalType": "bytes",
                  "name": "extraData",
                  "type": "bytes"
                }
              ],
              "internalType": "struct Claim[]",
              "name": "claims",
              "type": "tuple[]"
            },
            {
              "internalType": "address",
              "name": "destination",
              "type": "address"
            }
          ],
          "internalType": "struct Request",
          "name": "request",
          "type": "tuple"
        },
        {
          "internalType": "bytes",
          "name": "proofData",
          "type": "bytes"
        }
      ],
      "name": "buildAttestations",
      "outputs": [
        {
          "components": [
            {
              "internalType": "uint256",
              "name": "collectionId",
              "type": "uint256"
            },
            {
              "internalType": "address",
              "name": "owner",
              "type": "address"
            },
            {
              "internalType": "address",
              "name": "issuer",
              "type": "address"
            },
            {
              "internalType": "uint256",
              "name": "value",
              "type": "uint256"
            },
            {
              "internalType": "uint32",
              "name": "timestamp",
              "type": "uint32"
            },
            {
              "internalType": "bytes",
              "name": "extraData",
              "type": "bytes"
            }
          ],
          "internalType": "struct Attestation[]",
          "name": "",
          "type": "tuple[]"
        }
      ],
      "stateMutability": "view",
      "type": "function"
    },
    {
      "inputs": [
        {
          "internalType": "uint256[]",
          "name": "collectionIds",
          "type": "uint256[]"
        },
        {
          "internalType": "address",
          "name": "attestationsOwner",
          "type": "address"
        },
        {
          "internalType": "bytes",
          "name": "proofData",
          "type": "bytes"
        }
      ],
      "name": "deleteAttestations",
      "outputs": [
        {
          "components": [
            {
              "internalType": "uint256",
              "name": "collectionId",
              "type": "uint256"
            },
            {
              "internalType": "address",
              "name": "owner",
              "type": "address"
            },
            {
              "internalType": "address",
              "name": "issuer",
              "type": "address"
            },
            {
              "internalType": "uint256",
              "name": "value",
              "type": "uint256"
            },
            {
              "internalType": "uint32",
              "name": "timestamp",
              "type": "uint32"
            },
            {
              "internalType": "bytes",
              "name": "extraData",
              "type": "bytes"
            }
          ],
          "internalType": "struct Attestation[]",
          "name": "",
          "type": "tuple[]"
        }
      ],
      "stateMutability": "nonpayable",
      "type": "function"
    },
    {
      "inputs": [
        {
          "components": [
            {
              "components": [
                {
                  "internalType": "uint256",
                  "name": "groupId",
                  "type": "uint256"
                },
                {
                  "internalType": "uint256",
                  "name": "claimedValue",
                  "type": "uint256"
                },
                {
                  "internalType": "bytes",
                  "name": "extraData",
                  "type": "bytes"
                }
              ],
              "internalType": "struct Claim[]",
              "name": "claims",
              "type": "tuple[]"
            },
            {
              "internalType": "address",
              "name": "destination",
              "type": "address"
            }
          ],
          "internalType": "struct Request",
          "name": "request",
          "type": "tuple"
        },
        {
          "internalType": "bytes",
          "name": "proofData",
          "type": "bytes"
        }
      ],
      "name": "generateAttestations",
      "outputs": [
        {
          "components": [
            {
              "internalType": "uint256",
              "name": "collectionId",
              "type": "uint256"
            },
            {
              "internalType": "address",
              "name": "owner",
              "type": "address"
            },
            {
              "internalType": "address",
              "name": "issuer",
              "type": "address"
            },
            {
              "internalType": "uint256",
              "name": "value",
              "type": "uint256"
            },
            {
              "internalType": "uint32",
              "name": "timestamp",
              "type": "uint32"
            },
            {
              "internalType": "bytes",
              "name": "extraData",
              "type": "bytes"
            }
          ],
          "internalType": "struct Attestation[]",
          "name": "",
          "type": "tuple[]"
        }
      ],
      "stateMutability": "nonpayable",
      "type": "function"
    },
    {
      "inputs": [],
      "name": "getAttestationRegistry",
      "outputs": [
        {
          "internalType": "contract IAttestationsRegistry",
          "name": "",
          "type": "address"
        }
      ],
      "stateMutability": "view",
      "type": "function"
    },
    {
      "inputs": [],
      "name": "getAvailableRootsRegistry",
      "outputs": [
        {
          "internalType": "contract IAvailableRootsRegistry",
          "name": "",
          "type": "address"
        }
      ],
      "stateMutability": "view",
      "type": "function"
    },
    {
      "inputs": [],
      "name": "getCommitmentMapperRegistry",
      "outputs": [
        {
          "internalType": "contract ICommitmentMapperRegistry",
          "name": "",
          "type": "address"
        }
      ],
      "stateMutability": "view",
      "type": "function"
    },
    {
      "inputs": [
        {
          "internalType": "uint256",
          "name": "userTicket",
          "type": "uint256"
        }
      ],
      "name": "getDestinationOfTicket",
      "outputs": [
        {
          "internalType": "address",
          "name": "",
          "type": "address"
        }
      ],
      "stateMutability": "view",
      "type": "function"
    },
    {
      "inputs": [
        {
          "internalType": "uint256",
          "name": "userTicket",
          "type": "uint256"
        }
      ],
      "name": "getTicketData",
      "outputs": [
        {
          "components": [
            {
              "internalType": "address",
              "name": "destination",
              "type": "address"
            },
            {
              "internalType": "uint32",
              "name": "cooldownStart",
              "type": "uint32"
            }
          ],
          "internalType": "struct IHydraS1SoulboundAttester.TicketData",
          "name": "",
          "type": "tuple"
        }
      ],
      "stateMutability": "view",
      "type": "function"
    },
    {
      "inputs": [],
      "name": "getVerifier",
      "outputs": [
        {
          "internalType": "contract HydraS1Verifier",
          "name": "",
          "type": "address"
        }
      ],
      "stateMutability": "view",
      "type": "function"
    },
    {
      "inputs": [
        {
          "internalType": "uint256",
          "name": "userTicket",
          "type": "uint256"
        }
      ],
      "name": "isTicketOnCooldown",
      "outputs": [
        {
          "internalType": "bool",
          "name": "",
          "type": "bool"
        }
      ],
      "stateMutability": "view",
      "type": "function"
    }
  ],
  "transactionHash": "0xaead6be0840e86047741a4b016cb535079256e1c4172ab9bd1472272cbf45fcb",
  "args": [
    "0xa37c32adE310f83B5A9E31b82f72011D5BFb5EFA",
    "0x362Ff03CaC33C4c8Dc7fF98396Dc19a68F29F57C",
    "0xEce747769BD44A7854c8C0913A91Aa801e42D0d0",
    "0x21612Eac9b9Ba69F1810074998E5884Ca14f5614",
    "20000001",
    "30000000",
    "295200"
  ],
  "numDeployments": 1,
  "solcInputHash": "c872f238f220b3571ef309821a459203",
  "bytecode": "0x6101606040523480156200001257600080fd5b506040516200218c3803806200218c833981016040819052620000359162000088565b6001600160a01b0395861660805293851660c05291841660a0529390921660e05261010092909252610120526101405262000102565b80516001600160a01b03811681146200008357600080fd5b919050565b600080600080600080600060e0888a031215620000a457600080fd5b620000af886200006b565b9650620000bf602089016200006b565b9550620000cf604089016200006b565b9450620000df606089016200006b565b93506080880151925060a0880151915060c0880151905092959891949750929550565b60805160a05160c05160e051610100516101205161014051611ff16200019b6000396000818161013e01526108d30152600081816101ad01526103c901526000818161017301526103a101526000818161023a015281816104e40152818161066601526107a00152600081816101d10152610ec701526000818160d60152610f6301526000818161011501526110be0152611ff16000f3fe608060405234801561001057600080fd5b50600436106100cf5760003560e01c8063918447af1161008c578063bfa6658511610066578063bfa6658514610238578063c776adde1461025e578063d9895e6a14610271578063e60f999f146102ae57600080fd5b8063918447af146101cf57806392cf369d146101f5578063af411a301461021857600080fd5b80632254f98e146100d457806346657fe9146101135780634e5cf9331461013957806354846d7a1461016e57806363e4afc2146101955780637000b051146101a8575b600080fd5b7f00000000000000000000000000000000000000000000000000000000000000005b6040516001600160a01b0390911681526020015b60405180910390f35b7f00000000000000000000000000000000000000000000000000000000000000006100f6565b6101607f000000000000000000000000000000000000000000000000000000000000000081565b60405190815260200161010a565b6101607f000000000000000000000000000000000000000000000000000000000000000081565b6100f66101a3366004611537565b6102c1565b6101607f000000000000000000000000000000000000000000000000000000000000000081565b7f00000000000000000000000000000000000000000000000000000000000000006100f6565b610208610203366004611537565b6102e0565b604051901515815260200161010a565b61022b610226366004611599565b6102f3565b60405161010a91906116c5565b7f00000000000000000000000000000000000000000000000000000000000000006100f6565b61022b61026c36600461174c565b6104ce565b61028461027f366004611537565b610745565b6040805182516001600160a01b0316815260209283015163ffffffff16928101929092520161010a565b61022b6102bc366004611599565b610762565b6000818152600160205260408120546001600160a01b03165b92915050565b60006102da6102ee8361087e565b6108ce565b60606000610308610303866118af565b61090e565b60408051600180825281830190925291925060009190816020015b6103746040518060c001604052806000815260200160006001600160a01b0316815260200160006001600160a01b0316815260200160008152602001600063ffffffff168152602001606081525090565b8152602001906001900390816103235750506060830151519091506000906103c5906001600160801b03167f0000000000000000000000000000000000000000000000000000000000000000611a3f565b90507f000000000000000000000000000000000000000000000000000000000000000081111561041057604051637bbf29e360e01b8152600481018290526024015b60405180910390fd5b30600061041d8888610993565b90506040518060c001604052808481526020018a60200160208101906104439190611a57565b6001600160a01b03168152602001836001600160a01b031681526020018660200151815260200186606001516020015163ffffffff1681526020018260405160200161049191815260200190565b604051602081830303815290604052815250846000815181106104b6576104b6611a74565b60209081029190910101525091979650505050505050565b60608060005b86811015610638576000806000807f00000000000000000000000000000000000000000000000000000000000000006001600160a01b0316633be1ced78d8d8881811061052357610523611a74565b905060200201358c6040518363ffffffff1660e01b815260040161055a9291909182526001600160a01b0316602082015260400190565b600060405180830381865afa158015610577573d6000803e3d6000fd5b505050506040513d6000823e601f3d908101601f1916820160405261059f9190810190611a9e565b93509350935093506040518060c001604052808d8d888181106105c4576105c4611a74565b9050602002013581526020018b6001600160a01b03168152602001856001600160a01b031681526020018481526020018363ffffffff1681526020018281525086868151811061061657610616611a74565b602002602001018190525050505050808061063090611b4e565b9150506104d4565b506106448185856109b8565b61064f818585610a53565b6040516373e4ca1b60e11b81526001600160a01b037f0000000000000000000000000000000000000000000000000000000000000000169063e7c994369061069b9084906004016116c5565b600060405180830381600087803b1580156106b557600080fd5b505af11580156106c9573d6000803e3d6000fd5b5050505060005b8681101561073a577f01cba57fa881d11e8be5640b6abefb9709f2dd45f776051b2cf5cb8ea23fa56b82828151811061070b5761070b611a74565b60200260200101516040516107209190611b67565b60405180910390a18061073281611b4e565b9150506106d0565b509695505050505050565b60408051808201909152600080825260208201526102da8261087e565b606061076f848484610b29565b600061077c8585856102f3565b9050610789858585610b71565b60405163ebc5c09360e01b81526001600160a01b037f0000000000000000000000000000000000000000000000000000000000000000169063ebc5c093906107d59084906004016116c5565b600060405180830381600087803b1580156107ef57600080fd5b505af1158015610803573d6000803e3d6000fd5b5050505060005b8151811015610875577f336e708b72b2b4a27a0c25e8cce7f97512e7f1e8dcaf800b100075e62c1eb1fc82828151811061084657610846611a74565b602002602001015160405161085b9190611b67565b60405180910390a18061086d81611b4e565b91505061080a565b50949350505050565b6040805180820190915260008082526020820152506000908152600160209081526040918290208251808401909352546001600160a01b0381168352600160a01b900463ffffffff169082015290565b6000427f0000000000000000000000000000000000000000000000000000000000000000836020015163ffffffff166109079190611a3f565b1092915050565b610916611463565b6000826000015160008151811061092f5761092f611a74565b6020026020010151905061094281610c65565b6000816040015180602001905181019061095c9190611b8a565b60408051608081018252845181526020948501518582015295909301516001600160a01b0316928501929092525060608301525090565b6000806109a283850185611cbb565b905060006109af82610ca9565b95945050505050565b60005b8351811015610a4d576000846000815181106109d9576109d9611a74565b602002602001015160a001518060200190518101906109f89190611d8c565b6000818152600160205260409020549091506001600160a01b03163314610a3a5760405162f8a2bf60e81b815260048101829052336024820152604401610407565b5080610a4581611b4e565b9150506109bb565b50505050565b60005b8351811015610a4d576000848281518110610a7357610a73611a74565b602002602001015160a00151806020019051810190610a929190611d8c565b6000818152600160209081526040918290208251808401909352546001600160a01b0381168352600160a01b900463ffffffff1690820152909150610ad6906108ce565b1515600103610afb57604051632fcfdde360e11b815260048101829052602401610407565b600090815260016020526040902080546001600160a01b031916905580610b2181611b4e565b915050610a56565b6000610b3782840184611cbb565b90506000610b4482610cbf565b90506000610b54610303876118af565b9050610b608183610d69565b610b6983611094565b505050505050565b6000610b7d8383610993565b6000818152600160209081526040918290208251808401909352546001600160a01b038116808452600160a01b90910463ffffffff16918301919091529192509015801590610bf15750610bd76040860160208701611a57565b6001600160a01b031681600001516001600160a01b031614155b15610c4257610bff816108ce565b15610c3957604051633f8ffaa560e01b815281516001600160a01b03166004820152602082015163ffffffff166024820152604401610407565b610c428261122d565b610c5b82610c566040880160208901611a57565b61128e565b5050505050565b50565b6000610c7482604001516112f4565b82519091508114610ca55781516040516337e3d1ab60e01b8152610407918391600401918252602082015260400190565b5050565b602081015160009060065b602002015192915050565b610cc76114c6565b604051806101200160405280610cdc84611329565b6001600160a01b03168152602001610cf384611337565b8152602001610d0184611346565b8152602001610d0f84611355565b8152602001610d1d84610ca9565b8152602001610d2b84611364565b8152602001610d3984611373565b8152602001610d518460200151610120015160011490565b15158152602001610d6184611382565b905292915050565b815160c082015114610d9e57815160c082015160405163fe405c7760e01b815260048101929092526024820152604401610407565b81606001516040015115158160e00151151503610de957606082015160409081015160e08301519151634629f1b560e11b815290151560048201529015156024820152604401610407565b81604001516001600160a01b031681600001516001600160a01b031614610e3d57604082810151825191516370a8d99b60e11b81526001600160a01b03918216600482015291166024820152604401610407565b46816020015114610e70576020810151604051630432cec160e31b81524660048201526024810191909152604401610407565b81602001518160a0015114610eab57602082015160a0820151604051630626ade360e41b815260048101929092526024820152604401610407565b604081810151905163072f23bd60e51b815260048101919091527f00000000000000000000000000000000000000000000000000000000000000006001600160a01b03169063e5e477a090602401602060405180830381865afa158015610f16573d6000803e3d6000fd5b505050506040513d601f19601f82011682018060405250810190610f3a9190611da5565b610f5f57806040015160405163cbfe7bc360e01b815260040161040791815260200190565b60007f00000000000000000000000000000000000000000000000000000000000000006001600160a01b03166359a80d0d6040518163ffffffff1660e01b81526004016040805180830381865afa158015610fbe573d6000803e3d6000fd5b505050506040513d601f19601f82011682018060405250810190610fe29190611dc0565b80516101008401515191925014158061100957506020808201516101008401519091015114155b15611053578051602080830151610100850151805192015160405163318d812b60e01b81526004810194909452602484019190915260448301919091526064820152608401610407565b600061105e846113da565b905080836060015114610a4d5760608301516040516377bb6d2760e11b8152610407918391600401918252602082015260400190565b805180516020808301516040938401519185015193516379ddb87b60e11b81526001600160a01b037f0000000000000000000000000000000000000000000000000000000000000000169463f3bb70f6946110f794909392909190600401611e3c565b602060405180830381865afa925050508015611130575060408051601f3d908101601f1916820190925261112d91810190611da5565b60015b6112065761113c611ec0565b806308c379a0036111755750611150611edc565b8061115b57506111b4565b8060405162dd577760e81b81526004016104079190611f66565b634e487b71036111b457611187611f79565b9061119257506111b4565b60405162dd577760e81b81526020600482015260006024820152604401610407565b3d8080156111de576040519150601f19603f3d011682016040523d82523d6000602084013e6111e3565b606091505b5060405162dd577760e81b81526020600482015260006024820152604401610407565b80610ca55760405162dd577760e81b81526020600482015260006024820152604401610407565b600081815260016020908152604091829020805463ffffffff60a01b1916600160a01b4263ffffffff160217905590518281527f49ab97b1dc68eafe79e6e7f8ff996d00259888e84cb401cf9ec8d39adf7ab196910160405180910390a150565b60008281526001602090815260409182902080546001600160a01b0319166001600160a01b0385169081179091558251858152918201527f38ff70eda64ebd48cbf0a5a4e1be5c5d509a7cdb60258e5a9210c1c0508dcbef910160405180910390a15050565b805160208201206000906102da907f30644e72e131a029b85045b68181585d2833e84879b9709143e1f593f000000190611f99565b602081015160009081610cb4565b60208101516000906001610cb4565b60208101516000906004610cb4565b60208101516000906005610cb4565b60208101516000906007610cb4565b60208101516000906008610cb4565b61138a611519565b604051806040016040528083602001516002600a81106113ac576113ac611a74565b6020020151815260200183602001516003600a81106113cd576113cd611a74565b6020020151905292915050565b6000806113f8308460600151600001516001600160801b03166113ff565b9392505050565b604080516001600160a01b03841660208201529081018290526000907f30644e72e131a029b85045b68181585d2833e84879b9709143e1f593f0000001906060016040516020818303038152906040528051906020012060001c6113f89190611f99565b6040518060800160405280600081526020016000815260200160006001600160a01b031681526020016114c1604051806060016040528060006001600160801b03168152602001600063ffffffff1681526020016000151581525090565b905290565b60405180610120016040528060006001600160a01b031681526020016000815260200160008152602001600081526020016000815260200160008152602001600081526020016000151581526020016114c15b60405180604001604052806002906020820280368337509192915050565b60006020828403121561154957600080fd5b5035919050565b60008083601f84011261156257600080fd5b50813567ffffffffffffffff81111561157a57600080fd5b60208301915083602082850101111561159257600080fd5b9250929050565b6000806000604084860312156115ae57600080fd5b833567ffffffffffffffff808211156115c657600080fd5b90850190604082880312156115da57600080fd5b909350602085013590808211156115f057600080fd5b506115fd86828701611550565b9497909650939450505050565b60005b8381101561162557818101518382015260200161160d565b83811115610a4d5750506000910152565b6000815180845261164e81602086016020860161160a565b601f01601f19169290920160200192915050565b805182526000602082015160018060a01b03808216602086015280604085015116604086015250506060820151606084015263ffffffff608083015116608084015260a082015160c060a08501526116bd60c0850182611636565b949350505050565b6000602080830181845280855180835260408601915060408160051b870101925083870160005b8281101561171a57603f19888603018452611708858351611662565b945092850192908501906001016116ec565b5092979650505050505050565b6001600160a01b0381168114610c6257600080fd5b803561174781611727565b919050565b60008060008060006060868803121561176457600080fd5b853567ffffffffffffffff8082111561177c57600080fd5b818801915088601f83011261179057600080fd5b81358181111561179f57600080fd5b8960208260051b85010111156117b457600080fd5b602083019750809650506117ca6020890161173c565b945060408801359150808211156117e057600080fd5b506117ed88828901611550565b969995985093965092949392505050565b634e487b7160e01b600052604160045260246000fd5b6040810181811067ffffffffffffffff82111715611834576118346117fe565b60405250565b6060810181811067ffffffffffffffff82111715611834576118346117fe565b601f8201601f1916810167ffffffffffffffff81118282101715611880576118806117fe565b6040525050565b600067ffffffffffffffff8211156118a1576118a16117fe565b50601f01601f191660200190565b600060408083360312156118c257600080fd5b80516118cd81611814565b833567ffffffffffffffff808211156118e557600080fd5b9085019036601f8301126118f857600080fd5b813560208282111561190c5761190c6117fe565b8160051b865161191e8383018261185a565b9283528481018201928281013685111561193757600080fd5b83870192505b84831015611a0b578235868111156119555760008081fd5b8701606036829003601f190181131561196e5760008081fd5b8a516119798161183a565b8287013581528b8301358188015290820135908882111561199a5760008081fd5b9181019136603f8401126119b057600091508182fd5b8683013591506119bf82611887565b8c516119cb828261185a565b838152368e8587010111156119e257600091508182fd5b838e86018a830137600093810189019390935250808c019190915282525091830191830161193d565b50865250611a1a88820161173c565b90850152509195945050505050565b634e487b7160e01b600052601160045260246000fd5b60008219821115611a5257611a52611a29565b500190565b600060208284031215611a6957600080fd5b81356113f881611727565b634e487b7160e01b600052603260045260246000fd5b805163ffffffff8116811461174757600080fd5b60008060008060808587031215611ab457600080fd5b8451611abf81611727565b60208601519094509250611ad560408601611a8a565b9150606085015167ffffffffffffffff811115611af157600080fd5b8501601f81018713611b0257600080fd5b8051611b0d81611887565b604051611b1a828261185a565b828152896020848601011115611b2f57600080fd5b611b4083602083016020870161160a565b969995985093965050505050565b600060018201611b6057611b60611a29565b5060010190565b6020815260006113f86020830184611662565b8051801515811461174757600080fd5b600060608284031215611b9c57600080fd5b6040516060810181811067ffffffffffffffff82111715611bbf57611bbf6117fe565b60405282516001600160801b0381168114611bd957600080fd5b8152611be760208401611a8a565b6020820152611bf860408401611b7a565b60408201529392505050565b600082601f830112611c1557600080fd5b604051611c2181611814565b806040840185811115611c3357600080fd5b845b81811015611c4d578035835260209283019201611c35565b509195945050505050565b600082601f830112611c6957600080fd5b60405161014080820182811067ffffffffffffffff82111715611c8e57611c8e6117fe565b60405283018185821115611ca157600080fd5b845b82811015611c4d578035825260209182019101611ca3565b6000818303610240811215611ccf57600080fd5b60408051611cdc81611814565b61010080841215611cec57600080fd5b82519350611cf98461183a565b611d038787611c04565b845286605f870112611d1457600080fd5b8251611d1f81611814565b8060c0880189811115611d3157600080fd5b8589015b81811015611d5657611d478b82611c04565b83526020909201918601611d35565b50826020880152611d678a82611c04565b86880152505050838252611d7d87828801611c58565b60208301525095945050505050565b600060208284031215611d9e57600080fd5b5051919050565b600060208284031215611db757600080fd5b6113f882611b7a565b600060408284031215611dd257600080fd5b82601f830112611de157600080fd5b604051611ded81611814565b806040840185811115611dff57600080fd5b845b81811015611c4d578051835260209283019201611e01565b8060005b6002811015610a4d578151845260209384019390910190600101611e1d565b6102408101611e4b8287611e19565b60408083018660005b6002811015611e7b57611e68838351611e19565b9183019160209190910190600101611e54565b50505050611e8c60c0830185611e19565b61010082018360005b600a811015611eb4578151835260209283019290910190600101611e95565b50505095945050505050565b600060033d1115611ed95760046000803e5060005160e01c5b90565b600060443d1015611eea5790565b6040516003193d81016004833e81513d67ffffffffffffffff8160248401118184111715611f1a57505050505090565b8285019150815181811115611f325750505050505090565b843d8701016020828501011115611f4c5750505050505090565b611f5b6020828601018761185a565b509095945050505050565b6020815260006113f86020830184611636565b60008060233d1115611f95576020600460003e50506000516001905b9091565b600082611fb657634e487b7160e01b600052601260045260246000fd5b50069056fea2646970667358221220f1374674d2143dc1e1f8e0666c58769f2e4bc209220c094f513f5b717a358ad464736f6c634300080e0033",
  "devdoc": {
    "author": "Sismo",
    "kind": "dev",
    "methods": {
      "buildAttestations(((uint256,uint256,bytes)[],address),bytes)": {
        "details": "Returns the actual attestations constructed from the user request",
        "params": {
          "proofData": "snark public input as well as snark proof",
          "request": "users request. Claim of having an account part of a group of accounts"
        }
      },
      "constructor": {
        "details": "Constructor. Initializes the contract",
        "params": {
          "attestationsRegistryAddress": "Attestations Registry contract on which the attester will write attestations",
          "availableRootsRegistryAddress": "Registry storing the available groups for this attester (e.g roots of registry merkle trees)",
          "collectionIdFirst": "Id of the first collection in which the attester is supposed to record",
          "collectionIdLast": "Id of the last collection in which the attester is supposed to record",
          "commitmentMapperAddress": "commitment mapper's public key registry",
          "hydraS1VerifierAddress": "ZK Snark Hydra-S1 Verifier contract"
        }
      },
      "deleteAttestations(uint256[],address,bytes)": {
        "details": "External facing function. Allows to delete attestations by submitting proof",
        "params": {
          "attestationsOwner": "Owner of attestations to delete",
          "collectionIds": "Collection identifier of attestations to delete",
          "proofData": "Data sent along the deletion request to prove its validity"
        },
        "returns": {
          "_0": "attestations Attestations that were deleted"
        }
      },
      "generateAttestations(((uint256,uint256,bytes)[],address),bytes)": {
        "details": "Main external function. Allows to generate attestations by making a request and submitting proof",
        "params": {
          "proofData": "Data sent along the request to prove its validity",
          "request": "User request"
        },
        "returns": {
          "_0": "attestations Attestations that has been recorded"
        }
      },
      "getAttestationRegistry()": {
        "details": "Attestation registry getter",
        "returns": {
          "_0": "attestationRegistry"
        }
      },
      "getAvailableRootsRegistry()": {
        "details": "Getter of Roots Registry Contract"
      },
      "getCommitmentMapperRegistry()": {
        "details": "Getter of Commitment Mapper Registry contract"
      },
      "getDestinationOfTicket(uint256)": {
        "details": "Getter, returns the last attestation destination of a ticket",
        "params": {
          "userTicket": "ticket used*"
        }
      },
      "getTicketData(uint256)": {
        "details": "Getter, returns the data linked to a ticket",
        "params": {
          "userTicket": "ticket used*"
        }
      },
      "getVerifier()": {
        "details": "Getter of Hydra-S1 Verifier contract"
      },
      "isTicketOnCooldown(uint256)": {
        "details": "returns whether a ticket is on cooldown or not",
        "params": {
          "userTicket": "ticket used*"
        }
      }
    },
    "stateVariables": {
      "AUTHORIZED_COLLECTION_ID_FIRST": {
        "details": "Getter returns of the first collection in which the attester is supposed to record*"
      },
      "AUTHORIZED_COLLECTION_ID_LAST": {
        "details": "Getter returns of the last collection in which the attester is supposed to record*"
      },
      "SOULBOUND_COOLDOWN_DURATION": {
        "details": "Getter returns of the duration of the cooldown period after having used a ticket*"
      }
    },
    "title": "Hydra-S1 Soulbound Attester",
    "version": 1
  },
  "userdoc": {
    "kind": "user",
    "methods": {},
    "notice": "This attester is part of the family of the Hydra-S1 Attesters. Hydra-S1 attesters enable users to prove they have an account in a group in a privacy preserving way. The Hydra-S1 Base abstract contract is inherited and holds the complex Hydra S1 verification logic. We invite readers to refer to:    - https://hydra-s1.docs.sismo.io for a full guide through the Hydra-S1 ZK Attestations    - https://hydra-s1-circuits.docs.sismo.io for circuits, prover and verifiers of Hydra-S1 This specific attester has the following characteristics: - Zero Knowledge   One cannot deduct from an attestation what source account was used to generate the underlying proof - Non Strict (scores)   If a user can generate an attestation of max value 100, they can also generate any attestation with value < 100.   This attester generate attestations of scores - Ticketed   Each source account gets one userTicket per claim (i.e only one attestation per source account per claim)   For people used to semaphore/ tornado cash people:   userTicket = hash(sourceSecret, ticketIdentifier) <=> nullifierHash = hash(IdNullifier, externalNullifier) - SoulBound (with cooldown period)   A user can chose to delete attestations or generate attestation to a new destination.   When deleting/ sending to a new destination, the ticket will enter a cooldown period, so it remains occasional   User will need to wait until the end of the cooldown period before being able to delete or switch destination again   One can however know that the former and the new destinations were created using the same userTicket - Renewable   A userTicket can actually be reused as long as the destination of the attestation remains the same   It enables users to renew or update their attestations*",
    "version": 1
  },
  "storageLayout": {
    "storage": [
      {
        "astId": 936,
        "contract": "contracts/attesters/hydra-s1/variants/HydraS1SoulboundAttester.sol:HydraS1SoulboundAttester",
        "label": "_initialized",
        "offset": 0,
        "slot": "0",
        "type": "t_bool"
      },
      {
        "astId": 939,
        "contract": "contracts/attesters/hydra-s1/variants/HydraS1SoulboundAttester.sol:HydraS1SoulboundAttester",
        "label": "_initializing",
        "offset": 1,
        "slot": "0",
        "type": "t_bool"
      },
      {
        "astId": 6592,
        "contract": "contracts/attesters/hydra-s1/variants/HydraS1SoulboundAttester.sol:HydraS1SoulboundAttester",
        "label": "_userTicketsData",
        "offset": 0,
        "slot": "1",
        "type": "t_mapping(t_uint256,t_struct(TicketData)6019_storage)"
      }
    ],
    "types": {
      "t_address": {
        "encoding": "inplace",
        "label": "address",
        "numberOfBytes": "20"
      },
      "t_bool": {
        "encoding": "inplace",
        "label": "bool",
        "numberOfBytes": "1"
      },
      "t_mapping(t_uint256,t_struct(TicketData)6019_storage)": {
        "encoding": "mapping",
        "key": "t_uint256",
        "label": "mapping(uint256 => struct IHydraS1SoulboundAttester.TicketData)",
        "numberOfBytes": "32",
        "value": "t_struct(TicketData)6019_storage"
      },
      "t_struct(TicketData)6019_storage": {
        "encoding": "inplace",
        "label": "struct IHydraS1SoulboundAttester.TicketData",
        "members": [
          {
            "astId": 6016,
            "contract": "contracts/attesters/hydra-s1/variants/HydraS1SoulboundAttester.sol:HydraS1SoulboundAttester",
            "label": "destination",
            "offset": 0,
            "slot": "0",
            "type": "t_address"
          },
          {
            "astId": 6018,
            "contract": "contracts/attesters/hydra-s1/variants/HydraS1SoulboundAttester.sol:HydraS1SoulboundAttester",
            "label": "cooldownStart",
            "offset": 20,
            "slot": "0",
            "type": "t_uint32"
          }
        ],
        "numberOfBytes": "32"
      },
      "t_uint256": {
        "encoding": "inplace",
        "label": "uint256",
        "numberOfBytes": "32"
      },
      "t_uint32": {
        "encoding": "inplace",
        "label": "uint32",
        "numberOfBytes": "4"
      }
    }
  }
}