{
  "address": "0x4C6D6B26839b802a0Fd6A380A081E2d98a2d3D55",
  "abi": [
    {
      "inputs": [
        {
          "internalType": "address",
          "name": "attestationsRegistryAddress",
          "type": "address"
        },
        {
          "internalType": "uint256",
          "name": "collectionIdFirst",
          "type": "uint256"
        },
        {
          "internalType": "uint256",
          "name": "collectionIdLast",
          "type": "uint256"
        },
        {
          "internalType": "address",
          "name": "pythia1VerifierAddress",
          "type": "address"
        },
        {
          "internalType": "uint256[2]",
          "name": "commitmentSignerPubKey",
          "type": "uint256[2]"
        },
        {
          "internalType": "address",
          "name": "owner",
          "type": "address"
        }
      ],
      "stateMutability": "nonpayable",
      "type": "constructor"
    },
    {
      "inputs": [],
      "name": "AttestationDeletionNotImplemented",
      "type": "error"
    },
    {
      "inputs": [
        {
          "internalType": "uint256",
          "name": "expectedChainId",
          "type": "uint256"
        },
        {
          "internalType": "uint256",
          "name": "chainId",
          "type": "uint256"
        }
      ],
      "name": "ChainIdMismatch",
      "type": "error"
    },
    {
      "inputs": [
        {
          "internalType": "uint256",
          "name": "collectionId",
          "type": "uint256"
        }
      ],
      "name": "CollectionIdOutOfBound",
      "type": "error"
    },
    {
      "inputs": [
        {
          "internalType": "uint256",
          "name": "expectedX",
          "type": "uint256"
        },
        {
          "internalType": "uint256",
          "name": "expectedY",
          "type": "uint256"
        },
        {
          "internalType": "uint256",
          "name": "inputX",
          "type": "uint256"
        },
        {
          "internalType": "uint256",
          "name": "inputY",
          "type": "uint256"
        }
      ],
      "name": "CommitmentSignerPubKeyMismatch",
      "type": "error"
    },
    {
      "inputs": [
        {
          "internalType": "address",
          "name": "expectedDestination",
          "type": "address"
        },
        {
          "internalType": "address",
          "name": "inputDestination",
          "type": "address"
        }
      ],
      "name": "DestinationMismatch",
      "type": "error"
    },
    {
      "inputs": [
        {
          "internalType": "uint256",
          "name": "expectedGroupId",
          "type": "uint256"
        },
        {
          "internalType": "uint256",
          "name": "groupId",
          "type": "uint256"
        }
      ],
      "name": "GroupIdAndPropertiesMismatch",
      "type": "error"
    },
    {
      "inputs": [
        {
          "internalType": "uint256",
          "name": "expectedAccountsTreeValue",
          "type": "uint256"
        },
        {
          "internalType": "uint256",
          "name": "inputAccountsTreeValue",
          "type": "uint256"
        }
      ],
      "name": "GroupIdMismatch",
      "type": "error"
    },
    {
      "inputs": [
        {
          "internalType": "string",
          "name": "reason",
          "type": "string"
        }
      ],
      "name": "InvalidGroth16Proof",
      "type": "error"
    },
    {
      "inputs": [
        {
          "internalType": "bool",
          "name": "expectedStrictness",
          "type": "bool"
        },
        {
          "internalType": "bool",
          "name": "strictNess",
          "type": "bool"
        }
      ],
      "name": "IsStrictMismatch",
      "type": "error"
    },
    {
      "inputs": [
        {
          "internalType": "uint256",
          "name": "expectedTicketIdentifier",
          "type": "uint256"
        },
        {
          "internalType": "uint256",
          "name": "ticketIdentifier",
          "type": "uint256"
        }
      ],
      "name": "TicketIdentifierMismatch",
      "type": "error"
    },
    {
      "inputs": [
        {
          "internalType": "uint256",
          "name": "userTicket",
          "type": "uint256"
        }
      ],
      "name": "TicketUsed",
      "type": "error"
    },
    {
      "inputs": [
        {
          "internalType": "address",
          "name": "sender",
          "type": "address"
        },
        {
          "internalType": "address",
          "name": "inputdestination",
          "type": "address"
        }
      ],
      "name": "UserShouldOwnItsDestination",
      "type": "error"
    },
    {
      "inputs": [
        {
          "internalType": "uint256",
          "name": "expectedValue",
          "type": "uint256"
        },
        {
          "internalType": "uint256",
          "name": "inputValue",
          "type": "uint256"
        }
      ],
      "name": "ValueMismatch",
      "type": "error"
    },
    {
      "anonymous": false,
      "inputs": [
        {
          "components": [
            {
              "internalType": "uint256",
              "name": "collectionId",
              "type": "uint256"
            },
            {
              "internalType": "address",
              "name": "owner",
              "type": "address"
            },
            {
              "internalType": "address",
              "name": "issuer",
              "type": "address"
            },
            {
              "internalType": "uint256",
              "name": "value",
              "type": "uint256"
            },
            {
              "internalType": "uint32",
              "name": "timestamp",
              "type": "uint32"
            },
            {
              "internalType": "bytes",
              "name": "extraData",
              "type": "bytes"
            }
          ],
          "indexed": false,
          "internalType": "struct Attestation",
          "name": "attestation",
          "type": "tuple"
        }
      ],
      "name": "AttestationDeleted",
      "type": "event"
    },
    {
      "anonymous": false,
      "inputs": [
        {
          "components": [
            {
              "internalType": "uint256",
              "name": "collectionId",
              "type": "uint256"
            },
            {
              "internalType": "address",
              "name": "owner",
              "type": "address"
            },
            {
              "internalType": "address",
              "name": "issuer",
              "type": "address"
            },
            {
              "internalType": "uint256",
              "name": "value",
              "type": "uint256"
            },
            {
              "internalType": "uint32",
              "name": "timestamp",
              "type": "uint32"
            },
            {
              "internalType": "bytes",
              "name": "extraData",
              "type": "bytes"
            }
          ],
          "indexed": false,
          "internalType": "struct Attestation",
          "name": "attestation",
          "type": "tuple"
        }
      ],
      "name": "AttestationGenerated",
      "type": "event"
    },
    {
      "anonymous": false,
      "inputs": [
        {
          "indexed": false,
          "internalType": "uint256[2]",
          "name": "newCommitmentSignerPubKey",
          "type": "uint256[2]"
        }
      ],
      "name": "CommitmentSignerPubKeyUpdated",
      "type": "event"
    },
    {
      "anonymous": false,
      "inputs": [
        {
          "indexed": false,
          "internalType": "uint8",
          "name": "version",
          "type": "uint8"
        }
      ],
      "name": "Initialized",
      "type": "event"
    },
    {
      "anonymous": false,
      "inputs": [
        {
          "indexed": true,
          "internalType": "address",
          "name": "previousOwner",
          "type": "address"
        },
        {
          "indexed": true,
          "internalType": "address",
          "name": "newOwner",
          "type": "address"
        }
      ],
      "name": "OwnershipTransferred",
      "type": "event"
    },
    {
      "anonymous": false,
      "inputs": [
        {
          "indexed": false,
          "internalType": "uint256",
          "name": "ticket",
          "type": "uint256"
        },
        {
          "indexed": false,
          "internalType": "address",
          "name": "newOwner",
          "type": "address"
        }
      ],
      "name": "TicketDestinationUpdated",
      "type": "event"
    },
    {
      "inputs": [],
      "name": "AUTHORIZED_COLLECTION_ID_FIRST",
      "outputs": [
        {
          "internalType": "uint256",
          "name": "",
          "type": "uint256"
        }
      ],
      "stateMutability": "view",
      "type": "function"
    },
    {
      "inputs": [],
      "name": "AUTHORIZED_COLLECTION_ID_LAST",
      "outputs": [
        {
          "internalType": "uint256",
          "name": "",
          "type": "uint256"
        }
      ],
      "stateMutability": "view",
      "type": "function"
    },
    {
      "inputs": [],
      "name": "IMPLEMENTATION_VERSION",
      "outputs": [
        {
          "internalType": "uint8",
          "name": "",
          "type": "uint8"
        }
      ],
      "stateMutability": "view",
      "type": "function"
    },
    {
      "inputs": [
        {
          "components": [
            {
              "components": [
                {
                  "internalType": "uint256",
                  "name": "groupId",
                  "type": "uint256"
                },
                {
                  "internalType": "uint256",
                  "name": "claimedValue",
                  "type": "uint256"
                },
                {
                  "internalType": "bytes",
                  "name": "extraData",
                  "type": "bytes"
                }
              ],
              "internalType": "struct Claim[]",
              "name": "claims",
              "type": "tuple[]"
            },
            {
              "internalType": "address",
              "name": "destination",
              "type": "address"
            }
          ],
          "internalType": "struct Request",
          "name": "request",
          "type": "tuple"
        },
        {
          "internalType": "bytes",
          "name": "",
          "type": "bytes"
        }
      ],
      "name": "buildAttestations",
      "outputs": [
        {
          "components": [
            {
              "internalType": "uint256",
              "name": "collectionId",
              "type": "uint256"
            },
            {
              "internalType": "address",
              "name": "owner",
              "type": "address"
            },
            {
              "internalType": "address",
              "name": "issuer",
              "type": "address"
            },
            {
              "internalType": "uint256",
              "name": "value",
              "type": "uint256"
            },
            {
              "internalType": "uint32",
              "name": "timestamp",
              "type": "uint32"
            },
            {
              "internalType": "bytes",
              "name": "extraData",
              "type": "bytes"
            }
          ],
          "internalType": "struct Attestation[]",
          "name": "",
          "type": "tuple[]"
        }
      ],
      "stateMutability": "view",
      "type": "function"
    },
    {
      "inputs": [
        {
          "internalType": "uint256[]",
          "name": "collectionIds",
          "type": "uint256[]"
        },
        {
          "internalType": "address",
          "name": "attestationsOwner",
          "type": "address"
        },
        {
          "internalType": "bytes",
          "name": "proofData",
          "type": "bytes"
        }
      ],
      "name": "deleteAttestations",
      "outputs": [
        {
          "components": [
            {
              "internalType": "uint256",
              "name": "collectionId",
              "type": "uint256"
            },
            {
              "internalType": "address",
              "name": "owner",
              "type": "address"
            },
            {
              "internalType": "address",
              "name": "issuer",
              "type": "address"
            },
            {
              "internalType": "uint256",
              "name": "value",
              "type": "uint256"
            },
            {
              "internalType": "uint32",
              "name": "timestamp",
              "type": "uint32"
            },
            {
              "internalType": "bytes",
              "name": "extraData",
              "type": "bytes"
            }
          ],
          "internalType": "struct Attestation[]",
          "name": "",
          "type": "tuple[]"
        }
      ],
      "stateMutability": "nonpayable",
      "type": "function"
    },
    {
      "inputs": [
        {
          "components": [
            {
              "components": [
                {
                  "internalType": "uint256",
                  "name": "groupId",
                  "type": "uint256"
                },
                {
                  "internalType": "uint256",
                  "name": "claimedValue",
                  "type": "uint256"
                },
                {
                  "internalType": "bytes",
                  "name": "extraData",
                  "type": "bytes"
                }
              ],
              "internalType": "struct Claim[]",
              "name": "claims",
              "type": "tuple[]"
            },
            {
              "internalType": "address",
              "name": "destination",
              "type": "address"
            }
          ],
          "internalType": "struct Request",
          "name": "request",
          "type": "tuple"
        },
        {
          "internalType": "bytes",
          "name": "proofData",
          "type": "bytes"
        }
      ],
      "name": "generateAttestations",
      "outputs": [
        {
          "components": [
            {
              "internalType": "uint256",
              "name": "collectionId",
              "type": "uint256"
            },
            {
              "internalType": "address",
              "name": "owner",
              "type": "address"
            },
            {
              "internalType": "address",
              "name": "issuer",
              "type": "address"
            },
            {
              "internalType": "uint256",
              "name": "value",
              "type": "uint256"
            },
            {
              "internalType": "uint32",
              "name": "timestamp",
              "type": "uint32"
            },
            {
              "internalType": "bytes",
              "name": "extraData",
              "type": "bytes"
            }
          ],
          "internalType": "struct Attestation[]",
          "name": "",
          "type": "tuple[]"
        }
      ],
      "stateMutability": "nonpayable",
      "type": "function"
    },
    {
      "inputs": [],
      "name": "getAttestationRegistry",
      "outputs": [
        {
          "internalType": "contract IAttestationsRegistry",
          "name": "",
          "type": "address"
        }
      ],
      "stateMutability": "view",
      "type": "function"
    },
    {
      "inputs": [],
      "name": "getCommitmentSignerPubKey",
      "outputs": [
        {
          "internalType": "uint256[2]",
          "name": "",
          "type": "uint256[2]"
        }
      ],
      "stateMutability": "view",
      "type": "function"
    },
    {
      "inputs": [
        {
          "internalType": "uint256",
          "name": "userTicket",
          "type": "uint256"
        }
      ],
      "name": "getDestinationOfTicket",
      "outputs": [
        {
          "internalType": "address",
          "name": "",
          "type": "address"
        }
      ],
      "stateMutability": "view",
      "type": "function"
    },
    {
      "inputs": [],
      "name": "getVerifier",
      "outputs": [
        {
          "internalType": "contract Pythia1Verifier",
          "name": "",
          "type": "address"
        }
      ],
      "stateMutability": "view",
      "type": "function"
    },
    {
      "inputs": [
        {
          "internalType": "uint256[2]",
          "name": "commitmentSignerPubKey",
          "type": "uint256[2]"
        },
        {
          "internalType": "address",
          "name": "ownerAddress",
          "type": "address"
        }
      ],
      "name": "initialize",
      "outputs": [],
      "stateMutability": "nonpayable",
      "type": "function"
    },
    {
      "inputs": [],
      "name": "owner",
      "outputs": [
        {
          "internalType": "address",
          "name": "",
          "type": "address"
        }
      ],
      "stateMutability": "view",
      "type": "function"
    },
    {
      "inputs": [],
      "name": "renounceOwnership",
      "outputs": [],
      "stateMutability": "nonpayable",
      "type": "function"
    },
    {
      "inputs": [
        {
          "internalType": "address",
          "name": "newOwner",
          "type": "address"
        }
      ],
      "name": "transferOwnership",
      "outputs": [],
      "stateMutability": "nonpayable",
      "type": "function"
    },
    {
      "inputs": [
        {
          "internalType": "uint256[2]",
          "name": "commitmentSignerPubKey",
          "type": "uint256[2]"
        }
      ],
      "name": "updateCommitmentSignerPubKey",
      "outputs": [],
      "stateMutability": "nonpayable",
      "type": "function"
    }
  ],
  "transactionHash": "0xdb5da2f791aaa699702854fccf539e55aab6529f8d0706ce7ef046b2504568d1",
  "args": [
    "0xa37c32adE310f83B5A9E31b82f72011D5BFb5EFA",
    "30000001",
    "30000100",
    "0x6f3201339b90Eea1CdB13670d5714ca06a49DfaD",
    [
      "0x2f8eeb980ebc1342070a35514e1f42fa96381de8f080d3713e80fe99c883d4e9",
      "0x018683c5d2f1f71d7e8b65ab0990635c019de9183359db7e80543c485426e490"
    ],
    "0xaee4acd5c4Bf516330ca8fe11B07206fC6709294"
  ],
  "numDeployments": 2,
  "solcInputHash": "61c38ae61d36c4e0fe74ede913f00b14",
  "bytecode": "0x6101006040523480156200001257600080fd5b50604051620024dd380380620024dd8339810160408190526200003591620002d8565b6001600160a01b03838116608052861660a052620000533362000075565b60c085905260e0849052620000698282620000d0565b505050505050620003d9565b600080546001600160a01b038381166201000081810262010000600160b01b0319851617855560405193049190911692909183917f8be0079c531659141344cd1fd0a4f28419497f9722a3daafe3b4186f6b6457e091a35050565b600054600390610100900460ff16158015620000f3575060005460ff8083169116105b6200015b5760405162461bcd60e51b815260206004820152602e60248201527f496e697469616c697a61626c653a20636f6e747261637420697320616c72656160448201526d191e481a5b9a5d1a585b1a5e995960921b606482015260840160405180910390fd5b6000805461ffff191660ff831617610100178155620001886000546201000090046001600160a01b031690565b6001600160a01b031614806200019d5750303b155b15620001b957620001ae8262000075565b620001b983620001ff565b6000805461ff001916905560405160ff821681527f7f26b83ff96e1f2b6a682f133852f6798a09c465da95921460cefb38474024989060200160405180910390a1505050565b6200020e60018260026200024b565b507fda2ca1df50078dd7395bf2d1fe6c66f2133d7b56d4d1e671f564010981f204df81604051620002409190620003a6565b60405180910390a150565b82600281019282156200027c579160200282015b828111156200027c5782518255916020019190600101906200025f565b506200028a9291506200028e565b5090565b5b808211156200028a57600081556001016200028f565b80516001600160a01b0381168114620002bd57600080fd5b919050565b634e487b7160e01b600052604160045260246000fd5b60008060008060008060e08789031215620002f257600080fd5b620002fd87620002a5565b95506020808801519550604088015194506200031c60608901620002a5565b935088609f8901126200032e57600080fd5b604080519081016001600160401b0381118282101715620003535762000353620002c2565b6040528060c08a018b8111156200036957600080fd5b60808b015b818110156200038757805183529184019184016200036e565b508295506200039681620002a5565b9450505050509295509295509295565b60408101818360005b6002811015620003d0578151835260209283019290910190600101620003af565b50505092915050565b60805160a05160c05160e0516120a06200043d600039600081816101b4015261038a01526000818161016c01526103620152600081816102310152818161055301528181610734015261097801526000818161012f01526110d501526120a06000f3fe608060405234801561001057600080fd5b50600436106100f55760003560e01c8063754b377c11610097578063c776adde11610066578063c776adde14610255578063c9cdef0414610268578063e60f999f1461027b578063f2fde38b1461028e57600080fd5b8063754b377c146101de5780638da5cb5b146101f8578063af411a301461020f578063bfa665851461022f57600080fd5b806354846d7a116100d357806354846d7a1461016757806363e4afc21461019c5780637000b051146101af578063715018a6146101d657600080fd5b8063124d7199146100fa5780632785e3221461010f57806346657fe91461012d575b600080fd5b61010d61010836600461164e565b6102a1565b005b6101176102b5565b604051610124919061168d565b60405180910390f35b7f00000000000000000000000000000000000000000000000000000000000000005b6040516001600160a01b039091168152602001610124565b61018e7f000000000000000000000000000000000000000000000000000000000000000081565b604051908152602001610124565b61014f6101aa36600461169b565b6102ca565b61018e7f000000000000000000000000000000000000000000000000000000000000000081565b61010d6102e9565b6101e6600381565b60405160ff9091168152602001610124565b6000546201000090046001600160a01b031661014f565b61022261021d3660046116fc565b6102fd565b6040516101249190611827565b7f000000000000000000000000000000000000000000000000000000000000000061014f565b6102226102633660046118ae565b61045c565b61010d61027636600461195f565b610817565b6102226102893660046116fc565b61093a565b61010d61029c366004611997565b610a56565b6102a9610acc565b6102b281610b2d565b50565b6102bd611445565b6102c5610b75565b905090565b6000818152600360205260408120546001600160a01b03165b92915050565b6102f1610acc565b6102fb6000610baf565b565b6060600061031261030d866119db565b610c0a565b60408051600180825281830190925291925060009190816020015b610335611463565b81526020019060019003908161032d575050606083015151909150600090610386906001600160801b03167f0000000000000000000000000000000000000000000000000000000000000000611b6a565b90507f00000000000000000000000000000000000000000000000000000000000000008111156103d157604051637bbf29e360e01b8152600481018290526024015b60405180910390fd5b60003090506040518060c0016040528083815260200185604001516001600160a01b03168152602001826001600160a01b03168152602001856020015181526020014263ffffffff168152602001604051806020016040528060008152508152508360008151811061044557610445611b82565b602090810291909101015250909695505050505050565b60606000856001600160401b0381111561047857610478611559565b6040519080825280602002602001820160405280156104a1578160200160208202803683370190505b5090506000866001600160401b038111156104be576104be611559565b6040519080825280602002602001820160405280156104e7578160200160208202803683370190505b5090506000876001600160401b0381111561050457610504611559565b60405190808252806020026020018201604052801561053d57816020015b61052a611463565b8152602001906001900390816105225790505b50905060005b88811015610711576000806000807f00000000000000000000000000000000000000000000000000000000000000006001600160a01b0316633be1ced78f8f8881811061059257610592611b82565b905060200201358e6040518363ffffffff1660e01b81526004016105c99291909182526001600160a01b0316602082015260400190565b600060405180830381865afa1580156105e6573d6000803e3d6000fd5b505050506040513d6000823e601f3d908101601f1916820160405261060e9190810190611b98565b93509350935093508b88868151811061062957610629611b82565b60200260200101906001600160a01b031690816001600160a01b0316815250508d8d8681811061065b5761065b611b82565b9050602002013587868151811061067457610674611b82565b6020026020010181815250506040518060c001604052808f8f8881811061069d5761069d611b82565b9050602002013581526020018d6001600160a01b03168152602001856001600160a01b031681526020018481526020018363ffffffff168152602001828152508686815181106106ef576106ef611b82565b602002602001018190525050505050808061070990611c53565b915050610543565b5061071d818787610cbe565b60405163811a6af760e01b81526001600160a01b037f0000000000000000000000000000000000000000000000000000000000000000169063811a6af79061076b9086908690600401611c6c565b600060405180830381600087803b15801561078557600080fd5b505af1158015610799573d6000803e3d6000fd5b5050505060005b8881101561080a577f01cba57fa881d11e8be5640b6abefb9709f2dd45f776051b2cf5cb8ea23fa56b8282815181106107db576107db611b82565b60200260200101516040516107f09190611cf0565b60405180910390a18061080281611c53565b9150506107a0565b5098975050505050505050565b600054600390610100900460ff16158015610839575060005460ff8083169116105b61089c5760405162461bcd60e51b815260206004820152602e60248201527f496e697469616c697a61626c653a20636f6e747261637420697320616c72656160448201526d191e481a5b9a5d1a585b1a5e995960921b60648201526084016103c8565b6000805461ffff191660ff8316176101001781556108c96000546001600160a01b03620100009091041690565b6001600160a01b031614806108dd5750303b155b156108f4576108eb82610baf565b6108f483610b2d565b6000805461ff001916905560405160ff821681527f7f26b83ff96e1f2b6a682f133852f6798a09c465da95921460cefb38474024989060200160405180910390a1505050565b6060610947848484610cd7565b60006109548585856102fd565b9050610961858585610d1f565b60405163ebc5c09360e01b81526001600160a01b037f0000000000000000000000000000000000000000000000000000000000000000169063ebc5c093906109ad908490600401611827565b600060405180830381600087803b1580156109c757600080fd5b505af11580156109db573d6000803e3d6000fd5b5050505060005b8151811015610a4d577f336e708b72b2b4a27a0c25e8cce7f97512e7f1e8dcaf800b100075e62c1eb1fc828281518110610a1e57610a1e611b82565b6020026020010151604051610a339190611cf0565b60405180910390a180610a4581611c53565b9150506109e2565b50949350505050565b610a5e610acc565b6001600160a01b038116610ac35760405162461bcd60e51b815260206004820152602660248201527f4f776e61626c653a206e6577206f776e657220697320746865207a65726f206160448201526564647265737360d01b60648201526084016103c8565b6102b281610baf565b6000546001600160a01b03620100009091041633146102fb5760405162461bcd60e51b815260206004820181905260248201527f4f776e61626c653a2063616c6c6572206973206e6f7420746865206f776e657260448201526064016103c8565b610b3a60018260026114b1565b507fda2ca1df50078dd7395bf2d1fe6c66f2133d7b56d4d1e671f564010981f204df81604051610b6a919061168d565b60405180910390a150565b610b7d611445565b60408051808201918290529060019060029082845b815481526020019060010190808311610b92575050505050905090565b600080546001600160a01b038381166201000081810262010000600160b01b0319851617855560405193049190911692909183917f8be0079c531659141344cd1fd0a4f28419497f9722a3daafe3b4186f6b6457e091a35050565b610c416040805160808101825260008082526020808301829052828401829052835180850190945281845283015290606082015290565b60008260000151600081518110610c5a57610c5a611b82565b60200260200101519050610c6d81610d88565b60008160400151806020019051810190610c879190611d13565b60408051608081018252845181526020948501518582015295909301516001600160a01b0316928501929092525060608301525090565b604051630d5cd8d960e11b815260040160405180910390fd5b6000610ce582840184611ddd565b90506000610cf282610dcc565b90506000610d0261030d876119db565b9050610d0e8183610e68565b610d17836110ab565b505050505050565b6000610d2b8383611244565b6000818152600360205260409020549091506001600160a01b03168015610d6857604051631f5d53e360e01b8152600481018390526024016103c8565b610d8182610d7c6040880160208901611997565b611269565b5050505050565b6000610d9782604001516112cf565b82519091508114610dc85781516040516337e3d1ab60e01b81526103c8918391600401918252602082015260400190565b5050565b610dd46114f4565b604051806101000160405280610de984611304565b6001600160a01b03168152602001610e0084611319565b8152602001610e0e84611328565b8152602001610e1c84611337565b8152602001610e2a84611346565b8152602001610e3884611355565b8152602001610e508460200151610100015160011490565b15158152602001610e6084611364565b905292915050565b8151604082015114610e9d57815160408281015190516347a9715d60e01b8152600481019290925260248201526044016103c8565b81606001516020015115158160c00151151503610ee65760608201516020015160c0820151604051634629f1b560e11b81529115156004830152151560248201526044016103c8565b81604001516001600160a01b031681600001516001600160a01b031614610f3a57604082810151825191516370a8d99b60e11b81526001600160a01b039182166004820152911660248201526044016103c8565b60408201516001600160a01b03163314610f7e576040808301519051632bfa317f60e11b81523360048201526001600160a01b0390911660248201526044016103c8565b46816020015114610fb1576020810151604051630432cec160e31b815246600482015260248101919091526044016103c8565b81602001518160a0015114610fec57602082015160a0820151604051630626ade360e41b8152600481019290925260248201526044016103c8565b6000610ff6610b75565b805160e08401515191925014158061101b575060208082015160e08401519091015114155b1561106457805160208083015160e0850151805192015160405163f71cb0f760e01b815260048101949094526024840191909152604483019190915260648201526084016103c8565b600061106f846113bc565b9050808360600151146110a55760608301516040516377bb6d2760e11b81526103c8918391600401918252602082015260400190565b50505050565b8051805160208083015160409384015191850151935163c542c93b60e01b81526001600160a01b037f0000000000000000000000000000000000000000000000000000000000000000169463c542c93b9461110e94909392909190600401611eae565b602060405180830381865afa925050508015611147575060408051601f3d908101601f1916820190925261114491810190611f55565b60015b61121d57611153611f70565b806308c379a00361118c5750611167611f8c565b8061117257506111cb565b8060405162dd577760e81b81526004016103c89190612015565b634e487b71036111cb5761119e612028565b906111a957506111cb565b60405162dd577760e81b815260206004820152600060248201526044016103c8565b3d8080156111f5576040519150601f19603f3d011682016040523d82523d6000602084013e6111fa565b606091505b5060405162dd577760e81b815260206004820152600060248201526044016103c8565b80610dc85760405162dd577760e81b815260206004820152600060248201526044016103c8565b60008061125383850185611ddd565b9050600061126082611346565b95945050505050565b60008281526003602090815260409182902080546001600160a01b0319166001600160a01b0385169081179091558251858152918201527f38ff70eda64ebd48cbf0a5a4e1be5c5d509a7cdb60258e5a9210c1c0508dcbef910160405180910390a15050565b805160208201206000906102e3907f30644e72e131a029b85045b68181585d2833e84879b9709143e1f593f000000190612048565b6020810151600090815b602002015192915050565b6020810151600090600161130e565b6020810151600090600461130e565b6020810151600090600561130e565b6020810151600090600661130e565b6020810151600090600761130e565b61136c611445565b6040518060400160405280836020015160026009811061138e5761138e611b82565b6020020151815260200183602001516003600981106113af576113af611b82565b6020020151905292915050565b6000806113da308460600151600001516001600160801b03166113e1565b9392505050565b604080516001600160a01b03841660208201529081018290526000907f30644e72e131a029b85045b68181585d2833e84879b9709143e1f593f0000001906060016040516020818303038152906040528051906020012060001c6113da9190612048565b60405180604001604052806002906020820280368337509192915050565b6040518060c001604052806000815260200160006001600160a01b0316815260200160006001600160a01b0316815260200160008152602001600063ffffffff168152602001606081525090565b82600281019282156114df579160200282015b828111156114df5782518255916020019190600101906114c4565b506114eb929150611544565b5090565b905290565b60405180610100016040528060006001600160a01b0316815260200160008152602001600081526020016000815260200160008152602001600081526020016000151581526020016114ef611445565b5b808211156114eb5760008155600101611545565b634e487b7160e01b600052604160045260246000fd5b604081018181106001600160401b038211171561158e5761158e611559565b60405250565b606081018181106001600160401b038211171561158e5761158e611559565b601f8201601f191681016001600160401b03811182821017156115d8576115d8611559565b6040525050565b600082601f8301126115f057600080fd5b604051604081018181106001600160401b038211171561161257611612611559565b806040525080604084018581111561162957600080fd5b845b8181101561164357803583526020928301920161162b565b509195945050505050565b60006040828403121561166057600080fd5b6113da83836115df565b8060005b60028110156110a557815184526020938401939091019060010161166e565b604081016102e3828461166a565b6000602082840312156116ad57600080fd5b5035919050565b60008083601f8401126116c657600080fd5b5081356001600160401b038111156116dd57600080fd5b6020830191508360208285010111156116f557600080fd5b9250929050565b60008060006040848603121561171157600080fd5b83356001600160401b038082111561172857600080fd5b908501906040828803121561173c57600080fd5b9093506020850135908082111561175257600080fd5b5061175f868287016116b4565b9497909650939450505050565b60005b8381101561178757818101518382015260200161176f565b838111156110a55750506000910152565b600081518084526117b081602086016020860161176c565b601f01601f19169290920160200192915050565b805182526000602082015160018060a01b03808216602086015280604085015116604086015250506060820151606084015263ffffffff608083015116608084015260a082015160c060a085015261181f60c0850182611798565b949350505050565b6000602080830181845280855180835260408601915060408160051b870101925083870160005b8281101561187c57603f1988860301845261186a8583516117c4565b9450928501929085019060010161184e565b5092979650505050505050565b6001600160a01b03811681146102b257600080fd5b80356118a981611889565b919050565b6000806000806000606086880312156118c657600080fd5b85356001600160401b03808211156118dd57600080fd5b818801915088601f8301126118f157600080fd5b81358181111561190057600080fd5b8960208260051b850101111561191557600080fd5b6020830197508096505061192b6020890161189e565b9450604088013591508082111561194157600080fd5b5061194e888289016116b4565b969995985093965092949392505050565b6000806060838503121561197257600080fd5b61197c84846115df565b9150604083013561198c81611889565b809150509250929050565b6000602082840312156119a957600080fd5b81356113da81611889565b60006001600160401b038211156119cd576119cd611559565b50601f01601f191660200190565b600060408083360312156119ee57600080fd5b80516119f98161156f565b83356001600160401b0380821115611a1057600080fd5b9085019036601f830112611a2357600080fd5b8135602082821115611a3757611a37611559565b8160051b8651611a49838301826115b3565b92835284810182019282810136851115611a6257600080fd5b83870192505b84831015611b3657823586811115611a805760008081fd5b8701606036829003601f1901811315611a995760008081fd5b8a51611aa481611594565b8287013581528b83013581880152908201359088821115611ac55760008081fd5b9181019136603f840112611adb57600091508182fd5b868301359150611aea826119b4565b8c51611af682826115b3565b838152368e858701011115611b0d57600091508182fd5b838e86018a830137600093810189019390935250808c0191909152825250918301918301611a68565b50865250611b4588820161189e565b90850152509195945050505050565b634e487b7160e01b600052601160045260246000fd5b60008219821115611b7d57611b7d611b54565b500190565b634e487b7160e01b600052603260045260246000fd5b60008060008060808587031215611bae57600080fd5b8451611bb981611889565b60208601516040870151919550935063ffffffff81168114611bda57600080fd5b60608601519092506001600160401b03811115611bf657600080fd5b8501601f81018713611c0757600080fd5b8051611c12816119b4565b604051611c1f82826115b3565b828152896020848601011115611c3457600080fd5b611c4583602083016020870161176c565b969995985093965050505050565b600060018201611c6557611c65611b54565b5060010190565b604080825283519082018190526000906020906060840190828701845b82811015611cae5781516001600160a01b031684529284019290840190600101611c89565b5050508381038285015284518082528583019183019060005b81811015611ce357835183529284019291840191600101611cc7565b5090979650505050505050565b6020815260006113da60208301846117c4565b805180151581146118a957600080fd5b600060408284031215611d2557600080fd5b604051604081018181106001600160401b0382111715611d4757611d47611559565b60405282516001600160801b0381168114611d6157600080fd5b8152611d6f60208401611d03565b60208201529392505050565b600082601f830112611d8c57600080fd5b6040516101208082018281106001600160401b0382111715611db057611db0611559565b60405283018185821115611dc357600080fd5b845b82811015611643578035825260209182019101611dc5565b6000818303610220811215611df157600080fd5b60408051611dfe8161156f565b61010080841215611e0e57600080fd5b82519350611e1b84611594565b611e2587876115df565b845286605f870112611e3657600080fd5b8251611e418161156f565b8060c0880189811115611e5357600080fd5b8589015b81811015611e7857611e698b826115df565b83526020909201918601611e57565b50826020880152611e898a826115df565b86880152505050838252611e9f87828801611d7b565b60208301525095945050505050565b6102208101611ebd828761166a565b60408083018660005b6002808210611ed55750611f10565b82518460005b83811015611ef9578251825260209283019290910190600101611edb565b505050928401925060209190910190600101611ec6565b50505050611f2160c083018561166a565b61010082018360005b6009811015611f49578151835260209283019290910190600101611f2a565b50505095945050505050565b600060208284031215611f6757600080fd5b6113da82611d03565b600060033d1115611f895760046000803e5060005160e01c5b90565b600060443d1015611f9a5790565b6040516003193d81016004833e81513d6001600160401b038160248401118184111715611fc957505050505090565b8285019150815181811115611fe15750505050505090565b843d8701016020828501011115611ffb5750505050505090565b61200a602082860101876115b3565b509095945050505050565b6020815260006113da6020830184611798565b60008060233d1115612044576020600460003e50506000516001905b9091565b60008261206557634e487b7160e01b600052601260045260246000fd5b50069056fea2646970667358221220ecfcdd3ed3aafdf6de9cf8f871557ae2657814cf595e7da8c33a09d25121780964736f6c634300080e0033",
  "devdoc": {
    "author": "Sismo",
    "kind": "dev",
    "methods": {
      "buildAttestations(((uint256,uint256,bytes)[],address),bytes)": {
        "details": "Returns attestations that will be recorded, constructed from the user request",
        "params": {
          "request": "users request. Claim of having an account part of a group of accounts"
        }
      },
      "constructor": {
        "details": "Constructor. Initializes the contract",
        "params": {
          "attestationsRegistryAddress": "Attestations Registry contract on which the attester will write attestations",
          "collectionIdFirst": "Id of the first collection in which the attester is supposed to record",
          "collectionIdLast": "Id of the last collection in which the attester is supposed to record",
          "commitmentSignerPubKey": "The EdDSA public key of the commitment signer for the Pythia 1 Proving Scheme",
          "owner": "The owner of the contract that can update the commitment signer pub key",
          "pythia1VerifierAddress": "ZK Snark Pythia-1 Verifier contract"
        }
      },
      "deleteAttestations(uint256[],address,bytes)": {
        "details": "External facing function. Allows to delete attestations by submitting proof",
        "params": {
          "attestationsOwner": "Owner of attestations to delete",
          "collectionIds": "Collection identifier of attestations to delete",
          "proofData": "Data sent along the deletion request to prove its validity"
        },
        "returns": {
          "_0": "attestations Attestations that were deleted"
        }
      },
      "generateAttestations(((uint256,uint256,bytes)[],address),bytes)": {
        "details": "Main external function. Allows to generate attestations by making a request and submitting proof",
        "params": {
          "proofData": "Data sent along the request to prove its validity",
          "request": "User request"
        },
        "returns": {
          "_0": "attestations Attestations that has been recorded"
        }
      },
      "getAttestationRegistry()": {
        "details": "Attestation registry getter",
        "returns": {
          "_0": "attestationRegistry"
        }
      },
      "getCommitmentSignerPubKey()": {
        "details": "Getter of the Commitment signer Eddsa Public key"
      },
      "getDestinationOfTicket(uint256)": {
        "details": "Getter, returns the last attestation destination of a ticket",
        "params": {
          "userTicket": "ticket used*"
        }
      },
      "getVerifier()": {
        "details": "Getter of Pythia-1 Verifier contract"
      },
      "initialize(uint256[2],address)": {
        "details": "Initializes the contract, to be called by the proxy delegating calls to this implementation",
        "params": {
          "commitmentSignerPubKey": "EdDSA public key of the commitment signer",
          "ownerAddress": "Owner of the contract, can update public key and address"
        }
      },
      "owner()": {
        "details": "Returns the address of the current owner."
      },
      "renounceOwnership()": {
        "details": "Leaves the contract without owner. It will not be possible to call `onlyOwner` functions anymore. Can only be called by the current owner. NOTE: Renouncing ownership will leave the contract without an owner, thereby removing any functionality that is only available to the owner."
      },
      "transferOwnership(address)": {
        "details": "Transfers ownership of the contract to a new account (`newOwner`). Can only be called by the current owner."
      }
    },
    "stateVariables": {
      "AUTHORIZED_COLLECTION_ID_FIRST": {
        "details": "Getter returns of the first collection in which the attester is supposed to record*"
      },
      "AUTHORIZED_COLLECTION_ID_LAST": {
        "details": "Getter returns of the last collection in which the attester is supposed to record*"
      }
    },
    "title": "Pythia-1 Simple Attester",
    "version": 1
  },
  "userdoc": {
    "kind": "user",
    "methods": {
      "initialize(uint256[2],address)": {
        "notice": "The reinitializer modifier is needed to configure modules that are added through upgrades and that require initialization."
      }
    },
    "notice": "This attester is part of the family of the Pythia-1 Attesters. Pythia-1 attesters enable users to prove they have a claim and its proof issued by an  offchain service in a privacy preserving way.  That means no-one can make the link between the account used in the offchain service and the onchain account where the attestation is stored. The Pythia-1 Base abstract contract is inherited and holds the complex Pythia 1 verification logic. We invite readers to refer to:    - https://pythia-1.docs.sismo.io for a full guide through the Pythia-1 ZK Attestations    - https://pythia-1-circuits.docs.sismo.io for circuits, prover and verifiers of Pythia-1 This specific attester has the following characteristics: - Zero Knowledge   One cannot deduct from an attestation what offchain issuer's account was used to generate the underlying proof - Non Strict (scores)   If a user can generate an attestation of max value 100, they can also generate any attestation with value < 100.   This attester generate attestations of scores - Ticketed   Each users gets one userTicket per claim   For people used to semaphore/ tornado cash people:   userTicket = hash(secret, ticketIdentifier) <=> nullifierHash = hash(IdNullifier, externalNullifier)*",
    "version": 1
  },
  "storageLayout": {
    "storage": [
      {
        "astId": 935,
        "contract": "contracts/attesters/pythia-1/Pythia1SimpleAttester.sol:Pythia1SimpleAttester",
        "label": "_initialized",
        "offset": 0,
        "slot": "0",
        "type": "t_uint8"
      },
      {
        "astId": 938,
        "contract": "contracts/attesters/pythia-1/Pythia1SimpleAttester.sol:Pythia1SimpleAttester",
        "label": "_initializing",
        "offset": 1,
        "slot": "0",
        "type": "t_bool"
      },
      {
        "astId": 396,
        "contract": "contracts/attesters/pythia-1/Pythia1SimpleAttester.sol:Pythia1SimpleAttester",
        "label": "_owner",
        "offset": 2,
        "slot": "0",
        "type": "t_address"
      },
      {
        "astId": 9697,
        "contract": "contracts/attesters/pythia-1/Pythia1SimpleAttester.sol:Pythia1SimpleAttester",
        "label": "_commitmentSignerPubKey",
        "offset": 0,
        "slot": "1",
        "type": "t_array(t_uint256)2_storage"
      },
      {
        "astId": 9701,
        "contract": "contracts/attesters/pythia-1/Pythia1SimpleAttester.sol:Pythia1SimpleAttester",
        "label": "_ticketsDestinations",
        "offset": 0,
        "slot": "3",
        "type": "t_mapping(t_uint256,t_address)"
      }
    ],
    "types": {
      "t_address": {
        "encoding": "inplace",
        "label": "address",
        "numberOfBytes": "20"
      },
      "t_array(t_uint256)2_storage": {
        "base": "t_uint256",
        "encoding": "inplace",
        "label": "uint256[2]",
        "numberOfBytes": "64"
      },
      "t_bool": {
        "encoding": "inplace",
        "label": "bool",
        "numberOfBytes": "1"
      },
      "t_mapping(t_uint256,t_address)": {
        "encoding": "mapping",
        "key": "t_uint256",
        "label": "mapping(uint256 => address)",
        "numberOfBytes": "32",
        "value": "t_address"
      },
      "t_uint256": {
        "encoding": "inplace",
        "label": "uint256",
        "numberOfBytes": "32"
      },
      "t_uint8": {
        "encoding": "inplace",
        "label": "uint8",
        "numberOfBytes": "1"
      }
    }
  }
}