{
  "address": "0x3340Ac0CaFB3ae34dDD53dba0d7344C1Cf3EFE05",
  "abi": [
    {
      "inputs": [
        {
          "internalType": "address",
          "name": "badgesAddress",
          "type": "address"
        },
        {
          "internalType": "address",
          "name": "attestationsRegistryAddress",
          "type": "address"
        },
        {
          "internalType": "address",
          "name": "frontAddress",
          "type": "address"
        },
        {
          "internalType": "address",
          "name": "hydraS1AccountboundAttesterAddress",
          "type": "address"
        },
        {
          "internalType": "address",
          "name": "availableRootsRegistryAddress",
          "type": "address"
        },
        {
          "internalType": "address",
          "name": "commitmentMapperRegistryAddress",
          "type": "address"
        },
        {
          "internalType": "address",
          "name": "hydraS1VerifierAddress",
          "type": "address"
        },
        {
          "internalType": "address",
          "name": "ownerAddress",
          "type": "address"
        }
      ],
      "stateMutability": "nonpayable",
      "type": "constructor"
    },
    {
      "anonymous": false,
      "inputs": [
        {
          "indexed": false,
          "internalType": "address",
          "name": "contractAddress",
          "type": "address"
        },
        {
          "indexed": false,
          "internalType": "string",
          "name": "contractName",
          "type": "string"
        }
      ],
      "name": "ContractAddressSet",
      "type": "event"
    },
    {
      "anonymous": false,
      "inputs": [
        {
          "indexed": false,
          "internalType": "uint8",
          "name": "version",
          "type": "uint8"
        }
      ],
      "name": "Initialized",
      "type": "event"
    },
    {
      "anonymous": false,
      "inputs": [
        {
          "indexed": true,
          "internalType": "address",
          "name": "previousOwner",
          "type": "address"
        },
        {
          "indexed": true,
          "internalType": "address",
          "name": "newOwner",
          "type": "address"
        }
      ],
      "name": "OwnershipTransferred",
      "type": "event"
    },
    {
      "inputs": [],
      "name": "ATTESTATIONS_REGISTRY",
      "outputs": [
        {
          "internalType": "contract AttestationsRegistry",
          "name": "",
          "type": "address"
        }
      ],
      "stateMutability": "view",
      "type": "function"
    },
    {
      "inputs": [],
      "name": "AVAILABLE_ROOTS_REGISTRY",
      "outputs": [
        {
          "internalType": "contract AvailableRootsRegistry",
          "name": "",
          "type": "address"
        }
      ],
      "stateMutability": "view",
      "type": "function"
    },
    {
      "inputs": [],
      "name": "BADGES",
      "outputs": [
        {
          "internalType": "contract Badges",
          "name": "",
          "type": "address"
        }
      ],
      "stateMutability": "view",
      "type": "function"
    },
    {
      "inputs": [],
      "name": "COMMITMENT_MAPPER_REGISTRY",
      "outputs": [
        {
          "internalType": "contract CommitmentMapperRegistry",
          "name": "",
          "type": "address"
        }
      ],
      "stateMutability": "view",
      "type": "function"
    },
    {
      "inputs": [],
      "name": "FRONT",
      "outputs": [
        {
          "internalType": "contract Front",
          "name": "",
          "type": "address"
        }
      ],
      "stateMutability": "view",
      "type": "function"
    },
    {
      "inputs": [],
      "name": "HYDRA_S1_ACCOUNTBOUND_ATTESTER",
      "outputs": [
        {
          "internalType": "contract HydraS1AccountboundAttester",
          "name": "",
          "type": "address"
        }
      ],
      "stateMutability": "view",
      "type": "function"
    },
    {
      "inputs": [],
      "name": "HYDRA_S1_VERIFIER",
      "outputs": [
        {
          "internalType": "contract HydraS1Verifier",
          "name": "",
          "type": "address"
        }
      ],
      "stateMutability": "view",
      "type": "function"
    },
    {
      "inputs": [],
      "name": "IMPLEMENTATION_VERSION",
      "outputs": [
        {
          "internalType": "uint8",
          "name": "",
          "type": "uint8"
        }
      ],
      "stateMutability": "view",
      "type": "function"
    },
    {
      "inputs": [
        {
          "internalType": "string",
          "name": "contractName",
          "type": "string"
        }
      ],
      "name": "get",
      "outputs": [
        {
          "internalType": "address",
          "name": "",
          "type": "address"
        }
      ],
      "stateMutability": "view",
      "type": "function"
    },
    {
      "inputs": [
        {
          "internalType": "bytes32",
          "name": "contractNameHash",
          "type": "bytes32"
        }
      ],
      "name": "get",
      "outputs": [
        {
          "internalType": "address",
          "name": "",
          "type": "address"
        }
      ],
      "stateMutability": "view",
      "type": "function"
    },
    {
      "inputs": [],
      "name": "getAll",
      "outputs": [
        {
          "internalType": "string[]",
          "name": "",
          "type": "string[]"
        },
        {
          "internalType": "bytes32[]",
          "name": "",
          "type": "bytes32[]"
        },
        {
          "internalType": "address[]",
          "name": "",
          "type": "address[]"
        }
      ],
      "stateMutability": "view",
      "type": "function"
    },
    {
      "inputs": [
        {
          "internalType": "bytes32[]",
          "name": "contractNamesHash",
          "type": "bytes32[]"
        }
      ],
      "name": "getBatch",
      "outputs": [
        {
          "internalType": "address[]",
          "name": "",
          "type": "address[]"
        }
      ],
      "stateMutability": "view",
      "type": "function"
    },
    {
      "inputs": [
        {
          "internalType": "string[]",
          "name": "contractNames",
          "type": "string[]"
        }
      ],
      "name": "getBatch",
      "outputs": [
        {
          "internalType": "address[]",
          "name": "",
          "type": "address[]"
        }
      ],
      "stateMutability": "view",
      "type": "function"
    },
    {
      "inputs": [
        {
          "internalType": "address",
          "name": "ownerAddress",
          "type": "address"
        }
      ],
      "name": "initialize",
      "outputs": [],
      "stateMutability": "nonpayable",
      "type": "function"
    },
    {
      "inputs": [],
      "name": "owner",
      "outputs": [
        {
          "internalType": "address",
          "name": "",
          "type": "address"
        }
      ],
      "stateMutability": "view",
      "type": "function"
    },
    {
      "inputs": [],
      "name": "renounceOwnership",
      "outputs": [],
      "stateMutability": "nonpayable",
      "type": "function"
    },
    {
      "inputs": [
        {
          "internalType": "address",
          "name": "contractAddress",
          "type": "address"
        },
        {
          "internalType": "string",
          "name": "contractName",
          "type": "string"
        }
      ],
      "name": "set",
      "outputs": [],
      "stateMutability": "nonpayable",
      "type": "function"
    },
    {
      "inputs": [
        {
          "internalType": "address[]",
          "name": "contractAddresses",
          "type": "address[]"
        },
        {
          "internalType": "string[]",
          "name": "contractNames",
          "type": "string[]"
        }
      ],
      "name": "setBatch",
      "outputs": [],
      "stateMutability": "nonpayable",
      "type": "function"
    },
    {
      "inputs": [
        {
          "internalType": "address",
          "name": "newOwner",
          "type": "address"
        }
      ],
      "name": "transferOwnership",
      "outputs": [],
      "stateMutability": "nonpayable",
      "type": "function"
    }
  ],
  "transactionHash": "0xaec99a9e6a8f9f251671a466221d78003048d9704d5dc0fb261b5a4f97e85de9",
  "args": [
    "0xE06B14D5835925e1642d7216F4563a1273509F10",
    "0xf85BA0afA375495eE625910Db61b6b1406756234",
    "0xAa00539FCD89E113833a9fCb940F378aE1299e30",
    "0x89d80C9E65fd1aC8970B78A4F17E2e772030C1cB",
    "0xdDa4c8d2933dAA21Aac75B88fF59725725ba813F",
    "0x0844662f25817B735BC9B6d9D11995F1A6c4dCB1",
    "0xe1bFE993cF8dB9a3214Cc77fD68194Ac534078b4",
    "0x77694e7C30B74dd271EACA4207Ada0fC10632f5f"
  ],
  "numDeployments": 2,
  "solcInputHash": "ca3a3d06406f39be0521e9dff90ae191",
  "bytecode": "0x6101606040523480156200001257600080fd5b5060405162001bc238038062001bc28339810160408190526200003591620005fd565b62000040336200008d565b6001600160a01b0380891660805287811660a05286811660c05285811660e05284811661010052838116610120528216610140526200007f81620000e8565b505050505050505062000776565b600080546001600160a01b038381166201000081810262010000600160b01b0319851617855560405193049190911692909183917f8be0079c531659141344cd1fd0a4f28419497f9722a3daafe3b4186f6b6457e091a35050565b600054600190610100900460ff161580156200010b575060005460ff8083169116105b620001745760405162461bcd60e51b815260206004820152602e60248201527f496e697469616c697a61626c653a20636f6e747261637420697320616c72656160448201526d191e481a5b9a5d1a585b1a5e995960921b60648201526084015b60405180910390fd5b6000805461ffff191660ff831617610100178155620001a16000546201000090046001600160a01b031690565b6001600160a01b03161480620001b65750303b155b156200038c57620001c7826200008d565b620001f96080516040518060400160405280600681526020016542616467657360d01b815250620003d160201b60201c565b6200024260a0516040518060400160405280601481526020017f4174746573746174696f6e735265676973747279000000000000000000000000815250620003d160201b60201c565b6200027360c05160405180604001604052806005815260200164119c9bdb9d60da1b815250620003d160201b60201c565b620002bc60e0516040518060400160405280601b81526020017f487964726153314163636f756e74626f756e6441747465737465720000000000815250620003d160201b60201c565b62000306610100516040518060400160405280601681526020017f417661696c61626c65526f6f7473526567697374727900000000000000000000815250620003d160201b60201c565b62000350610120516040518060400160405280601881526020017f436f6d6d69746d656e744d617070657252656769737472790000000000000000815250620003d160201b60201c565b6200038c610140516040518060400160405280600f81526020016e243cb23930a998ab32b934b334b2b960891b815250620003d160201b60201c565b6000805461ff001916905560405160ff821681527f7f26b83ff96e1f2b6a682f133852f6798a09c465da95921460cefb38474024989060200160405180910390a15050565b620003db620004d5565b600081604051602001620003f09190620006d8565b60408051601f198184030181529181528151602092830120600081815260019093529120549091506001600160a01b03166200046d576002805460018101825560009190915282516200046b917f405787fa12a823e0f2b7631cc41b3ba8828b3321ca811111fa75cd3aa3bb5ace019060208501906200053a565b505b6000818152600160205260409081902080546001600160a01b0319166001600160a01b038616179055517f5734156f5838f0d17f9ead7115d99a72aae057bb41b71c5e0748791bdee248fd90620004c89085908590620006f6565b60405180910390a1505050565b6000546001600160a01b0362010000909104163314620005385760405162461bcd60e51b815260206004820181905260248201527f4f776e61626c653a2063616c6c6572206973206e6f7420746865206f776e657260448201526064016200016b565b565b82805462000548906200073a565b90600052602060002090601f0160209004810192826200056c5760008555620005b7565b82601f106200058757805160ff1916838001178555620005b7565b82800160010185558215620005b7579182015b82811115620005b75782518255916020019190600101906200059a565b50620005c5929150620005c9565b5090565b5b80821115620005c55760008155600101620005ca565b80516001600160a01b0381168114620005f857600080fd5b919050565b600080600080600080600080610100898b0312156200061b57600080fd5b6200062689620005e0565b97506200063660208a01620005e0565b96506200064660408a01620005e0565b95506200065660608a01620005e0565b94506200066660808a01620005e0565b93506200067660a08a01620005e0565b92506200068660c08a01620005e0565b91506200069660e08a01620005e0565b90509295985092959890939650565b60005b83811015620006c2578181015183820152602001620006a8565b83811115620006d2576000848401525b50505050565b60008251620006ec818460208701620006a5565b9190910192915050565b60018060a01b0383168152604060208201526000825180604084015262000725816060850160208701620006a5565b601f01601f1916919091016060019392505050565b600181811c908216806200074f57607f821691505b6020821081036200077057634e487b7160e01b600052602260045260246000fd5b50919050565b60805160a05160c05160e0516101005161012051610140516113c062000802600039600081816102b80152610b5c01526000818161032c0152610afd0152600081816102910152610aa501526000818161022a0152610a4601526000818161016f01526109ff0152600081816102df01526109a901526000818161012b015261096101526113c06000f3fe608060405234801561001057600080fd5b50600436106101215760003560e01c8063811cf988116100ad578063ac9d654111610071578063ac9d6541146102da578063c4d66de814610301578063cfe3570114610314578063d609382614610327578063f2fde38b1461034e57600080fd5b8063811cf988146102255780638da5cb5b1461024c5780638eaa6ac01461026357806393aad1591461028c57806394c57698146102b357600080fd5b80635a82d100116100f45780635a82d100146101c857806361d1535f146101dd578063693ec85e146101f0578063715018a614610203578063754b377c1461020b57600080fd5b806312b03a7f146101265780631a0d00231461016a57806350a5fd681461019157806353ed5143146101b1575b600080fd5b61014d7f000000000000000000000000000000000000000000000000000000000000000081565b6040516001600160a01b0390911681526020015b60405180910390f35b61014d7f000000000000000000000000000000000000000000000000000000000000000081565b6101a461019f366004610ef8565b610361565b6040516101619190610f7e565b6101b9610430565b60405161016193929190610ff4565b6101db6101d6366004611161565b610677565b005b6101db6101eb3660046111af565b610772565b61014d6101fe36600461121b565b610826565b6101db61086f565b610213600181565b60405160ff9091168152602001610161565b61014d7f000000000000000000000000000000000000000000000000000000000000000081565b6000546201000090046001600160a01b031661014d565b61014d610271366004611258565b6000908152600160205260409020546001600160a01b031690565b61014d7f000000000000000000000000000000000000000000000000000000000000000081565b61014d7f000000000000000000000000000000000000000000000000000000000000000081565b61014d7f000000000000000000000000000000000000000000000000000000000000000081565b6101db61030f366004611271565b610883565b6101a4610322366004610ef8565b610bed565b61014d7f000000000000000000000000000000000000000000000000000000000000000081565b6101db61035c366004611271565b610cde565b606060008267ffffffffffffffff81111561037e5761037e6110be565b6040519080825280602002602001820160405280156103a7578160200160208202803683370190505b50905060005b83811015610428576103ec8585838181106103ca576103ca61128c565b905060200201356000908152600160205260409020546001600160a01b031690565b8282815181106103fe576103fe61128c565b6001600160a01b039092166020928302919091019091015280610420816112a2565b9150506103ad565b509392505050565b606080606060006002805480602002602001604051908101604052809291908181526020016000905b82821015610505578382906000526020600020018054610478906112c9565b80601f01602080910402602001604051908101604052809291908181526020018280546104a4906112c9565b80156104f15780601f106104c6576101008083540402835291602001916104f1565b820191906000526020600020905b8154815290600101906020018083116104d457829003601f168201915b505050505081526020019060010190610459565b5050505090506000815167ffffffffffffffff811115610527576105276110be565b604051908082528060200260200182016040528015610550578160200160208202803683370190505b5090506000825167ffffffffffffffff81111561056f5761056f6110be565b604051908082528060200260200182016040528015610598578160200160208202803683370190505b50905060005b835181101561066a576105c98482815181106105bc576105bc61128c565b6020026020010151610826565b8282815181106105db576105db61128c565b60200260200101906001600160a01b031690816001600160a01b03168152505083818151811061060d5761060d61128c565b60200260200101516040516020016106259190611303565b6040516020818303038152906040528051906020012083828151811061064d5761064d61128c565b602090810291909101015280610662816112a2565b91505061059e565b5091959094509092509050565b61067f610d57565b6000816040516020016106929190611303565b60408051601f198184030181529181528151602092830120600081815260019093529120549091506001600160a01b031661070c5760028054600181018255600091909152825161070a917f405787fa12a823e0f2b7631cc41b3ba8828b3321ca811111fa75cd3aa3bb5ace01906020850190610e13565b505b6000818152600160205260409081902080546001600160a01b0319166001600160a01b038616179055517f5734156f5838f0d17f9ead7115d99a72aae057bb41b71c5e0748791bdee248fd90610765908590859061131f565b60405180910390a1505050565b61077a610d57565b60005b8381101561081f5761080d85858381811061079a5761079a61128c565b90506020020160208101906107af9190611271565b8484848181106107c1576107c161128c565b90506020028101906107d39190611343565b8080601f01602080910402602001604051908101604052809392919081815260200183838082843760009201919091525061067792505050565b80610817816112a2565b91505061077d565b5050505050565b6000808260405160200161083a9190611303565b60408051601f198184030181529181528151602092830120600090815260019092529020546001600160a01b03169392505050565b610877610d57565b6108816000610db8565b565b600054600190610100900460ff161580156108a5575060005460ff8083169116105b61090d5760405162461bcd60e51b815260206004820152602e60248201527f496e697469616c697a61626c653a20636f6e747261637420697320616c72656160448201526d191e481a5b9a5d1a585b1a5e995960921b60648201526084015b60405180910390fd5b6000805461ffff191660ff83161761010017815561093a6000546001600160a01b03620100009091041690565b6001600160a01b0316148061094e5750303b155b15610ba85761095c82610db8565b6109a47f00000000000000000000000000000000000000000000000000000000000000006040518060400160405280600681526020016542616467657360d01b815250610677565b6109fa7f0000000000000000000000000000000000000000000000000000000000000000604051806040016040528060148152602001734174746573746174696f6e73526567697374727960601b815250610677565b610a417f000000000000000000000000000000000000000000000000000000000000000060405180604001604052806005815260200164119c9bdb9d60da1b815250610677565b610aa07f00000000000000000000000000000000000000000000000000000000000000006040518060400160405280601b81526020017f487964726153314163636f756e74626f756e6441747465737465720000000000815250610677565b610af87f000000000000000000000000000000000000000000000000000000000000000060405180604001604052806016815260200175417661696c61626c65526f6f7473526567697374727960501b815250610677565b610b577f00000000000000000000000000000000000000000000000000000000000000006040518060400160405280601881526020017f436f6d6d69746d656e744d617070657252656769737472790000000000000000815250610677565b610ba87f00000000000000000000000000000000000000000000000000000000000000006040518060400160405280600f81526020016e243cb23930a998ab32b934b334b2b960891b815250610677565b6000805461ff001916905560405160ff821681527f7f26b83ff96e1f2b6a682f133852f6798a09c465da95921460cefb38474024989060200160405180910390a15050565b606060008267ffffffffffffffff811115610c0a57610c0a6110be565b604051908082528060200260200182016040528015610c33578160200160208202803683370190505b50905060005b8381101561042857610ca2858583818110610c5657610c5661128c565b9050602002810190610c689190611343565b8080601f01602080910402602001604051908101604052809392919081815260200183838082843760009201919091525061082692505050565b828281518110610cb457610cb461128c565b6001600160a01b039092166020928302919091019091015280610cd6816112a2565b915050610c39565b610ce6610d57565b6001600160a01b038116610d4b5760405162461bcd60e51b815260206004820152602660248201527f4f776e61626c653a206e6577206f776e657220697320746865207a65726f206160448201526564647265737360d01b6064820152608401610904565b610d5481610db8565b50565b6000546001600160a01b03620100009091041633146108815760405162461bcd60e51b815260206004820181905260248201527f4f776e61626c653a2063616c6c6572206973206e6f7420746865206f776e65726044820152606401610904565b600080546001600160a01b038381166201000081810262010000600160b01b0319851617855560405193049190911692909183917f8be0079c531659141344cd1fd0a4f28419497f9722a3daafe3b4186f6b6457e091a35050565b828054610e1f906112c9565b90600052602060002090601f016020900481019282610e415760008555610e87565b82601f10610e5a57805160ff1916838001178555610e87565b82800160010185558215610e87579182015b82811115610e87578251825591602001919060010190610e6c565b50610e93929150610e97565b5090565b5b80821115610e935760008155600101610e98565b60008083601f840112610ebe57600080fd5b50813567ffffffffffffffff811115610ed657600080fd5b6020830191508360208260051b8501011115610ef157600080fd5b9250929050565b60008060208385031215610f0b57600080fd5b823567ffffffffffffffff811115610f2257600080fd5b610f2e85828601610eac565b90969095509350505050565b600081518084526020808501945080840160005b83811015610f735781516001600160a01b031687529582019590820190600101610f4e565b509495945050505050565b602081526000610f916020830184610f3a565b9392505050565b60005b83811015610fb3578181015183820152602001610f9b565b83811115610fc2576000848401525b50505050565b60008151808452610fe0816020860160208601610f98565b601f01601f19169290920160200192915050565b6000606082016060835280865180835260808501915060808160051b8601019250602080890160005b8381101561104b57607f19888703018552611039868351610fc8565b9550938201939082019060010161101d565b50508584038187015287518085528882019482019350915060005b8281101561108257845184529381019392810192600101611066565b50505083810360408501526110978186610f3a565b979650505050505050565b80356001600160a01b03811681146110b957600080fd5b919050565b634e487b7160e01b600052604160045260246000fd5b600082601f8301126110e557600080fd5b813567ffffffffffffffff80821115611100576111006110be565b604051601f8301601f19908116603f01168101908282118183101715611128576111286110be565b8160405283815286602085880101111561114157600080fd5b836020870160208301376000602085830101528094505050505092915050565b6000806040838503121561117457600080fd5b61117d836110a2565b9150602083013567ffffffffffffffff81111561119957600080fd5b6111a5858286016110d4565b9150509250929050565b600080600080604085870312156111c557600080fd5b843567ffffffffffffffff808211156111dd57600080fd5b6111e988838901610eac565b9096509450602087013591508082111561120257600080fd5b5061120f87828801610eac565b95989497509550505050565b60006020828403121561122d57600080fd5b813567ffffffffffffffff81111561124457600080fd5b611250848285016110d4565b949350505050565b60006020828403121561126a57600080fd5b5035919050565b60006020828403121561128357600080fd5b610f91826110a2565b634e487b7160e01b600052603260045260246000fd5b6000600182016112c257634e487b7160e01b600052601160045260246000fd5b5060010190565b600181811c908216806112dd57607f821691505b6020821081036112fd57634e487b7160e01b600052602260045260246000fd5b50919050565b60008251611315818460208701610f98565b9190910192915050565b6001600160a01b038316815260406020820181905260009061125090830184610fc8565b6000808335601e1984360301811261135a57600080fd5b83018035915067ffffffffffffffff82111561137557600080fd5b602001915036819003821315610ef157600080fdfea2646970667358221220f20243442d22a5eac60bd5112bf55da02e85f46bcbd0534feee659e154cafd5564736f6c634300080e0033",
  "devdoc": {
    "kind": "dev",
    "methods": {
      "get(bytes32)": {
        "details": "Returns the address of a contract.",
        "params": {
          "contractNameHash": "Hash of the name of the contract (bytes32)."
        },
        "returns": {
          "_0": "Address of the contract."
        }
      },
      "get(string)": {
        "details": "Returns the address of a contract.",
        "params": {
          "contractName": "Name of the contract (string)."
        },
        "returns": {
          "_0": "Address of the contract."
        }
      },
      "getAll()": {
        "details": "Returns the addresses of all contracts in `_contractNames`",
        "returns": {
          "_0": "Names, Hashed Names and Addresses of all contracts."
        }
      },
      "getBatch(bytes32[])": {
        "details": "Returns the addresses of all contracts inputed.",
        "params": {
          "contractNamesHash": "Names of the contracts as bytes32."
        }
      },
      "getBatch(string[])": {
        "details": "Returns the addresses of all contracts inputed.",
        "params": {
          "contractNames": "Names of the contracts as strings."
        }
      },
      "owner()": {
        "details": "Returns the address of the current owner."
      },
      "renounceOwnership()": {
        "details": "Leaves the contract without owner. It will not be possible to call `onlyOwner` functions anymore. Can only be called by the current owner. NOTE: Renouncing ownership will leave the contract without an owner, thereby removing any functionality that is only available to the owner."
      },
      "set(address,string)": {
        "details": "Sets the address of a contract.",
        "params": {
          "contractAddress": "Address of the contract.",
          "contractName": "Name of the contract."
        }
      },
      "setBatch(address[],string[])": {
        "details": "Sets the address of multiple contracts.",
        "params": {
          "contractAddresses": "Addresses of the contracts.",
          "contractNames": "Names of the contracts."
        }
      },
      "transferOwnership(address)": {
        "details": "Transfers ownership of the contract to a new account (`newOwner`). Can only be called by the current owner."
      }
    },
    "version": 1
  },
  "userdoc": {
    "kind": "user",
    "methods": {},
    "version": 1
  },
  "storageLayout": {
    "storage": [
      {
        "astId": 935,
        "contract": "contracts/core/utils/AddressesProvider.sol:AddressesProvider",
        "label": "_initialized",
        "offset": 0,
        "slot": "0",
        "type": "t_uint8"
      },
      {
        "astId": 938,
        "contract": "contracts/core/utils/AddressesProvider.sol:AddressesProvider",
        "label": "_initializing",
        "offset": 1,
        "slot": "0",
        "type": "t_bool"
      },
      {
        "astId": 396,
        "contract": "contracts/core/utils/AddressesProvider.sol:AddressesProvider",
        "label": "_owner",
        "offset": 2,
        "slot": "0",
        "type": "t_address"
      },
      {
        "astId": 16277,
        "contract": "contracts/core/utils/AddressesProvider.sol:AddressesProvider",
        "label": "_contractAddresses",
        "offset": 0,
        "slot": "1",
        "type": "t_mapping(t_bytes32,t_address)"
      },
      {
        "astId": 16280,
        "contract": "contracts/core/utils/AddressesProvider.sol:AddressesProvider",
        "label": "_contractNames",
        "offset": 0,
        "slot": "2",
        "type": "t_array(t_string_storage)dyn_storage"
      }
    ],
    "types": {
      "t_address": {
        "encoding": "inplace",
        "label": "address",
        "numberOfBytes": "20"
      },
      "t_array(t_string_storage)dyn_storage": {
        "base": "t_string_storage",
        "encoding": "dynamic_array",
        "label": "string[]",
        "numberOfBytes": "32"
      },
      "t_bool": {
        "encoding": "inplace",
        "label": "bool",
        "numberOfBytes": "1"
      },
      "t_bytes32": {
        "encoding": "inplace",
        "label": "bytes32",
        "numberOfBytes": "32"
      },
      "t_mapping(t_bytes32,t_address)": {
        "encoding": "mapping",
        "key": "t_bytes32",
        "label": "mapping(bytes32 => address)",
        "numberOfBytes": "32",
        "value": "t_address"
      },
      "t_string_storage": {
        "encoding": "bytes",
        "label": "string",
        "numberOfBytes": "32"
      },
      "t_uint8": {
        "encoding": "inplace",
        "label": "uint8",
        "numberOfBytes": "1"
      }
    }
  }
}