{
  "address": "0x8a76635bb9c4a699d28E0452AaA23b5E4eD9a9E6",
  "abi": [
    {
      "inputs": [],
      "stateMutability": "nonpayable",
      "type": "constructor"
    },
    {
      "inputs": [
        {
          "internalType": "address",
          "name": "badgeDestination",
          "type": "address"
        },
        {
          "internalType": "address",
          "name": "nftDestination",
          "type": "address"
        }
      ],
      "name": "BadgeDestinationAndNFTDestinationNotEqual",
      "type": "error"
    },
    {
      "inputs": [
        {
          "internalType": "uint256",
          "name": "badgeNullifier",
          "type": "uint256"
        },
        {
          "internalType": "uint256",
          "name": "tokenId",
          "type": "uint256"
        }
      ],
      "name": "BadgeNullifierNotEqualToTokenId",
      "type": "error"
    },
    {
      "inputs": [],
      "name": "InvalidArgumentsLength",
      "type": "error"
    },
    {
      "inputs": [
        {
          "internalType": "address",
          "name": "owner",
          "type": "address"
        },
        {
          "internalType": "uint256",
          "name": "balance",
          "type": "uint256"
        }
      ],
      "name": "NFTAlreadyOwned",
      "type": "error"
    },
    {
      "inputs": [
        {
          "internalType": "uint256",
          "name": "badgeTokenId",
          "type": "uint256"
        },
        {
          "internalType": "uint256",
          "name": "minBalance",
          "type": "uint256"
        }
      ],
      "name": "UserDoesNotMeetAllRequirements",
      "type": "error"
    },
    {
      "inputs": [],
      "name": "UserDoesNotMeetRequirements",
      "type": "error"
    },
    {
      "inputs": [],
      "name": "WrongBalanceRequirementType",
      "type": "error"
    },
    {
      "anonymous": false,
      "inputs": [
        {
          "indexed": true,
          "internalType": "address",
          "name": "owner",
          "type": "address"
        },
        {
          "indexed": true,
          "internalType": "address",
          "name": "approved",
          "type": "address"
        },
        {
          "indexed": true,
          "internalType": "uint256",
          "name": "tokenId",
          "type": "uint256"
        }
      ],
      "name": "Approval",
      "type": "event"
    },
    {
      "anonymous": false,
      "inputs": [
        {
          "indexed": true,
          "internalType": "address",
          "name": "owner",
          "type": "address"
        },
        {
          "indexed": true,
          "internalType": "address",
          "name": "operator",
          "type": "address"
        },
        {
          "indexed": false,
          "internalType": "bool",
          "name": "approved",
          "type": "bool"
        }
      ],
      "name": "ApprovalForAll",
      "type": "event"
    },
    {
      "anonymous": false,
      "inputs": [
        {
          "indexed": true,
          "internalType": "address",
          "name": "from",
          "type": "address"
        },
        {
          "indexed": true,
          "internalType": "address",
          "name": "to",
          "type": "address"
        },
        {
          "indexed": true,
          "internalType": "uint256",
          "name": "tokenId",
          "type": "uint256"
        }
      ],
      "name": "Transfer",
      "type": "event"
    },
    {
      "inputs": [],
      "name": "ADDRESSES_PROVIDER",
      "outputs": [
        {
          "internalType": "contract AddressesProvider",
          "name": "",
          "type": "address"
        }
      ],
      "stateMutability": "view",
      "type": "function"
    },
    {
      "inputs": [],
      "name": "BADGES",
      "outputs": [
        {
          "internalType": "contract Badges",
          "name": "",
          "type": "address"
        }
      ],
      "stateMutability": "view",
      "type": "function"
    },
    {
      "inputs": [],
      "name": "HYDRA_S1_ACCOUNTBOUND_ATTESTER",
      "outputs": [
        {
          "internalType": "contract HydraS1AccountboundAttester",
          "name": "",
          "type": "address"
        }
      ],
      "stateMutability": "view",
      "type": "function"
    },
    {
      "inputs": [],
      "name": "MERGOOOR_PASS_BADGE_ID",
      "outputs": [
        {
          "internalType": "uint256",
          "name": "",
          "type": "uint256"
        }
      ],
      "stateMutability": "view",
      "type": "function"
    },
    {
      "inputs": [
        {
          "components": [
            {
              "components": [
                {
                  "internalType": "uint256",
                  "name": "groupId",
                  "type": "uint256"
                },
                {
                  "internalType": "uint256",
                  "name": "claimedValue",
                  "type": "uint256"
                },
                {
                  "internalType": "bytes",
                  "name": "extraData",
                  "type": "bytes"
                }
              ],
              "internalType": "struct Claim[]",
              "name": "claims",
              "type": "tuple[]"
            },
            {
              "internalType": "address",
              "name": "destination",
              "type": "address"
            }
          ],
          "internalType": "struct Request",
          "name": "request",
          "type": "tuple"
        },
        {
          "internalType": "bytes",
          "name": "sismoProof",
          "type": "bytes"
        },
        {
          "internalType": "address",
          "name": "attester",
          "type": "address"
        }
      ],
      "name": "_mintSismoBadge",
      "outputs": [
        {
          "internalType": "address",
          "name": "",
          "type": "address"
        },
        {
          "internalType": "uint256[]",
          "name": "",
          "type": "uint256[]"
        },
        {
          "internalType": "uint256[]",
          "name": "",
          "type": "uint256[]"
        }
      ],
      "stateMutability": "nonpayable",
      "type": "function"
    },
    {
      "inputs": [
        {
          "internalType": "address",
          "name": "to",
          "type": "address"
        },
        {
          "internalType": "uint256",
          "name": "tokenId",
          "type": "uint256"
        }
      ],
      "name": "approve",
      "outputs": [],
      "stateMutability": "nonpayable",
      "type": "function"
    },
    {
      "inputs": [
        {
          "internalType": "address",
          "name": "owner",
          "type": "address"
        }
      ],
      "name": "balanceOf",
      "outputs": [
        {
          "internalType": "uint256",
          "name": "",
          "type": "uint256"
        }
      ],
      "stateMutability": "view",
      "type": "function"
    },
    {
      "inputs": [],
      "name": "claim",
      "outputs": [],
      "stateMutability": "nonpayable",
      "type": "function"
    },
    {
      "inputs": [
        {
          "internalType": "address",
          "name": "to",
          "type": "address"
        }
      ],
      "name": "claimTo",
      "outputs": [],
      "stateMutability": "nonpayable",
      "type": "function"
    },
    {
      "inputs": [
        {
          "components": [
            {
              "components": [
                {
                  "internalType": "uint256",
                  "name": "groupId",
                  "type": "uint256"
                },
                {
                  "internalType": "uint256",
                  "name": "claimedValue",
                  "type": "uint256"
                },
                {
                  "internalType": "bytes",
                  "name": "extraData",
                  "type": "bytes"
                }
              ],
              "internalType": "struct Claim[]",
              "name": "claims",
              "type": "tuple[]"
            },
            {
              "internalType": "address",
              "name": "destination",
              "type": "address"
            }
          ],
          "internalType": "struct Request",
          "name": "request",
          "type": "tuple"
        },
        {
          "internalType": "bytes",
          "name": "sismoProof",
          "type": "bytes"
        }
      ],
      "name": "claimWithSismo",
      "outputs": [],
      "stateMutability": "nonpayable",
      "type": "function"
    },
    {
      "inputs": [
        {
          "internalType": "uint256",
          "name": "tokenId",
          "type": "uint256"
        }
      ],
      "name": "getApproved",
      "outputs": [
        {
          "internalType": "address",
          "name": "",
          "type": "address"
        }
      ],
      "stateMutability": "view",
      "type": "function"
    },
    {
      "inputs": [
        {
          "internalType": "address",
          "name": "owner",
          "type": "address"
        },
        {
          "internalType": "address",
          "name": "operator",
          "type": "address"
        }
      ],
      "name": "isApprovedForAll",
      "outputs": [
        {
          "internalType": "bool",
          "name": "",
          "type": "bool"
        }
      ],
      "stateMutability": "view",
      "type": "function"
    },
    {
      "inputs": [],
      "name": "name",
      "outputs": [
        {
          "internalType": "string",
          "name": "",
          "type": "string"
        }
      ],
      "stateMutability": "view",
      "type": "function"
    },
    {
      "inputs": [
        {
          "internalType": "uint256",
          "name": "tokenId",
          "type": "uint256"
        }
      ],
      "name": "ownerOf",
      "outputs": [
        {
          "internalType": "address",
          "name": "",
          "type": "address"
        }
      ],
      "stateMutability": "view",
      "type": "function"
    },
    {
      "inputs": [
        {
          "internalType": "address",
          "name": "from",
          "type": "address"
        },
        {
          "internalType": "address",
          "name": "to",
          "type": "address"
        },
        {
          "internalType": "uint256",
          "name": "tokenId",
          "type": "uint256"
        }
      ],
      "name": "safeTransferFrom",
      "outputs": [],
      "stateMutability": "nonpayable",
      "type": "function"
    },
    {
      "inputs": [
        {
          "internalType": "address",
          "name": "from",
          "type": "address"
        },
        {
          "internalType": "address",
          "name": "to",
          "type": "address"
        },
        {
          "internalType": "uint256",
          "name": "tokenId",
          "type": "uint256"
        },
        {
          "internalType": "bytes",
          "name": "data",
          "type": "bytes"
        }
      ],
      "name": "safeTransferFrom",
      "outputs": [],
      "stateMutability": "nonpayable",
      "type": "function"
    },
    {
      "inputs": [
        {
          "internalType": "address",
          "name": "operator",
          "type": "address"
        },
        {
          "internalType": "bool",
          "name": "approved",
          "type": "bool"
        }
      ],
      "name": "setApprovalForAll",
      "outputs": [],
      "stateMutability": "nonpayable",
      "type": "function"
    },
    {
      "inputs": [
        {
          "internalType": "bytes4",
          "name": "interfaceId",
          "type": "bytes4"
        }
      ],
      "name": "supportsInterface",
      "outputs": [
        {
          "internalType": "bool",
          "name": "",
          "type": "bool"
        }
      ],
      "stateMutability": "view",
      "type": "function"
    },
    {
      "inputs": [],
      "name": "symbol",
      "outputs": [
        {
          "internalType": "string",
          "name": "",
          "type": "string"
        }
      ],
      "stateMutability": "view",
      "type": "function"
    },
    {
      "inputs": [
        {
          "internalType": "uint256",
          "name": "tokenId",
          "type": "uint256"
        }
      ],
      "name": "tokenURI",
      "outputs": [
        {
          "internalType": "string",
          "name": "",
          "type": "string"
        }
      ],
      "stateMutability": "view",
      "type": "function"
    },
    {
      "inputs": [
        {
          "internalType": "address",
          "name": "from",
          "type": "address"
        },
        {
          "internalType": "address",
          "name": "to",
          "type": "address"
        },
        {
          "internalType": "uint256",
          "name": "tokenId",
          "type": "uint256"
        }
      ],
      "name": "transferFrom",
      "outputs": [],
      "stateMutability": "nonpayable",
      "type": "function"
    },
    {
      "inputs": [
        {
          "internalType": "address",
          "name": "from",
          "type": "address"
        },
        {
          "internalType": "address",
          "name": "to",
          "type": "address"
        },
        {
          "internalType": "uint256",
          "name": "tokenId",
          "type": "uint256"
        },
        {
          "components": [
            {
              "components": [
                {
                  "internalType": "uint256",
                  "name": "groupId",
                  "type": "uint256"
                },
                {
                  "internalType": "uint256",
                  "name": "claimedValue",
                  "type": "uint256"
                },
                {
                  "internalType": "bytes",
                  "name": "extraData",
                  "type": "bytes"
                }
              ],
              "internalType": "struct Claim[]",
              "name": "claims",
              "type": "tuple[]"
            },
            {
              "internalType": "address",
              "name": "destination",
              "type": "address"
            }
          ],
          "internalType": "struct Request",
          "name": "request",
          "type": "tuple"
        },
        {
          "internalType": "bytes",
          "name": "sismoProof",
          "type": "bytes"
        }
      ],
      "name": "transferWithSismo",
      "outputs": [],
      "stateMutability": "nonpayable",
      "type": "function"
    }
  ],
  "transactionHash": "0xd0f9a2dc82a59d1088acf979590889e010f16e29fdd9446bb0359791979157ee",
  "args": [],
  "numDeployments": 2,
  "solcInputHash": "3c35a0b3eece336a6bec6b7e7cad1298",
  "bytecode": "0x60e0604052733340ac0cafb3ae34ddd53dba0d7344c1cf3efe056080523480156200002957600080fd5b50604080518082018252600c81526b4d6572676f6f72205061737360a01b60208083019182528351808501909452600384526213541560ea1b908401528151919291620000799160009162000243565b5080516200008f90600190602084019062000243565b5050604080516002808252606082019092526000925090816020015b6060815260200190600190039081620000ab5790505090506040518060400160405280601b81526020017f487964726153314163636f756e74626f756e6441747465737465720000000000815250816000815181106200010f576200010f620002ff565b60200260200101819052506040518060400160405280600681526020016542616467657360d01b815250816001815181106200014f576200014f620002ff565b602002602001018190525060006080516001600160a01b031663cfe35701836040518263ffffffff1660e01b81526004016200018c919062000315565b600060405180830381865afa158015620001aa573d6000803e3d6000fd5b505050506040513d6000823e601f3d908101601f19168201604052620001d49190810190620003d2565b905080600081518110620001ec57620001ec620002ff565b60200260200101516001600160a01b031660a0816001600160a01b03168152505080600181518110620002235762000223620002ff565b60209081029190910101516001600160a01b031660c05250620004e09050565b8280546200025190620004a4565b90600052602060002090601f016020900481019282620002755760008555620002c0565b82601f106200029057805160ff1916838001178555620002c0565b82800160010185558215620002c0579182015b82811115620002c0578251825591602001919060010190620002a3565b50620002ce929150620002d2565b5090565b5b80821115620002ce5760008155600101620002d3565b634e487b7160e01b600052604160045260246000fd5b634e487b7160e01b600052603260045260246000fd5b6000602080830181845280855180835260408601915060408160051b87010192508387016000805b83811015620003a757888603603f1901855282518051808852835b8181101562000375578281018a01518982018b0152890162000358565b818111156200038657848a838b0101525b50601f01601f1916969096018701955093860193918601916001016200033d565b509398975050505050505050565b80516001600160a01b0381168114620003cd57600080fd5b919050565b60006020808385031215620003e657600080fd5b82516001600160401b0380821115620003fe57600080fd5b818501915085601f8301126200041357600080fd5b815181811115620004285762000428620002e9565b8060051b604051601f19603f83011681018181108582111715620004505762000450620002e9565b6040529182528482019250838101850191888311156200046f57600080fd5b938501935b8285101562000498576200048885620003b5565b8452938501939285019262000474565b98975050505050505050565b600181811c90821680620004b957607f821691505b602082108103620004da57634e487b7160e01b600052602260045260246000fd5b50919050565b60805160a05160c0516121236200052c600039600081816101f001528181610aea01526114a10152600081816102a501528181610b7301526111110152600061017401526121236000f3fe608060405234801561001057600080fd5b50600436106101425760003560e01c80636352211e116100b8578063a262f5f81161007c578063a262f5f8146102e2578063b88d4fde146102f5578063c87b56dd14610308578063de2826b11461031b578063dfdf808d1461032e578063e985e9c51461034157600080fd5b80636352211e1461027a57806370a082311461028d578063811cf988146102a057806395d89b41146102c7578063a22cb465146102cf57600080fd5b806312b03a7f1161010a57806312b03a7f146101eb57806323b872dd146102125780632fd0d06914610225578063386669e31461024757806342842e0e1461025f5780634e71d92d1461027257600080fd5b806301ffc9a7146101475780630542975c1461016f57806306fdde03146101ae578063081812fc146101c3578063095ea7b3146101d6575b600080fd5b61015a6101553660046116dc565b61037d565b60405190151581526020015b60405180910390f35b6101967f000000000000000000000000000000000000000000000000000000000000000081565b6040516001600160a01b039091168152602001610166565b6101b66103cf565b6040516101669190611751565b6101966101d1366004611764565b610461565b6101e96101e43660046117a2565b610488565b005b6101967f000000000000000000000000000000000000000000000000000000000000000081565b6101e96102203660046117ce565b6105a2565b610238610233366004611a52565b6105f7565b60405161016693929190611b04565b6102516298968981565b604051908152602001610166565b6101e961026d3660046117ce565b610688565b6101e96106e7565b610196610288366004611764565b610710565b61025161029b366004611b44565b610770565b6101967f000000000000000000000000000000000000000000000000000000000000000081565b6101b66107f6565b6101e96102dd366004611b61565b610805565b6101e96102f0366004611b44565b610810565b6101e9610303366004611b9f565b610834565b6101b6610316366004611764565b6108ac565b6101e9610329366004611c0a565b610920565b6101e961033c366004611c9c565b610988565b61015a61034f366004611cff565b6001600160a01b03918216600090815260056020908152604080832093909416825291909152205460ff1690565b60006001600160e01b031982166380ac58cd60e01b14806103ae57506001600160e01b03198216635b5e139f60e01b145b806103c957506301ffc9a760e01b6001600160e01b03198316145b92915050565b6060600080546103de90611d2d565b80601f016020809104026020016040519081016040528092919081815260200182805461040a90611d2d565b80156104575780601f1061042c57610100808354040283529160200191610457565b820191906000526020600020905b81548152906001019060200180831161043a57829003601f168201915b5050505050905090565b600061046c826109a1565b506000908152600460205260409020546001600160a01b031690565b600061049382610710565b9050806001600160a01b0316836001600160a01b0316036105055760405162461bcd60e51b815260206004820152602160248201527f4552433732313a20617070726f76616c20746f2063757272656e74206f776e656044820152603960f91b60648201526084015b60405180910390fd5b336001600160a01b03821614806105215750610521813361034f565b6105935760405162461bcd60e51b815260206004820152603d60248201527f4552433732313a20617070726f76652063616c6c6572206973206e6f7420746f60448201527f6b656e206f776e6572206f7220617070726f76656420666f7220616c6c00000060648201526084016104fc565b61059d8383610a03565b505050565b6105af8262989689610a71565b60006105ba83610abd565b90508181146105e65760405163ec3bb6b760e01b815260048101829052602481018390526044016104fc565b6105f1848484610be9565b50505050565b60006060806000806000866001600160a01b031663b9e1e0258a8a6040518363ffffffff1660e01b815260040161062f929190611d67565b6000604051808303816000875af115801561064e573d6000803e3d6000fd5b505050506040513d6000823e601f3d908101601f191682016040526106769190810190611e75565b919b909a509098509650505050505050565b6106958262989689610a71565b60006106a083610abd565b90508181146106cc5760405163ec3bb6b760e01b815260048101829052602481018390526044016104fc565b6105f184848460405180602001604052806000815250610d5a565b629896896106f53382610a71565b600061070033610abd565b905061070c3382610d8d565b5050565b6000818152600260205260408120546001600160a01b0316806103c95760405162461bcd60e51b8152602060048201526018602482015277115490cdcc8c4e881a5b9d985b1a59081d1bdad95b88125160421b60448201526064016104fc565b60006001600160a01b0382166107da5760405162461bcd60e51b815260206004820152602960248201527f4552433732313a2061646472657373207a65726f206973206e6f7420612076616044820152683634b21037bbb732b960b91b60648201526084016104fc565b506001600160a01b031660009081526003602052604090205490565b6060600180546103de90611d2d565b61070c338383610f26565b61081d8162989689610a71565b600061082882610abd565b905061070c8282610d8d565b61083e3383610ff4565b6108a05760405162461bcd60e51b815260206004820152602d60248201527f4552433732313a2063616c6c6572206973206e6f7420746f6b656e206f776e6560448201526c1c881bdc88185c1c1c9bdd9959609a1b60648201526084016104fc565b6105f184848484610d5a565b60606108b7826109a1565b60006108ce60408051602081019091526000815290565b905060008151116108ee5760405180602001604052806000815250610919565b806108f884611073565b604051602001610909929190611eeb565b6040516020818303038152906040525b9392505050565b600061092c8383611105565b50509050846001600160a01b0316816001600160a01b0316146109755760405163351f087560e11b81526001600160a01b038083166004830152861660248201526044016104fc565b610980868286610688565b505050505050565b60006109948383611105565b5050905061059d81610810565b6000818152600260205260409020546001600160a01b0316610a005760405162461bcd60e51b8152602060048201526018602482015277115490cdcc8c4e881a5b9d985b1a59081d1bdad95b88125160421b60448201526064016104fc565b50565b600081815260046020526040902080546001600160a01b0319166001600160a01b0384169081179091558190610a3882610710565b6001600160a01b03167f8c5be1e5ebec7d5bd14f71427d1e84f3dd0314c0f7b2291e5b200ac8c7c3b92560405160405180910390a45050565b604080516001808252818301909252600091602080830190803683370190505090508181600081518110610aa757610aa7611f1a565b60200260200101818152505061059d83826111b5565b604051633e1f3c2760e01b81526001600160a01b03828116600483015262989689602483015260009182917f00000000000000000000000000000000000000000000000000000000000000001690633e1f3c2790604401600060405180830381865afa158015610b31573d6000803e3d6000fd5b505050506040513d6000823e601f3d908101601f19168201604052610b599190810190611f30565b60405163345dd98960e01b81529091506001600160a01b037f0000000000000000000000000000000000000000000000000000000000000000169063345dd98990610ba8908490600401611751565b602060405180830381865afa158015610bc5573d6000803e3d6000fd5b505050506040513d601f19601f820116820180604052508101906109199190611fa6565b826001600160a01b0316610bfc82610710565b6001600160a01b031614610c225760405162461bcd60e51b81526004016104fc90611fbf565b6001600160a01b038216610c845760405162461bcd60e51b8152602060048201526024808201527f4552433732313a207472616e7366657220746f20746865207a65726f206164646044820152637265737360e01b60648201526084016104fc565b610c9183838360016111c1565b826001600160a01b0316610ca482610710565b6001600160a01b031614610cca5760405162461bcd60e51b81526004016104fc90611fbf565b600081815260046020908152604080832080546001600160a01b03199081169091556001600160a01b0387811680865260038552838620805460001901905590871680865283862080546001019055868652600290945282852080549092168417909155905184937fddf252ad1be2c89b69c2b068fc378daa952ba7f163c4a11628f55a4df523b3ef91a4505050565b610d65848484610be9565b610d7184848484611206565b6105f15760405162461bcd60e51b81526004016104fc90612004565b6001600160a01b038216610de35760405162461bcd60e51b815260206004820181905260248201527f4552433732313a206d696e7420746f20746865207a65726f206164647265737360448201526064016104fc565b6000818152600260205260409020546001600160a01b031615610e485760405162461bcd60e51b815260206004820152601c60248201527f4552433732313a20746f6b656e20616c7265616479206d696e7465640000000060448201526064016104fc565b610e566000838360016111c1565b6000818152600260205260409020546001600160a01b031615610ebb5760405162461bcd60e51b815260206004820152601c60248201527f4552433732313a20746f6b656e20616c7265616479206d696e7465640000000060448201526064016104fc565b6001600160a01b038216600081815260036020908152604080832080546001019055848352600290915280822080546001600160a01b0319168417905551839291907fddf252ad1be2c89b69c2b068fc378daa952ba7f163c4a11628f55a4df523b3ef908290a45050565b816001600160a01b0316836001600160a01b031603610f875760405162461bcd60e51b815260206004820152601960248201527f4552433732313a20617070726f766520746f2063616c6c65720000000000000060448201526064016104fc565b6001600160a01b03838116600081815260056020908152604080832094871680845294825291829020805460ff191686151590811790915591519182527f17307eab39ab6107e8899845ad3d59bd9653f200f220920489ca2b5937696c31910160405180910390a3505050565b60008061100083610710565b9050806001600160a01b0316846001600160a01b0316148061104757506001600160a01b0380821660009081526005602090815260408083209388168352929052205460ff165b8061106b5750836001600160a01b031661106084610461565b6001600160a01b0316145b949350505050565b6060600061108083611307565b60010190506000816001600160401b0381111561109f5761109f61180f565b6040519080825280601f01601f1916602001820160405280156110c9576020820181803683370190505b5090508181016020015b600019016f181899199a1a9b1b9c1cb0b131b232b360811b600a86061a8153600a85049450846110d357509392505050565b600060608060008060007f00000000000000000000000000000000000000000000000000000000000000006001600160a01b031663b9e1e02589896040518363ffffffff1660e01b815260040161115d929190611d67565b6000604051808303816000875af115801561117c573d6000803e3d6000fd5b505050506040513d6000823e601f3d908101601f191682016040526111a49190810190611e75565b919750955093505050509250925092565b61070c828260006113df565b60006111cc84610770565b11156105f157826111dc84610770565b60405163355b159f60e01b81526001600160a01b03909216600483015260248201526044016104fc565b60006001600160a01b0384163b156112fc57604051630a85bd0160e11b81526001600160a01b0385169063150b7a029061124a903390899088908890600401612056565b6020604051808303816000875af1925050508015611285575060408051601f3d908101601f1916820190925261128291810190612089565b60015b6112e2573d8080156112b3576040519150601f19603f3d011682016040523d82523d6000602084013e6112b8565b606091505b5080516000036112da5760405162461bcd60e51b81526004016104fc90612004565b805181602001fd5b6001600160e01b031916630a85bd0160e11b14905061106b565b506001949350505050565b60008072184f03e93ff9f4daa797ed6e38ed64bf6a1f0160401b83106113465772184f03e93ff9f4daa797ed6e38ed64bf6a1f0160401b830492506040015b6d04ee2d6d415b85acef81000000008310611372576d04ee2d6d415b85acef8100000000830492506020015b662386f26fc10000831061139057662386f26fc10000830492506010015b6305f5e10083106113a8576305f5e100830492506008015b61271083106113bc57612710830492506004015b606483106113ce576064830492506002015b600a83106103c95760010192915050565b600082516001600160401b038111156113fa576113fa61180f565b604051908082528060200260200182016040528015611423578160200160208202803683370190505b50905060005b83518163ffffffff16101561146f576001828263ffffffff168151811061145257611452611f1a565b602090810291909101015280611467816120a6565b915050611429565b506105f1848484846105f184848484600061148a8483611622565b6000805b85518163ffffffff1610156116035760007f00000000000000000000000000000000000000000000000000000000000000006001600160a01b031662fdd58e89898563ffffffff16815181106114e6576114e6611f1a565b60200260200101516040518363ffffffff1660e01b815260040161151f9291906001600160a01b03929092168252602082015260400190565b602060405180830381865afa15801561153c573d6000803e3d6000fd5b505050506040513d601f19601f820116820180604052508101906115609190611fa6565b90506000858363ffffffff168151811061157c5761157c611f1a565b60200260200101519050611591828287611644565b15156001036115a357600193506115ee565b86156115ee57878363ffffffff16815181106115c1576115c1611f1a565b602002602001015181604051633b1849a760e11b81526004016104fc929190918252602082015260400190565b505080806115fb906120a6565b91505061148e565b5080610980576040516304351f9b60e51b815260040160405180910390fd5b805182511461070c57604051630ded580b60e01b815260040160405180910390fd5b600080826002811115611659576116596120d7565b03611668575081831015610919565b600182600281111561167c5761167c6120d7565b0361168b575081831115610919565b600282600281111561169f5761169f6120d7565b036116ad5750828214610919565b60405163ca90bfc360e01b815260040160405180910390fd5b6001600160e01b031981168114610a0057600080fd5b6000602082840312156116ee57600080fd5b8135610919816116c6565b60005b838110156117145781810151838201526020016116fc565b838111156105f15750506000910152565b6000815180845261173d8160208601602086016116f9565b601f01601f19169290920160200192915050565b6020815260006109196020830184611725565b60006020828403121561177657600080fd5b5035919050565b6001600160a01b0381168114610a0057600080fd5b803561179d8161177d565b919050565b600080604083850312156117b557600080fd5b82356117c08161177d565b946020939093013593505050565b6000806000606084860312156117e357600080fd5b83356117ee8161177d565b925060208401356117fe8161177d565b929592945050506040919091013590565b634e487b7160e01b600052604160045260246000fd5b604080519081016001600160401b03811182821017156118475761184761180f565b60405290565b604051606081016001600160401b03811182821017156118475761184761180f565b604051601f8201601f191681016001600160401b03811182821017156118975761189761180f565b604052919050565b60006001600160401b038211156118b8576118b861180f565b5060051b60200190565b60006001600160401b038211156118db576118db61180f565b50601f01601f191660200190565b600082601f8301126118fa57600080fd5b813561190d611908826118c2565b61186f565b81815284602083860101111561192257600080fd5b816020850160208301376000918101602001919091529392505050565b6000604080838503121561195257600080fd5b61195a611825565b915082356001600160401b038082111561197357600080fd5b818501915085601f83011261198757600080fd5b813560206119976119088361189f565b82815260059290921b840181019181810190898411156119b657600080fd5b8286015b84811015611a34578035868111156119d25760008081fd5b87016060818d03601f19018113156119ea5760008081fd5b6119f261184d565b8287013581528a83013581880152908201359088821115611a135760008081fd5b611a218e88848601016118e9565b818c0152855250509183019183016119ba565b50875250611a43878201611792565b81870152505050505092915050565b600080600060608486031215611a6757600080fd5b83356001600160401b0380821115611a7e57600080fd5b611a8a8783880161193f565b94506020860135915080821115611aa057600080fd5b50611aad868287016118e9565b9250506040840135611abe8161177d565b809150509250925092565b600081518084526020808501945080840160005b83811015611af957815187529582019590820190600101611add565b509495945050505050565b6001600160a01b0384168152606060208201819052600090611b2890830185611ac9565b8281036040840152611b3a8185611ac9565b9695505050505050565b600060208284031215611b5657600080fd5b81356109198161177d565b60008060408385031215611b7457600080fd5b8235611b7f8161177d565b915060208301358015158114611b9457600080fd5b809150509250929050565b60008060008060808587031215611bb557600080fd5b8435611bc08161177d565b93506020850135611bd08161177d565b92506040850135915060608501356001600160401b03811115611bf257600080fd5b611bfe878288016118e9565b91505092959194509250565b600080600080600060a08688031215611c2257600080fd5b8535611c2d8161177d565b94506020860135611c3d8161177d565b93506040860135925060608601356001600160401b0380821115611c6057600080fd5b611c6c89838a0161193f565b93506080880135915080821115611c8257600080fd5b50611c8f888289016118e9565b9150509295509295909350565b60008060408385031215611caf57600080fd5b82356001600160401b0380821115611cc657600080fd5b611cd28683870161193f565b93506020850135915080821115611ce857600080fd5b50611cf5858286016118e9565b9150509250929050565b60008060408385031215611d1257600080fd5b8235611d1d8161177d565b91506020830135611b948161177d565b600181811c90821680611d4157607f821691505b602082108103611d6157634e487b7160e01b600052602260045260246000fd5b50919050565b60006040808352608083018551828386015281815180845260a08701915060a08160051b88010193506020808401935060005b82811015611de457888603609f1901845284518051875282810151838801528701516060888801819052611dd081890183611725565b975050509381019392810192600101611d9a565b50898101516001600160a01b03811660608a015295508785038189015250505050611b3a8186611725565b600082601f830112611e2057600080fd5b81516020611e306119088361189f565b82815260059290921b84018101918181019086841115611e4f57600080fd5b8286015b84811015611e6a5780518352918301918301611e53565b509695505050505050565b600080600060608486031215611e8a57600080fd5b8351611e958161177d565b60208501519093506001600160401b0380821115611eb257600080fd5b611ebe87838801611e0f565b93506040860151915080821115611ed457600080fd5b50611ee186828701611e0f565b9150509250925092565b60008351611efd8184602088016116f9565b835190830190611f118183602088016116f9565b01949350505050565b634e487b7160e01b600052603260045260246000fd5b600060208284031215611f4257600080fd5b81516001600160401b03811115611f5857600080fd5b8201601f81018413611f6957600080fd5b8051611f77611908826118c2565b818152856020838501011115611f8c57600080fd5b611f9d8260208301602086016116f9565b95945050505050565b600060208284031215611fb857600080fd5b5051919050565b60208082526025908201527f4552433732313a207472616e736665722066726f6d20696e636f72726563742060408201526437bbb732b960d91b606082015260800190565b60208082526032908201527f4552433732313a207472616e7366657220746f206e6f6e20455243373231526560408201527131b2b4bb32b91034b6b83632b6b2b73a32b960711b606082015260800190565b6001600160a01b0385811682528416602082015260408101839052608060608201819052600090611b3a90830184611725565b60006020828403121561209b57600080fd5b8151610919816116c6565b600063ffffffff8083168181036120cd57634e487b7160e01b600052601160045260246000fd5b6001019392505050565b634e487b7160e01b600052602160045260246000fdfea26469706673582212202d41687acc12e11f7373c0532bdc2cd3514eb7b3b1f6cfcbc24731b1bf8826a964736f6c634300080e0033",
  "devdoc": {
    "details": "ERC721 token that can be minted by holding a specific ZK Badge",
    "kind": "dev",
    "methods": {
      "_mintSismoBadge(((uint256,uint256,bytes)[],address),bytes,address)": {
        "details": "Mint badges from sismoProof received by \"Prove With Sismo\" off-chain flow",
        "params": {
          "attester": "Attester address (default = HYDRA_S1_ACCOUNTBOUND_ATTESTER, see the next function)",
          "request": "user request",
          "sismoProof": "Sismo proof"
        },
        "returns": {
          "_0": "Address of the owner of the badges, tokenIds of the badges minted and levels of the badges minted"
        }
      },
      "approve(address,uint256)": {
        "details": "See {IERC721-approve}."
      },
      "balanceOf(address)": {
        "details": "See {IERC721-balanceOf}."
      },
      "claim()": {
        "details": "Mints a NFT and transfers it to the account that holds the ZK Badge"
      },
      "claimTo(address)": {
        "details": "Mints a NFT and transfers it to the account that holds the ZK Badge",
        "params": {
          "to": "address of the account that will receive the NFT"
        }
      },
      "claimWithSismo(((uint256,uint256,bytes)[],address),bytes)": {
        "details": "Mints a ZK Badge and a NFT and transfers it to the account that holds the newly minted ZK Badge",
        "params": {
          "request": "user request containing the data needed to mint the ZK Badge",
          "sismoProof": "Proof of eligibilty to mint the ZK Badge"
        }
      },
      "getApproved(uint256)": {
        "details": "See {IERC721-getApproved}."
      },
      "isApprovedForAll(address,address)": {
        "details": "See {IERC721-isApprovedForAll}."
      },
      "name()": {
        "details": "See {IERC721Metadata-name}."
      },
      "ownerOf(uint256)": {
        "details": "See {IERC721-ownerOf}."
      },
      "safeTransferFrom(address,address,uint256)": {
        "details": "Transfers a NFT to the account that holds the ZK Badge with the same nullifier",
        "params": {
          "from": "address of the account that currently owns the NFT",
          "to": "address of the account that will receive the NFT (must hold a ZK Badge with the id MERGOOOR_PASS_BADGE_ID)",
          "tokenId": "id of the NFT to transfer"
        }
      },
      "safeTransferFrom(address,address,uint256,bytes)": {
        "details": "See {IERC721-safeTransferFrom}."
      },
      "setApprovalForAll(address,bool)": {
        "details": "See {IERC721-setApprovalForAll}."
      },
      "supportsInterface(bytes4)": {
        "details": "See {IERC165-supportsInterface}."
      },
      "symbol()": {
        "details": "See {IERC721Metadata-symbol}."
      },
      "tokenURI(uint256)": {
        "details": "See {IERC721Metadata-tokenURI}."
      },
      "transferFrom(address,address,uint256)": {
        "details": "See {IERC721-transferFrom}."
      },
      "transferWithSismo(address,address,uint256,((uint256,uint256,bytes)[],address),bytes)": {
        "details": "Transfers a NFT to the account that holds the ZK Badge with the same nullifier",
        "params": {
          "from": "address of the account that currently owns the NFT",
          "request": "user request containing the data needed to mint the ZK Badge",
          "sismoProof": "Proof of eligibilty to mint the ZK Badge",
          "to": "address of the account that will receive the NFT (the address will also receive a ZK Badge with the id MERGOOOR_PASS_BADGE_ID)",
          "tokenId": "id of the NFT to transfer"
        }
      }
    },
    "title": "ZkBadgeboundERC721",
    "version": 1
  },
  "userdoc": {
    "kind": "user",
    "methods": {
      "_mintSismoBadge(((uint256,uint256,bytes)[],address),bytes,address)": {
        "notice": "This function will use the default attester (HYDRA_S1_ACCOUNTBOUND_ATTESTER) if no attester is specified."
      },
      "claim()": {
        "notice": "The account that calls this function must hold a ZK Badge with the id MERGOOOR_PASS_BADGE_ID"
      },
      "claimTo(address)": {
        "notice": "The address `to` must hold a ZK Badge with the id MERGOOOR_PASS_BADGE_ID"
      },
      "safeTransferFrom(address,address,uint256)": {
        "notice": "The address `to` must hold a ZK Badge with the id MERGOOOR_PASS_BADGE_ID"
      },
      "transferWithSismo(address,address,uint256,((uint256,uint256,bytes)[],address),bytes)": {
        "notice": "The address `to` will receive a ZK Badge and a NFT with the id MERGOOOR_PASS_BADGE_ID that is linked to the same nullifier"
      }
    },
    "notice": "This implementation offers to any account holding a specific ZK Badge the possibility to mint a NFT and transfer it to another account The ZK Badge used in this implementation is bounded to an account thanks to a nullifier (in a zero knowledge way) The nullifier is a cryptographic information that prevents any account from producing a proof for the same ZK Badge twice We use the nullifier in this contract to make sure that each NFT minted or transfered is linked with a 1-o-1 relationship to a specific ZK Badge and therefore to a specific account To ensure this feature, we use the nullifier as the tokenId of the NFT that is minted or transferred Each time a NFT is minted or transferred, we make sure that the ZK Badge owned by the account is the same as the one used to mint or transfer the NFT",
    "version": 1
  },
  "storageLayout": {
    "storage": [
      {
        "astId": 2680,
        "contract": "contracts/tests/zk-drop/ZKBadgeboundERC721.sol:ZKBadgeboundERC721",
        "label": "_name",
        "offset": 0,
        "slot": "0",
        "type": "t_string_storage"
      },
      {
        "astId": 2682,
        "contract": "contracts/tests/zk-drop/ZKBadgeboundERC721.sol:ZKBadgeboundERC721",
        "label": "_symbol",
        "offset": 0,
        "slot": "1",
        "type": "t_string_storage"
      },
      {
        "astId": 2686,
        "contract": "contracts/tests/zk-drop/ZKBadgeboundERC721.sol:ZKBadgeboundERC721",
        "label": "_owners",
        "offset": 0,
        "slot": "2",
        "type": "t_mapping(t_uint256,t_address)"
      },
      {
        "astId": 2690,
        "contract": "contracts/tests/zk-drop/ZKBadgeboundERC721.sol:ZKBadgeboundERC721",
        "label": "_balances",
        "offset": 0,
        "slot": "3",
        "type": "t_mapping(t_address,t_uint256)"
      },
      {
        "astId": 2694,
        "contract": "contracts/tests/zk-drop/ZKBadgeboundERC721.sol:ZKBadgeboundERC721",
        "label": "_tokenApprovals",
        "offset": 0,
        "slot": "4",
        "type": "t_mapping(t_uint256,t_address)"
      },
      {
        "astId": 2700,
        "contract": "contracts/tests/zk-drop/ZKBadgeboundERC721.sol:ZKBadgeboundERC721",
        "label": "_operatorApprovals",
        "offset": 0,
        "slot": "5",
        "type": "t_mapping(t_address,t_mapping(t_address,t_bool))"
      }
    ],
    "types": {
      "t_address": {
        "encoding": "inplace",
        "label": "address",
        "numberOfBytes": "20"
      },
      "t_bool": {
        "encoding": "inplace",
        "label": "bool",
        "numberOfBytes": "1"
      },
      "t_mapping(t_address,t_bool)": {
        "encoding": "mapping",
        "key": "t_address",
        "label": "mapping(address => bool)",
        "numberOfBytes": "32",
        "value": "t_bool"
      },
      "t_mapping(t_address,t_mapping(t_address,t_bool))": {
        "encoding": "mapping",
        "key": "t_address",
        "label": "mapping(address => mapping(address => bool))",
        "numberOfBytes": "32",
        "value": "t_mapping(t_address,t_bool)"
      },
      "t_mapping(t_address,t_uint256)": {
        "encoding": "mapping",
        "key": "t_address",
        "label": "mapping(address => uint256)",
        "numberOfBytes": "32",
        "value": "t_uint256"
      },
      "t_mapping(t_uint256,t_address)": {
        "encoding": "mapping",
        "key": "t_uint256",
        "label": "mapping(uint256 => address)",
        "numberOfBytes": "32",
        "value": "t_address"
      },
      "t_string_storage": {
        "encoding": "bytes",
        "label": "string",
        "numberOfBytes": "32"
      },
      "t_uint256": {
        "encoding": "inplace",
        "label": "uint256",
        "numberOfBytes": "32"
      }
    }
  }
}