{
  "address": "0x319d2a1f99DCE97bC1539643Df7cD7A0a978Eb7B",
  "abi": [
    {
      "inputs": [
        {
          "internalType": "address",
          "name": "attestationsRegistryAddress",
          "type": "address"
        },
        {
          "internalType": "address",
          "name": "hydraS1VerifierAddress",
          "type": "address"
        },
        {
          "internalType": "address",
          "name": "availableRootsRegistryAddress",
          "type": "address"
        },
        {
          "internalType": "address",
          "name": "commitmentMapperAddress",
          "type": "address"
        },
        {
          "internalType": "uint256",
          "name": "collectionIdFirst",
          "type": "uint256"
        },
        {
          "internalType": "uint256",
          "name": "collectionIdLast",
          "type": "uint256"
        },
        {
          "internalType": "address",
          "name": "owner",
          "type": "address"
        }
      ],
      "stateMutability": "nonpayable",
      "type": "constructor"
    },
    {
      "inputs": [
        {
          "internalType": "uint256",
          "name": "expectedAccountsTreeValue",
          "type": "uint256"
        },
        {
          "internalType": "uint256",
          "name": "inputAccountsTreeValue",
          "type": "uint256"
        }
      ],
      "name": "AccountsTreeValueMismatch",
      "type": "error"
    },
    {
      "inputs": [],
      "name": "AttestationDeletionNotImplemented",
      "type": "error"
    },
    {
      "inputs": [
        {
          "internalType": "uint256",
          "name": "expectedChainId",
          "type": "uint256"
        },
        {
          "internalType": "uint256",
          "name": "chainId",
          "type": "uint256"
        }
      ],
      "name": "ChainIdMismatch",
      "type": "error"
    },
    {
      "inputs": [
        {
          "internalType": "uint256",
          "name": "claimLength",
          "type": "uint256"
        }
      ],
      "name": "ClaimsLengthDifferentThanOne",
      "type": "error"
    },
    {
      "inputs": [
        {
          "internalType": "uint256",
          "name": "collectionId",
          "type": "uint256"
        }
      ],
      "name": "CollectionIdOutOfBound",
      "type": "error"
    },
    {
      "inputs": [
        {
          "internalType": "uint256",
          "name": "expectedX",
          "type": "uint256"
        },
        {
          "internalType": "uint256",
          "name": "expectedY",
          "type": "uint256"
        },
        {
          "internalType": "uint256",
          "name": "inputX",
          "type": "uint256"
        },
        {
          "internalType": "uint256",
          "name": "inputY",
          "type": "uint256"
        }
      ],
      "name": "CommitmentMapperPubKeyMismatch",
      "type": "error"
    },
    {
      "inputs": [
        {
          "internalType": "uint256",
          "name": "groupIndex",
          "type": "uint256"
        }
      ],
      "name": "CooldownDurationNotSetForGroupIndex",
      "type": "error"
    },
    {
      "inputs": [
        {
          "internalType": "address",
          "name": "expectedDestination",
          "type": "address"
        },
        {
          "internalType": "address",
          "name": "inputDestination",
          "type": "address"
        }
      ],
      "name": "DestinationMismatch",
      "type": "error"
    },
    {
      "inputs": [
        {
          "internalType": "uint256",
          "name": "expectedExternalNullifier",
          "type": "uint256"
        },
        {
          "internalType": "uint256",
          "name": "externalNullifier",
          "type": "uint256"
        }
      ],
      "name": "ExternalNullifierMismatch",
      "type": "error"
    },
    {
      "inputs": [
        {
          "internalType": "uint256",
          "name": "expectedGroupId",
          "type": "uint256"
        },
        {
          "internalType": "uint256",
          "name": "groupId",
          "type": "uint256"
        }
      ],
      "name": "GroupIdAndPropertiesMismatch",
      "type": "error"
    },
    {
      "inputs": [
        {
          "internalType": "string",
          "name": "reason",
          "type": "string"
        }
      ],
      "name": "InvalidGroth16Proof",
      "type": "error"
    },
    {
      "inputs": [
        {
          "internalType": "bool",
          "name": "expectedStrictness",
          "type": "bool"
        },
        {
          "internalType": "bool",
          "name": "strictNess",
          "type": "bool"
        }
      ],
      "name": "IsStrictMismatch",
      "type": "error"
    },
    {
      "inputs": [
        {
          "internalType": "uint256",
          "name": "nullifier",
          "type": "uint256"
        },
        {
          "internalType": "address",
          "name": "destination",
          "type": "address"
        },
        {
          "internalType": "uint16",
          "name": "burnCount",
          "type": "uint16"
        },
        {
          "internalType": "uint32",
          "name": "cooldownStart",
          "type": "uint32"
        }
      ],
      "name": "NullifierOnCooldown",
      "type": "error"
    },
    {
      "inputs": [
        {
          "internalType": "uint256",
          "name": "nullifier",
          "type": "uint256"
        }
      ],
      "name": "NullifierUsed",
      "type": "error"
    },
    {
      "inputs": [
        {
          "internalType": "uint256",
          "name": "inputRoot",
          "type": "uint256"
        }
      ],
      "name": "RegistryRootMismatch",
      "type": "error"
    },
    {
      "inputs": [
        {
          "internalType": "uint256",
          "name": "expectedValue",
          "type": "uint256"
        },
        {
          "internalType": "uint256",
          "name": "inputValue",
          "type": "uint256"
        }
      ],
      "name": "ValueMismatch",
      "type": "error"
    },
    {
      "anonymous": false,
      "inputs": [
        {
          "components": [
            {
              "internalType": "uint256",
              "name": "collectionId",
              "type": "uint256"
            },
            {
              "internalType": "address",
              "name": "owner",
              "type": "address"
            },
            {
              "internalType": "address",
              "name": "issuer",
              "type": "address"
            },
            {
              "internalType": "uint256",
              "name": "value",
              "type": "uint256"
            },
            {
              "internalType": "uint32",
              "name": "timestamp",
              "type": "uint32"
            },
            {
              "internalType": "bytes",
              "name": "extraData",
              "type": "bytes"
            }
          ],
          "indexed": false,
          "internalType": "struct Attestation",
          "name": "attestation",
          "type": "tuple"
        }
      ],
      "name": "AttestationDeleted",
      "type": "event"
    },
    {
      "anonymous": false,
      "inputs": [
        {
          "components": [
            {
              "internalType": "uint256",
              "name": "collectionId",
              "type": "uint256"
            },
            {
              "internalType": "address",
              "name": "owner",
              "type": "address"
            },
            {
              "internalType": "address",
              "name": "issuer",
              "type": "address"
            },
            {
              "internalType": "uint256",
              "name": "value",
              "type": "uint256"
            },
            {
              "internalType": "uint32",
              "name": "timestamp",
              "type": "uint32"
            },
            {
              "internalType": "bytes",
              "name": "extraData",
              "type": "bytes"
            }
          ],
          "indexed": false,
          "internalType": "struct Attestation",
          "name": "attestation",
          "type": "tuple"
        }
      ],
      "name": "AttestationGenerated",
      "type": "event"
    },
    {
      "anonymous": false,
      "inputs": [
        {
          "indexed": true,
          "internalType": "uint256",
          "name": "groupIndex",
          "type": "uint256"
        },
        {
          "indexed": false,
          "internalType": "uint32",
          "name": "cooldownDuration",
          "type": "uint32"
        }
      ],
      "name": "CooldownDurationSetForGroupIndex",
      "type": "event"
    },
    {
      "anonymous": false,
      "inputs": [
        {
          "indexed": false,
          "internalType": "uint8",
          "name": "version",
          "type": "uint8"
        }
      ],
      "name": "Initialized",
      "type": "event"
    },
    {
      "anonymous": false,
      "inputs": [
        {
          "indexed": false,
          "internalType": "uint256",
          "name": "nullifier",
          "type": "uint256"
        },
        {
          "indexed": false,
          "internalType": "address",
          "name": "newOwner",
          "type": "address"
        }
      ],
      "name": "NullifierDestinationUpdated",
      "type": "event"
    },
    {
      "anonymous": false,
      "inputs": [
        {
          "indexed": true,
          "internalType": "uint256",
          "name": "nullifier",
          "type": "uint256"
        },
        {
          "indexed": false,
          "internalType": "uint16",
          "name": "burnCount",
          "type": "uint16"
        }
      ],
      "name": "NullifierSetOnCooldown",
      "type": "event"
    },
    {
      "anonymous": false,
      "inputs": [
        {
          "indexed": true,
          "internalType": "address",
          "name": "previousOwner",
          "type": "address"
        },
        {
          "indexed": true,
          "internalType": "address",
          "name": "newOwner",
          "type": "address"
        }
      ],
      "name": "OwnershipTransferred",
      "type": "event"
    },
    {
      "inputs": [],
      "name": "AUTHORIZED_COLLECTION_ID_FIRST",
      "outputs": [
        {
          "internalType": "uint256",
          "name": "",
          "type": "uint256"
        }
      ],
      "stateMutability": "view",
      "type": "function"
    },
    {
      "inputs": [],
      "name": "AUTHORIZED_COLLECTION_ID_LAST",
      "outputs": [
        {
          "internalType": "uint256",
          "name": "",
          "type": "uint256"
        }
      ],
      "stateMutability": "view",
      "type": "function"
    },
    {
      "inputs": [],
      "name": "IMPLEMENTATION_VERSION",
      "outputs": [
        {
          "internalType": "uint8",
          "name": "",
          "type": "uint8"
        }
      ],
      "stateMutability": "view",
      "type": "function"
    },
    {
      "inputs": [
        {
          "internalType": "uint256",
          "name": "nullifier",
          "type": "uint256"
        },
        {
          "internalType": "address",
          "name": "claimDestination",
          "type": "address"
        }
      ],
      "name": "_getNextBurnCount",
      "outputs": [
        {
          "internalType": "uint16",
          "name": "",
          "type": "uint16"
        }
      ],
      "stateMutability": "view",
      "type": "function"
    },
    {
      "inputs": [
        {
          "components": [
            {
              "components": [
                {
                  "internalType": "uint256",
                  "name": "groupId",
                  "type": "uint256"
                },
                {
                  "internalType": "uint256",
                  "name": "claimedValue",
                  "type": "uint256"
                },
                {
                  "internalType": "bytes",
                  "name": "extraData",
                  "type": "bytes"
                }
              ],
              "internalType": "struct Claim[]",
              "name": "claims",
              "type": "tuple[]"
            },
            {
              "internalType": "address",
              "name": "destination",
              "type": "address"
            }
          ],
          "internalType": "struct Request",
          "name": "request",
          "type": "tuple"
        },
        {
          "internalType": "bytes",
          "name": "proofData",
          "type": "bytes"
        }
      ],
      "name": "buildAttestations",
      "outputs": [
        {
          "components": [
            {
              "internalType": "uint256",
              "name": "collectionId",
              "type": "uint256"
            },
            {
              "internalType": "address",
              "name": "owner",
              "type": "address"
            },
            {
              "internalType": "address",
              "name": "issuer",
              "type": "address"
            },
            {
              "internalType": "uint256",
              "name": "value",
              "type": "uint256"
            },
            {
              "internalType": "uint32",
              "name": "timestamp",
              "type": "uint32"
            },
            {
              "internalType": "bytes",
              "name": "extraData",
              "type": "bytes"
            }
          ],
          "internalType": "struct Attestation[]",
          "name": "",
          "type": "tuple[]"
        }
      ],
      "stateMutability": "view",
      "type": "function"
    },
    {
      "inputs": [
        {
          "internalType": "uint256[]",
          "name": "collectionIds",
          "type": "uint256[]"
        },
        {
          "internalType": "address",
          "name": "attestationsOwner",
          "type": "address"
        },
        {
          "internalType": "bytes",
          "name": "proofData",
          "type": "bytes"
        }
      ],
      "name": "deleteAttestations",
      "outputs": [
        {
          "components": [
            {
              "internalType": "uint256",
              "name": "collectionId",
              "type": "uint256"
            },
            {
              "internalType": "address",
              "name": "owner",
              "type": "address"
            },
            {
              "internalType": "address",
              "name": "issuer",
              "type": "address"
            },
            {
              "internalType": "uint256",
              "name": "value",
              "type": "uint256"
            },
            {
              "internalType": "uint32",
              "name": "timestamp",
              "type": "uint32"
            },
            {
              "internalType": "bytes",
              "name": "extraData",
              "type": "bytes"
            }
          ],
          "internalType": "struct Attestation[]",
          "name": "",
          "type": "tuple[]"
        }
      ],
      "stateMutability": "nonpayable",
      "type": "function"
    },
    {
      "inputs": [
        {
          "components": [
            {
              "components": [
                {
                  "internalType": "uint256",
                  "name": "groupId",
                  "type": "uint256"
                },
                {
                  "internalType": "uint256",
                  "name": "claimedValue",
                  "type": "uint256"
                },
                {
                  "internalType": "bytes",
                  "name": "extraData",
                  "type": "bytes"
                }
              ],
              "internalType": "struct Claim[]",
              "name": "claims",
              "type": "tuple[]"
            },
            {
              "internalType": "address",
              "name": "destination",
              "type": "address"
            }
          ],
          "internalType": "struct Request",
          "name": "request",
          "type": "tuple"
        },
        {
          "internalType": "bytes",
          "name": "proofData",
          "type": "bytes"
        }
      ],
      "name": "generateAttestations",
      "outputs": [
        {
          "components": [
            {
              "internalType": "uint256",
              "name": "collectionId",
              "type": "uint256"
            },
            {
              "internalType": "address",
              "name": "owner",
              "type": "address"
            },
            {
              "internalType": "address",
              "name": "issuer",
              "type": "address"
            },
            {
              "internalType": "uint256",
              "name": "value",
              "type": "uint256"
            },
            {
              "internalType": "uint32",
              "name": "timestamp",
              "type": "uint32"
            },
            {
              "internalType": "bytes",
              "name": "extraData",
              "type": "bytes"
            }
          ],
          "internalType": "struct Attestation[]",
          "name": "",
          "type": "tuple[]"
        }
      ],
      "stateMutability": "nonpayable",
      "type": "function"
    },
    {
      "inputs": [],
      "name": "getAttestationRegistry",
      "outputs": [
        {
          "internalType": "contract IAttestationsRegistry",
          "name": "",
          "type": "address"
        }
      ],
      "stateMutability": "view",
      "type": "function"
    },
    {
      "inputs": [],
      "name": "getAvailableRootsRegistry",
      "outputs": [
        {
          "internalType": "contract IAvailableRootsRegistry",
          "name": "",
          "type": "address"
        }
      ],
      "stateMutability": "view",
      "type": "function"
    },
    {
      "inputs": [
        {
          "internalType": "bytes",
          "name": "extraData",
          "type": "bytes"
        }
      ],
      "name": "getBurnCountFromExtraData",
      "outputs": [
        {
          "internalType": "uint16",
          "name": "",
          "type": "uint16"
        }
      ],
      "stateMutability": "pure",
      "type": "function"
    },
    {
      "inputs": [],
      "name": "getCommitmentMapperRegistry",
      "outputs": [
        {
          "internalType": "contract ICommitmentMapperRegistry",
          "name": "",
          "type": "address"
        }
      ],
      "stateMutability": "view",
      "type": "function"
    },
    {
      "inputs": [
        {
          "internalType": "uint256",
          "name": "groupIndex",
          "type": "uint256"
        }
      ],
      "name": "getCooldownDurationForGroupIndex",
      "outputs": [
        {
          "internalType": "uint32",
          "name": "",
          "type": "uint32"
        }
      ],
      "stateMutability": "view",
      "type": "function"
    },
    {
      "inputs": [
        {
          "internalType": "uint256",
          "name": "nullifier",
          "type": "uint256"
        }
      ],
      "name": "getDestinationOfNullifier",
      "outputs": [
        {
          "internalType": "address",
          "name": "",
          "type": "address"
        }
      ],
      "stateMutability": "view",
      "type": "function"
    },
    {
      "inputs": [
        {
          "internalType": "uint256",
          "name": "nullifier",
          "type": "uint256"
        }
      ],
      "name": "getNullifierBurnCount",
      "outputs": [
        {
          "internalType": "uint16",
          "name": "",
          "type": "uint16"
        }
      ],
      "stateMutability": "view",
      "type": "function"
    },
    {
      "inputs": [
        {
          "internalType": "uint256",
          "name": "nullifier",
          "type": "uint256"
        }
      ],
      "name": "getNullifierCooldownStart",
      "outputs": [
        {
          "internalType": "uint32",
          "name": "",
          "type": "uint32"
        }
      ],
      "stateMutability": "view",
      "type": "function"
    },
    {
      "inputs": [
        {
          "internalType": "bytes",
          "name": "extraData",
          "type": "bytes"
        }
      ],
      "name": "getNullifierFromExtraData",
      "outputs": [
        {
          "internalType": "uint256",
          "name": "",
          "type": "uint256"
        }
      ],
      "stateMutability": "pure",
      "type": "function"
    },
    {
      "inputs": [],
      "name": "getVerifier",
      "outputs": [
        {
          "internalType": "contract HydraS1Verifier",
          "name": "",
          "type": "address"
        }
      ],
      "stateMutability": "view",
      "type": "function"
    },
    {
      "inputs": [
        {
          "internalType": "address",
          "name": "ownerAddress",
          "type": "address"
        }
      ],
      "name": "initialize",
      "outputs": [],
      "stateMutability": "nonpayable",
      "type": "function"
    },
    {
      "inputs": [],
      "name": "owner",
      "outputs": [
        {
          "internalType": "address",
          "name": "",
          "type": "address"
        }
      ],
      "stateMutability": "view",
      "type": "function"
    },
    {
      "inputs": [],
      "name": "renounceOwnership",
      "outputs": [],
      "stateMutability": "nonpayable",
      "type": "function"
    },
    {
      "inputs": [
        {
          "internalType": "uint256",
          "name": "groupIndex",
          "type": "uint256"
        },
        {
          "internalType": "uint32",
          "name": "cooldownDuration",
          "type": "uint32"
        }
      ],
      "name": "setCooldownDurationForGroupIndex",
      "outputs": [],
      "stateMutability": "nonpayable",
      "type": "function"
    },
    {
      "inputs": [
        {
          "internalType": "address",
          "name": "newOwner",
          "type": "address"
        }
      ],
      "name": "transferOwnership",
      "outputs": [],
      "stateMutability": "nonpayable",
      "type": "function"
    }
  ],
  "transactionHash": "0xc16c658bba05d0a0dd5b4c84c6b970320f8cbdb716c439b1b4ee84cdd312dba5",
  "args": [
    "0x7c0F3ba8e29ad7e28CA805933d6d43b35983B2b3",
    "0x6F470D565Effa8a2594B0BDB9E63Cd21D58FAC0f",
    "0x3be8DF71fc13312411F0d20d26C08E822fE9cF1f",
    "0x60021A3B6a2bC5b27FeAc52C091f5f672B6b7B53",
    "10000001",
    "20000000",
    "0x0BB71FC09fE28D3c8d74361cdb3D6Ec258Cc5eBD"
  ],
  "numDeployments": 1,
  "solcInputHash": "61c38ae61d36c4e0fe74ede913f00b14",
  "bytecode": "0x6101406040523480156200001257600080fd5b5060405162002b2738038062002b2783398101604081905262000035916200020f565b6001600160a01b0387811660805286811660a05285811660e052841660c0526101008390526101208290526200006b3362000083565b6200007681620000d5565b5050505050505062000292565b601580546001600160a01b038381166001600160a01b0319831681179093556040519116919082907f8be0079c531659141344cd1fd0a4f28419497f9722a3daafe3b4186f6b6457e090600090a35050565b600054600490610100900460ff16158015620000f8575060005460ff8083169116105b620001605760405162461bcd60e51b815260206004820152602e60248201527f496e697469616c697a61626c653a20636f6e747261637420697320616c72656160448201526d191e481a5b9a5d1a585b1a5e995960921b606482015260840160405180910390fd5b6000805461ffff191660ff831617610100178155620001876015546001600160a01b031690565b6001600160a01b031614806200019c5750303b155b15620001ad57620001ad8262000083565b6000805461ff001916905560405160ff821681527f7f26b83ff96e1f2b6a682f133852f6798a09c465da95921460cefb38474024989060200160405180910390a15050565b80516001600160a01b03811681146200020a57600080fd5b919050565b600080600080600080600060e0888a0312156200022b57600080fd5b6200023688620001f2565b96506200024660208901620001f2565b95506200025660408901620001f2565b94506200026660608901620001f2565b93506080880151925060a088015191506200028460c08901620001f2565b905092959891949750929550565b60805160a05160c05160e05161010051610120516127ff620003286000396000818161025e0152610d9201526000818161023701528181610d6a01526117200152600081816102dd01526112fa01526000818161017901526113960152600081816101f901526114f7015260008181610323015281816107820152818161096301528181610ae8015261177901526127ff6000f3fe608060405234801561001057600080fd5b50600436106101425760003560e01c80638b159099116100b8578063c4d66de81161007c578063c4d66de814610347578063c776adde1461035a578063ca1cc6461461036d578063e60f999f14610380578063f2fde38b14610393578063f7e420b3146103a657600080fd5b80638b159099146102a25780638da5cb5b146102ca578063918447af146102db578063af411a3014610301578063bfa665851461032157600080fd5b806346657fe91161010a57806346657fe9146101f7578063524a32481461021d57806354846d7a146102325780637000b05114610259578063715018a614610280578063754b377c1461028857600080fd5b8063063599db146101475780632254f98e14610177578063345dd9891461019d5780633800a4b9146101be5780633c4a9854146101e4575b600080fd5b61015a610155366004611bbf565b6103b9565b6040516001600160a01b0390911681526020015b60405180910390f35b7f000000000000000000000000000000000000000000000000000000000000000061015a565b6101b06101ab366004611ce1565b6103d8565b60405190815260200161016e565b6101d16101cc366004611bbf565b6103f7565b60405161ffff909116815260200161016e565b6101d16101f2366004611ce1565b61040f565b7f000000000000000000000000000000000000000000000000000000000000000061015a565b61023061022b366004611d27565b61042e565b005b6101b07f000000000000000000000000000000000000000000000000000000000000000081565b6101b07f000000000000000000000000000000000000000000000000000000000000000081565b610230610494565b610290600481565b60405160ff909116815260200161016e565b6102b56102b0366004611bbf565b6104a8565b60405163ffffffff909116815260200161016e565b6015546001600160a01b031661015a565b7f000000000000000000000000000000000000000000000000000000000000000061015a565b61031461030f366004611d9f565b6104c2565b60405161016e9190611ec2565b7f000000000000000000000000000000000000000000000000000000000000000061015a565b610230610355366004611f49565b610573565b610314610368366004611f66565b61068b565b6101d161037b366004612017565b610a46565b61031461038e366004611d9f565b610aaa565b6102306103a1366004611f49565b610bc6565b6102b56103b4366004611bbf565b610c3f565b6000818152600160205260408120546001600160a01b03165b92915050565b600080828060200190518101906103ef919061203c565b509392505050565b6000818152603e602052604081205461ffff166103d2565b60008082806020019051810190610426919061203c565b949350505050565b610436610c59565b600082815260296020908152604091829020805463ffffffff191663ffffffff8516908117909155915191825283917f893e2a4c394b497c1a2b041d18acc02d05deb2cc7ae3ea0f85d001aa93dff48b910160405180910390a25050565b61049c610c59565b6104a66000610cb3565b565b60008181526029602052604081205463ffffffff166103d2565b606060006104d1858585610d05565b905060006104df8585610e84565b9050816000815181106104f4576104f4612068565b602002602001015160a00151610528828460008151811061051757610517612068565b602002602001015160200151610a46565b60405160200161053992919061207e565b6040516020818303038152906040528260008151811061055b5761055b612068565b602090810291909101015160a0015250949350505050565b600054600490610100900460ff16158015610595575060005460ff8083169116105b6105fd5760405162461bcd60e51b815260206004820152602e60248201527f496e697469616c697a61626c653a20636f6e747261637420697320616c72656160448201526d191e481a5b9a5d1a585b1a5e995960921b60648201526084015b60405180910390fd5b6000805461ffff191660ff8316176101001781556106236015546001600160a01b031690565b6001600160a01b031614806106375750303b155b156106455761064582610cb3565b6000805461ff001916905560405160ff821681527f7f26b83ff96e1f2b6a682f133852f6798a09c465da95921460cefb3847402498906020015b60405180910390a15050565b60606000856001600160401b038111156106a7576106a7611bd8565b6040519080825280602002602001820160405280156106d0578160200160208202803683370190505b5090506000866001600160401b038111156106ed576106ed611bd8565b604051908082528060200260200182016040528015610716578160200160208202803683370190505b5090506000876001600160401b0381111561073357610733611bd8565b60405190808252806020026020018201604052801561076c57816020015b610759611a9d565b8152602001906001900390816107515790505b50905060005b88811015610940576000806000807f00000000000000000000000000000000000000000000000000000000000000006001600160a01b0316633be1ced78f8f888181106107c1576107c1612068565b905060200201358e6040518363ffffffff1660e01b81526004016107f89291909182526001600160a01b0316602082015260400190565b600060405180830381865afa158015610815573d6000803e3d6000fd5b505050506040513d6000823e601f3d908101601f1916820160405261083d91908101906120a4565b93509350935093508b88868151811061085857610858612068565b60200260200101906001600160a01b031690816001600160a01b0316815250508d8d8681811061088a5761088a612068565b905060200201358786815181106108a3576108a3612068565b6020026020010181815250506040518060c001604052808f8f888181106108cc576108cc612068565b9050602002013581526020018d6001600160a01b03168152602001856001600160a01b031681526020018481526020018363ffffffff1681526020018281525086868151811061091e5761091e612068565b60200260200101819052505050505080806109389061216c565b915050610772565b5061094c818787610ea0565b60405163811a6af760e01b81526001600160a01b037f0000000000000000000000000000000000000000000000000000000000000000169063811a6af79061099a9086908690600401612185565b600060405180830381600087803b1580156109b457600080fd5b505af11580156109c8573d6000803e3d6000fd5b5050505060005b88811015610a39577f01cba57fa881d11e8be5640b6abefb9709f2dd45f776051b2cf5cb8ea23fa56b828281518110610a0a57610a0a612068565b6020026020010151604051610a1f9190612209565b60405180910390a180610a318161216c565b9150506109cf565b5098975050505050505050565b600082815260016020908152604080832054603e9092528220546001600160a01b039091169061ffff168115801590610a915750836001600160a01b0316826001600160a01b031614155b1561042657610aa160018261221c565b95945050505050565b6060610ab7848484610eb9565b6000610ac48585856104c2565b9050610ad1858585610f01565b60405163ebc5c09360e01b81526001600160a01b037f0000000000000000000000000000000000000000000000000000000000000000169063ebc5c09390610b1d908490600401611ec2565b600060405180830381600087803b158015610b3757600080fd5b505af1158015610b4b573d6000803e3d6000fd5b5050505060005b8151811015610bbd577f336e708b72b2b4a27a0c25e8cce7f97512e7f1e8dcaf800b100075e62c1eb1fc828281518110610b8e57610b8e612068565b6020026020010151604051610ba39190612209565b60405180910390a180610bb58161216c565b915050610b52565b50949350505050565b610bce610c59565b6001600160a01b038116610c335760405162461bcd60e51b815260206004820152602660248201527f4f776e61626c653a206e6577206f776e657220697320746865207a65726f206160448201526564647265737360d01b60648201526084016105f4565b610c3c81610cb3565b50565b6000818152603d602052604081205463ffffffff166103d2565b6015546001600160a01b031633146104a65760405162461bcd60e51b815260206004820181905260248201527f4f776e61626c653a2063616c6c6572206973206e6f7420746865206f776e657260448201526064016105f4565b601580546001600160a01b038381166001600160a01b0319831681179093556040519116919082907f8be0079c531659141344cd1fd0a4f28419497f9722a3daafe3b4186f6b6457e090600090a35050565b60606000610d1a610d1586612242565b611057565b60408051600180825281830190925291925060009190816020015b610d3d611a9d565b815260200190600190039081610d35575050606083015151909150600090610d8e906001600160801b03167f000000000000000000000000000000000000000000000000000000000000000061236b565b90507f0000000000000000000000000000000000000000000000000000000000000000811115610dd457604051637bbf29e360e01b8152600481018290526024016105f4565b306000610de18888610e84565b90506040518060c0016040528084815260200186604001516001600160a01b03168152602001836001600160a01b031681526020018660200151815260200186606001516020015163ffffffff16815260200182604051602001610e4791815260200190565b60405160208183030381529060405281525084600081518110610e6c57610e6c612068565b60209081029190910101525091979650505050505050565b600080610e9383850185612439565b90506000610aa1826110dc565b604051630d5cd8d960e11b815260040160405180910390fd5b6000610ec782840184612439565b90506000610ed4826110f2565b90506000610ee4610d1587612242565b9050610ef0818361119c565b610ef9836114cd565b505050505050565b6000610f0d8383610e84565b6000818152600160205260408120549192506001600160a01b0390911690610f37610d1587612242565b90506001600160a01b03821615801590610f67575080604001516001600160a01b0316826001600160a01b031614155b1561103e576060810151516001600160801b031660009081526029602052604081205463ffffffff1690819003610fc35760608201515160405163065ef5f360e01b81526001600160801b0390911660048201526024016105f4565b610fcd848261166a565b15611029576000848152603e602052604081205461ffff16604051630d16862d60e11b8152600481018790526001600160a01b038616602482015261ffff8216604482015263ffffffff841660648201529091506084016105f4565b611033828461169a565b61103c846117e8565b505b610ef9836110526040890160208a01611f49565b61188f565b61105f611aeb565b6000826000015160008151811061107857611078612068565b6020026020010151905061108b816118ee565b600081604001518060200190518101906110a5919061251a565b60408051608081018252845181526020948501518582015295909301516001600160a01b0316928501929092525060608301525090565b602081015160009060065b602002015192915050565b6110fa611b4e565b60405180610120016040528061110f8461192e565b6001600160a01b031681526020016111268461193c565b81526020016111348461194b565b81526020016111428461195a565b8152602001611150846110dc565b815260200161115e84611969565b815260200161116c84611978565b81526020016111848460200151610120015160011490565b1515815260200161119484611987565b905292915050565b815160c0820151146111d157815160c082015160405163fe405c7760e01b8152600481019290925260248201526044016105f4565b81606001516040015115158160e0015115150361121c57606082015160409081015160e08301519151634629f1b560e11b8152901515600482015290151560248201526044016105f4565b81604001516001600160a01b031681600001516001600160a01b03161461127057604082810151825191516370a8d99b60e11b81526001600160a01b039182166004820152911660248201526044016105f4565b468160200151146112a3576020810151604051630432cec160e31b815246600482015260248101919091526044016105f4565b81602001518160a00151146112de57602082015160a0820151604051630626ade360e41b8152600481019290925260248201526044016105f4565b604081810151905163072f23bd60e51b815260048101919091527f00000000000000000000000000000000000000000000000000000000000000006001600160a01b03169063e5e477a090602401602060405180830381865afa158015611349573d6000803e3d6000fd5b505050506040513d601f19601f8201168201806040525081019061136d9190612595565b61139257806040015160405163cbfe7bc360e01b81526004016105f491815260200190565b60007f00000000000000000000000000000000000000000000000000000000000000006001600160a01b03166359a80d0d6040518163ffffffff1660e01b81526004016040805180830381865afa1580156113f1573d6000803e3d6000fd5b505050506040513d601f19601f8201168201806040525081019061141591906125b0565b80516101008401515191925014158061143c57506020808201516101008401519091015114155b15611486578051602080830151610100850151805192015160405163318d812b60e01b815260048101949094526024840191909152604483019190915260648201526084016105f4565b6000611491846119df565b9050808360600151146114c7576060830151604051630e6efbdd60e21b81526105f4918391600401918252602082015260400190565b50505050565b805180516020808301516040938401519185015193516379ddb87b60e11b81526001600160a01b037f0000000000000000000000000000000000000000000000000000000000000000169463f3bb70f6946115309490939290919060040161262c565b602060405180830381865afa925050508015611569575060408051601f3d908101601f1916820190925261156691810190612595565b60015b61163f576115756126b0565b806308c379a0036115ae57506115896126cc565b8061159457506115ed565b8060405162dd577760e81b81526004016105f49190612755565b634e487b71036115ed576115c0612768565b906115cb57506115ed565b60405162dd577760e81b815260206004820152600060248201526044016105f4565b3d808015611617576040519150601f19603f3d011682016040523d82523d6000602084013e61161c565b606091505b5060405162dd577760e81b815260206004820152600060248201526044016105f4565b806116665760405162dd577760e81b815260206004820152600060248201526044016105f4565b5050565b6000828152603d6020526040812054429061168c90849063ffffffff16612788565b63ffffffff16119392505050565b60408051600180825281830190925260009160208083019080368337505060408051600180825281830190925292935060009291506020808301908036833701905050905082826000815181106116f3576116f3612068565b6001600160a01b0390921660209283029190910190910152606084015151611744906001600160801b03167f000000000000000000000000000000000000000000000000000000000000000061236b565b8160008151811061175757611757612068565b602090810291909101015260405163811a6af760e01b81526001600160a01b037f0000000000000000000000000000000000000000000000000000000000000000169063811a6af7906117b09085908590600401612185565b600060405180830381600087803b1580156117ca57600080fd5b505af11580156117de573d6000803e3d6000fd5b5050505050505050565b6000818152603d60209081526040808320805463ffffffff19164263ffffffff16179055603e909152812080546001929061182890849061ffff1661221c565b82546101009290920a61ffff8181021990931691831602179091556000838152603e60209081526040918290205491519190921681528392507f85183f8abad8891335fb845d2e6b4f84a9c7f7409f242f4e5ec138a84abffacf910160405180910390a250565b60008281526001602090815260409182902080546001600160a01b0319166001600160a01b0385169081179091558251858152918201527f0c5a122814a29e22d1363dacdd6f7c95345b70890f97e65eacb5565da28116ac910161067f565b60006118fd8260400151611a04565b825190915081146116665781516040516337e3d1ab60e01b81526105f4918391600401918252602082015260400190565b6020810151600090816110e7565b602081015160009060016110e7565b602081015160009060046110e7565b602081015160009060056110e7565b602081015160009060076110e7565b602081015160009060086110e7565b61198f611ba1565b604051806040016040528083602001516002600a81106119b1576119b1612068565b6020020151815260200183602001516003600a81106119d2576119d2612068565b6020020151905292915050565b6000806119fd308460600151600001516001600160801b0316611a39565b9392505050565b805160208201206000906103d2907f30644e72e131a029b85045b68181585d2833e84879b9709143e1f593f0000001906127a7565b604080516001600160a01b03841660208201529081018290526000907f30644e72e131a029b85045b68181585d2833e84879b9709143e1f593f0000001906060016040516020818303038152906040528051906020012060001c6119fd91906127a7565b6040518060c001604052806000815260200160006001600160a01b0316815260200160006001600160a01b0316815260200160008152602001600063ffffffff168152602001606081525090565b6040518060800160405280600081526020016000815260200160006001600160a01b03168152602001611b49604051806060016040528060006001600160801b03168152602001600063ffffffff1681526020016000151581525090565b905290565b60405180610120016040528060006001600160a01b03168152602001600081526020016000815260200160008152602001600081526020016000815260200160008152602001600015158152602001611b495b60405180604001604052806002906020820280368337509192915050565b600060208284031215611bd157600080fd5b5035919050565b634e487b7160e01b600052604160045260246000fd5b604081018181106001600160401b0382111715611c0d57611c0d611bd8565b60405250565b606081018181106001600160401b0382111715611c0d57611c0d611bd8565b601f8201601f191681016001600160401b0381118282101715611c5757611c57611bd8565b6040525050565b60006001600160401b03821115611c7757611c77611bd8565b50601f01601f191660200190565b600082601f830112611c9657600080fd5b8135611ca181611c5e565b604051611cae8282611c32565b828152856020848701011115611cc357600080fd5b82602086016020830137600092810160200192909252509392505050565b600060208284031215611cf357600080fd5b81356001600160401b03811115611d0957600080fd5b61042684828501611c85565b63ffffffff81168114610c3c57600080fd5b60008060408385031215611d3a57600080fd5b823591506020830135611d4c81611d15565b809150509250929050565b60008083601f840112611d6957600080fd5b5081356001600160401b03811115611d8057600080fd5b602083019150836020828501011115611d9857600080fd5b9250929050565b600080600060408486031215611db457600080fd5b83356001600160401b0380821115611dcb57600080fd5b9085019060408288031215611ddf57600080fd5b90935060208501359080821115611df557600080fd5b50611e0286828701611d57565b9497909650939450505050565b60005b83811015611e2a578181015183820152602001611e12565b838111156114c75750506000910152565b60008151808452611e53816020860160208601611e0f565b601f01601f19169290920160200192915050565b805182526000602082015160018060a01b03808216602086015280604085015116604086015250506060820151606084015263ffffffff608083015116608084015260a082015160c060a085015261042660c0850182611e3b565b6000602080830181845280855180835260408601915060408160051b870101925083870160005b82811015611f1757603f19888603018452611f05858351611e67565b94509285019290850190600101611ee9565b5092979650505050505050565b6001600160a01b0381168114610c3c57600080fd5b8035611f4481611f24565b919050565b600060208284031215611f5b57600080fd5b81356119fd81611f24565b600080600080600060608688031215611f7e57600080fd5b85356001600160401b0380821115611f9557600080fd5b818801915088601f830112611fa957600080fd5b813581811115611fb857600080fd5b8960208260051b8501011115611fcd57600080fd5b60208301975080965050611fe360208901611f39565b94506040880135915080821115611ff957600080fd5b5061200688828901611d57565b969995985093965092949392505050565b6000806040838503121561202a57600080fd5b823591506020830135611d4c81611f24565b6000806040838503121561204f57600080fd5b82519150602083015161ffff81168114611d4c57600080fd5b634e487b7160e01b600052603260045260246000fd5b6040815260006120916040830185611e3b565b905061ffff831660208301529392505050565b600080600080608085870312156120ba57600080fd5b84516120c581611f24565b6020860151604087015191955093506120dd81611d15565b60608601519092506001600160401b038111156120f957600080fd5b8501601f8101871361210a57600080fd5b805161211581611c5e565b6040516121228282611c32565b82815289602084860101111561213757600080fd5b612148836020830160208701611e0f565b969995985093965050505050565b634e487b7160e01b600052601160045260246000fd5b60006001820161217e5761217e612156565b5060010190565b604080825283519082018190526000906020906060840190828701845b828110156121c75781516001600160a01b0316845292840192908401906001016121a2565b5050508381038285015284518082528583019183019060005b818110156121fc578351835292840192918401916001016121e0565b5090979650505050505050565b6020815260006119fd6020830184611e67565b600061ffff80831681851680830382111561223957612239612156565b01949350505050565b6000604080833603121561225557600080fd5b805161226081611bee565b83356001600160401b038082111561227757600080fd5b9085019036601f83011261228a57600080fd5b813560208282111561229e5761229e611bd8565b8160051b86516122b083830182611c32565b928352848101820192828101368511156122c957600080fd5b83870192505b8483101561234d578235868111156122e75760008081fd5b8701606036829003601f19018113156123005760008081fd5b8a5161230b81611c13565b8287013581528b8301358188015290820135908882111561232c5760008081fd5b61233a368884860101611c85565b818d0152835250509183019183016122cf565b5086525061235c888201611f39565b90850152509195945050505050565b6000821982111561237e5761237e612156565b500190565b600082601f83011261239457600080fd5b6040516123a081611bee565b8060408401858111156123b257600080fd5b845b818110156123cc5780358352602092830192016123b4565b509195945050505050565b600082601f8301126123e857600080fd5b6040516101408082018281106001600160401b038211171561240c5761240c611bd8565b6040528301818582111561241f57600080fd5b845b828110156123cc578035825260209182019101612421565b600081830361024081121561244d57600080fd5b6040805161245a81611bee565b6101008084121561246a57600080fd5b8251935061247784611c13565b6124818787612383565b845286605f87011261249257600080fd5b825161249d81611bee565b8060c08801898111156124af57600080fd5b8589015b818110156124d4576124c58b82612383565b835260209092019186016124b3565b508260208801526124e58a82612383565b868801525050508382526124fb878288016123d7565b60208301525095945050505050565b80518015158114611f4457600080fd5b60006060828403121561252c57600080fd5b604051606081018181106001600160401b038211171561254e5761254e611bd8565b60405282516001600160801b038116811461256857600080fd5b8152602083015161257881611d15565b60208201526125896040840161250a565b60408201529392505050565b6000602082840312156125a757600080fd5b6119fd8261250a565b6000604082840312156125c257600080fd5b82601f8301126125d157600080fd5b6040516125dd81611bee565b8060408401858111156125ef57600080fd5b845b818110156123cc5780518352602092830192016125f1565b8060005b60028110156114c757815184526020938401939091019060010161260d565b610240810161263b8287612609565b60408083018660005b600281101561266b57612658838351612609565b9183019160209190910190600101612644565b5050505061267c60c0830185612609565b61010082018360005b600a8110156126a4578151835260209283019290910190600101612685565b50505095945050505050565b600060033d11156126c95760046000803e5060005160e01c5b90565b600060443d10156126da5790565b6040516003193d81016004833e81513d6001600160401b03816024840111818411171561270957505050505090565b82850191508151818111156127215750505050505090565b843d870101602082850101111561273b5750505050505090565b61274a60208286010187611c32565b509095945050505050565b6020815260006119fd6020830184611e3b565b60008060233d1115612784576020600460003e50506000516001905b9091565b600063ffffffff80831681851680830382111561223957612239612156565b6000826127c457634e487b7160e01b600052601260045260246000fd5b50069056fea2646970667358221220202a9a70b259c56940b27ba667618cafc46cd9a9f1eb7ea03e8803b68fee4b3964736f6c634300080e0033",
  "devdoc": {
    "author": "Sismo",
    "errors": {
      "CollectionIdOutOfBound(uint256)": [
        {
          "details": "Error when the collectionId of an attestation overflow the AUTHORIZED_COLLECTION_ID_LAST*"
        }
      ],
      "CooldownDurationNotSetForGroupIndex(uint256)": [
        {
          "details": "Error when the cooldown duration for a given groupIndex is equal to zero. The HydraS1AccountboundAttester behaves like the HydraS1SimpleAttester.*"
        }
      ],
      "NullifierOnCooldown(uint256,address,uint16,uint32)": [
        {
          "details": "Error when the nullifier is on cooldown. The user have to wait the cooldownDuration before being able to change again the destination address.*"
        }
      ],
      "NullifierUsed(uint256)": [
        {
          "details": "Error when the nullifier is already used for a destination address*"
        }
      ]
    },
    "kind": "dev",
    "methods": {
      "_getNextBurnCount(uint256,address)": {
        "details": "returns burn count or burn count + 1 if new burn will happen",
        "params": {
          "claimDestination": "destination referenced in the user claim",
          "nullifier": "user nullifier"
        }
      },
      "buildAttestations(((uint256,uint256,bytes)[],address),bytes)": {
        "details": "Returns the actual attestations constructed from the user request",
        "params": {
          "proofData": "snark public input as well as snark proof",
          "request": "users request. Claim of having an account part of a group of accounts"
        }
      },
      "constructor": {
        "details": "Constructor. Initializes the contract",
        "params": {
          "attestationsRegistryAddress": "Attestations Registry contract on which the attester will write attestations",
          "availableRootsRegistryAddress": "Registry storing the available groups for this attester (e.g roots of registry merkle trees)",
          "collectionIdFirst": "Id of the first attestation collection in which the attester is supposed to record",
          "collectionIdLast": "Id of the last attestation collection in which the attester is supposed to record",
          "commitmentMapperAddress": "commitment mapper's public key registry",
          "hydraS1VerifierAddress": "ZK Snark Hydra-S1 Verifier contract",
          "owner": "Address of attester's owner"
        }
      },
      "deleteAttestations(uint256[],address,bytes)": {
        "details": "External facing function. Allows to delete attestations by submitting proof",
        "params": {
          "attestationsOwner": "Owner of attestations to delete",
          "collectionIds": "Collection identifier of attestations to delete",
          "proofData": "Data sent along the deletion request to prove its validity"
        },
        "returns": {
          "_0": "attestations Attestations that were deleted"
        }
      },
      "generateAttestations(((uint256,uint256,bytes)[],address),bytes)": {
        "details": "Main external function. Allows to generate attestations by making a request and submitting proof",
        "params": {
          "proofData": "Data sent along the request to prove its validity",
          "request": "User request"
        },
        "returns": {
          "_0": "attestations Attestations that has been recorded"
        }
      },
      "getAttestationRegistry()": {
        "details": "Attestation registry getter",
        "returns": {
          "_0": "attestationRegistry"
        }
      },
      "getAvailableRootsRegistry()": {
        "details": "Getter of Roots Registry Contract"
      },
      "getBurnCountFromExtraData(bytes)": {
        "details": "Returns the burn count for a given extraData",
        "params": {
          "extraData": "bytes where the burnCount is encoded"
        }
      },
      "getCommitmentMapperRegistry()": {
        "details": "Getter of Commitment Mapper Registry contract"
      },
      "getCooldownDurationForGroupIndex(uint256)": {
        "details": "Getter, get the cooldown duration of a groupIndex",
        "params": {
          "groupIndex": "internal collection id*"
        }
      },
      "getDestinationOfNullifier(uint256)": {
        "details": "Getter, returns the last attestation destination of a nullifier",
        "params": {
          "nullifier": "nullifier used*"
        }
      },
      "getNullifierBurnCount(uint256)": {
        "details": "Getter, returns the burnCount of a nullifier",
        "params": {
          "nullifier": "nullifier used*"
        }
      },
      "getNullifierCooldownStart(uint256)": {
        "details": "Getter, returns the cooldown start of a nullifier",
        "params": {
          "nullifier": "nullifier used*"
        }
      },
      "getNullifierFromExtraData(bytes)": {
        "details": "returns the nullifier for a given extraData",
        "params": {
          "extraData": "bytes where the nullifier is encoded"
        }
      },
      "getVerifier()": {
        "details": "Getter of Hydra-S1 Verifier contract"
      },
      "initialize(address)": {
        "details": "Initialize function, to be called by the proxy delegating calls to this implementation",
        "params": {
          "ownerAddress": "Owner of the contract, has the right to authorize/unauthorize attestations issuers"
        }
      },
      "owner()": {
        "details": "Returns the address of the current owner."
      },
      "renounceOwnership()": {
        "details": "Leaves the contract without owner. It will not be possible to call `onlyOwner` functions anymore. Can only be called by the current owner. NOTE: Renouncing ownership will leave the contract without an owner, thereby removing any functionality that is only available to the owner."
      },
      "setCooldownDurationForGroupIndex(uint256,uint32)": {
        "details": "Setter, sets the cooldown duration of a groupIndex",
        "params": {
          "cooldownDuration": "cooldown duration we want to set for the groupIndex*",
          "groupIndex": "internal collection id"
        }
      },
      "transferOwnership(address)": {
        "details": "Transfers ownership of the contract to a new account (`newOwner`). Can only be called by the current owner."
      }
    },
    "title": "Hydra-S1 Accountbound Attester",
    "version": 1
  },
  "userdoc": {
    "kind": "user",
    "methods": {
      "getCooldownDurationForGroupIndex(uint256)": {
        "notice": "returns 0 when the accountbound feature is deactivated for this group"
      },
      "initialize(address)": {
        "notice": "The reinitializer modifier is needed to configure modules that are added through upgrades and that require initialization."
      },
      "setCooldownDurationForGroupIndex(uint256,uint32)": {
        "notice": "set to 0 to deactivate the accountbound feature for this group"
      }
    },
    "notice": "This attester is part of the family of the Hydra-S1 Attesters. Hydra-S1 attesters enable users to prove they have an account in a group in a privacy preserving way. The Hydra-S1 Simple Attester contract is inherited and holds the complex Hydra S1 verification logic. Request verification alongside proof verification is already implemented in the inherited HydraS1SimpleAttester, along with the buildAttestations logic. However, we override the buildAttestations function to encode the nullifier and its burn count in the user attestation. The _beforeRecordAttestations is also overriden to fit the Accountbound logic. We invite readers to refer to:    - https://hydra-s1.docs.sismo.io for a full guide through the Hydra-S1 ZK Attestations    - https://hydra-s1-circuits.docs.sismo.io for circuits, prover and verifiers of Hydra-S1 This specific attester has the following characteristics: - Zero Knowledge   One cannot deduct from an attestation what source account was used to generate the underlying proof - Non Strict (scores)   If a user can generate an attestation of max value 100, they can also generate any attestation with value < 100.   This attester generate attestations of scores - Nullified   Each source account gets one nullifier per claim (i.e only one attestation per source account per claim)   While semaphore/ tornado cash are using the following notations: nullifierHash = hash(IdNullifier, externalNullifier)   We prefered to use the naming 'nullifier' instead of 'nullifierHash' in our contracts and documentation.   We also renamed 'IdNullifier' in 'sourceSecret' (the secret tied to a source account) and we kept the 'externalNullifier' notation.   Finally, here is our notations at Sismo: nullifier = hash(sourceSecret, externalNullifier) - Accountbound (opt-in, with cooldown period)   The owner of this attester can set a cooldown duration for a specific group, activating the accountbound feature for this group.   Users can update their attestation's destination by providing a new Hydra-S1 ZK proof    It means the attestation is bound to the source account, stored on an updatable destination account.   When deleting/ sending to a new destination, the nullifier will enter a cooldown period, so it remains occasional.   A group that has its cooldown duration set to 0 means it has been configured to not feature accountbound attestations, attestations can not be transferred   One can however know that the former and the new destinations were created using the same nullifier, thus creating a link between those two destinations. - Renewable   A nullifier can actually be reused as long as the destination of the attestation remains the same   It enables users to renew or update their attestations*",
    "version": 1
  },
  "storageLayout": {
    "storage": [
      {
        "astId": 935,
        "contract": "contracts/attesters/hydra-s1/HydraS1AccountboundAttester.sol:HydraS1AccountboundAttester",
        "label": "_initialized",
        "offset": 0,
        "slot": "0",
        "type": "t_uint8"
      },
      {
        "astId": 938,
        "contract": "contracts/attesters/hydra-s1/HydraS1AccountboundAttester.sol:HydraS1AccountboundAttester",
        "label": "_initializing",
        "offset": 1,
        "slot": "0",
        "type": "t_bool"
      },
      {
        "astId": 8093,
        "contract": "contracts/attesters/hydra-s1/HydraS1AccountboundAttester.sol:HydraS1AccountboundAttester",
        "label": "_nullifiersDestinations",
        "offset": 0,
        "slot": "1",
        "type": "t_mapping(t_uint256,t_address)"
      },
      {
        "astId": 8097,
        "contract": "contracts/attesters/hydra-s1/HydraS1AccountboundAttester.sol:HydraS1AccountboundAttester",
        "label": "_placeHoldersHydraS1Simple",
        "offset": 0,
        "slot": "2",
        "type": "t_array(t_uint256)19_storage"
      },
      {
        "astId": 396,
        "contract": "contracts/attesters/hydra-s1/HydraS1AccountboundAttester.sol:HydraS1AccountboundAttester",
        "label": "_owner",
        "offset": 0,
        "slot": "21",
        "type": "t_address"
      },
      {
        "astId": 7520,
        "contract": "contracts/attesters/hydra-s1/HydraS1AccountboundAttester.sol:HydraS1AccountboundAttester",
        "label": "_placeHolderBeforeHydraS1Accountbound",
        "offset": 0,
        "slot": "22",
        "type": "t_array(t_uint256)19_storage"
      },
      {
        "astId": 7524,
        "contract": "contracts/attesters/hydra-s1/HydraS1AccountboundAttester.sol:HydraS1AccountboundAttester",
        "label": "_cooldownDurations",
        "offset": 0,
        "slot": "41",
        "type": "t_mapping(t_uint256,t_uint32)"
      },
      {
        "astId": 7528,
        "contract": "contracts/attesters/hydra-s1/HydraS1AccountboundAttester.sol:HydraS1AccountboundAttester",
        "label": "_placeHoldersHydraS1AccountboundConfig",
        "offset": 0,
        "slot": "42",
        "type": "t_array(t_uint256)19_storage"
      },
      {
        "astId": 7532,
        "contract": "contracts/attesters/hydra-s1/HydraS1AccountboundAttester.sol:HydraS1AccountboundAttester",
        "label": "_nullifiersCooldownStart",
        "offset": 0,
        "slot": "61",
        "type": "t_mapping(t_uint256,t_uint32)"
      },
      {
        "astId": 7536,
        "contract": "contracts/attesters/hydra-s1/HydraS1AccountboundAttester.sol:HydraS1AccountboundAttester",
        "label": "_nullifiersBurnCount",
        "offset": 0,
        "slot": "62",
        "type": "t_mapping(t_uint256,t_uint16)"
      },
      {
        "astId": 7540,
        "contract": "contracts/attesters/hydra-s1/HydraS1AccountboundAttester.sol:HydraS1AccountboundAttester",
        "label": "_placeHoldersHydraS1AccountboundLogic",
        "offset": 0,
        "slot": "63",
        "type": "t_array(t_uint256)18_storage"
      }
    ],
    "types": {
      "t_address": {
        "encoding": "inplace",
        "label": "address",
        "numberOfBytes": "20"
      },
      "t_array(t_uint256)18_storage": {
        "base": "t_uint256",
        "encoding": "inplace",
        "label": "uint256[18]",
        "numberOfBytes": "576"
      },
      "t_array(t_uint256)19_storage": {
        "base": "t_uint256",
        "encoding": "inplace",
        "label": "uint256[19]",
        "numberOfBytes": "608"
      },
      "t_bool": {
        "encoding": "inplace",
        "label": "bool",
        "numberOfBytes": "1"
      },
      "t_mapping(t_uint256,t_address)": {
        "encoding": "mapping",
        "key": "t_uint256",
        "label": "mapping(uint256 => address)",
        "numberOfBytes": "32",
        "value": "t_address"
      },
      "t_mapping(t_uint256,t_uint16)": {
        "encoding": "mapping",
        "key": "t_uint256",
        "label": "mapping(uint256 => uint16)",
        "numberOfBytes": "32",
        "value": "t_uint16"
      },
      "t_mapping(t_uint256,t_uint32)": {
        "encoding": "mapping",
        "key": "t_uint256",
        "label": "mapping(uint256 => uint32)",
        "numberOfBytes": "32",
        "value": "t_uint32"
      },
      "t_uint16": {
        "encoding": "inplace",
        "label": "uint16",
        "numberOfBytes": "2"
      },
      "t_uint256": {
        "encoding": "inplace",
        "label": "uint256",
        "numberOfBytes": "32"
      },
      "t_uint32": {
        "encoding": "inplace",
        "label": "uint32",
        "numberOfBytes": "4"
      },
      "t_uint8": {
        "encoding": "inplace",
        "label": "uint8",
        "numberOfBytes": "1"
      }
    }
  }
}