{
  "address": "0xB41FfA612cF372D82d3b23664107418bc8C12685",
  "abi": [
    {
      "inputs": [
        {
          "internalType": "string",
          "name": "name",
          "type": "string"
        },
        {
          "internalType": "string",
          "name": "symbol",
          "type": "string"
        },
        {
          "internalType": "string",
          "name": "baseTokenURI",
          "type": "string"
        },
        {
          "internalType": "uint256",
          "name": "gatingBadgeTokenId",
          "type": "uint256"
        },
        {
          "internalType": "address",
          "name": "admin",
          "type": "address"
        }
      ],
      "stateMutability": "nonpayable",
      "type": "constructor"
    },
    {
      "inputs": [
        {
          "internalType": "address",
          "name": "badgeDestination",
          "type": "address"
        },
        {
          "internalType": "address",
          "name": "nftDestination",
          "type": "address"
        }
      ],
      "name": "BadgeDestinationAndSBTDestinationNotEqual",
      "type": "error"
    },
    {
      "inputs": [
        {
          "internalType": "uint256",
          "name": "badgeNullifier",
          "type": "uint256"
        },
        {
          "internalType": "uint256",
          "name": "tokenId",
          "type": "uint256"
        }
      ],
      "name": "BadgeNullifierNotEqualToTokenId",
      "type": "error"
    },
    {
      "inputs": [],
      "name": "BadgeNullifierZeroNotAllowed",
      "type": "error"
    },
    {
      "inputs": [
        {
          "internalType": "address",
          "name": "owner",
          "type": "address"
        },
        {
          "internalType": "uint256",
          "name": "balance",
          "type": "uint256"
        }
      ],
      "name": "ERC721AlreadyOwned",
      "type": "error"
    },
    {
      "inputs": [],
      "name": "InvalidArgumentsLength",
      "type": "error"
    },
    {
      "inputs": [],
      "name": "NoTokenTransferWhilePaused",
      "type": "error"
    },
    {
      "inputs": [
        {
          "internalType": "uint256",
          "name": "badgeTokenId",
          "type": "uint256"
        },
        {
          "internalType": "uint256",
          "name": "minBalance",
          "type": "uint256"
        }
      ],
      "name": "UserDoesNotMeetAllRequirements",
      "type": "error"
    },
    {
      "inputs": [],
      "name": "UserDoesNotMeetRequirements",
      "type": "error"
    },
    {
      "inputs": [],
      "name": "WrongBalanceRequirementType",
      "type": "error"
    },
    {
      "anonymous": false,
      "inputs": [
        {
          "indexed": true,
          "internalType": "address",
          "name": "owner",
          "type": "address"
        },
        {
          "indexed": true,
          "internalType": "address",
          "name": "approved",
          "type": "address"
        },
        {
          "indexed": true,
          "internalType": "uint256",
          "name": "tokenId",
          "type": "uint256"
        }
      ],
      "name": "Approval",
      "type": "event"
    },
    {
      "anonymous": false,
      "inputs": [
        {
          "indexed": true,
          "internalType": "address",
          "name": "owner",
          "type": "address"
        },
        {
          "indexed": true,
          "internalType": "address",
          "name": "operator",
          "type": "address"
        },
        {
          "indexed": false,
          "internalType": "bool",
          "name": "approved",
          "type": "bool"
        }
      ],
      "name": "ApprovalForAll",
      "type": "event"
    },
    {
      "anonymous": false,
      "inputs": [
        {
          "indexed": false,
          "internalType": "string",
          "name": "baseTokenURI",
          "type": "string"
        }
      ],
      "name": "BaseTokenUriChanged",
      "type": "event"
    },
    {
      "anonymous": false,
      "inputs": [
        {
          "indexed": false,
          "internalType": "uint8",
          "name": "version",
          "type": "uint8"
        }
      ],
      "name": "Initialized",
      "type": "event"
    },
    {
      "anonymous": false,
      "inputs": [
        {
          "indexed": false,
          "internalType": "address",
          "name": "account",
          "type": "address"
        }
      ],
      "name": "Paused",
      "type": "event"
    },
    {
      "anonymous": false,
      "inputs": [
        {
          "indexed": true,
          "internalType": "bytes32",
          "name": "role",
          "type": "bytes32"
        },
        {
          "indexed": true,
          "internalType": "bytes32",
          "name": "previousAdminRole",
          "type": "bytes32"
        },
        {
          "indexed": true,
          "internalType": "bytes32",
          "name": "newAdminRole",
          "type": "bytes32"
        }
      ],
      "name": "RoleAdminChanged",
      "type": "event"
    },
    {
      "anonymous": false,
      "inputs": [
        {
          "indexed": true,
          "internalType": "bytes32",
          "name": "role",
          "type": "bytes32"
        },
        {
          "indexed": true,
          "internalType": "address",
          "name": "account",
          "type": "address"
        },
        {
          "indexed": true,
          "internalType": "address",
          "name": "sender",
          "type": "address"
        }
      ],
      "name": "RoleGranted",
      "type": "event"
    },
    {
      "anonymous": false,
      "inputs": [
        {
          "indexed": true,
          "internalType": "bytes32",
          "name": "role",
          "type": "bytes32"
        },
        {
          "indexed": true,
          "internalType": "address",
          "name": "account",
          "type": "address"
        },
        {
          "indexed": true,
          "internalType": "address",
          "name": "sender",
          "type": "address"
        }
      ],
      "name": "RoleRevoked",
      "type": "event"
    },
    {
      "anonymous": false,
      "inputs": [
        {
          "indexed": true,
          "internalType": "address",
          "name": "from",
          "type": "address"
        },
        {
          "indexed": true,
          "internalType": "address",
          "name": "to",
          "type": "address"
        },
        {
          "indexed": true,
          "internalType": "uint256",
          "name": "tokenId",
          "type": "uint256"
        }
      ],
      "name": "Transfer",
      "type": "event"
    },
    {
      "anonymous": false,
      "inputs": [
        {
          "indexed": false,
          "internalType": "address",
          "name": "account",
          "type": "address"
        }
      ],
      "name": "Unpaused",
      "type": "event"
    },
    {
      "inputs": [],
      "name": "ADDRESSES_PROVIDER",
      "outputs": [
        {
          "internalType": "contract AddressesProvider",
          "name": "",
          "type": "address"
        }
      ],
      "stateMutability": "view",
      "type": "function"
    },
    {
      "inputs": [],
      "name": "BADGES",
      "outputs": [
        {
          "internalType": "contract Badges",
          "name": "",
          "type": "address"
        }
      ],
      "stateMutability": "view",
      "type": "function"
    },
    {
      "inputs": [],
      "name": "DEFAULT_ADMIN_ROLE",
      "outputs": [
        {
          "internalType": "bytes32",
          "name": "",
          "type": "bytes32"
        }
      ],
      "stateMutability": "view",
      "type": "function"
    },
    {
      "inputs": [],
      "name": "GATING_BADGE_TOKEN_ID",
      "outputs": [
        {
          "internalType": "uint256",
          "name": "",
          "type": "uint256"
        }
      ],
      "stateMutability": "view",
      "type": "function"
    },
    {
      "inputs": [],
      "name": "HYDRA_S1_ACCOUNTBOUND_ATTESTER",
      "outputs": [
        {
          "internalType": "contract HydraS1AccountboundAttester",
          "name": "",
          "type": "address"
        }
      ],
      "stateMutability": "view",
      "type": "function"
    },
    {
      "inputs": [],
      "name": "SISMO_LIB_VERSION",
      "outputs": [
        {
          "internalType": "uint256",
          "name": "",
          "type": "uint256"
        }
      ],
      "stateMutability": "view",
      "type": "function"
    },
    {
      "inputs": [
        {
          "components": [
            {
              "components": [
                {
                  "internalType": "uint256",
                  "name": "groupId",
                  "type": "uint256"
                },
                {
                  "internalType": "uint256",
                  "name": "claimedValue",
                  "type": "uint256"
                },
                {
                  "internalType": "bytes",
                  "name": "extraData",
                  "type": "bytes"
                }
              ],
              "internalType": "struct Claim[]",
              "name": "claims",
              "type": "tuple[]"
            },
            {
              "internalType": "address",
              "name": "destination",
              "type": "address"
            }
          ],
          "internalType": "struct Request",
          "name": "request",
          "type": "tuple"
        },
        {
          "internalType": "bytes",
          "name": "sismoProof",
          "type": "bytes"
        },
        {
          "internalType": "address",
          "name": "attester",
          "type": "address"
        }
      ],
      "name": "_mintSismoBadge",
      "outputs": [
        {
          "internalType": "address",
          "name": "",
          "type": "address"
        },
        {
          "internalType": "uint256",
          "name": "",
          "type": "uint256"
        },
        {
          "internalType": "uint256",
          "name": "",
          "type": "uint256"
        }
      ],
      "stateMutability": "nonpayable",
      "type": "function"
    },
    {
      "inputs": [
        {
          "components": [
            {
              "components": [
                {
                  "internalType": "uint256",
                  "name": "groupId",
                  "type": "uint256"
                },
                {
                  "internalType": "uint256",
                  "name": "claimedValue",
                  "type": "uint256"
                },
                {
                  "internalType": "bytes",
                  "name": "extraData",
                  "type": "bytes"
                }
              ],
              "internalType": "struct Claim[]",
              "name": "claims",
              "type": "tuple[]"
            },
            {
              "internalType": "address",
              "name": "destination",
              "type": "address"
            }
          ],
          "internalType": "struct Request",
          "name": "request",
          "type": "tuple"
        },
        {
          "internalType": "bytes",
          "name": "sismoProof",
          "type": "bytes"
        },
        {
          "internalType": "address",
          "name": "attester",
          "type": "address"
        }
      ],
      "name": "_mintSismoBadges",
      "outputs": [
        {
          "internalType": "address",
          "name": "",
          "type": "address"
        },
        {
          "internalType": "uint256[]",
          "name": "",
          "type": "uint256[]"
        },
        {
          "internalType": "uint256[]",
          "name": "",
          "type": "uint256[]"
        }
      ],
      "stateMutability": "nonpayable",
      "type": "function"
    },
    {
      "inputs": [
        {
          "internalType": "address",
          "name": "to",
          "type": "address"
        },
        {
          "internalType": "uint256",
          "name": "tokenId",
          "type": "uint256"
        }
      ],
      "name": "approve",
      "outputs": [],
      "stateMutability": "nonpayable",
      "type": "function"
    },
    {
      "inputs": [
        {
          "internalType": "address",
          "name": "owner",
          "type": "address"
        }
      ],
      "name": "balanceOf",
      "outputs": [
        {
          "internalType": "uint256",
          "name": "",
          "type": "uint256"
        }
      ],
      "stateMutability": "view",
      "type": "function"
    },
    {
      "inputs": [],
      "name": "claim",
      "outputs": [],
      "stateMutability": "nonpayable",
      "type": "function"
    },
    {
      "inputs": [
        {
          "internalType": "address",
          "name": "to",
          "type": "address"
        }
      ],
      "name": "claimTo",
      "outputs": [],
      "stateMutability": "nonpayable",
      "type": "function"
    },
    {
      "inputs": [
        {
          "components": [
            {
              "components": [
                {
                  "internalType": "uint256",
                  "name": "groupId",
                  "type": "uint256"
                },
                {
                  "internalType": "uint256",
                  "name": "claimedValue",
                  "type": "uint256"
                },
                {
                  "internalType": "bytes",
                  "name": "extraData",
                  "type": "bytes"
                }
              ],
              "internalType": "struct Claim[]",
              "name": "claims",
              "type": "tuple[]"
            },
            {
              "internalType": "address",
              "name": "destination",
              "type": "address"
            }
          ],
          "internalType": "struct Request",
          "name": "request",
          "type": "tuple"
        },
        {
          "internalType": "bytes",
          "name": "sismoProof",
          "type": "bytes"
        }
      ],
      "name": "claimWithSismo",
      "outputs": [],
      "stateMutability": "nonpayable",
      "type": "function"
    },
    {
      "inputs": [
        {
          "internalType": "uint256",
          "name": "tokenId",
          "type": "uint256"
        }
      ],
      "name": "getApproved",
      "outputs": [
        {
          "internalType": "address",
          "name": "",
          "type": "address"
        }
      ],
      "stateMutability": "view",
      "type": "function"
    },
    {
      "inputs": [
        {
          "internalType": "bytes32",
          "name": "role",
          "type": "bytes32"
        }
      ],
      "name": "getRoleAdmin",
      "outputs": [
        {
          "internalType": "bytes32",
          "name": "",
          "type": "bytes32"
        }
      ],
      "stateMutability": "view",
      "type": "function"
    },
    {
      "inputs": [
        {
          "internalType": "bytes32",
          "name": "role",
          "type": "bytes32"
        },
        {
          "internalType": "address",
          "name": "account",
          "type": "address"
        }
      ],
      "name": "grantRole",
      "outputs": [],
      "stateMutability": "nonpayable",
      "type": "function"
    },
    {
      "inputs": [
        {
          "internalType": "bytes32",
          "name": "role",
          "type": "bytes32"
        },
        {
          "internalType": "address",
          "name": "account",
          "type": "address"
        }
      ],
      "name": "hasRole",
      "outputs": [
        {
          "internalType": "bool",
          "name": "",
          "type": "bool"
        }
      ],
      "stateMutability": "view",
      "type": "function"
    },
    {
      "inputs": [
        {
          "internalType": "string",
          "name": "name",
          "type": "string"
        },
        {
          "internalType": "string",
          "name": "symbol",
          "type": "string"
        },
        {
          "internalType": "string",
          "name": "baseTokenURI",
          "type": "string"
        },
        {
          "internalType": "address",
          "name": "admin",
          "type": "address"
        }
      ],
      "name": "initialize",
      "outputs": [],
      "stateMutability": "nonpayable",
      "type": "function"
    },
    {
      "inputs": [
        {
          "internalType": "address",
          "name": "owner",
          "type": "address"
        },
        {
          "internalType": "address",
          "name": "operator",
          "type": "address"
        }
      ],
      "name": "isApprovedForAll",
      "outputs": [
        {
          "internalType": "bool",
          "name": "",
          "type": "bool"
        }
      ],
      "stateMutability": "view",
      "type": "function"
    },
    {
      "inputs": [],
      "name": "name",
      "outputs": [
        {
          "internalType": "string",
          "name": "",
          "type": "string"
        }
      ],
      "stateMutability": "view",
      "type": "function"
    },
    {
      "inputs": [
        {
          "internalType": "uint256",
          "name": "tokenId",
          "type": "uint256"
        }
      ],
      "name": "ownerOf",
      "outputs": [
        {
          "internalType": "address",
          "name": "",
          "type": "address"
        }
      ],
      "stateMutability": "view",
      "type": "function"
    },
    {
      "inputs": [],
      "name": "pause",
      "outputs": [],
      "stateMutability": "nonpayable",
      "type": "function"
    },
    {
      "inputs": [],
      "name": "paused",
      "outputs": [
        {
          "internalType": "bool",
          "name": "",
          "type": "bool"
        }
      ],
      "stateMutability": "view",
      "type": "function"
    },
    {
      "inputs": [
        {
          "internalType": "bytes32",
          "name": "role",
          "type": "bytes32"
        },
        {
          "internalType": "address",
          "name": "account",
          "type": "address"
        }
      ],
      "name": "renounceRole",
      "outputs": [],
      "stateMutability": "nonpayable",
      "type": "function"
    },
    {
      "inputs": [
        {
          "internalType": "bytes32",
          "name": "role",
          "type": "bytes32"
        },
        {
          "internalType": "address",
          "name": "account",
          "type": "address"
        }
      ],
      "name": "revokeRole",
      "outputs": [],
      "stateMutability": "nonpayable",
      "type": "function"
    },
    {
      "inputs": [
        {
          "internalType": "address",
          "name": "from",
          "type": "address"
        },
        {
          "internalType": "address",
          "name": "to",
          "type": "address"
        },
        {
          "internalType": "uint256",
          "name": "tokenId",
          "type": "uint256"
        }
      ],
      "name": "safeTransferFrom",
      "outputs": [],
      "stateMutability": "nonpayable",
      "type": "function"
    },
    {
      "inputs": [
        {
          "internalType": "address",
          "name": "from",
          "type": "address"
        },
        {
          "internalType": "address",
          "name": "to",
          "type": "address"
        },
        {
          "internalType": "uint256",
          "name": "tokenId",
          "type": "uint256"
        },
        {
          "internalType": "bytes",
          "name": "data",
          "type": "bytes"
        }
      ],
      "name": "safeTransferFrom",
      "outputs": [],
      "stateMutability": "nonpayable",
      "type": "function"
    },
    {
      "inputs": [
        {
          "internalType": "address",
          "name": "operator",
          "type": "address"
        },
        {
          "internalType": "bool",
          "name": "approved",
          "type": "bool"
        }
      ],
      "name": "setApprovalForAll",
      "outputs": [],
      "stateMutability": "nonpayable",
      "type": "function"
    },
    {
      "inputs": [
        {
          "internalType": "string",
          "name": "baseUri",
          "type": "string"
        }
      ],
      "name": "setBaseTokenUri",
      "outputs": [],
      "stateMutability": "nonpayable",
      "type": "function"
    },
    {
      "inputs": [
        {
          "internalType": "bytes4",
          "name": "interfaceId",
          "type": "bytes4"
        }
      ],
      "name": "supportsInterface",
      "outputs": [
        {
          "internalType": "bool",
          "name": "",
          "type": "bool"
        }
      ],
      "stateMutability": "view",
      "type": "function"
    },
    {
      "inputs": [],
      "name": "symbol",
      "outputs": [
        {
          "internalType": "string",
          "name": "",
          "type": "string"
        }
      ],
      "stateMutability": "view",
      "type": "function"
    },
    {
      "inputs": [
        {
          "internalType": "uint256",
          "name": "tokenId",
          "type": "uint256"
        }
      ],
      "name": "tokenURI",
      "outputs": [
        {
          "internalType": "string",
          "name": "",
          "type": "string"
        }
      ],
      "stateMutability": "view",
      "type": "function"
    },
    {
      "inputs": [
        {
          "internalType": "address",
          "name": "from",
          "type": "address"
        },
        {
          "internalType": "address",
          "name": "to",
          "type": "address"
        },
        {
          "internalType": "uint256",
          "name": "tokenId",
          "type": "uint256"
        }
      ],
      "name": "transferFrom",
      "outputs": [],
      "stateMutability": "nonpayable",
      "type": "function"
    },
    {
      "inputs": [
        {
          "internalType": "address",
          "name": "from",
          "type": "address"
        },
        {
          "internalType": "address",
          "name": "to",
          "type": "address"
        },
        {
          "internalType": "uint256",
          "name": "tokenId",
          "type": "uint256"
        },
        {
          "components": [
            {
              "components": [
                {
                  "internalType": "uint256",
                  "name": "groupId",
                  "type": "uint256"
                },
                {
                  "internalType": "uint256",
                  "name": "claimedValue",
                  "type": "uint256"
                },
                {
                  "internalType": "bytes",
                  "name": "extraData",
                  "type": "bytes"
                }
              ],
              "internalType": "struct Claim[]",
              "name": "claims",
              "type": "tuple[]"
            },
            {
              "internalType": "address",
              "name": "destination",
              "type": "address"
            }
          ],
          "internalType": "struct Request",
          "name": "request",
          "type": "tuple"
        },
        {
          "internalType": "bytes",
          "name": "sismoProof",
          "type": "bytes"
        }
      ],
      "name": "transferWithSismo",
      "outputs": [],
      "stateMutability": "nonpayable",
      "type": "function"
    },
    {
      "inputs": [],
      "name": "unpause",
      "outputs": [],
      "stateMutability": "nonpayable",
      "type": "function"
    }
  ],
  "transactionHash": "0xa4dd8c99e61c0c0f8b4e3a289f469dd5f50ac78d473071ea3fced6fc3a540135",
  "args": [
    "Ziki Pass",
    "ZKP",
    "https://metadata-zikies.zkdrop.io/ziki-pass/",
    "10000515",
    "0xf61cabba1e6fc166a66bca0fcaa83762edb6d4bd"
  ],
  "numDeployments": 1,
  "solcInputHash": "6a43a49cef4871e7629c3936a225083d",
  "bytecode": "0x610100604052733340ac0cafb3ae34ddd53dba0d7344c1cf3efe056080523480156200002a57600080fd5b5060405162003947380380620039478339810160408190526200004d916200072a565b60408051600280825260608201909252600091816020015b6060815260200190600190039081620000655790505090506040518060400160405280601b81526020017f487964726153314163636f756e74626f756e644174746573746572000000000081525081600081518110620000c957620000c9620007d8565b60200260200101819052506040518060400160405280600681526020016542616467657360d01b81525081600181518110620001095762000109620007d8565b602002602001018190525060006080516001600160a01b031663cfe35701836040518263ffffffff1660e01b81526004016200014691906200081c565b600060405180830381865afa15801562000164573d6000803e3d6000fd5b505050506040513d6000823e601f3d908101601f191682016040526200018e919081019062000882565b905080600081518110620001a657620001a6620007d8565b60200260200101516001600160a01b031660a0816001600160a01b03168152505080600181518110620001dd57620001dd620007d8565b60209081029190910101516001600160a01b031660c05250506098805460ff1916905560e082905262000213858585846200021e565b505050505062000993565b600054610100900460ff16158080156200023f5750600054600160ff909116105b806200026f57506200025c306200036e60201b62000f321760201c565b1580156200026f575060005460ff166001145b620002d85760405162461bcd60e51b815260206004820152602e60248201527f496e697469616c697a61626c653a20636f6e747261637420697320616c72656160448201526d191e481a5b9a5d1a585b1a5e995960921b60648201526084015b60405180910390fd5b6000805460ff191660011790558015620002fc576000805461ff0019166101001790555b6200030885856200037d565b62000315600083620003e9565b6200032083620003f5565b801562000367576000805461ff0019169055604051600181527f7f26b83ff96e1f2b6a682f133852f6798a09c465da95921460cefb38474024989060200160405180910390a15b5050505050565b6001600160a01b03163b151590565b600054610100900460ff16620003d95760405162461bcd60e51b815260206004820152602b60248201526000805160206200392783398151915260448201526a6e697469616c697a696e6760a81b6064820152608401620002cf565b620003e5828262000447565b5050565b620003e58282620004d3565b80516200040a90609990602084019062000577565b507fbc3db6020edb6553e425d2c6b885f16f8b9fe08db2e27230763ee8a6f2c32e09816040516200043c91906200093b565b60405180910390a150565b600054610100900460ff16620004a35760405162461bcd60e51b815260206004820152602b60248201526000805160206200392783398151915260448201526a6e697469616c697a696e6760a81b6064820152608401620002cf565b8151620004b890606590602085019062000577565b508051620004ce90606690602084019062000577565b505050565b60008281526097602090815260408083206001600160a01b038516845290915290205460ff16620003e55760008281526097602090815260408083206001600160a01b03851684529091529020805460ff19166001179055620005333390565b6001600160a01b0316816001600160a01b0316837f2f8788117e7eff1d82e926ec794901d17c78024a50270940304540a733656f0d60405160405180910390a45050565b828054620005859062000957565b90600052602060002090601f016020900481019282620005a95760008555620005f4565b82601f10620005c457805160ff1916838001178555620005f4565b82800160010185558215620005f4579182015b82811115620005f4578251825591602001919060010190620005d7565b506200060292915062000606565b5090565b5b8082111562000602576000815560010162000607565b634e487b7160e01b600052604160045260246000fd5b604051601f8201601f191681016001600160401b03811182821017156200065e576200065e6200061d565b604052919050565b60005b838110156200068357818101518382015260200162000669565b8381111562000693576000848401525b50505050565b600082601f830112620006ab57600080fd5b81516001600160401b03811115620006c757620006c76200061d565b620006dc601f8201601f191660200162000633565b818152846020838601011115620006f257600080fd5b6200070582602083016020870162000666565b949350505050565b80516001600160a01b03811681146200072557600080fd5b919050565b600080600080600060a086880312156200074357600080fd5b85516001600160401b03808211156200075b57600080fd5b6200076989838a0162000699565b965060208801519150808211156200078057600080fd5b6200078e89838a0162000699565b95506040880151915080821115620007a557600080fd5b50620007b48882890162000699565b93505060608601519150620007cc608087016200070d565b90509295509295909350565b634e487b7160e01b600052603260045260246000fd5b600081518084526200080881602086016020860162000666565b601f01601f19169290920160200192915050565b6000602080830181845280855180835260408601915060408160051b870101925083870160005b828110156200087557603f1988860301845262000862858351620007ee565b9450928501929085019060010162000843565b5092979650505050505050565b600060208083850312156200089657600080fd5b82516001600160401b0380821115620008ae57600080fd5b818501915085601f830112620008c357600080fd5b815181811115620008d857620008d86200061d565b8060051b9150620008eb84830162000633565b81815291830184019184810190888411156200090657600080fd5b938501935b838510156200092f576200091f856200070d565b825293850193908501906200090b565b98975050505050505050565b602081526000620009506020830184620007ee565b9392505050565b600181811c908216806200096c57607f821691505b6020821081036200098d57634e487b7160e01b600052602260045260246000fd5b50919050565b60805160a05160c05160e051612f1b62000a0c600039600081816105030152818161074b01528181610964015281816109fd01528181610d5101526110ae0152600081816102bf015281816110d90152611ff70152600081816103f701528181611162015261191d015260006102430152612f1b6000f3fe608060405234801561001057600080fd5b50600436106102115760003560e01c806370a0823111610125578063a22cb465116100ad578063d547741f1161007c578063d547741f146104c5578063de2826b1146104d8578063dfdf808d146104eb578063e6d732b8146104fe578063e985e9c51461052557600080fd5b8063a22cb46514610479578063a262f5f81461048c578063b88d4fde1461049f578063c87b56dd146104b257600080fd5b806391d14854116100f457806391d148541461042157806392bc4d631461043457806395652cfa1461045657806395d89b4114610469578063a217fddf1461047157600080fd5b806370a08231146103d75780637a5d190a146103ea578063811cf988146103f25780638456cb591461041957600080fd5b80632f2ff15d116101a857806342842e0e1161017757806342842e0e1461038b5780634e71d92d1461039e5780635c6d8da1146103a65780635c975abb146103b95780636352211e146103c457600080fd5b80632f2ff15d146103255780632fd0d0691461033857806336568abe146103705780633f4ba83a1461038357600080fd5b8063095ea7b3116101e4578063095ea7b3146102a557806312b03a7f146102ba57806323b872dd146102e1578063248a9ca3146102f457600080fd5b806301ffc9a7146102165780630542975c1461023e57806306fdde031461027d578063081812fc14610292575b600080fd5b6102296102243660046122cb565b610561565b60405190151581526020015b60405180910390f35b6102657f000000000000000000000000000000000000000000000000000000000000000081565b6040516001600160a01b039091168152602001610235565b610285610572565b6040516102359190612340565b6102656102a0366004612353565b610604565b6102b86102b3366004612391565b61062b565b005b6102657f000000000000000000000000000000000000000000000000000000000000000081565b6102b86102ef3660046123bd565b610745565b610317610302366004612353565b60009081526097602052604090206001015490565b604051908152602001610235565b6102b86103333660046123fe565b6107d8565b61034b610346366004612671565b6107fd565b604080516001600160a01b039094168452602084019290925290820152606001610235565b6102b861037e3660046123fe565b6108ca565b6102b8610948565b6102b86103993660046123bd565b61095e565b6102b86109fb565b6102b86103b43660046126e8565b610a3d565b60985460ff16610229565b6102656103d2366004612353565b610b68565b6103176103e5366004612782565b610bc8565b610317600181565b6102657f000000000000000000000000000000000000000000000000000000000000000081565b6102b8610c4e565b61022961042f3660046123fe565b610c61565b610447610442366004612671565b610c8c565b604051610235939291906127da565b6102b861046436600461281a565b610d1d565b610285610d31565b610317600081565b6102b861048736600461284e565b610d40565b6102b861049a366004612782565b610d4b565b6102b86104ad366004612881565b610dad565b6102856104c0366004612353565b610e25565b6102b86104d33660046123fe565b610e8c565b6102b86104e63660046128ec565b610eb1565b6102b86104f936600461297e565b610f19565b6103177f000000000000000000000000000000000000000000000000000000000000000081565b6102296105333660046129e1565b6001600160a01b039182166000908152606a6020908152604080832093909416825291909152205460ff1690565b600061056c82610f41565b92915050565b60606065805461058190612a0f565b80601f01602080910402602001604051908101604052809291908181526020018280546105ad90612a0f565b80156105fa5780601f106105cf576101008083540402835291602001916105fa565b820191906000526020600020905b8154815290600101906020018083116105dd57829003601f168201915b5050505050905090565b600061060f82610f76565b506000908152606960205260409020546001600160a01b031690565b600061063682610b68565b9050806001600160a01b0316836001600160a01b0316036106a85760405162461bcd60e51b815260206004820152602160248201527f4552433732313a20617070726f76616c20746f2063757272656e74206f776e656044820152603960f91b60648201526084015b60405180910390fd5b336001600160a01b03821614806106c457506106c48133610533565b6107365760405162461bcd60e51b815260206004820152603d60248201527f4552433732313a20617070726f76652063616c6c6572206973206e6f7420746f60448201527f6b656e206f776e6572206f7220617070726f76656420666f7220616c6c000000606482015260840161069f565b6107408383610fd5565b505050565b61076f827f0000000000000000000000000000000000000000000000000000000000000000611043565b600061077a8361108f565b90508060000361079d57604051631c4fe71b60e01b815260040160405180910390fd5b8181146107c75760405163ec3bb6b760e01b8152600481018290526024810183905260440161069f565b6107d28484846111d8565b50505050565b6000828152609760205260409020600101546107f381611349565b6107408383611353565b600080600080600080866001600160a01b031663b9e1e0258a8a6040518363ffffffff1660e01b8152600401610834929190612a49565b6000604051808303816000875af1158015610853573d6000803e3d6000fd5b505050506040513d6000823e601f3d908101601f1916820160405261087b9190810190612b57565b925092509250828260008151811061089557610895612bcd565b6020026020010151826000815181106108b0576108b0612bcd565b602002602001015195509550955050505093509350939050565b6001600160a01b038116331461093a5760405162461bcd60e51b815260206004820152602f60248201527f416363657373436f6e74726f6c3a2063616e206f6e6c792072656e6f756e636560448201526e103937b632b9903337b91039b2b63360891b606482015260840161069f565b61094482826113d9565b5050565b600061095381611349565b61095b611440565b50565b610988827f0000000000000000000000000000000000000000000000000000000000000000611043565b60006109938361108f565b9050806000036109b657604051631c4fe71b60e01b815260040160405180910390fd5b8181146109e05760405163ec3bb6b760e01b8152600481018290526024810183905260440161069f565b6107d284848460405180602001604052806000815250611492565b7f0000000000000000000000000000000000000000000000000000000000000000610a263382611043565b6000610a313361108f565b905061094433826114c5565b600054610100900460ff1615808015610a5d5750600054600160ff909116105b80610a775750303b158015610a77575060005460ff166001145b610ada5760405162461bcd60e51b815260206004820152602e60248201527f496e697469616c697a61626c653a20636f6e747261637420697320616c72656160448201526d191e481a5b9a5d1a585b1a5e995960921b606482015260840161069f565b6000805460ff191660011790558015610afd576000805461ff0019166101001790555b610b07858561165e565b610b1260008361168f565b610b1b83611699565b8015610b61576000805461ff0019169055604051600181527f7f26b83ff96e1f2b6a682f133852f6798a09c465da95921460cefb38474024989060200160405180910390a15b5050505050565b6000818152606760205260408120546001600160a01b03168061056c5760405162461bcd60e51b8152602060048201526018602482015277115490cdcc8c4e881a5b9d985b1a59081d1bdad95b88125160421b604482015260640161069f565b60006001600160a01b038216610c325760405162461bcd60e51b815260206004820152602960248201527f4552433732313a2061646472657373207a65726f206973206e6f7420612076616044820152683634b21037bbb732b960b91b606482015260840161069f565b506001600160a01b031660009081526068602052604090205490565b6000610c5981611349565b61095b6116e7565b60009182526097602090815260408084206001600160a01b0393909316845291905290205460ff1690565b60006060806000806000866001600160a01b031663b9e1e0258a8a6040518363ffffffff1660e01b8152600401610cc4929190612a49565b6000604051808303816000875af1158015610ce3573d6000803e3d6000fd5b505050506040513d6000823e601f3d908101601f19168201604052610d0b9190810190612b57565b919b909a509098509650505050505050565b6000610d2881611349565b61094482611699565b60606066805461058190612a0f565b610944338383611724565b610d75817f0000000000000000000000000000000000000000000000000000000000000000611043565b6000610d808261108f565b905080600003610da357604051631c4fe71b60e01b815260040160405180910390fd5b61094482826114c5565b610db733836117f2565b610e195760405162461bcd60e51b815260206004820152602d60248201527f4552433732313a2063616c6c6572206973206e6f7420746f6b656e206f776e6560448201526c1c881bdc88185c1c1c9bdd9959609a1b606482015260840161069f565b6107d284848484611492565b6060610e3082610f76565b6000610e3a611871565b90506000815111610e5a5760405180602001604052806000815250610e85565b80610e6484611880565b604051602001610e75929190612be3565b6040516020818303038152906040525b9392505050565b600082815260976020526040902060010154610ea781611349565b61074083836113d9565b6000610ebd8383611912565b50509050846001600160a01b0316816001600160a01b031614610f0657604051636586af7d60e01b81526001600160a01b0380831660048301528616602482015260440161069f565b610f1186828661095e565b505050505050565b6000610f258383611912565b5050905061074081610d4b565b6001600160a01b03163b151590565b60006001600160e01b03198216637965db0b60e01b148061056c57506301ffc9a760e01b6001600160e01b031983161461056c565b6000818152606760205260409020546001600160a01b031661095b5760405162461bcd60e51b8152602060048201526018602482015277115490cdcc8c4e881a5b9d985b1a59081d1bdad95b88125160421b604482015260640161069f565b600081815260696020526040902080546001600160a01b0319166001600160a01b038416908117909155819061100a82610b68565b6001600160a01b03167f8c5be1e5ebec7d5bd14f71427d1e84f3dd0314c0f7b2291e5b200ac8c7c3b92560405160405180910390a45050565b60408051600180825281830190925260009160208083019080368337019050509050818160008151811061107957611079612bcd565b60200260200101818152505061074083826119fd565b604051633e1f3c2760e01b81526001600160a01b0382811660048301527f0000000000000000000000000000000000000000000000000000000000000000602483015260009182917f00000000000000000000000000000000000000000000000000000000000000001690633e1f3c2790604401600060405180830381865afa158015611120573d6000803e3d6000fd5b505050506040513d6000823e601f3d908101601f191682016040526111489190810190612c12565b60405163345dd98960e01b81529091506001600160a01b037f0000000000000000000000000000000000000000000000000000000000000000169063345dd98990611197908490600401612340565b602060405180830381865afa1580156111b4573d6000803e3d6000fd5b505050506040513d601f19601f82011682018060405250810190610e859190612c88565b826001600160a01b03166111eb82610b68565b6001600160a01b0316146112115760405162461bcd60e51b815260040161069f90612ca1565b6001600160a01b0382166112735760405162461bcd60e51b8152602060048201526024808201527f4552433732313a207472616e7366657220746f20746865207a65726f206164646044820152637265737360e01b606482015260840161069f565b6112808383836001611a09565b826001600160a01b031661129382610b68565b6001600160a01b0316146112b95760405162461bcd60e51b815260040161069f90612ca1565b600081815260696020908152604080832080546001600160a01b03199081169091556001600160a01b0387811680865260688552838620805460001901905590871680865283862080546001019055868652606790945282852080549092168417909155905184937fddf252ad1be2c89b69c2b068fc378daa952ba7f163c4a11628f55a4df523b3ef91a4505050565b61095b8133611a72565b61135d8282610c61565b6109445760008281526097602090815260408083206001600160a01b03851684529091529020805460ff191660011790556113953390565b6001600160a01b0316816001600160a01b0316837f2f8788117e7eff1d82e926ec794901d17c78024a50270940304540a733656f0d60405160405180910390a45050565b6113e38282610c61565b156109445760008281526097602090815260408083206001600160a01b0385168085529252808320805460ff1916905551339285917ff6391f5c32d9c69d2a47ea670b442974b53935d1edc7fd64eb21e047a839171b9190a45050565b611448611acb565b6098805460ff191690557f5db9ee0a495bf2e6ff9c91a7834c1ba4fdd244a5e8aa4e537bd38aeae4b073aa335b6040516001600160a01b03909116815260200160405180910390a1565b61149d8484846111d8565b6114a984848484611b16565b6107d25760405162461bcd60e51b815260040161069f90612ce6565b6001600160a01b03821661151b5760405162461bcd60e51b815260206004820181905260248201527f4552433732313a206d696e7420746f20746865207a65726f2061646472657373604482015260640161069f565b6000818152606760205260409020546001600160a01b0316156115805760405162461bcd60e51b815260206004820152601c60248201527f4552433732313a20746f6b656e20616c7265616479206d696e74656400000000604482015260640161069f565b61158e600083836001611a09565b6000818152606760205260409020546001600160a01b0316156115f35760405162461bcd60e51b815260206004820152601c60248201527f4552433732313a20746f6b656e20616c7265616479206d696e74656400000000604482015260640161069f565b6001600160a01b038216600081815260686020908152604080832080546001019055848352606790915280822080546001600160a01b0319168417905551839291907fddf252ad1be2c89b69c2b068fc378daa952ba7f163c4a11628f55a4df523b3ef908290a45050565b600054610100900460ff166116855760405162461bcd60e51b815260040161069f90612d38565b6109448282611c17565b6109448282611353565b80516116ac90609990602084019061221c565b507fbc3db6020edb6553e425d2c6b885f16f8b9fe08db2e27230763ee8a6f2c32e09816040516116dc9190612340565b60405180910390a150565b6116ef611c65565b6098805460ff191660011790557f62e78cea01bee320cd4e420270b5ea74000d11b0c9f74754ebdbfc544b05a2586114753390565b816001600160a01b0316836001600160a01b0316036117855760405162461bcd60e51b815260206004820152601960248201527f4552433732313a20617070726f766520746f2063616c6c657200000000000000604482015260640161069f565b6001600160a01b038381166000818152606a6020908152604080832094871680845294825291829020805460ff191686151590811790915591519182527f17307eab39ab6107e8899845ad3d59bd9653f200f220920489ca2b5937696c31910160405180910390a3505050565b6000806117fe83610b68565b9050806001600160a01b0316846001600160a01b0316148061184557506001600160a01b038082166000908152606a602090815260408083209388168352929052205460ff165b806118695750836001600160a01b031661185e84610604565b6001600160a01b0316145b949350505050565b60606099805461058190612a0f565b6060600061188d83611cab565b60010190506000816001600160401b038111156118ac576118ac61242e565b6040519080825280601f01601f1916602001820160405280156118d6576020820181803683370190505b5090508181016020015b600019016f181899199a1a9b1b9c1cb0b131b232b360811b600a86061a8153600a85049450846118e057509392505050565b6000806000806000807f00000000000000000000000000000000000000000000000000000000000000006001600160a01b031663b9e1e02589896040518363ffffffff1660e01b8152600401611969929190612a49565b6000604051808303816000875af1158015611988573d6000803e3d6000fd5b505050506040513d6000823e601f3d908101601f191682016040526119b09190810190612b57565b92509250925082826000815181106119ca576119ca612bcd565b6020026020010151826000815181106119e5576119e5612bcd565b60200260200101519550955095505050509250925092565b61094482826000611d83565b6000611a1484610bc8565b1115611a4e5782611a2484610bc8565b604051634404113f60e11b81526001600160a01b039092166004830152602482015260440161069f565b60985460ff16156107d2576040516312ab76c160e31b815260040160405180910390fd5b611a7c8282610c61565b61094457611a8981611e20565b611a94836020611e32565b604051602001611aa5929190612d83565b60408051601f198184030181529082905262461bcd60e51b825261069f91600401612340565b60985460ff16611b145760405162461bcd60e51b815260206004820152601460248201527314185d5cd8589b194e881b9bdd081c185d5cd95960621b604482015260640161069f565b565b60006001600160a01b0384163b15611c0c57604051630a85bd0160e11b81526001600160a01b0385169063150b7a0290611b5a903390899088908890600401612df8565b6020604051808303816000875af1925050508015611b95575060408051601f3d908101601f19168201909252611b9291810190612e2b565b60015b611bf2573d808015611bc3576040519150601f19603f3d011682016040523d82523d6000602084013e611bc8565b606091505b508051600003611bea5760405162461bcd60e51b815260040161069f90612ce6565b805181602001fd5b6001600160e01b031916630a85bd0160e11b149050611869565b506001949350505050565b600054610100900460ff16611c3e5760405162461bcd60e51b815260040161069f90612d38565b8151611c5190606590602085019061221c565b50805161074090606690602084019061221c565b60985460ff1615611b145760405162461bcd60e51b815260206004820152601060248201526f14185d5cd8589b194e881c185d5cd95960821b604482015260640161069f565b60008072184f03e93ff9f4daa797ed6e38ed64bf6a1f0160401b8310611cea5772184f03e93ff9f4daa797ed6e38ed64bf6a1f0160401b830492506040015b6d04ee2d6d415b85acef81000000008310611d16576d04ee2d6d415b85acef8100000000830492506020015b662386f26fc100008310611d3457662386f26fc10000830492506010015b6305f5e1008310611d4c576305f5e100830492506008015b6127108310611d6057612710830492506004015b60648310611d72576064830492506002015b600a831061056c5760010192915050565b600082516001600160401b03811115611d9e57611d9e61242e565b604051908082528060200260200182016040528015611dc7578160200160208202803683370190505b50905060005b83518163ffffffff161015611e13576001828263ffffffff1681518110611df657611df6612bcd565b602090810291909101015280611e0b81612e5e565b915050611dcd565b506107d284848484611fcd565b606061056c6001600160a01b03831660145b60606000611e41836002612e81565b611e4c906002612ea0565b6001600160401b03811115611e6357611e6361242e565b6040519080825280601f01601f191660200182016040528015611e8d576020820181803683370190505b509050600360fc1b81600081518110611ea857611ea8612bcd565b60200101906001600160f81b031916908160001a905350600f60fb1b81600181518110611ed757611ed7612bcd565b60200101906001600160f81b031916908160001a9053506000611efb846002612e81565b611f06906001612ea0565b90505b6001811115611f7e576f181899199a1a9b1b9c1cb0b131b232b360811b85600f1660108110611f3a57611f3a612bcd565b1a60f81b828281518110611f5057611f50612bcd565b60200101906001600160f81b031916908160001a90535060049490941c93611f7781612eb8565b9050611f09565b508315610e855760405162461bcd60e51b815260206004820181905260248201527f537472696e67733a20686578206c656e67746820696e73756666696369656e74604482015260640161069f565b6107d2848484846000611fe08483612178565b6000805b85518163ffffffff1610156121595760007f00000000000000000000000000000000000000000000000000000000000000006001600160a01b031662fdd58e89898563ffffffff168151811061203c5761203c612bcd565b60200260200101516040518363ffffffff1660e01b81526004016120759291906001600160a01b03929092168252602082015260400190565b602060405180830381865afa158015612092573d6000803e3d6000fd5b505050506040513d601f19601f820116820180604052508101906120b69190612c88565b90506000858363ffffffff16815181106120d2576120d2612bcd565b602002602001015190506120e782828761219a565b15156001036120f95760019350612144565b861561214457878363ffffffff168151811061211757612117612bcd565b602002602001015181604051633b1849a760e11b815260040161069f929190918252602082015260400190565b5050808061215190612e5e565b915050611fe4565b5080610f11576040516304351f9b60e51b815260040160405180910390fd5b805182511461094457604051630ded580b60e01b815260040160405180910390fd5b6000808260028111156121af576121af612ecf565b036121be575081831015610e85565b60018260028111156121d2576121d2612ecf565b036121e1575081831115610e85565b60028260028111156121f5576121f5612ecf565b036122035750828214610e85565b60405163ca90bfc360e01b815260040160405180910390fd5b82805461222890612a0f565b90600052602060002090601f01602090048101928261224a5760008555612290565b82601f1061226357805160ff1916838001178555612290565b82800160010185558215612290579182015b82811115612290578251825591602001919060010190612275565b5061229c9291506122a0565b5090565b5b8082111561229c57600081556001016122a1565b6001600160e01b03198116811461095b57600080fd5b6000602082840312156122dd57600080fd5b8135610e85816122b5565b60005b838110156123035781810151838201526020016122eb565b838111156107d25750506000910152565b6000815180845261232c8160208601602086016122e8565b601f01601f19169290920160200192915050565b602081526000610e856020830184612314565b60006020828403121561236557600080fd5b5035919050565b6001600160a01b038116811461095b57600080fd5b803561238c8161236c565b919050565b600080604083850312156123a457600080fd5b82356123af8161236c565b946020939093013593505050565b6000806000606084860312156123d257600080fd5b83356123dd8161236c565b925060208401356123ed8161236c565b929592945050506040919091013590565b6000806040838503121561241157600080fd5b8235915060208301356124238161236c565b809150509250929050565b634e487b7160e01b600052604160045260246000fd5b604080519081016001600160401b03811182821017156124665761246661242e565b60405290565b604051606081016001600160401b03811182821017156124665761246661242e565b604051601f8201601f191681016001600160401b03811182821017156124b6576124b661242e565b604052919050565b60006001600160401b038211156124d7576124d761242e565b5060051b60200190565b60006001600160401b038211156124fa576124fa61242e565b50601f01601f191660200190565b600082601f83011261251957600080fd5b813561252c612527826124e1565b61248e565b81815284602083860101111561254157600080fd5b816020850160208301376000918101602001919091529392505050565b6000604080838503121561257157600080fd5b612579612444565b915082356001600160401b038082111561259257600080fd5b818501915085601f8301126125a657600080fd5b813560206125b6612527836124be565b82815260059290921b840181019181810190898411156125d557600080fd5b8286015b84811015612653578035868111156125f15760008081fd5b87016060818d03601f19018113156126095760008081fd5b61261161246c565b8287013581528a830135818801529082013590888211156126325760008081fd5b6126408e8884860101612508565b818c0152855250509183019183016125d9565b50875250612662878201612381565b81870152505050505092915050565b60008060006060848603121561268657600080fd5b83356001600160401b038082111561269d57600080fd5b6126a98783880161255e565b945060208601359150808211156126bf57600080fd5b506126cc86828701612508565b92505060408401356126dd8161236c565b809150509250925092565b600080600080608085870312156126fe57600080fd5b84356001600160401b038082111561271557600080fd5b61272188838901612508565b9550602087013591508082111561273757600080fd5b61274388838901612508565b9450604087013591508082111561275957600080fd5b5061276687828801612508565b92505060608501356127778161236c565b939692955090935050565b60006020828403121561279457600080fd5b8135610e858161236c565b600081518084526020808501945080840160005b838110156127cf578151875295820195908201906001016127b3565b509495945050505050565b6001600160a01b03841681526060602082018190526000906127fe9083018561279f565b8281036040840152612810818561279f565b9695505050505050565b60006020828403121561282c57600080fd5b81356001600160401b0381111561284257600080fd5b61186984828501612508565b6000806040838503121561286157600080fd5b823561286c8161236c565b91506020830135801515811461242357600080fd5b6000806000806080858703121561289757600080fd5b84356128a28161236c565b935060208501356128b28161236c565b92506040850135915060608501356001600160401b038111156128d457600080fd5b6128e087828801612508565b91505092959194509250565b600080600080600060a0868803121561290457600080fd5b853561290f8161236c565b9450602086013561291f8161236c565b93506040860135925060608601356001600160401b038082111561294257600080fd5b61294e89838a0161255e565b9350608088013591508082111561296457600080fd5b5061297188828901612508565b9150509295509295909350565b6000806040838503121561299157600080fd5b82356001600160401b03808211156129a857600080fd5b6129b48683870161255e565b935060208501359150808211156129ca57600080fd5b506129d785828601612508565b9150509250929050565b600080604083850312156129f457600080fd5b82356129ff8161236c565b915060208301356124238161236c565b600181811c90821680612a2357607f821691505b602082108103612a4357634e487b7160e01b600052602260045260246000fd5b50919050565b60006040808352608083018551828386015281815180845260a08701915060a08160051b88010193506020808401935060005b82811015612ac657888603609f1901845284518051875282810151838801528701516060888801819052612ab281890183612314565b975050509381019392810192600101612a7c565b50898101516001600160a01b03811660608a0152955087850381890152505050506128108186612314565b600082601f830112612b0257600080fd5b81516020612b12612527836124be565b82815260059290921b84018101918181019086841115612b3157600080fd5b8286015b84811015612b4c5780518352918301918301612b35565b509695505050505050565b600080600060608486031215612b6c57600080fd5b8351612b778161236c565b60208501519093506001600160401b0380821115612b9457600080fd5b612ba087838801612af1565b93506040860151915080821115612bb657600080fd5b50612bc386828701612af1565b9150509250925092565b634e487b7160e01b600052603260045260246000fd5b60008351612bf58184602088016122e8565b835190830190612c098183602088016122e8565b01949350505050565b600060208284031215612c2457600080fd5b81516001600160401b03811115612c3a57600080fd5b8201601f81018413612c4b57600080fd5b8051612c59612527826124e1565b818152856020838501011115612c6e57600080fd5b612c7f8260208301602086016122e8565b95945050505050565b600060208284031215612c9a57600080fd5b5051919050565b60208082526025908201527f4552433732313a207472616e736665722066726f6d20696e636f72726563742060408201526437bbb732b960d91b606082015260800190565b60208082526032908201527f4552433732313a207472616e7366657220746f206e6f6e20455243373231526560408201527131b2b4bb32b91034b6b83632b6b2b73a32b960711b606082015260800190565b6020808252602b908201527f496e697469616c697a61626c653a20636f6e7472616374206973206e6f74206960408201526a6e697469616c697a696e6760a81b606082015260800190565b7f416363657373436f6e74726f6c3a206163636f756e7420000000000000000000815260008351612dbb8160178501602088016122e8565b7001034b99036b4b9b9b4b733903937b6329607d1b6017918401918201528351612dec8160288401602088016122e8565b01602801949350505050565b6001600160a01b038581168252841660208201526040810183905260806060820181905260009061281090830184612314565b600060208284031215612e3d57600080fd5b8151610e85816122b5565b634e487b7160e01b600052601160045260246000fd5b600063ffffffff808316818103612e7757612e77612e48565b6001019392505050565b6000816000190483118215151615612e9b57612e9b612e48565b500290565b60008219821115612eb357612eb3612e48565b500190565b600081612ec757612ec7612e48565b506000190190565b634e487b7160e01b600052602160045260246000fdfea26469706673582212205834e1905dadb78798695418e55c79e68190808275cd8fe7a7d09567efb0f6a664736f6c634300080e0033496e697469616c697a61626c653a20636f6e7472616374206973206e6f742069",
  "devdoc": {
    "details": "Non-Transferrable NFT (SBT) that can only be claimed by users eligible to a specific ZK Badge. This contract implements two different \"Prove With Sismo\" flows to claim the SBT: 2-txs flow: #1(tx) user is directed to Sismo to mint the ZK badge.             #2(tx) user calls claim() that checks that they own the ZK badge and mints the SBT 1-tx flow:  #1(off-chain) user is directed to Sismo to create a ZK Proof of eligibility             #(tx): user calls claimWithSismo(req, proof) that forwards the proof to the ZK Attester                    ZK Attester checks the proof (and mints the ZK Badge). Then the SBT is claimed. BadgeBound: The SBT is bound to a specific ZK Badge, which is identified by its nullifier. tokenId Of SBT == nullifier of ZK Badge The nullifier is an anon identifier of the source account used to prove eligibility to the ZK Badge. Accountbound: The Badge is Accountbound, so is the SBT. The eligible account used to generate ZK Proof can burn and mint the ZK Badge to a new destination Can be done only once every cooldown duration. Makes it possible to lose 2-tx flow:  #1(tx) Burn/mint ZK Badge to new destination             #2(tx) call transfer() SBT to new destination 1-tx flow:  #1(off-chain) get ZK Proof of eligibility             #2(tx) call transferWithSismo(req,proof)",
    "kind": "dev",
    "methods": {
      "_mintSismoBadge(((uint256,uint256,bytes)[],address),bytes,address)": {
        "details": "Mint badge from sismoProof received by \"Prove With Sismo\" off-chain flow",
        "params": {
          "attester": "Attester address (default = HYDRA_S1_ACCOUNTBOUND_ATTESTER, see the next function)",
          "request": "user request",
          "sismoProof": "Sismo proof"
        },
        "returns": {
          "_0": "Address of the owner of the badges, tokenIds of the badges minted and levels of the badges minted"
        }
      },
      "_mintSismoBadges(((uint256,uint256,bytes)[],address),bytes,address)": {
        "details": "Mint badges from sismoProof received by \"Prove With Sismo\" off-chain flow",
        "params": {
          "attester": "Attester address (default = HYDRA_S1_ACCOUNTBOUND_ATTESTER, see the next function)",
          "request": "user request",
          "sismoProof": "Sismo proof"
        },
        "returns": {
          "_0": "Address of the owner of the badges, tokenIds of the badges minted and levels of the badges minted"
        }
      },
      "approve(address,uint256)": {
        "details": "See {IERC721-approve}."
      },
      "balanceOf(address)": {
        "details": "See {IERC721-balanceOf}."
      },
      "claim()": {
        "details": "Claim function callable by ZK Badge holders"
      },
      "claimTo(address)": {
        "details": "Claim function callable by anyone for ZK Badge holders",
        "params": {
          "to": "recipient of the SBT, must hold the ZK Badge"
        }
      },
      "claimWithSismo(((uint256,uint256,bytes)[],address),bytes)": {
        "details": "Claim by providing the ZK Proof of eligibility",
        "params": {
          "request": "user request containing the data needed to mint the ZK Badge",
          "sismoProof": "Proof of eligibility to mint the ZK Badge"
        }
      },
      "getApproved(uint256)": {
        "details": "See {IERC721-getApproved}."
      },
      "getRoleAdmin(bytes32)": {
        "details": "Returns the admin role that controls `role`. See {grantRole} and {revokeRole}. To change a role's admin, use {_setRoleAdmin}."
      },
      "grantRole(bytes32,address)": {
        "details": "Grants `role` to `account`. If `account` had not been already granted `role`, emits a {RoleGranted} event. Requirements: - the caller must have ``role``'s admin role. May emit a {RoleGranted} event."
      },
      "hasRole(bytes32,address)": {
        "details": "Returns `true` if `account` has been granted `role`."
      },
      "isApprovedForAll(address,address)": {
        "details": "See {IERC721-isApprovedForAll}."
      },
      "name()": {
        "details": "See {IERC721Metadata-name}."
      },
      "ownerOf(uint256)": {
        "details": "See {IERC721-ownerOf}."
      },
      "pause()": {
        "details": "Pauses all token transfers."
      },
      "paused()": {
        "details": "Returns true if the contract is paused, and false otherwise."
      },
      "renounceRole(bytes32,address)": {
        "details": "Revokes `role` from the calling account. Roles are often managed via {grantRole} and {revokeRole}: this function's purpose is to provide a mechanism for accounts to lose their privileges if they are compromised (such as when a trusted device is misplaced). If the calling account had been revoked `role`, emits a {RoleRevoked} event. Requirements: - the caller must be `account`. May emit a {RoleRevoked} event."
      },
      "revokeRole(bytes32,address)": {
        "details": "Revokes `role` from `account`. If `account` had been granted `role`, emits a {RoleRevoked} event. Requirements: - the caller must have ``role``'s admin role. May emit a {RoleRevoked} event."
      },
      "safeTransferFrom(address,address,uint256)": {
        "details": "Transfers the SBT to a new destination",
        "params": {
          "from": "address of the account that currently owns the SBT",
          "to": "address of the account that will receive the SBT (must hold a ZK Badge)",
          "tokenId": "id of the SBT to transfer (= ZK Badge nullifer)"
        }
      },
      "safeTransferFrom(address,address,uint256,bytes)": {
        "details": "See {IERC721-safeTransferFrom}."
      },
      "setApprovalForAll(address,bool)": {
        "details": "See {IERC721-setApprovalForAll}."
      },
      "setBaseTokenUri(string)": {
        "details": "Set BaseTokenUri for SBT contract"
      },
      "supportsInterface(bytes4)": {
        "details": "See {IERC165-supportsInterface}."
      },
      "symbol()": {
        "details": "See {IERC721Metadata-symbol}."
      },
      "tokenURI(uint256)": {
        "details": "See {IERC721Metadata-tokenURI}."
      },
      "transferFrom(address,address,uint256)": {
        "details": "Transfers the SBT to a new destination",
        "params": {
          "from": "address of the account that currently owns the SBT",
          "to": "address of the account that will receive the SBT (must hold a ZK Badge)",
          "tokenId": "id of the SBT to transfer (= ZK Badge nullifer)"
        }
      },
      "transferWithSismo(address,address,uint256,((uint256,uint256,bytes)[],address),bytes)": {
        "details": "Transfers the SBT to a new destination",
        "params": {
          "from": "address of the account that currently owns the SBT",
          "request": "user request containing the data needed to mint the ZK Badge",
          "sismoProof": "Proof of eligibility to mint the ZK Badge",
          "to": "address of the account that will receive the SBT (must hold a ZK Badge with the id MERGOOOR_PASS_BADGE_TOKEN_ID)",
          "tokenId": "id of the SBT to transfer"
        }
      },
      "unpause()": {
        "details": "Unpauses all token transfers."
      }
    },
    "title": "ZKBadgeboundERC721 (ZK-SBT)",
    "version": 1
  },
  "userdoc": {
    "kind": "user",
    "methods": {
      "_mintSismoBadge(((uint256,uint256,bytes)[],address),bytes,address)": {
        "notice": "This function will use the default attester (HYDRA_S1_ACCOUNTBOUND_ATTESTER) if no attester is specified."
      },
      "_mintSismoBadges(((uint256,uint256,bytes)[],address),bytes,address)": {
        "notice": "This function will use the default attester (HYDRA_S1_ACCOUNTBOUND_ATTESTER) if no attester is specified."
      },
      "claim()": {
        "notice": "Claim 2-tx flow (see L14)"
      },
      "claimTo(address)": {
        "notice": "Claim 2-tx flow (see L14)"
      },
      "claimWithSismo(((uint256,uint256,bytes)[],address),bytes)": {
        "notice": "Claim 1-tx flow (see L16)"
      },
      "safeTransferFrom(address,address,uint256)": {
        "notice": "Mint/burn 2-tx flow (see L27)The address `to` must hold a ZK Badge"
      },
      "transferFrom(address,address,uint256)": {
        "notice": "Mint/burn 2-tx flow (see L27)The address `to` must hold a ZK Badge"
      },
      "transferWithSismo(address,address,uint256,((uint256,uint256,bytes)[],address),bytes)": {
        "notice": "Mint/burn 1-tx flow (see L29)"
      }
    },
    "version": 1
  },
  "storageLayout": {
    "storage": [
      {
        "astId": 6,
        "contract": "contracts/tests/zk-drop/ZKBadgeboundERC721.sol:ZKBadgeboundERC721",
        "label": "_initialized",
        "offset": 0,
        "slot": "0",
        "type": "t_uint8"
      },
      {
        "astId": 9,
        "contract": "contracts/tests/zk-drop/ZKBadgeboundERC721.sol:ZKBadgeboundERC721",
        "label": "_initializing",
        "offset": 1,
        "slot": "0",
        "type": "t_bool"
      },
      {
        "astId": 1624,
        "contract": "contracts/tests/zk-drop/ZKBadgeboundERC721.sol:ZKBadgeboundERC721",
        "label": "__gap",
        "offset": 0,
        "slot": "1",
        "type": "t_array(t_uint256)50_storage"
      },
      {
        "astId": 1843,
        "contract": "contracts/tests/zk-drop/ZKBadgeboundERC721.sol:ZKBadgeboundERC721",
        "label": "__gap",
        "offset": 0,
        "slot": "51",
        "type": "t_array(t_uint256)50_storage"
      },
      {
        "astId": 197,
        "contract": "contracts/tests/zk-drop/ZKBadgeboundERC721.sol:ZKBadgeboundERC721",
        "label": "_name",
        "offset": 0,
        "slot": "101",
        "type": "t_string_storage"
      },
      {
        "astId": 199,
        "contract": "contracts/tests/zk-drop/ZKBadgeboundERC721.sol:ZKBadgeboundERC721",
        "label": "_symbol",
        "offset": 0,
        "slot": "102",
        "type": "t_string_storage"
      },
      {
        "astId": 203,
        "contract": "contracts/tests/zk-drop/ZKBadgeboundERC721.sol:ZKBadgeboundERC721",
        "label": "_owners",
        "offset": 0,
        "slot": "103",
        "type": "t_mapping(t_uint256,t_address)"
      },
      {
        "astId": 207,
        "contract": "contracts/tests/zk-drop/ZKBadgeboundERC721.sol:ZKBadgeboundERC721",
        "label": "_balances",
        "offset": 0,
        "slot": "104",
        "type": "t_mapping(t_address,t_uint256)"
      },
      {
        "astId": 211,
        "contract": "contracts/tests/zk-drop/ZKBadgeboundERC721.sol:ZKBadgeboundERC721",
        "label": "_tokenApprovals",
        "offset": 0,
        "slot": "105",
        "type": "t_mapping(t_uint256,t_address)"
      },
      {
        "astId": 217,
        "contract": "contracts/tests/zk-drop/ZKBadgeboundERC721.sol:ZKBadgeboundERC721",
        "label": "_operatorApprovals",
        "offset": 0,
        "slot": "106",
        "type": "t_mapping(t_address,t_mapping(t_address,t_bool))"
      },
      {
        "astId": 1137,
        "contract": "contracts/tests/zk-drop/ZKBadgeboundERC721.sol:ZKBadgeboundERC721",
        "label": "__gap",
        "offset": 0,
        "slot": "107",
        "type": "t_array(t_uint256)44_storage"
      },
      {
        "astId": 2746,
        "contract": "contracts/tests/zk-drop/ZKBadgeboundERC721.sol:ZKBadgeboundERC721",
        "label": "_roles",
        "offset": 0,
        "slot": "151",
        "type": "t_mapping(t_bytes32,t_struct(RoleData)2741_storage)"
      },
      {
        "astId": 3837,
        "contract": "contracts/tests/zk-drop/ZKBadgeboundERC721.sol:ZKBadgeboundERC721",
        "label": "_paused",
        "offset": 0,
        "slot": "152",
        "type": "t_bool"
      },
      {
        "astId": 19600,
        "contract": "contracts/tests/zk-drop/ZKBadgeboundERC721.sol:ZKBadgeboundERC721",
        "label": "_baseTokenURI",
        "offset": 0,
        "slot": "153",
        "type": "t_string_storage"
      }
    ],
    "types": {
      "t_address": {
        "encoding": "inplace",
        "label": "address",
        "numberOfBytes": "20"
      },
      "t_array(t_uint256)44_storage": {
        "base": "t_uint256",
        "encoding": "inplace",
        "label": "uint256[44]",
        "numberOfBytes": "1408"
      },
      "t_array(t_uint256)50_storage": {
        "base": "t_uint256",
        "encoding": "inplace",
        "label": "uint256[50]",
        "numberOfBytes": "1600"
      },
      "t_bool": {
        "encoding": "inplace",
        "label": "bool",
        "numberOfBytes": "1"
      },
      "t_bytes32": {
        "encoding": "inplace",
        "label": "bytes32",
        "numberOfBytes": "32"
      },
      "t_mapping(t_address,t_bool)": {
        "encoding": "mapping",
        "key": "t_address",
        "label": "mapping(address => bool)",
        "numberOfBytes": "32",
        "value": "t_bool"
      },
      "t_mapping(t_address,t_mapping(t_address,t_bool))": {
        "encoding": "mapping",
        "key": "t_address",
        "label": "mapping(address => mapping(address => bool))",
        "numberOfBytes": "32",
        "value": "t_mapping(t_address,t_bool)"
      },
      "t_mapping(t_address,t_uint256)": {
        "encoding": "mapping",
        "key": "t_address",
        "label": "mapping(address => uint256)",
        "numberOfBytes": "32",
        "value": "t_uint256"
      },
      "t_mapping(t_bytes32,t_struct(RoleData)2741_storage)": {
        "encoding": "mapping",
        "key": "t_bytes32",
        "label": "mapping(bytes32 => struct AccessControl.RoleData)",
        "numberOfBytes": "32",
        "value": "t_struct(RoleData)2741_storage"
      },
      "t_mapping(t_uint256,t_address)": {
        "encoding": "mapping",
        "key": "t_uint256",
        "label": "mapping(uint256 => address)",
        "numberOfBytes": "32",
        "value": "t_address"
      },
      "t_string_storage": {
        "encoding": "bytes",
        "label": "string",
        "numberOfBytes": "32"
      },
      "t_struct(RoleData)2741_storage": {
        "encoding": "inplace",
        "label": "struct AccessControl.RoleData",
        "members": [
          {
            "astId": 2738,
            "contract": "contracts/tests/zk-drop/ZKBadgeboundERC721.sol:ZKBadgeboundERC721",
            "label": "members",
            "offset": 0,
            "slot": "0",
            "type": "t_mapping(t_address,t_bool)"
          },
          {
            "astId": 2740,
            "contract": "contracts/tests/zk-drop/ZKBadgeboundERC721.sol:ZKBadgeboundERC721",
            "label": "adminRole",
            "offset": 0,
            "slot": "1",
            "type": "t_bytes32"
          }
        ],
        "numberOfBytes": "64"
      },
      "t_uint256": {
        "encoding": "inplace",
        "label": "uint256",
        "numberOfBytes": "32"
      },
      "t_uint8": {
        "encoding": "inplace",
        "label": "uint8",
        "numberOfBytes": "1"
      }
    }
  }
}