{
  "address": "0x2c17e335d131dfd21238475Dd545B9B29Fb5A27D",
  "abi": [
    {
      "inputs": [
        {
          "internalType": "address",
          "name": "owner",
          "type": "address"
        }
      ],
      "stateMutability": "nonpayable",
      "type": "constructor"
    },
    {
      "inputs": [],
      "name": "CannotRegisterForZeroAddress",
      "type": "error"
    },
    {
      "inputs": [],
      "name": "CannotUnregisterForZeroAddress",
      "type": "error"
    },
    {
      "anonymous": false,
      "inputs": [
        {
          "indexed": true,
          "internalType": "address",
          "name": "previousOwner",
          "type": "address"
        },
        {
          "indexed": true,
          "internalType": "address",
          "name": "newOwner",
          "type": "address"
        }
      ],
      "name": "OwnershipTransferred",
      "type": "event"
    },
    {
      "anonymous": false,
      "inputs": [
        {
          "indexed": false,
          "internalType": "uint256",
          "name": "root",
          "type": "uint256"
        }
      ],
      "name": "RegisteredRootForAll",
      "type": "event"
    },
    {
      "anonymous": false,
      "inputs": [
        {
          "indexed": false,
          "internalType": "address",
          "name": "attester",
          "type": "address"
        },
        {
          "indexed": false,
          "internalType": "uint256",
          "name": "root",
          "type": "uint256"
        }
      ],
      "name": "RegisteredRootForAttester",
      "type": "event"
    },
    {
      "anonymous": false,
      "inputs": [
        {
          "indexed": false,
          "internalType": "uint256",
          "name": "root",
          "type": "uint256"
        }
      ],
      "name": "UnregisteredRootForAll",
      "type": "event"
    },
    {
      "anonymous": false,
      "inputs": [
        {
          "indexed": false,
          "internalType": "address",
          "name": "attester",
          "type": "address"
        },
        {
          "indexed": false,
          "internalType": "uint256",
          "name": "root",
          "type": "uint256"
        }
      ],
      "name": "UnregisteredRootForAttester",
      "type": "event"
    },
    {
      "inputs": [
        {
          "internalType": "address",
          "name": "",
          "type": "address"
        },
        {
          "internalType": "uint256",
          "name": "",
          "type": "uint256"
        }
      ],
      "name": "_roots",
      "outputs": [
        {
          "internalType": "bool",
          "name": "",
          "type": "bool"
        }
      ],
      "stateMutability": "view",
      "type": "function"
    },
    {
      "inputs": [
        {
          "internalType": "address",
          "name": "owner",
          "type": "address"
        }
      ],
      "name": "initialize",
      "outputs": [],
      "stateMutability": "nonpayable",
      "type": "function"
    },
    {
      "inputs": [
        {
          "internalType": "address",
          "name": "attester",
          "type": "address"
        },
        {
          "internalType": "uint256",
          "name": "root",
          "type": "uint256"
        }
      ],
      "name": "isRootAvailableForAttester",
      "outputs": [
        {
          "internalType": "bool",
          "name": "",
          "type": "bool"
        }
      ],
      "stateMutability": "view",
      "type": "function"
    },
    {
      "inputs": [
        {
          "internalType": "uint256",
          "name": "root",
          "type": "uint256"
        }
      ],
      "name": "isRootAvailableForMe",
      "outputs": [
        {
          "internalType": "bool",
          "name": "",
          "type": "bool"
        }
      ],
      "stateMutability": "view",
      "type": "function"
    },
    {
      "inputs": [],
      "name": "owner",
      "outputs": [
        {
          "internalType": "address",
          "name": "",
          "type": "address"
        }
      ],
      "stateMutability": "view",
      "type": "function"
    },
    {
      "inputs": [
        {
          "internalType": "uint256",
          "name": "root",
          "type": "uint256"
        }
      ],
      "name": "registerRootForAll",
      "outputs": [],
      "stateMutability": "nonpayable",
      "type": "function"
    },
    {
      "inputs": [
        {
          "internalType": "address",
          "name": "attester",
          "type": "address"
        },
        {
          "internalType": "uint256",
          "name": "root",
          "type": "uint256"
        }
      ],
      "name": "registerRootForAttester",
      "outputs": [],
      "stateMutability": "nonpayable",
      "type": "function"
    },
    {
      "inputs": [],
      "name": "renounceOwnership",
      "outputs": [],
      "stateMutability": "nonpayable",
      "type": "function"
    },
    {
      "inputs": [
        {
          "internalType": "address",
          "name": "newOwner",
          "type": "address"
        }
      ],
      "name": "transferOwnership",
      "outputs": [],
      "stateMutability": "nonpayable",
      "type": "function"
    },
    {
      "inputs": [
        {
          "internalType": "uint256",
          "name": "root",
          "type": "uint256"
        }
      ],
      "name": "unregisterRootForAll",
      "outputs": [],
      "stateMutability": "nonpayable",
      "type": "function"
    },
    {
      "inputs": [
        {
          "internalType": "address",
          "name": "attester",
          "type": "address"
        },
        {
          "internalType": "uint256",
          "name": "root",
          "type": "uint256"
        }
      ],
      "name": "unregisterRootForAttester",
      "outputs": [],
      "stateMutability": "nonpayable",
      "type": "function"
    }
  ],
  "transactionHash": "0x5514137161b675046f4311143d21585182cda96201a9464d691e6a54efc3726d",
  "args": [
    "0x346d40b5BF73C5eB43c4c5E55A3fd22d25257DC6"
  ],
  "numDeployments": 2,
  "solcInputHash": "70d5ec851bd4311fac67c09b114b9c0c",
  "bytecode": "0x608060405234801561001057600080fd5b506040516109d63803806109d683398101604081905261002f91610197565b61003833610047565b610041816100a2565b506101c7565b600080546001600160a01b038381166201000081810262010000600160b01b0319851617855560405193049190911692909183917f8be0079c531659141344cd1fd0a4f28419497f9722a3daafe3b4186f6b6457e091a35050565b600054610100900460ff166100bd5760005460ff16156100c5565b6100c561016d565b61012c5760405162461bcd60e51b815260206004820152602e60248201527f496e697469616c697a61626c653a20636f6e747261637420697320616c72656160448201526d191e481a5b9a5d1a585b1a5e995960921b606482015260840160405180910390fd5b600054610100900460ff1615801561014e576000805461ffff19166101011790555b61015782610047565b8015610169576000805461ff00191690555b5050565b60006101823061018860201b6105691760201c565b15905090565b6001600160a01b03163b151590565b6000602082840312156101a957600080fd5b81516001600160a01b03811681146101c057600080fd5b9392505050565b610800806101d66000396000f3fe608060405234801561001057600080fd5b50600436106100a95760003560e01c8063be4a605611610071578063be4a60561461014b578063c4d66de81461015e578063e5e477a014610171578063ebea45cb14610184578063f2fde38b14610197578063fe7e7750146101aa57600080fd5b80632f56be56146100ae5780634e473f8f146100c3578063715018a6146100eb57806380b404ce146100f35780638da5cb5b14610121575b600080fd5b6100c16100bc366004610737565b6101bd565b005b6100d66100d1366004610737565b61022c565b60405190151581526020015b60405180910390f35b6100c1610292565b6100d6610101366004610737565b600160209081526000928352604080842090915290825290205460ff1681565b6000546201000090046001600160a01b03166040516001600160a01b0390911681526020016100e2565b6100c1610159366004610761565b6102cf565b6100c161016c36600461077a565b61030e565b6100d661017f366004610761565b6103d0565b6100c1610192366004610737565b61042c565b6100c16101a536600461077a565b61048e565b6100c16101b8366004610761565b61052d565b6000546001600160a01b03620100009091041633146101f75760405162461bcd60e51b81526004016101ee90610795565b60405180910390fd5b6001600160a01b03821661021e57604051639e95e88b60e01b815260040160405180910390fd5b6102288282610578565b5050565b6001600160a01b038216600090815260016020908152604080832084845290915281205460ff168061028b575060008281527fa6eef7e35abe7026729641147f7915573c7e97b47efa546f5f6e3230263bcb49602052604090205460ff165b9392505050565b6000546001600160a01b03620100009091041633146102c35760405162461bcd60e51b81526004016101ee90610795565b6102cd6000610622565b565b6000546001600160a01b03620100009091041633146103005760405162461bcd60e51b81526004016101ee90610795565b61030b600082610578565b50565b600054610100900460ff166103295760005460ff161561032d565b303b155b6103905760405162461bcd60e51b815260206004820152602e60248201527f496e697469616c697a61626c653a20636f6e747261637420697320616c72656160448201526d191e481a5b9a5d1a585b1a5e995960921b60648201526084016101ee565b600054610100900460ff161580156103b2576000805461ffff19166101011790555b6103bb82610622565b8015610228576000805461ff00191690555050565b33600090815260016020908152604080832084845290915281205460ff1680610426575060008281527fa6eef7e35abe7026729641147f7915573c7e97b47efa546f5f6e3230263bcb49602052604090205460ff165b92915050565b6000546001600160a01b036201000090910416331461045d5760405162461bcd60e51b81526004016101ee90610795565b6001600160a01b03821661048457604051631b25a00160e31b815260040160405180910390fd5b610228828261067d565b6000546001600160a01b03620100009091041633146104bf5760405162461bcd60e51b81526004016101ee90610795565b6001600160a01b0381166105245760405162461bcd60e51b815260206004820152602660248201527f4f776e61626c653a206e6577206f776e657220697320746865207a65726f206160448201526564647265737360d01b60648201526084016101ee565b61030b81610622565b6000546001600160a01b036201000090910416331461055e5760405162461bcd60e51b81526004016101ee90610795565b61030b60008261067d565b6001600160a01b03163b151590565b6001600160a01b0382166000818152600160208181526040808420868552909152909120805460ff191690911790556105e3576040518181527f22f0a171f00eeea3af5276d1f77587471dcc3bde32d62560046549b34bacd38a906020015b60405180910390a15050565b604080516001600160a01b0384168152602081018390527f21cdff046578afe71b78f95ac4891306af3a9b9eb71e2f0ef380b35b487d2f1291016105d7565b600080546001600160a01b038381166201000081810262010000600160b01b0319851617855560405193049190911692909183917f8be0079c531659141344cd1fd0a4f28419497f9722a3daafe3b4186f6b6457e091a35050565b6001600160a01b03821660008181526001602090815260408083208584529091529020805460ff191690556106dc576040518181527f7261c2abe5e576aac50024de639315f10783f67935bf118bbb49b33c20ef70ef906020016105d7565b604080516001600160a01b0384168152602081018390527fba8195cc62a4086b7cd93d22db90e43ae42d8b5febd8c66b3453771e455b7a3391016105d7565b80356001600160a01b038116811461073257600080fd5b919050565b6000806040838503121561074a57600080fd5b6107538361071b565b946020939093013593505050565b60006020828403121561077357600080fd5b5035919050565b60006020828403121561078c57600080fd5b61028b8261071b565b6020808252818101527f4f776e61626c653a2063616c6c6572206973206e6f7420746865206f776e657260408201526060019056fea26469706673582212205a26ea118c217ce3529f4b96f78e8ef84c499fad8c74290b7dfd242f9392407c64736f6c634300080e0033",
  "devdoc": {
    "author": "Sismo",
    "kind": "dev",
    "methods": {
      "constructor": {
        "details": "Constructor",
        "params": {
          "owner": "Owner of the contract, can register/ unregister roots"
        }
      },
      "initialize(address)": {
        "details": "Initializes the contract, to be called by the proxy delegating calls to this implementation",
        "params": {
          "owner": "Owner of the contract, can update public key and address"
        }
      },
      "isRootAvailableForAttester(address,uint256)": {
        "details": "Initializes the contract, to be called by the proxy delegating calls to this implementation",
        "params": {
          "attester": "Owner of the contract, can update public key and address",
          "root": "Owner of the contract, can update public key and address"
        }
      },
      "isRootAvailableForMe(uint256)": {
        "details": "returns whether a root is available for a caller (msg.sender)",
        "params": {
          "root": "root to check whether it is registered for me or not"
        }
      },
      "owner()": {
        "details": "Returns the address of the current owner."
      },
      "registerRootForAll(uint256)": {
        "details": "Registers a root, available for all contracts",
        "params": {
          "root": "Root to register"
        }
      },
      "registerRootForAttester(address,uint256)": {
        "details": "Register a root available for an attester",
        "params": {
          "attester": "Attester which will have the root available",
          "root": "Root to register"
        }
      },
      "renounceOwnership()": {
        "details": "Leaves the contract without owner. It will not be possible to call `onlyOwner` functions anymore. Can only be called by the current owner. NOTE: Renouncing ownership will leave the contract without an owner, thereby removing any functionality that is only available to the owner."
      },
      "transferOwnership(address)": {
        "details": "Transfers ownership of the contract to a new account (`newOwner`). Can only be called by the current owner."
      },
      "unregisterRootForAll(uint256)": {
        "details": "Unregister a root, available for all contracts",
        "params": {
          "root": "Root to unregister"
        }
      },
      "unregisterRootForAttester(address,uint256)": {
        "details": "Unregister a root for an attester",
        "params": {
          "attester": "Attester which will no longer have the root available",
          "root": "Root to unregister"
        }
      }
    },
    "title": "Attesters Groups Registry",
    "version": 1
  },
  "userdoc": {
    "kind": "user",
    "methods": {},
    "notice": "This contract stores that data required by attesters to be available so they can verify user claims This contract is deployed behind a proxy and this implementation is focused on storing merkle roots For more information: https://available-roots-registry.docs.sismo.io*",
    "version": 1
  },
  "storageLayout": {
    "storage": [
      {
        "astId": 936,
        "contract": "contracts/periphery/utils/AvailableRootsRegistry.sol:AvailableRootsRegistry",
        "label": "_initialized",
        "offset": 0,
        "slot": "0",
        "type": "t_bool"
      },
      {
        "astId": 939,
        "contract": "contracts/periphery/utils/AvailableRootsRegistry.sol:AvailableRootsRegistry",
        "label": "_initializing",
        "offset": 1,
        "slot": "0",
        "type": "t_bool"
      },
      {
        "astId": 389,
        "contract": "contracts/periphery/utils/AvailableRootsRegistry.sol:AvailableRootsRegistry",
        "label": "_owner",
        "offset": 2,
        "slot": "0",
        "type": "t_address"
      },
      {
        "astId": 12620,
        "contract": "contracts/periphery/utils/AvailableRootsRegistry.sol:AvailableRootsRegistry",
        "label": "_roots",
        "offset": 0,
        "slot": "1",
        "type": "t_mapping(t_address,t_mapping(t_uint256,t_bool))"
      }
    ],
    "types": {
      "t_address": {
        "encoding": "inplace",
        "label": "address",
        "numberOfBytes": "20"
      },
      "t_bool": {
        "encoding": "inplace",
        "label": "bool",
        "numberOfBytes": "1"
      },
      "t_mapping(t_address,t_mapping(t_uint256,t_bool))": {
        "encoding": "mapping",
        "key": "t_address",
        "label": "mapping(address => mapping(uint256 => bool))",
        "numberOfBytes": "32",
        "value": "t_mapping(t_uint256,t_bool)"
      },
      "t_mapping(t_uint256,t_bool)": {
        "encoding": "mapping",
        "key": "t_uint256",
        "label": "mapping(uint256 => bool)",
        "numberOfBytes": "32",
        "value": "t_bool"
      },
      "t_uint256": {
        "encoding": "inplace",
        "label": "uint256",
        "numberOfBytes": "32"
      }
    }
  }
}