{
  "address": "0x34e3CcCF4fF2E297be22465b85F03E5E6D27b41B",
  "abi": [
    {
      "inputs": [
        {
          "internalType": "uint256[2]",
          "name": "a",
          "type": "uint256[2]"
        },
        {
          "internalType": "uint256[2][2]",
          "name": "b",
          "type": "uint256[2][2]"
        },
        {
          "internalType": "uint256[2]",
          "name": "c",
          "type": "uint256[2]"
        },
        {
          "internalType": "uint256[10]",
          "name": "input",
          "type": "uint256[10]"
        }
      ],
      "name": "verifyProof",
      "outputs": [
        {
          "internalType": "bool",
          "name": "r",
          "type": "bool"
        }
      ],
      "stateMutability": "view",
      "type": "function"
    }
  ],
  "transactionHash": "0xe014dc2f684e0ea6fb465c893377c297968ee215f697e47d04c455d4cdd2314f",
  "args": [],
  "numDeployments": 1,
  "solcInputHash": "70d5ec851bd4311fac67c09b114b9c0c",
  "bytecode": "0x608060405234801561001057600080fd5b50611597806100206000396000f3fe608060405234801561001057600080fd5b506004361061002b5760003560e01c8063f3bb70f614610030575b600080fd5b61004361003e3660046113ce565b610057565b604051901515815260200160405180910390f35b60006100616111e1565b604080518082018252875181526020808901518183015290835281516080810183528751518184019081528851830151606083015281528251808401845288830180515182525183015181840152818301528382015281518083018352865181528682015181830152838301528151600a8082526101608201909352600092909182016101408036833701905050905060005b600a811015610143578481600a811061010f5761010f6114ac565b6020020151828281518110610126576101266114ac565b60209081029190910101528061013b816114d8565b9150506100f4565b5061014e818361016f565b60000361016057600192505050610167565b6000925050505b949350505050565b60007f30644e72e131a029b85045b68181585d2833e84879b9709143e1f593f00000018161019b610366565b9050806080015151855160016101b191906114f1565b146101f85760405162461bcd60e51b81526020600482015260126024820152711d995c9a599a595c8b5898590b5a5b9c1d5d60721b60448201526064015b60405180910390fd5b604080518082019091526000808252602082018190525b86518110156102e9578387828151811061022b5761022b6114ac565b6020026020010151106102805760405162461bcd60e51b815260206004820152601f60248201527f76657269666965722d6774652d736e61726b2d7363616c61722d6669656c640060448201526064016101ef565b6102d5826102d0856080015184600161029991906114f1565b815181106102a9576102a96114ac565b60200260200101518a85815181106102c3576102c36114ac565b6020026020010151610b30565b610bc6565b9150806102e1816114d8565b91505061020f565b50610312818360800151600081518110610305576103056114ac565b6020026020010151610bc6565b90506103486103248660000151610c5f565b8660200151846000015185602001518587604001518b604001518960600151610cfe565b6103585760019350505050610360565b600093505050505b92915050565b61036e611232565b6040805180820182527f2d4d9aa7e302d9df41749d5507949d05dbea33fbb16c643b22f599a2be6df2e281527f14bedd503c37ceb061d8ec60209fe345ce89830a19230301f076caff004d19266020808301919091529083528151608080820184527f0967032fcbf776d1afc985f88877f182d38480a653f2decaa9794cbc3bf3060c8285019081527f0e187847ad4c798374d0d6732bf501847dd68bc0e071241e0213bc7fc13db7ab606080850191909152908352845180860186527f304cfbd1e08a704a99f5e847d93f8c3caafddec46b7a0d379da69a4d112346a781527f1739c1b1a457a8c7313123d24d2f9192f896b7c63eea05a9d57f06547ad0cec8818601528385015285840192909252835180820185527f198e9393920d483a7260bfb731fb5d25f1aa493335a9e71297e485b7aef312c28186019081527f1800deef121f1e76426a00665e5c4479674322d4f75edadd46debd5cd992f6ed828501528152845180860186527f090689d0585ff075ec9e99ad690c3395bc4b313370b38ef355acdadcd122975b81527f12c85ea5db8c6deb4aab71808dcb408fe3d1e7690c43d37b4ce6cc0166fa7daa818601528185015285850152835190810184527f24edf4608928ab2e294017ecd50ee67f8bc4af3e757e22d4287063d562b5342d8185019081527f1f9802391c8ea20e4ab99a90999c111b4fdeda5f2286f14030c4b9d48526b862828401528152835180850185527f142a07b2bdeb273e1d26c4f9f6ce3b6d714069d9cdb2a9bf4f04c4bf0d74356481527f288b4d40646e027ef607ca71d10fdf438435b1f9f04a8598940702832cfdfd748185015281840152908401528151600b8082526101808201909352919082015b60408051808201909152600080825260208201528152602001906001900390816105ea57505060808201908152604080518082019091527f2191d432bdb3ae17dc48f015ca1e5a194067cc676f5b12bbf2704bb171b2d92281527f0f7a7366579dfef36e7b743b7d76edc15933eea30e95feaa2cf96e3217d2e98160208201529051805160009061067d5761067d6114ac565b602002602001018190525060405180604001604052807f084d1b300a1ecc4c0d892345551e790b2d49fe22a1b71fbcd94d0be8931871bb81526020017f24861196b6282d728048cae2ec60fbc8496829a8dfbb4273f731b2b726b0f62881525081608001516001815181106106f4576106f46114ac565b602002602001018190525060405180604001604052807f209369983ced02fe1bdfed53e6c88a12bd3efd860515daa6a398aa73bbb09c7181526020017f28e41e5609c0e714afa30a906663b8ee61baecd274f9d30fd36f9c426ff9e593815250816080015160028151811061076b5761076b6114ac565b602002602001018190525060405180604001604052807f2436f370c4d94130c354a1c38a6eba2ec14e4b36d1f62f823af19a13a4d7ea6381526020017f1a3f980d5d078472d6f27233d0f83f227849b7ad2a7f626ae5f869aa774000a681525081608001516003815181106107e2576107e26114ac565b602002602001018190525060405180604001604052807f2ca8851735361bdfd2cffea9982c0f94d44bec1420ebcc177231af812087ca4a81526020017f1c3643d6f15453c75c41431f7d177a73dc40fa96ef0a4d757fd22617feea626b8152508160800151600481518110610859576108596114ac565b602002602001018190525060405180604001604052807f2a589e73a13253f62ef04f0de55310307772aa3b2182f0fe774f69814e50797b81526020017f013506ba8c18df3e46b2384f3e7cf3641ba7406caecda831d94b82fc9db3250081525081608001516005815181106108d0576108d06114ac565b602002602001018190525060405180604001604052807f05b0027566c0abfb896f99cb833f5cc81a261d7b384e6a64c9b84fddac3bb01a81526020017f246d04a75084e3d6cec4165eec1a93ec268741e077ae5aa861927fb928f1e75c8152508160800151600681518110610947576109476114ac565b602002602001018190525060405180604001604052807f02a0ff754861398f35b941fec5d7f79c2c345bc133e29adeb13c103907e59edc81526020017f0959e8e35ad6f4f6985264f3db47dbe42815ff3aa194a2e9fb997c6cba66b77481525081608001516007815181106109be576109be6114ac565b602002602001018190525060405180604001604052807f2b567a1e26a932fa728a650315371e9f9df455a5b0c1c0886bd80d6060a9908981526020017e66798780cd5512ad9f5a2373f1fb64535a8e3c4ad8c33ddc8bd18fc441116a8152508160800151600881518110610a3457610a346114ac565b602002602001018190525060405180604001604052807f05e99e747e67c5e99caba3c9e6de0a28d723b5f7a3a218d1ab75713230a4d8e181526020017f04b542d839b6a92ff2a2d92d68fb1b9fbe1767bc66422bbcd0d340703ad22e188152508160800151600981518110610aab57610aab6114ac565b602002602001018190525060405180604001604052807f102f5e9ec24f58ddf1d39e018b5367ef9ea173301e98cdd899627bd14762ee6981526020017f068105d1e3d4238ec4274b68a5177670d700a905e46fd5c6779ef83d6916c4f18152508160800151600a81518110610b2257610b226114ac565b602002602001018190525090565b6040805180820190915260008082526020820152610b4c611283565b835181526020808501519082015260408101839052600060608360808460076107d05a03fa90508080610b7b57fe5b5080610bbe5760405162461bcd60e51b81526020600482015260126024820152711c185a5c9a5b99cb5b5d5b0b59985a5b195960721b60448201526064016101ef565b505092915050565b6040805180820190915260008082526020820152610be26112a1565b8351815260208085015181830152835160408301528301516060808301919091526000908360c08460066107d05a03fa90508080610c1c57fe5b5080610bbe5760405162461bcd60e51b81526020600482015260126024820152711c185a5c9a5b99cb5859190b59985a5b195960721b60448201526064016101ef565b604080518082019091526000808252602082015281517f30644e72e131a029b85045b68181585d97816a916871ca8d3c208c16d87cfd4790158015610ca657506020830151155b15610cc65750506040805180820190915260008082526020820152919050565b604051806040016040528084600001518152602001828560200151610ceb9190611509565b610cf5908461152b565b90529392505050565b60408051600480825260a08201909252600091829190816020015b6040805180820190915260008082526020820152815260200190600190039081610d1957505060408051600480825260a0820190925291925060009190602082015b610d636112bf565b815260200190600190039081610d5b5790505090508a82600081518110610d8c57610d8c6114ac565b60200260200101819052508882600181518110610dab57610dab6114ac565b60200260200101819052508682600281518110610dca57610dca6114ac565b60200260200101819052508482600381518110610de957610de96114ac565b60200260200101819052508981600081518110610e0857610e086114ac565b60200260200101819052508781600181518110610e2757610e276114ac565b60200260200101819052508581600281518110610e4657610e466114ac565b60200260200101819052508381600381518110610e6557610e656114ac565b6020026020010181905250610e7a8282610e89565b9b9a5050505050505050505050565b60008151835114610ed55760405162461bcd60e51b81526020600482015260166024820152751c185a5c9a5b99cb5b195b99dd1a1ccb59985a5b195960521b60448201526064016101ef565b82516000610ee4826006611542565b905060008167ffffffffffffffff811115610f0157610f0161131b565b604051908082528060200260200182016040528015610f2a578160200160208202803683370190505b50905060005b8381101561116557868181518110610f4a57610f4a6114ac565b60200260200101516000015182826006610f649190611542565b610f6f9060006114f1565b81518110610f7f57610f7f6114ac565b602002602001018181525050868181518110610f9d57610f9d6114ac565b60200260200101516020015182826006610fb79190611542565b610fc29060016114f1565b81518110610fd257610fd26114ac565b602002602001018181525050858181518110610ff057610ff06114ac565b6020908102919091010151515182611009836006611542565b6110149060026114f1565b81518110611024576110246114ac565b602002602001018181525050858181518110611042576110426114ac565b6020908102919091018101515101518261105d836006611542565b6110689060036114f1565b81518110611078576110786114ac565b602002602001018181525050858181518110611096576110966114ac565b6020026020010151602001516000600281106110b4576110b46114ac565b6020020151826110c5836006611542565b6110d09060046114f1565b815181106110e0576110e06114ac565b6020026020010181815250508581815181106110fe576110fe6114ac565b60200260200101516020015160016002811061111c5761111c6114ac565b60200201518261112d836006611542565b6111389060056114f1565b81518110611148576111486114ac565b60209081029190910101528061115d816114d8565b915050610f30565b5061116e6112df565b6000602082602086026020860160086107d05a03fa9050808061118d57fe5b50806111d35760405162461bcd60e51b81526020600482015260156024820152741c185a5c9a5b99cb5bdc18dbd9194b59985a5b1959605a1b60448201526064016101ef565b505115159695505050505050565b6040805160a08101909152600060608201818152608083019190915281526020810161120b6112bf565b815260200161122d604051806040016040528060008152602001600081525090565b905290565b6040805160e08101909152600060a0820181815260c083019190915281526020810161125c6112bf565b81526020016112696112bf565b81526020016112766112bf565b8152602001606081525090565b60405180606001604052806003906020820280368337509192915050565b60405180608001604052806004906020820280368337509192915050565b60405180604001604052806112d26112fd565b815260200161122d6112fd565b60405180602001604052806001906020820280368337509192915050565b60405180604001604052806002906020820280368337509192915050565b634e487b7160e01b600052604160045260246000fd5b6040805190810167ffffffffffffffff811182821017156113545761135461131b565b60405290565b604051610140810167ffffffffffffffff811182821017156113545761135461131b565b600082601f83011261138f57600080fd5b611397611331565b8060408401858111156113a957600080fd5b845b818110156113c35780358452602093840193016113ab565b509095945050505050565b6000806000806102408086880312156113e657600080fd5b6113f0878761137e565b9450604087605f88011261140357600080fd5b61140b611331565b8060c089018a81111561141d57600080fd5b838a015b81811015611442576114338c8261137e565b84526020909301928401611421565b508197506114508b8261137e565b9650505050508661011f87011261146657600080fd5b61146e61135a565b90860190808883111561148057600080fd5b61010088015b8381101561149e578035835260209283019201611486565b509598949750929550505050565b634e487b7160e01b600052603260045260246000fd5b634e487b7160e01b600052601160045260246000fd5b6000600182016114ea576114ea6114c2565b5060010190565b60008219821115611504576115046114c2565b500190565b60008261152657634e487b7160e01b600052601260045260246000fd5b500690565b60008282101561153d5761153d6114c2565b500390565b600081600019048311821515161561155c5761155c6114c2565b50029056fea2646970667358221220e8781558c3439f0e675a30351c2195a1d04561fa654f01751045f8d07ad8b22464736f6c634300080e0033",
  "devdoc": {
    "kind": "dev",
    "methods": {
      "verifyProof(uint256[2],uint256[2][2],uint256[2],uint256[10])": {
        "returns": {
          "r": " bool true if proof is valid"
        }
      }
    },
    "version": 1
  },
  "userdoc": {
    "kind": "user",
    "methods": {},
    "version": 1
  },
  "storageLayout": {
    "storage": [],
    "types": null
  }
}