{
  "address": "0x6a7E6A85ea2744C1c033BE4Da315636EBD95f054",
  "abi": [
    {
      "inputs": [
        {
          "internalType": "address",
          "name": "attestationsRegistryAddress",
          "type": "address"
        },
        {
          "internalType": "address",
          "name": "hydraS1VerifierAddress",
          "type": "address"
        },
        {
          "internalType": "address",
          "name": "availableRootsRegistryAddress",
          "type": "address"
        },
        {
          "internalType": "address",
          "name": "commitmentMapperAddress",
          "type": "address"
        },
        {
          "internalType": "uint256",
          "name": "collectionIdFirst",
          "type": "uint256"
        },
        {
          "internalType": "uint256",
          "name": "collectionIdLast",
          "type": "uint256"
        }
      ],
      "stateMutability": "nonpayable",
      "type": "constructor"
    },
    {
      "inputs": [
        {
          "internalType": "uint256",
          "name": "expectedAccountsTreeValue",
          "type": "uint256"
        },
        {
          "internalType": "uint256",
          "name": "inputAccountsTreeValue",
          "type": "uint256"
        }
      ],
      "name": "AccountsTreeValueMismatch",
      "type": "error"
    },
    {
      "inputs": [],
      "name": "AttestationDeletionNotImplemented",
      "type": "error"
    },
    {
      "inputs": [
        {
          "internalType": "uint256",
          "name": "expectedChainId",
          "type": "uint256"
        },
        {
          "internalType": "uint256",
          "name": "chainId",
          "type": "uint256"
        }
      ],
      "name": "ChainIdMismatch",
      "type": "error"
    },
    {
      "inputs": [
        {
          "internalType": "uint256",
          "name": "claimLength",
          "type": "uint256"
        }
      ],
      "name": "ClaimsLengthDifferentThanOne",
      "type": "error"
    },
    {
      "inputs": [
        {
          "internalType": "uint256",
          "name": "collectionId",
          "type": "uint256"
        }
      ],
      "name": "CollectionIdOutOfBound",
      "type": "error"
    },
    {
      "inputs": [
        {
          "internalType": "uint256",
          "name": "expectedX",
          "type": "uint256"
        },
        {
          "internalType": "uint256",
          "name": "expectedY",
          "type": "uint256"
        },
        {
          "internalType": "uint256",
          "name": "inputX",
          "type": "uint256"
        },
        {
          "internalType": "uint256",
          "name": "inputY",
          "type": "uint256"
        }
      ],
      "name": "CommitmentMapperPubKeyMismatch",
      "type": "error"
    },
    {
      "inputs": [
        {
          "internalType": "address",
          "name": "expectedDestination",
          "type": "address"
        },
        {
          "internalType": "address",
          "name": "inputDestination",
          "type": "address"
        }
      ],
      "name": "DestinationMismatch",
      "type": "error"
    },
    {
      "inputs": [
        {
          "internalType": "uint256",
          "name": "expectedGroupId",
          "type": "uint256"
        },
        {
          "internalType": "uint256",
          "name": "groupId",
          "type": "uint256"
        }
      ],
      "name": "GroupIdAndPropertiesMismatch",
      "type": "error"
    },
    {
      "inputs": [
        {
          "internalType": "string",
          "name": "reason",
          "type": "string"
        }
      ],
      "name": "InvalidGroth16Proof",
      "type": "error"
    },
    {
      "inputs": [
        {
          "internalType": "bool",
          "name": "expectedStrictness",
          "type": "bool"
        },
        {
          "internalType": "bool",
          "name": "strictNess",
          "type": "bool"
        }
      ],
      "name": "IsStrictMismatch",
      "type": "error"
    },
    {
      "inputs": [
        {
          "internalType": "uint256",
          "name": "inputRoot",
          "type": "uint256"
        }
      ],
      "name": "RegistryRootMismatch",
      "type": "error"
    },
    {
      "inputs": [
        {
          "internalType": "uint256",
          "name": "expectedTicketIdentifier",
          "type": "uint256"
        },
        {
          "internalType": "uint256",
          "name": "ticketIdentifier",
          "type": "uint256"
        }
      ],
      "name": "TicketIdentifierMismatch",
      "type": "error"
    },
    {
      "inputs": [
        {
          "components": [
            {
              "internalType": "address",
              "name": "destination",
              "type": "address"
            },
            {
              "internalType": "uint32",
              "name": "cooldownStart",
              "type": "uint32"
            },
            {
              "internalType": "uint16",
              "name": "burnCount",
              "type": "uint16"
            }
          ],
          "internalType": "struct IHydraS1AccountboundAttester.TicketData",
          "name": "ticketData",
          "type": "tuple"
        },
        {
          "internalType": "uint32",
          "name": "cooldownDuration",
          "type": "uint32"
        }
      ],
      "name": "TicketOnCooldown",
      "type": "error"
    },
    {
      "inputs": [
        {
          "internalType": "uint256",
          "name": "expectedValue",
          "type": "uint256"
        },
        {
          "internalType": "uint256",
          "name": "inputValue",
          "type": "uint256"
        }
      ],
      "name": "ValueMismatch",
      "type": "error"
    },
    {
      "anonymous": false,
      "inputs": [
        {
          "components": [
            {
              "internalType": "uint256",
              "name": "collectionId",
              "type": "uint256"
            },
            {
              "internalType": "address",
              "name": "owner",
              "type": "address"
            },
            {
              "internalType": "address",
              "name": "issuer",
              "type": "address"
            },
            {
              "internalType": "uint256",
              "name": "value",
              "type": "uint256"
            },
            {
              "internalType": "uint32",
              "name": "timestamp",
              "type": "uint32"
            },
            {
              "internalType": "bytes",
              "name": "extraData",
              "type": "bytes"
            }
          ],
          "indexed": false,
          "internalType": "struct Attestation",
          "name": "attestation",
          "type": "tuple"
        }
      ],
      "name": "AttestationDeleted",
      "type": "event"
    },
    {
      "anonymous": false,
      "inputs": [
        {
          "components": [
            {
              "internalType": "uint256",
              "name": "collectionId",
              "type": "uint256"
            },
            {
              "internalType": "address",
              "name": "owner",
              "type": "address"
            },
            {
              "internalType": "address",
              "name": "issuer",
              "type": "address"
            },
            {
              "internalType": "uint256",
              "name": "value",
              "type": "uint256"
            },
            {
              "internalType": "uint32",
              "name": "timestamp",
              "type": "uint32"
            },
            {
              "internalType": "bytes",
              "name": "extraData",
              "type": "bytes"
            }
          ],
          "indexed": false,
          "internalType": "struct Attestation",
          "name": "attestation",
          "type": "tuple"
        }
      ],
      "name": "AttestationGenerated",
      "type": "event"
    },
    {
      "anonymous": false,
      "inputs": [
        {
          "indexed": false,
          "internalType": "uint256",
          "name": "ticket",
          "type": "uint256"
        },
        {
          "indexed": false,
          "internalType": "address",
          "name": "newOwner",
          "type": "address"
        }
      ],
      "name": "TicketDestinationUpdated",
      "type": "event"
    },
    {
      "anonymous": false,
      "inputs": [
        {
          "indexed": false,
          "internalType": "uint256",
          "name": "ticket",
          "type": "uint256"
        },
        {
          "indexed": false,
          "internalType": "uint16",
          "name": "burnCount",
          "type": "uint16"
        }
      ],
      "name": "TicketSetOnCooldown",
      "type": "event"
    },
    {
      "inputs": [],
      "name": "AUTHORIZED_COLLECTION_ID_FIRST",
      "outputs": [
        {
          "internalType": "uint256",
          "name": "",
          "type": "uint256"
        }
      ],
      "stateMutability": "view",
      "type": "function"
    },
    {
      "inputs": [],
      "name": "AUTHORIZED_COLLECTION_ID_LAST",
      "outputs": [
        {
          "internalType": "uint256",
          "name": "",
          "type": "uint256"
        }
      ],
      "stateMutability": "view",
      "type": "function"
    },
    {
      "inputs": [
        {
          "components": [
            {
              "components": [
                {
                  "internalType": "uint256",
                  "name": "groupId",
                  "type": "uint256"
                },
                {
                  "internalType": "uint256",
                  "name": "claimedValue",
                  "type": "uint256"
                },
                {
                  "internalType": "bytes",
                  "name": "extraData",
                  "type": "bytes"
                }
              ],
              "internalType": "struct Claim[]",
              "name": "claims",
              "type": "tuple[]"
            },
            {
              "internalType": "address",
              "name": "destination",
              "type": "address"
            }
          ],
          "internalType": "struct Request",
          "name": "request",
          "type": "tuple"
        },
        {
          "internalType": "bytes",
          "name": "proofData",
          "type": "bytes"
        }
      ],
      "name": "buildAttestations",
      "outputs": [
        {
          "components": [
            {
              "internalType": "uint256",
              "name": "collectionId",
              "type": "uint256"
            },
            {
              "internalType": "address",
              "name": "owner",
              "type": "address"
            },
            {
              "internalType": "address",
              "name": "issuer",
              "type": "address"
            },
            {
              "internalType": "uint256",
              "name": "value",
              "type": "uint256"
            },
            {
              "internalType": "uint32",
              "name": "timestamp",
              "type": "uint32"
            },
            {
              "internalType": "bytes",
              "name": "extraData",
              "type": "bytes"
            }
          ],
          "internalType": "struct Attestation[]",
          "name": "",
          "type": "tuple[]"
        }
      ],
      "stateMutability": "view",
      "type": "function"
    },
    {
      "inputs": [
        {
          "internalType": "uint256[]",
          "name": "collectionIds",
          "type": "uint256[]"
        },
        {
          "internalType": "address",
          "name": "attestationsOwner",
          "type": "address"
        },
        {
          "internalType": "bytes",
          "name": "proofData",
          "type": "bytes"
        }
      ],
      "name": "deleteAttestations",
      "outputs": [
        {
          "components": [
            {
              "internalType": "uint256",
              "name": "collectionId",
              "type": "uint256"
            },
            {
              "internalType": "address",
              "name": "owner",
              "type": "address"
            },
            {
              "internalType": "address",
              "name": "issuer",
              "type": "address"
            },
            {
              "internalType": "uint256",
              "name": "value",
              "type": "uint256"
            },
            {
              "internalType": "uint32",
              "name": "timestamp",
              "type": "uint32"
            },
            {
              "internalType": "bytes",
              "name": "extraData",
              "type": "bytes"
            }
          ],
          "internalType": "struct Attestation[]",
          "name": "",
          "type": "tuple[]"
        }
      ],
      "stateMutability": "nonpayable",
      "type": "function"
    },
    {
      "inputs": [
        {
          "components": [
            {
              "components": [
                {
                  "internalType": "uint256",
                  "name": "groupId",
                  "type": "uint256"
                },
                {
                  "internalType": "uint256",
                  "name": "claimedValue",
                  "type": "uint256"
                },
                {
                  "internalType": "bytes",
                  "name": "extraData",
                  "type": "bytes"
                }
              ],
              "internalType": "struct Claim[]",
              "name": "claims",
              "type": "tuple[]"
            },
            {
              "internalType": "address",
              "name": "destination",
              "type": "address"
            }
          ],
          "internalType": "struct Request",
          "name": "request",
          "type": "tuple"
        },
        {
          "internalType": "bytes",
          "name": "proofData",
          "type": "bytes"
        }
      ],
      "name": "generateAttestations",
      "outputs": [
        {
          "components": [
            {
              "internalType": "uint256",
              "name": "collectionId",
              "type": "uint256"
            },
            {
              "internalType": "address",
              "name": "owner",
              "type": "address"
            },
            {
              "internalType": "address",
              "name": "issuer",
              "type": "address"
            },
            {
              "internalType": "uint256",
              "name": "value",
              "type": "uint256"
            },
            {
              "internalType": "uint32",
              "name": "timestamp",
              "type": "uint32"
            },
            {
              "internalType": "bytes",
              "name": "extraData",
              "type": "bytes"
            }
          ],
          "internalType": "struct Attestation[]",
          "name": "",
          "type": "tuple[]"
        }
      ],
      "stateMutability": "nonpayable",
      "type": "function"
    },
    {
      "inputs": [],
      "name": "getAttestationRegistry",
      "outputs": [
        {
          "internalType": "contract IAttestationsRegistry",
          "name": "",
          "type": "address"
        }
      ],
      "stateMutability": "view",
      "type": "function"
    },
    {
      "inputs": [],
      "name": "getAvailableRootsRegistry",
      "outputs": [
        {
          "internalType": "contract IAvailableRootsRegistry",
          "name": "",
          "type": "address"
        }
      ],
      "stateMutability": "view",
      "type": "function"
    },
    {
      "inputs": [],
      "name": "getCommitmentMapperRegistry",
      "outputs": [
        {
          "internalType": "contract ICommitmentMapperRegistry",
          "name": "",
          "type": "address"
        }
      ],
      "stateMutability": "view",
      "type": "function"
    },
    {
      "inputs": [
        {
          "internalType": "uint256",
          "name": "userTicket",
          "type": "uint256"
        }
      ],
      "name": "getDestinationOfTicket",
      "outputs": [
        {
          "internalType": "address",
          "name": "",
          "type": "address"
        }
      ],
      "stateMutability": "view",
      "type": "function"
    },
    {
      "inputs": [
        {
          "internalType": "uint256",
          "name": "userTicket",
          "type": "uint256"
        }
      ],
      "name": "getTicketData",
      "outputs": [
        {
          "components": [
            {
              "internalType": "address",
              "name": "destination",
              "type": "address"
            },
            {
              "internalType": "uint32",
              "name": "cooldownStart",
              "type": "uint32"
            },
            {
              "internalType": "uint16",
              "name": "burnCount",
              "type": "uint16"
            }
          ],
          "internalType": "struct IHydraS1AccountboundAttester.TicketData",
          "name": "",
          "type": "tuple"
        }
      ],
      "stateMutability": "view",
      "type": "function"
    },
    {
      "inputs": [],
      "name": "getVerifier",
      "outputs": [
        {
          "internalType": "contract HydraS1Verifier",
          "name": "",
          "type": "address"
        }
      ],
      "stateMutability": "view",
      "type": "function"
    }
  ],
  "transactionHash": "0x8ed447ebeabab996d91a141b1b0c660f4daad0afdf85d26932e1e3785e364d79",
  "args": [
    "0xf576E42E5b2682B8f606B1840c3A982610C29a3f",
    "0x34e3CcCF4fF2E297be22465b85F03E5E6D27b41B",
    "0x2c17e335d131dfd21238475Dd545B9B29Fb5A27D",
    "0x82B54988e4E3a2850501F91AC06CEA82bdb014D3",
    "20000001",
    "30000000"
  ],
  "numDeployments": 1,
  "solcInputHash": "c7c67c4a1ddf53de4ef76f8a114dfc39",
  "bytecode": "0x6101406040523480156200001257600080fd5b506040516200263638038062002636833981016040819052620000359162000081565b6001600160a01b0394851660805292841660c05290831660a0529190921660e0526101005261012052620000f0565b80516001600160a01b03811681146200007c57600080fd5b919050565b60008060008060008060c087890312156200009b57600080fd5b620000a68762000064565b9550620000b66020880162000064565b9450620000c66040880162000064565b9350620000d66060880162000064565b92506080870151915060a087015190509295509295509295565b60805160a05160c05160e05161010051610120516124ab6200018b6000396000818161016001526102e0015260008181610118015281816102b801528181610cca0152610dcc0152600081816101ca0152818161058001528181610761015281816109000152610d2301526000818161018401526111c801526000818160b0015261126401526000818160ef01526113c501526124ab6000f3fe608060405234801561001057600080fd5b50600436106100a95760003560e01c8063918447af11610071578063918447af14610182578063af411a30146101a8578063bfa66585146101c8578063c776adde146101ee578063d9895e6a14610201578063e60f999f1461022157600080fd5b80632254f98e146100ae57806346657fe9146100ed57806354846d7a1461011357806363e4afc2146101485780637000b0511461015b575b600080fd5b7f00000000000000000000000000000000000000000000000000000000000000005b6040516001600160a01b0390911681526020015b60405180910390f35b7f00000000000000000000000000000000000000000000000000000000000000006100d0565b61013a7f000000000000000000000000000000000000000000000000000000000000000081565b6040519081526020016100e4565b6100d0610156366004611908565b610234565b61013a7f000000000000000000000000000000000000000000000000000000000000000081565b7f00000000000000000000000000000000000000000000000000000000000000006100d0565b6101bb6101b6366004611969565b610253565b6040516100e49190611a94565b7f00000000000000000000000000000000000000000000000000000000000000006100d0565b6101bb6101fc366004611b1b565b610489565b61021461020f366004611908565b610844565b6040516100e49190611bcc565b6101bb61022f366004611969565b6108c2565b6000818152600160205260408120546001600160a01b03165b92915050565b6060600061026861026386611cad565b6109de565b60408051600180825281830190925291925060009190816020015b61028b6117e2565b8152602001906001900390816102835750506060830151519091506000906102dc906001600160801b03167f0000000000000000000000000000000000000000000000000000000000000000611e3c565b90507f000000000000000000000000000000000000000000000000000000000000000081111561032757604051637bbf29e360e01b8152600481018290526024015b60405180910390fd5b3060006103348888610aa2565b600081815260016020908152604091829020825160608101845290546001600160a01b038116808352600160a01b820463ffffffff1693830193909352600160c01b900461ffff16928101839052929350158015906103b8575061039e60408c0160208d01611e54565b6001600160a01b031682600001516001600160a01b031614155b156103cb576103c8600182611e71565b90505b6040518060c001604052808681526020018c60200160208101906103ef9190611e54565b6001600160a01b03168152602001856001600160a01b031681526020018860200151815260200188606001516020015163ffffffff168152602001848360405160200161044a92919091825261ffff16602082015260400190565b6040516020818303038152906040528152508660008151811061046f5761046f611e97565b602090810291909101015250939998505050505050505050565b60606000856001600160401b038111156104a5576104a5611c00565b6040519080825280602002602001820160405280156104ce578160200160208202803683370190505b5090506000866001600160401b038111156104eb576104eb611c00565b604051908082528060200260200182016040528015610514578160200160208202803683370190505b5090506000876001600160401b0381111561053157610531611c00565b60405190808252806020026020018201604052801561056a57816020015b6105576117e2565b81526020019060019003908161054f5790505b50905060005b8881101561073e576000806000807f00000000000000000000000000000000000000000000000000000000000000006001600160a01b0316633be1ced78f8f888181106105bf576105bf611e97565b905060200201358e6040518363ffffffff1660e01b81526004016105f69291909182526001600160a01b0316602082015260400190565b600060405180830381865afa158015610613573d6000803e3d6000fd5b505050506040513d6000823e601f3d908101601f1916820160405261063b9190810190611ec1565b93509350935093508b88868151811061065657610656611e97565b60200260200101906001600160a01b031690816001600160a01b0316815250508d8d8681811061068857610688611e97565b905060200201358786815181106106a1576106a1611e97565b6020026020010181815250506040518060c001604052808f8f888181106106ca576106ca611e97565b9050602002013581526020018d6001600160a01b03168152602001856001600160a01b031681526020018481526020018363ffffffff1681526020018281525086868151811061071c5761071c611e97565b602002602001018190525050505050808061073690611f70565b915050610570565b5061074a818787610ac7565b60405163811a6af760e01b81526001600160a01b037f0000000000000000000000000000000000000000000000000000000000000000169063811a6af7906107989086908690600401611f89565b600060405180830381600087803b1580156107b257600080fd5b505af11580156107c6573d6000803e3d6000fd5b5050505060005b88811015610837577f01cba57fa881d11e8be5640b6abefb9709f2dd45f776051b2cf5cb8ea23fa56b82828151811061080857610808611e97565b602002602001015160405161081d919061200d565b60405180910390a18061082f81611f70565b9150506107cd565b5098975050505050505050565b604080516060808201835260008083526020808401829052838501829052845180840186528281528082018390528501829052858252600181529084902084519283018552546001600160a01b0381168352600160a01b810463ffffffff1691830191909152600160c01b900461ffff16928101929092529061024d565b60606108cf848484610ae0565b60006108dc858585610253565b90506108e9858585610b2d565b60405163ebc5c09360e01b81526001600160a01b037f0000000000000000000000000000000000000000000000000000000000000000169063ebc5c09390610935908490600401611a94565b600060405180830381600087803b15801561094f57600080fd5b505af1158015610963573d6000803e3d6000fd5b5050505060005b81518110156109d5577f336e708b72b2b4a27a0c25e8cce7f97512e7f1e8dcaf800b100075e62c1eb1fc8282815181106109a6576109a6611e97565b60200260200101516040516109bb919061200d565b60405180910390a1806109cd81611f70565b91505061096a565b50949350505050565b610a25604080516080808201835260008083526020808401829052838501829052845192830185528183528201819052928101839052606081810193909352909182015290565b60008260000151600081518110610a3e57610a3e611e97565b60200260200101519050610a5181610eb3565b60008160400151806020019051810190610a6b9190612030565b60408051608081018252845181526020948501518582015295909301516001600160a01b0316928501929092525060608301525090565b600080610ab183850185612170565b90506000610abe82610ef7565b95945050505050565b604051630d5cd8d960e11b815260040160405180910390fd5b6000610aee82840184612170565b90506000610afb82610f0d565b90506000610b10610b0b87611cad565b610fb7565b9050610b1c818361106a565b610b258361139b565b505050505050565b6000610b398383610aa2565b600081815260016020908152604091829020825160608101845290546001600160a01b038116808352600160a01b820463ffffffff1693830193909352600160c01b900461ffff16928101929092529192509015801590610bbf5750610ba56040860160208701611e54565b6001600160a01b031681600001516001600160a01b031614155b15610e90576000610bd261026387611cad565b9050610be682826060015160400151611534565b15610c40576060810151604090810151815163070cb88560e31b815284516001600160a01b03166004820152602085015163ffffffff90811660248301529285015161ffff1660448201529116606482015260840161031e565b604080516001808252818301909252600091602080830190803683375050604080516001808252818301909252929350600092915060208083019080368337019050509050836000015182600081518110610c9d57610c9d611e97565b6001600160a01b0390921660209283029190910190910152606083015151610cee906001600160801b03167f0000000000000000000000000000000000000000000000000000000000000000611e3c565b81600081518110610d0157610d01611e97565b602090810291909101015260405163811a6af760e01b81526001600160a01b037f0000000000000000000000000000000000000000000000000000000000000000169063811a6af790610d5a9085908590600401611f89565b600060405180830381600087803b158015610d7457600080fd5b505af1158015610d88573d6000803e3d6000fd5b505050507f01cba57fa881d11e8be5640b6abefb9709f2dd45f776051b2cf5cb8ea23fa56b6040518060c001604052808560600151600001516001600160801b03167f0000000000000000000000000000000000000000000000000000000000000000610df59190611e3c565b815260200186600001516001600160a01b03168152602001306001600160a01b031681526020018560200151815260200185606001516020015163ffffffff168152602001878760400151604051602001610e5e92919091825261ffff16602082015260400190565b60408051601f19818403018152918152915251610e7b919061200d565b60405180910390a1610e8c85611555565b5050505b610ea982610ea46040880160208901611e54565b61160d565b5050505050565b50565b6000610ec28260400151611673565b82519091508114610ef35781516040516337e3d1ab60e01b815261031e918391600401918252602082015260400190565b5050565b602081015160009060065b602002015192915050565b610f15611835565b604051806101200160405280610f2a846116a8565b6001600160a01b03168152602001610f41846116b6565b8152602001610f4f846116c5565b8152602001610f5d846116d4565b8152602001610f6b84610ef7565b8152602001610f79846116e3565b8152602001610f87846116f2565b8152602001610f9f8460200151610120015160011490565b15158152602001610faf84611701565b905292915050565b610fbf61188c565b60008260000151600081518110610fd857610fd8611e97565b60200260200101519050610feb81610eb3565b600081604001518060200190518101906110059190612030565b604080516060808201835283516001600160801b0316825260208085015163ffffffff168184015293810151151582840152825160808101845286518152958401518685015296909201516001600160a01b0316908401529382019390935292915050565b815160c08201511461109f57815160c082015160405163fe405c7760e01b81526004810192909252602482015260440161031e565b81606001516040015115158160e001511515036110ea57606082015160409081015160e08301519151634629f1b560e11b81529015156004820152901515602482015260440161031e565b81604001516001600160a01b031681600001516001600160a01b03161461113e57604082810151825191516370a8d99b60e11b81526001600160a01b0391821660048201529116602482015260440161031e565b46816020015114611171576020810151604051630432cec160e31b8152466004820152602481019190915260440161031e565b81602001518160a00151146111ac57602082015160a0820151604051630626ade360e41b81526004810192909252602482015260440161031e565b604081810151905163072f23bd60e51b815260048101919091527f00000000000000000000000000000000000000000000000000000000000000006001600160a01b03169063e5e477a090602401602060405180830381865afa158015611217573d6000803e3d6000fd5b505050506040513d601f19601f8201168201806040525081019061123b9190612241565b61126057806040015160405163cbfe7bc360e01b815260040161031e91815260200190565b60007f00000000000000000000000000000000000000000000000000000000000000006001600160a01b03166359a80d0d6040518163ffffffff1660e01b81526004016040805180830381865afa1580156112bf573d6000803e3d6000fd5b505050506040513d601f19601f820116820180604052508101906112e3919061225c565b80516101008401515191925014158061130a57506020808201516101008401519091015114155b15611354578051602080830151610100850151805192015160405163318d812b60e01b8152600481019490945260248401919091526044830191909152606482015260840161031e565b600061135f84611759565b9050808360600151146113955760608301516040516377bb6d2760e11b815261031e918391600401918252602082015260400190565b50505050565b805180516020808301516040938401519185015193516379ddb87b60e11b81526001600160a01b037f0000000000000000000000000000000000000000000000000000000000000000169463f3bb70f6946113fe949093929091906004016122d8565b602060405180830381865afa925050508015611437575060408051601f3d908101601f1916820190925261143491810190612241565b60015b61150d5761144361235c565b806308c379a00361147c5750611457612378565b8061146257506114bb565b8060405162dd577760e81b815260040161031e9190612401565b634e487b71036114bb5761148e612414565b9061149957506114bb565b60405162dd577760e81b8152602060048201526000602482015260440161031e565b3d8080156114e5576040519150601f19603f3d011682016040523d82523d6000602084013e6114ea565b606091505b5060405162dd577760e81b8152602060048201526000602482015260440161031e565b80610ef35760405162dd577760e81b8152602060048201526000602482015260440161031e565b6000428284602001516115479190612434565b63ffffffff16119392505050565b6000818152600160208190526040909120805463ffffffff60a01b1916600160a01b4263ffffffff16021780825560189061159c908490600160c01b900461ffff16611e71565b82546101009290920a61ffff818102199093169183160217909155600083815260016020908152604091829020548251868152600160c01b909104909316908301527f80c694309c3b71041ff73c728020871b4f851f0f6a739eb4f265e7ffb988d91f92500160405180910390a150565b60008281526001602090815260409182902080546001600160a01b0319166001600160a01b0385169081179091558251858152918201527f38ff70eda64ebd48cbf0a5a4e1be5c5d509a7cdb60258e5a9210c1c0508dcbef910160405180910390a15050565b8051602082012060009061024d907f30644e72e131a029b85045b68181585d2833e84879b9709143e1f593f000000190612453565b602081015160009081610f02565b60208101516000906001610f02565b60208101516000906004610f02565b60208101516000906005610f02565b60208101516000906007610f02565b60208101516000906008610f02565b6117096118ea565b604051806040016040528083602001516002600a811061172b5761172b611e97565b6020020151815260200183602001516003600a811061174c5761174c611e97565b6020020151905292915050565b600080611777308460600151600001516001600160801b031661177e565b9392505050565b604080516001600160a01b03841660208201529081018290526000907f30644e72e131a029b85045b68181585d2833e84879b9709143e1f593f0000001906060016040516020818303038152906040528051906020012060001c6117779190612453565b6040518060c001604052806000815260200160006001600160a01b0316815260200160006001600160a01b0316815260200160008152602001600063ffffffff168152602001606081525090565b905290565b60405180610120016040528060006001600160a01b031681526020016000815260200160008152602001600081526020016000815260200160008152602001600081526020016000151581526020016118306118ea565b6040518060800160405280600081526020016000815260200160006001600160a01b03168152602001611830604051806060016040528060006001600160801b03168152602001600063ffffffff1681526020016000151581525090565b60405180604001604052806002906020820280368337509192915050565b60006020828403121561191a57600080fd5b5035919050565b60008083601f84011261193357600080fd5b5081356001600160401b0381111561194a57600080fd5b60208301915083602082850101111561196257600080fd5b9250929050565b60008060006040848603121561197e57600080fd5b83356001600160401b038082111561199557600080fd5b90850190604082880312156119a957600080fd5b909350602085013590808211156119bf57600080fd5b506119cc86828701611921565b9497909650939450505050565b60005b838110156119f45781810151838201526020016119dc565b838111156113955750506000910152565b60008151808452611a1d8160208601602086016119d9565b601f01601f19169290920160200192915050565b805182526000602082015160018060a01b03808216602086015280604085015116604086015250506060820151606084015263ffffffff608083015116608084015260a082015160c060a0850152611a8c60c0850182611a05565b949350505050565b6000602080830181845280855180835260408601915060408160051b870101925083870160005b82811015611ae957603f19888603018452611ad7858351611a31565b94509285019290850190600101611abb565b5092979650505050505050565b6001600160a01b0381168114610eb057600080fd5b8035611b1681611af6565b919050565b600080600080600060608688031215611b3357600080fd5b85356001600160401b0380821115611b4a57600080fd5b818801915088601f830112611b5e57600080fd5b813581811115611b6d57600080fd5b8960208260051b8501011115611b8257600080fd5b60208301975080965050611b9860208901611b0b565b94506040880135915080821115611bae57600080fd5b50611bbb88828901611921565b969995985093965092949392505050565b81516001600160a01b0316815260208083015163ffffffff169082015260408083015161ffff16908201526060810161024d565b634e487b7160e01b600052604160045260246000fd5b604081018181106001600160401b0382111715611c3557611c35611c00565b60405250565b606081018181106001600160401b0382111715611c3557611c35611c00565b601f8201601f191681016001600160401b0381118282101715611c7f57611c7f611c00565b6040525050565b60006001600160401b03821115611c9f57611c9f611c00565b50601f01601f191660200190565b60006040808336031215611cc057600080fd5b8051611ccb81611c16565b83356001600160401b0380821115611ce257600080fd5b9085019036601f830112611cf557600080fd5b8135602082821115611d0957611d09611c00565b8160051b8651611d1b83830182611c5a565b92835284810182019282810136851115611d3457600080fd5b83870192505b84831015611e0857823586811115611d525760008081fd5b8701606036829003601f1901811315611d6b5760008081fd5b8a51611d7681611c3b565b8287013581528b83013581880152908201359088821115611d975760008081fd5b9181019136603f840112611dad57600091508182fd5b868301359150611dbc82611c86565b8c51611dc88282611c5a565b838152368e858701011115611ddf57600091508182fd5b838e86018a830137600093810189019390935250808c0191909152825250918301918301611d3a565b50865250611e17888201611b0b565b90850152509195945050505050565b634e487b7160e01b600052601160045260246000fd5b60008219821115611e4f57611e4f611e26565b500190565b600060208284031215611e6657600080fd5b813561177781611af6565b600061ffff808316818516808303821115611e8e57611e8e611e26565b01949350505050565b634e487b7160e01b600052603260045260246000fd5b805163ffffffff81168114611b1657600080fd5b60008060008060808587031215611ed757600080fd5b8451611ee281611af6565b60208601519094509250611ef860408601611ead565b915060608501516001600160401b03811115611f1357600080fd5b8501601f81018713611f2457600080fd5b8051611f2f81611c86565b604051611f3c8282611c5a565b828152896020848601011115611f5157600080fd5b611f628360208301602087016119d9565b969995985093965050505050565b600060018201611f8257611f82611e26565b5060010190565b604080825283519082018190526000906020906060840190828701845b82811015611fcb5781516001600160a01b031684529284019290840190600101611fa6565b5050508381038285015284518082528583019183019060005b8181101561200057835183529284019291840191600101611fe4565b5090979650505050505050565b6020815260006117776020830184611a31565b80518015158114611b1657600080fd5b60006080828403121561204257600080fd5b604051608081018181106001600160401b038211171561206457612064611c00565b60405282516001600160801b038116811461207e57600080fd5b815261208c60208401611ead565b602082015261209d60408401611ead565b60408201526120ae60608401612020565b60608201529392505050565b600082601f8301126120cb57600080fd5b6040516120d781611c16565b8060408401858111156120e957600080fd5b845b818110156121035780358352602092830192016120eb565b509195945050505050565b600082601f83011261211f57600080fd5b6040516101408082018281106001600160401b038211171561214357612143611c00565b6040528301818582111561215657600080fd5b845b82811015612103578035825260209182019101612158565b600081830361024081121561218457600080fd5b6040805161219181611c16565b610100808412156121a157600080fd5b825193506121ae84611c3b565b6121b887876120ba565b845286605f8701126121c957600080fd5b82516121d481611c16565b8060c08801898111156121e657600080fd5b8589015b8181101561220b576121fc8b826120ba565b835260209092019186016121ea565b5082602088015261221c8a826120ba565b868801525050508382526122328782880161210e565b60208301525095945050505050565b60006020828403121561225357600080fd5b61177782612020565b60006040828403121561226e57600080fd5b82601f83011261227d57600080fd5b60405161228981611c16565b80604084018581111561229b57600080fd5b845b8181101561210357805183526020928301920161229d565b8060005b60028110156113955781518452602093840193909101906001016122b9565b61024081016122e782876122b5565b60408083018660005b6002811015612317576123048383516122b5565b91830191602091909101906001016122f0565b5050505061232860c08301856122b5565b61010082018360005b600a811015612350578151835260209283019290910190600101612331565b50505095945050505050565b600060033d11156123755760046000803e5060005160e01c5b90565b600060443d10156123865790565b6040516003193d81016004833e81513d6001600160401b0381602484011181841117156123b557505050505090565b82850191508151818111156123cd5750505050505090565b843d87010160208285010111156123e75750505050505090565b6123f660208286010187611c5a565b509095945050505050565b6020815260006117776020830184611a05565b60008060233d1115612430576020600460003e50506000516001905b9091565b600063ffffffff808316818516808303821115611e8e57611e8e611e26565b60008261247057634e487b7160e01b600052601260045260246000fd5b50069056fea264697066735822122022a4655f370ec5e42b58cf5e3cccb6dfe9971f6ee9d1bcd673be0f009e86a94364736f6c634300080e0033",
  "devdoc": {
    "author": "Sismo",
    "errors": {
      "CollectionIdOutOfBound(uint256)": [
        {
          "details": "Error when the collectionId of an attestation overflow the AUTHORIZED_COLLECTION_ID_LAST*"
        }
      ],
      "TicketOnCooldown((address,uint32,uint16),uint32)": [
        {
          "details": "Error when the userTicket is on cooldown. The user have to wait the cooldownDuration before being able to change again the destination address.*"
        }
      ]
    },
    "kind": "dev",
    "methods": {
      "buildAttestations(((uint256,uint256,bytes)[],address),bytes)": {
        "details": "Returns the actual attestations constructed from the user request",
        "params": {
          "proofData": "snark public input as well as snark proof",
          "request": "users request. Claim of having an account part of a group of accounts"
        }
      },
      "constructor": {
        "details": "Constructor. Initializes the contract",
        "params": {
          "attestationsRegistryAddress": "Attestations Registry contract on which the attester will write attestations",
          "availableRootsRegistryAddress": "Registry storing the available groups for this attester (e.g roots of registry merkle trees)",
          "collectionIdFirst": "Id of the first collection in which the attester is supposed to record",
          "collectionIdLast": "Id of the last collection in which the attester is supposed to record",
          "commitmentMapperAddress": "commitment mapper's public key registry",
          "hydraS1VerifierAddress": "ZK Snark Hydra-S1 Verifier contract"
        }
      },
      "deleteAttestations(uint256[],address,bytes)": {
        "details": "External facing function. Allows to delete attestations by submitting proof",
        "params": {
          "attestationsOwner": "Owner of attestations to delete",
          "collectionIds": "Collection identifier of attestations to delete",
          "proofData": "Data sent along the deletion request to prove its validity"
        },
        "returns": {
          "_0": "attestations Attestations that were deleted"
        }
      },
      "generateAttestations(((uint256,uint256,bytes)[],address),bytes)": {
        "details": "Main external function. Allows to generate attestations by making a request and submitting proof",
        "params": {
          "proofData": "Data sent along the request to prove its validity",
          "request": "User request"
        },
        "returns": {
          "_0": "attestations Attestations that has been recorded"
        }
      },
      "getAttestationRegistry()": {
        "details": "Attestation registry getter",
        "returns": {
          "_0": "attestationRegistry"
        }
      },
      "getAvailableRootsRegistry()": {
        "details": "Getter of Roots Registry Contract"
      },
      "getCommitmentMapperRegistry()": {
        "details": "Getter of Commitment Mapper Registry contract"
      },
      "getDestinationOfTicket(uint256)": {
        "details": "Getter, returns the last attestation destination of a ticket",
        "params": {
          "userTicket": "ticket used*"
        }
      },
      "getTicketData(uint256)": {
        "details": "Getter, returns the data linked to a ticket",
        "params": {
          "userTicket": "ticket used*"
        }
      },
      "getVerifier()": {
        "details": "Getter of Hydra-S1 Verifier contract"
      }
    },
    "stateVariables": {
      "AUTHORIZED_COLLECTION_ID_FIRST": {
        "details": "Getter returns of the first collection in which the attester is supposed to record*"
      },
      "AUTHORIZED_COLLECTION_ID_LAST": {
        "details": "Getter returns of the last collection in which the attester is supposed to record*"
      }
    },
    "title": "Hydra-S1 Accountbound Attester",
    "version": 1
  },
  "userdoc": {
    "kind": "user",
    "methods": {},
    "notice": "This attester is part of the family of the Hydra-S1 Attesters. Hydra-S1 attesters enable users to prove they have an account in a group in a privacy preserving way. The Hydra-S1 Base abstract contract is inherited and holds the complex Hydra S1 verification logic. We invite readers to refer to:    - https://hydra-s1.docs.sismo.io for a full guide through the Hydra-S1 ZK Attestations    - https://hydra-s1-circuits.docs.sismo.io for circuits, prover and verifiers of Hydra-S1 This specific attester has the following characteristics: - Zero Knowledge   One cannot deduct from an attestation what source account was used to generate the underlying proof - Non Strict (scores)   If a user can generate an attestation of max value 100, they can also generate any attestation with value < 100.   This attester generate attestations of scores - Ticketed   Each source account gets one userTicket per claim (i.e only one attestation per source account per claim)   For people used to semaphore/ tornado cash people:   userTicket = hash(sourceSecret, ticketIdentifier) <=> nullifierHash = hash(IdNullifier, externalNullifier) - Accountbound (with cooldown period)   Users can choose to delete or generate attestations to a new destination using their source account.   The attestation is \"Accountbound\" to the source account.   When deleting/ sending to a new destination, the ticket will enter a cooldown period, so it remains occasional   User will need to wait until the end of the cooldown period before being able to delete or switch destination again   One can however know that the former and the new destinations were created using the same userTicket - Renewable   A userTicket can actually be reused as long as the destination of the attestation remains the same   It enables users to renew or update their attestations*",
    "version": 1
  },
  "storageLayout": {
    "storage": [
      {
        "astId": 936,
        "contract": "contracts/attesters/hydra-s1/variants/HydraS1AccountboundAttester.sol:HydraS1AccountboundAttester",
        "label": "_initialized",
        "offset": 0,
        "slot": "0",
        "type": "t_bool"
      },
      {
        "astId": 939,
        "contract": "contracts/attesters/hydra-s1/variants/HydraS1AccountboundAttester.sol:HydraS1AccountboundAttester",
        "label": "_initializing",
        "offset": 1,
        "slot": "0",
        "type": "t_bool"
      },
      {
        "astId": 7872,
        "contract": "contracts/attesters/hydra-s1/variants/HydraS1AccountboundAttester.sol:HydraS1AccountboundAttester",
        "label": "_userTicketsData",
        "offset": 0,
        "slot": "1",
        "type": "t_mapping(t_uint256,t_struct(TicketData)7076_storage)"
      }
    ],
    "types": {
      "t_address": {
        "encoding": "inplace",
        "label": "address",
        "numberOfBytes": "20"
      },
      "t_bool": {
        "encoding": "inplace",
        "label": "bool",
        "numberOfBytes": "1"
      },
      "t_mapping(t_uint256,t_struct(TicketData)7076_storage)": {
        "encoding": "mapping",
        "key": "t_uint256",
        "label": "mapping(uint256 => struct IHydraS1AccountboundAttester.TicketData)",
        "numberOfBytes": "32",
        "value": "t_struct(TicketData)7076_storage"
      },
      "t_struct(TicketData)7076_storage": {
        "encoding": "inplace",
        "label": "struct IHydraS1AccountboundAttester.TicketData",
        "members": [
          {
            "astId": 7071,
            "contract": "contracts/attesters/hydra-s1/variants/HydraS1AccountboundAttester.sol:HydraS1AccountboundAttester",
            "label": "destination",
            "offset": 0,
            "slot": "0",
            "type": "t_address"
          },
          {
            "astId": 7073,
            "contract": "contracts/attesters/hydra-s1/variants/HydraS1AccountboundAttester.sol:HydraS1AccountboundAttester",
            "label": "cooldownStart",
            "offset": 20,
            "slot": "0",
            "type": "t_uint32"
          },
          {
            "astId": 7075,
            "contract": "contracts/attesters/hydra-s1/variants/HydraS1AccountboundAttester.sol:HydraS1AccountboundAttester",
            "label": "burnCount",
            "offset": 24,
            "slot": "0",
            "type": "t_uint16"
          }
        ],
        "numberOfBytes": "32"
      },
      "t_uint16": {
        "encoding": "inplace",
        "label": "uint16",
        "numberOfBytes": "2"
      },
      "t_uint256": {
        "encoding": "inplace",
        "label": "uint256",
        "numberOfBytes": "32"
      },
      "t_uint32": {
        "encoding": "inplace",
        "label": "uint32",
        "numberOfBytes": "4"
      }
    }
  }
}