{
  "address": "0x2Da7837f88f253D450073C494C51c1528aeB36C5",
  "abi": [
    {
      "inputs": [
        {
          "internalType": "address",
          "name": "attestationsRegistryAddress",
          "type": "address"
        },
        {
          "internalType": "address",
          "name": "hydraS1VerifierAddress",
          "type": "address"
        },
        {
          "internalType": "address",
          "name": "availableRootsRegistryAddress",
          "type": "address"
        },
        {
          "internalType": "address",
          "name": "commitmentMapperAddress",
          "type": "address"
        },
        {
          "internalType": "uint256",
          "name": "collectionIdFirst",
          "type": "uint256"
        },
        {
          "internalType": "uint256",
          "name": "collectionIdLast",
          "type": "uint256"
        }
      ],
      "stateMutability": "nonpayable",
      "type": "constructor"
    },
    {
      "inputs": [
        {
          "internalType": "uint256",
          "name": "expectedAccountsTreeValue",
          "type": "uint256"
        },
        {
          "internalType": "uint256",
          "name": "inputAccountsTreeValue",
          "type": "uint256"
        }
      ],
      "name": "AccountsTreeValueMismatch",
      "type": "error"
    },
    {
      "inputs": [],
      "name": "AttestationDeletionNotImplemented",
      "type": "error"
    },
    {
      "inputs": [
        {
          "internalType": "uint256",
          "name": "expectedChainId",
          "type": "uint256"
        },
        {
          "internalType": "uint256",
          "name": "chainId",
          "type": "uint256"
        }
      ],
      "name": "ChainIdMismatch",
      "type": "error"
    },
    {
      "inputs": [
        {
          "internalType": "uint256",
          "name": "claimLength",
          "type": "uint256"
        }
      ],
      "name": "ClaimsLengthDifferentThanOne",
      "type": "error"
    },
    {
      "inputs": [
        {
          "internalType": "uint256",
          "name": "collectionId",
          "type": "uint256"
        }
      ],
      "name": "CollectionIdOutOfBound",
      "type": "error"
    },
    {
      "inputs": [
        {
          "internalType": "uint256",
          "name": "expectedX",
          "type": "uint256"
        },
        {
          "internalType": "uint256",
          "name": "expectedY",
          "type": "uint256"
        },
        {
          "internalType": "uint256",
          "name": "inputX",
          "type": "uint256"
        },
        {
          "internalType": "uint256",
          "name": "inputY",
          "type": "uint256"
        }
      ],
      "name": "CommitmentMapperPubKeyMismatch",
      "type": "error"
    },
    {
      "inputs": [
        {
          "internalType": "address",
          "name": "expectedDestination",
          "type": "address"
        },
        {
          "internalType": "address",
          "name": "inputDestination",
          "type": "address"
        }
      ],
      "name": "DestinationMismatch",
      "type": "error"
    },
    {
      "inputs": [
        {
          "internalType": "uint256",
          "name": "expectedGroupId",
          "type": "uint256"
        },
        {
          "internalType": "uint256",
          "name": "groupId",
          "type": "uint256"
        }
      ],
      "name": "GroupIdAndPropertiesMismatch",
      "type": "error"
    },
    {
      "inputs": [
        {
          "internalType": "string",
          "name": "reason",
          "type": "string"
        }
      ],
      "name": "InvalidGroth16Proof",
      "type": "error"
    },
    {
      "inputs": [
        {
          "internalType": "bool",
          "name": "expectedStrictness",
          "type": "bool"
        },
        {
          "internalType": "bool",
          "name": "strictNess",
          "type": "bool"
        }
      ],
      "name": "IsStrictMismatch",
      "type": "error"
    },
    {
      "inputs": [
        {
          "internalType": "uint256",
          "name": "inputRoot",
          "type": "uint256"
        }
      ],
      "name": "RegistryRootMismatch",
      "type": "error"
    },
    {
      "inputs": [
        {
          "internalType": "uint256",
          "name": "expectedTicketIdentifier",
          "type": "uint256"
        },
        {
          "internalType": "uint256",
          "name": "ticketIdentifier",
          "type": "uint256"
        }
      ],
      "name": "TicketIdentifierMismatch",
      "type": "error"
    },
    {
      "inputs": [
        {
          "internalType": "uint256",
          "name": "userTicket",
          "type": "uint256"
        }
      ],
      "name": "TicketUsed",
      "type": "error"
    },
    {
      "inputs": [
        {
          "internalType": "uint256",
          "name": "expectedValue",
          "type": "uint256"
        },
        {
          "internalType": "uint256",
          "name": "inputValue",
          "type": "uint256"
        }
      ],
      "name": "ValueMismatch",
      "type": "error"
    },
    {
      "anonymous": false,
      "inputs": [
        {
          "components": [
            {
              "internalType": "uint256",
              "name": "collectionId",
              "type": "uint256"
            },
            {
              "internalType": "address",
              "name": "owner",
              "type": "address"
            },
            {
              "internalType": "address",
              "name": "issuer",
              "type": "address"
            },
            {
              "internalType": "uint256",
              "name": "value",
              "type": "uint256"
            },
            {
              "internalType": "uint32",
              "name": "timestamp",
              "type": "uint32"
            },
            {
              "internalType": "bytes",
              "name": "extraData",
              "type": "bytes"
            }
          ],
          "indexed": false,
          "internalType": "struct Attestation",
          "name": "attestation",
          "type": "tuple"
        }
      ],
      "name": "AttestationDeleted",
      "type": "event"
    },
    {
      "anonymous": false,
      "inputs": [
        {
          "components": [
            {
              "internalType": "uint256",
              "name": "collectionId",
              "type": "uint256"
            },
            {
              "internalType": "address",
              "name": "owner",
              "type": "address"
            },
            {
              "internalType": "address",
              "name": "issuer",
              "type": "address"
            },
            {
              "internalType": "uint256",
              "name": "value",
              "type": "uint256"
            },
            {
              "internalType": "uint32",
              "name": "timestamp",
              "type": "uint32"
            },
            {
              "internalType": "bytes",
              "name": "extraData",
              "type": "bytes"
            }
          ],
          "indexed": false,
          "internalType": "struct Attestation",
          "name": "attestation",
          "type": "tuple"
        }
      ],
      "name": "AttestationGenerated",
      "type": "event"
    },
    {
      "anonymous": false,
      "inputs": [
        {
          "indexed": false,
          "internalType": "uint256",
          "name": "ticket",
          "type": "uint256"
        },
        {
          "indexed": false,
          "internalType": "address",
          "name": "newOwner",
          "type": "address"
        }
      ],
      "name": "TicketDestinationUpdated",
      "type": "event"
    },
    {
      "inputs": [],
      "name": "AUTHORIZED_COLLECTION_ID_FIRST",
      "outputs": [
        {
          "internalType": "uint256",
          "name": "",
          "type": "uint256"
        }
      ],
      "stateMutability": "view",
      "type": "function"
    },
    {
      "inputs": [],
      "name": "AUTHORIZED_COLLECTION_ID_LAST",
      "outputs": [
        {
          "internalType": "uint256",
          "name": "",
          "type": "uint256"
        }
      ],
      "stateMutability": "view",
      "type": "function"
    },
    {
      "inputs": [
        {
          "components": [
            {
              "components": [
                {
                  "internalType": "uint256",
                  "name": "groupId",
                  "type": "uint256"
                },
                {
                  "internalType": "uint256",
                  "name": "claimedValue",
                  "type": "uint256"
                },
                {
                  "internalType": "bytes",
                  "name": "extraData",
                  "type": "bytes"
                }
              ],
              "internalType": "struct Claim[]",
              "name": "claims",
              "type": "tuple[]"
            },
            {
              "internalType": "address",
              "name": "destination",
              "type": "address"
            }
          ],
          "internalType": "struct Request",
          "name": "request",
          "type": "tuple"
        },
        {
          "internalType": "bytes",
          "name": "",
          "type": "bytes"
        }
      ],
      "name": "buildAttestations",
      "outputs": [
        {
          "components": [
            {
              "internalType": "uint256",
              "name": "collectionId",
              "type": "uint256"
            },
            {
              "internalType": "address",
              "name": "owner",
              "type": "address"
            },
            {
              "internalType": "address",
              "name": "issuer",
              "type": "address"
            },
            {
              "internalType": "uint256",
              "name": "value",
              "type": "uint256"
            },
            {
              "internalType": "uint32",
              "name": "timestamp",
              "type": "uint32"
            },
            {
              "internalType": "bytes",
              "name": "extraData",
              "type": "bytes"
            }
          ],
          "internalType": "struct Attestation[]",
          "name": "",
          "type": "tuple[]"
        }
      ],
      "stateMutability": "view",
      "type": "function"
    },
    {
      "inputs": [
        {
          "internalType": "uint256[]",
          "name": "collectionIds",
          "type": "uint256[]"
        },
        {
          "internalType": "address",
          "name": "attestationsOwner",
          "type": "address"
        },
        {
          "internalType": "bytes",
          "name": "proofData",
          "type": "bytes"
        }
      ],
      "name": "deleteAttestations",
      "outputs": [
        {
          "components": [
            {
              "internalType": "uint256",
              "name": "collectionId",
              "type": "uint256"
            },
            {
              "internalType": "address",
              "name": "owner",
              "type": "address"
            },
            {
              "internalType": "address",
              "name": "issuer",
              "type": "address"
            },
            {
              "internalType": "uint256",
              "name": "value",
              "type": "uint256"
            },
            {
              "internalType": "uint32",
              "name": "timestamp",
              "type": "uint32"
            },
            {
              "internalType": "bytes",
              "name": "extraData",
              "type": "bytes"
            }
          ],
          "internalType": "struct Attestation[]",
          "name": "",
          "type": "tuple[]"
        }
      ],
      "stateMutability": "nonpayable",
      "type": "function"
    },
    {
      "inputs": [
        {
          "components": [
            {
              "components": [
                {
                  "internalType": "uint256",
                  "name": "groupId",
                  "type": "uint256"
                },
                {
                  "internalType": "uint256",
                  "name": "claimedValue",
                  "type": "uint256"
                },
                {
                  "internalType": "bytes",
                  "name": "extraData",
                  "type": "bytes"
                }
              ],
              "internalType": "struct Claim[]",
              "name": "claims",
              "type": "tuple[]"
            },
            {
              "internalType": "address",
              "name": "destination",
              "type": "address"
            }
          ],
          "internalType": "struct Request",
          "name": "request",
          "type": "tuple"
        },
        {
          "internalType": "bytes",
          "name": "proofData",
          "type": "bytes"
        }
      ],
      "name": "generateAttestations",
      "outputs": [
        {
          "components": [
            {
              "internalType": "uint256",
              "name": "collectionId",
              "type": "uint256"
            },
            {
              "internalType": "address",
              "name": "owner",
              "type": "address"
            },
            {
              "internalType": "address",
              "name": "issuer",
              "type": "address"
            },
            {
              "internalType": "uint256",
              "name": "value",
              "type": "uint256"
            },
            {
              "internalType": "uint32",
              "name": "timestamp",
              "type": "uint32"
            },
            {
              "internalType": "bytes",
              "name": "extraData",
              "type": "bytes"
            }
          ],
          "internalType": "struct Attestation[]",
          "name": "",
          "type": "tuple[]"
        }
      ],
      "stateMutability": "nonpayable",
      "type": "function"
    },
    {
      "inputs": [],
      "name": "getAttestationRegistry",
      "outputs": [
        {
          "internalType": "contract IAttestationsRegistry",
          "name": "",
          "type": "address"
        }
      ],
      "stateMutability": "view",
      "type": "function"
    },
    {
      "inputs": [],
      "name": "getAvailableRootsRegistry",
      "outputs": [
        {
          "internalType": "contract IAvailableRootsRegistry",
          "name": "",
          "type": "address"
        }
      ],
      "stateMutability": "view",
      "type": "function"
    },
    {
      "inputs": [],
      "name": "getCommitmentMapperRegistry",
      "outputs": [
        {
          "internalType": "contract ICommitmentMapperRegistry",
          "name": "",
          "type": "address"
        }
      ],
      "stateMutability": "view",
      "type": "function"
    },
    {
      "inputs": [
        {
          "internalType": "uint256",
          "name": "userTicket",
          "type": "uint256"
        }
      ],
      "name": "getDestinationOfTicket",
      "outputs": [
        {
          "internalType": "address",
          "name": "",
          "type": "address"
        }
      ],
      "stateMutability": "view",
      "type": "function"
    },
    {
      "inputs": [],
      "name": "getVerifier",
      "outputs": [
        {
          "internalType": "contract HydraS1Verifier",
          "name": "",
          "type": "address"
        }
      ],
      "stateMutability": "view",
      "type": "function"
    }
  ],
  "transactionHash": "0x6dfc8f7d6fbcfbebd77d440465a41e2b12a3ed0ff624aae1cbd1f728ea8afc65",
  "args": [
    "0xf576E42E5b2682B8f606B1840c3A982610C29a3f",
    "0x34e3CcCF4fF2E297be22465b85F03E5E6D27b41B",
    "0x2c17e335d131dfd21238475Dd545B9B29Fb5A27D",
    "0x82B54988e4E3a2850501F91AC06CEA82bdb014D3",
    "10000001",
    "20000000"
  ],
  "numDeployments": 1,
  "solcInputHash": "c7c67c4a1ddf53de4ef76f8a114dfc39",
  "bytecode": "0x6101406040523480156200001257600080fd5b5060405162001f6038038062001f60833981016040819052620000359162000081565b6001600160a01b0394851660805292841660c05290831660a0529190921660e0526101005261012052620000f0565b80516001600160a01b03811681146200007c57600080fd5b919050565b60008060008060008060c087890312156200009b57600080fd5b620000a68762000064565b9550620000b66020880162000064565b9450620000c66040880162000064565b9350620000d66060880162000064565b92506080870151915060a087015190509295509295509295565b60805160a05160c05160e0516101005161012051611dea620001766000396000818161015501526102b501526000818161010d015261028d0152600081816101bf015281816104860152818161066701526107880152600081816101790152610c3301526000818160a50152610ccf01526000818160e40152610e300152611dea6000f3fe608060405234801561001057600080fd5b506004361061009e5760003560e01c8063918447af11610066578063918447af14610177578063af411a301461019d578063bfa66585146101bd578063c776adde146101e3578063e60f999f146101f657600080fd5b80632254f98e146100a357806346657fe9146100e257806354846d7a1461010857806363e4afc21461013d5780637000b05114610150575b600080fd5b7f00000000000000000000000000000000000000000000000000000000000000005b6040516001600160a01b0390911681526020015b60405180910390f35b7f00000000000000000000000000000000000000000000000000000000000000006100c5565b61012f7f000000000000000000000000000000000000000000000000000000000000000081565b6040519081526020016100d9565b6100c561014b3660046112d1565b610209565b61012f7f000000000000000000000000000000000000000000000000000000000000000081565b7f00000000000000000000000000000000000000000000000000000000000000006100c5565b6101b06101ab366004611332565b610228565b6040516100d9919061145d565b7f00000000000000000000000000000000000000000000000000000000000000006100c5565b6101b06101f13660046114e4565b61038f565b6101b0610204366004611332565b61074a565b6000818152600160205260408120546001600160a01b03165b92915050565b6060600061023d61023886611642565b610866565b60408051600180825281830190925291925060009190816020015b6102606111af565b8152602001906001900390816102585750506060830151519091506000906102b1906001600160801b03167f00000000000000000000000000000000000000000000000000000000000000006117d1565b90507f00000000000000000000000000000000000000000000000000000000000000008111156102fc57604051637bbf29e360e01b8152600481018290526024015b60405180910390fd5b60003090506040518060c0016040528083815260200185604001516001600160a01b03168152602001826001600160a01b031681526020018560200151815260200185606001516020015163ffffffff1681526020016040518060200160405280600081525081525083600081518110610378576103786117e9565b602090810291909101015250909695505050505050565b60606000856001600160401b038111156103ab576103ab611595565b6040519080825280602002602001820160405280156103d4578160200160208202803683370190505b5090506000866001600160401b038111156103f1576103f1611595565b60405190808252806020026020018201604052801561041a578160200160208202803683370190505b5090506000876001600160401b0381111561043757610437611595565b60405190808252806020026020018201604052801561047057816020015b61045d6111af565b8152602001906001900390816104555790505b50905060005b88811015610644576000806000807f00000000000000000000000000000000000000000000000000000000000000006001600160a01b0316633be1ced78f8f888181106104c5576104c56117e9565b905060200201358e6040518363ffffffff1660e01b81526004016104fc9291909182526001600160a01b0316602082015260400190565b600060405180830381865afa158015610519573d6000803e3d6000fd5b505050506040513d6000823e601f3d908101601f191682016040526105419190810190611813565b93509350935093508b88868151811061055c5761055c6117e9565b60200260200101906001600160a01b031690816001600160a01b0316815250508d8d8681811061058e5761058e6117e9565b905060200201358786815181106105a7576105a76117e9565b6020026020010181815250506040518060c001604052808f8f888181106105d0576105d06117e9565b9050602002013581526020018d6001600160a01b03168152602001856001600160a01b031681526020018481526020018363ffffffff16815260200182815250868681518110610622576106226117e9565b602002602001018190525050505050808061063c906118c2565b915050610476565b506106508187876108eb565b60405163811a6af760e01b81526001600160a01b037f0000000000000000000000000000000000000000000000000000000000000000169063811a6af79061069e90869086906004016118db565b600060405180830381600087803b1580156106b857600080fd5b505af11580156106cc573d6000803e3d6000fd5b5050505060005b8881101561073d577f01cba57fa881d11e8be5640b6abefb9709f2dd45f776051b2cf5cb8ea23fa56b82828151811061070e5761070e6117e9565b6020026020010151604051610723919061195f565b60405180910390a180610735816118c2565b9150506106d3565b5098975050505050505050565b6060610757848484610904565b6000610764858585610228565b905061077185858561094c565b60405163ebc5c09360e01b81526001600160a01b037f0000000000000000000000000000000000000000000000000000000000000000169063ebc5c093906107bd90849060040161145d565b600060405180830381600087803b1580156107d757600080fd5b505af11580156107eb573d6000803e3d6000fd5b5050505060005b815181101561085d577f336e708b72b2b4a27a0c25e8cce7f97512e7f1e8dcaf800b100075e62c1eb1fc82828151811061082e5761082e6117e9565b6020026020010151604051610843919061195f565b60405180910390a180610855816118c2565b9150506107f2565b50949350505050565b61086e6111fd565b60008260000151600081518110610887576108876117e9565b6020026020010151905061089a816109e7565b600081604001518060200190518101906108b49190611982565b60408051608081018252845181526020948501518582015295909301516001600160a01b0316928501929092525060608301525090565b604051630d5cd8d960e11b815260040160405180910390fd5b600061091282840184611ab1565b9050600061091f82610a2b565b9050600061092f61023887611642565b905061093b8183610ad5565b61094483610e06565b505050505050565b60006109588383610f9f565b6000818152600160205260409020549091506001600160a01b031680158015906109a3575061098d6040860160208701611b82565b6001600160a01b0316816001600160a01b031614155b156109c457604051631f5d53e360e01b8152600481018390526024016102f3565b6109dd826109d86040880160208901611b82565b610fc4565b5050505050565b50565b60006109f6826040015161102a565b82519091508114610a275781516040516337e3d1ab60e01b81526102f3918391600401918252602082015260400190565b5050565b610a33611260565b604051806101200160405280610a488461105f565b6001600160a01b03168152602001610a5f84611074565b8152602001610a6d84611083565b8152602001610a7b84611092565b8152602001610a89846110a1565b8152602001610a97846110b0565b8152602001610aa5846110bf565b8152602001610abd8460200151610120015160011490565b15158152602001610acd846110ce565b905292915050565b815160c082015114610b0a57815160c082015160405163fe405c7760e01b8152600481019290925260248201526044016102f3565b81606001516040015115158160e00151151503610b5557606082015160409081015160e08301519151634629f1b560e11b8152901515600482015290151560248201526044016102f3565b81604001516001600160a01b031681600001516001600160a01b031614610ba957604082810151825191516370a8d99b60e11b81526001600160a01b039182166004820152911660248201526044016102f3565b46816020015114610bdc576020810151604051630432cec160e31b815246600482015260248101919091526044016102f3565b81602001518160a0015114610c1757602082015160a0820151604051630626ade360e41b8152600481019290925260248201526044016102f3565b604081810151905163072f23bd60e51b815260048101919091527f00000000000000000000000000000000000000000000000000000000000000006001600160a01b03169063e5e477a090602401602060405180830381865afa158015610c82573d6000803e3d6000fd5b505050506040513d601f19601f82011682018060405250810190610ca69190611b9f565b610ccb57806040015160405163cbfe7bc360e01b81526004016102f391815260200190565b60007f00000000000000000000000000000000000000000000000000000000000000006001600160a01b03166359a80d0d6040518163ffffffff1660e01b81526004016040805180830381865afa158015610d2a573d6000803e3d6000fd5b505050506040513d601f19601f82011682018060405250810190610d4e9190611bba565b805161010084015151919250141580610d7557506020808201516101008401519091015114155b15610dbf578051602080830151610100850151805192015160405163318d812b60e01b815260048101949094526024840191909152604483019190915260648201526084016102f3565b6000610dca84611126565b905080836060015114610e005760608301516040516377bb6d2760e11b81526102f3918391600401918252602082015260400190565b50505050565b805180516020808301516040938401519185015193516379ddb87b60e11b81526001600160a01b037f0000000000000000000000000000000000000000000000000000000000000000169463f3bb70f694610e6994909392909190600401611c36565b602060405180830381865afa925050508015610ea2575060408051601f3d908101601f19168201909252610e9f91810190611b9f565b60015b610f7857610eae611cba565b806308c379a003610ee75750610ec2611cd6565b80610ecd5750610f26565b8060405162dd577760e81b81526004016102f39190611d5f565b634e487b7103610f2657610ef9611d72565b90610f045750610f26565b60405162dd577760e81b815260206004820152600060248201526044016102f3565b3d808015610f50576040519150601f19603f3d011682016040523d82523d6000602084013e610f55565b606091505b5060405162dd577760e81b815260206004820152600060248201526044016102f3565b80610a275760405162dd577760e81b815260206004820152600060248201526044016102f3565b600080610fae83850185611ab1565b90506000610fbb826110a1565b95945050505050565b60008281526001602090815260409182902080546001600160a01b0319166001600160a01b0385169081179091558251858152918201527f38ff70eda64ebd48cbf0a5a4e1be5c5d509a7cdb60258e5a9210c1c0508dcbef910160405180910390a15050565b80516020820120600090610222907f30644e72e131a029b85045b68181585d2833e84879b9709143e1f593f000000190611d92565b6020810151600090815b602002015192915050565b60208101516000906001611069565b60208101516000906004611069565b60208101516000906005611069565b60208101516000906006611069565b60208101516000906007611069565b60208101516000906008611069565b6110d66112b3565b604051806040016040528083602001516002600a81106110f8576110f86117e9565b6020020151815260200183602001516003600a8110611119576111196117e9565b6020020151905292915050565b600080611144308460600151600001516001600160801b031661114b565b9392505050565b604080516001600160a01b03841660208201529081018290526000907f30644e72e131a029b85045b68181585d2833e84879b9709143e1f593f0000001906060016040516020818303038152906040528051906020012060001c6111449190611d92565b6040518060c001604052806000815260200160006001600160a01b0316815260200160006001600160a01b0316815260200160008152602001600063ffffffff168152602001606081525090565b6040518060800160405280600081526020016000815260200160006001600160a01b0316815260200161125b604051806060016040528060006001600160801b03168152602001600063ffffffff1681526020016000151581525090565b905290565b60405180610120016040528060006001600160a01b0316815260200160008152602001600081526020016000815260200160008152602001600081526020016000815260200160001515815260200161125b5b60405180604001604052806002906020820280368337509192915050565b6000602082840312156112e357600080fd5b5035919050565b60008083601f8401126112fc57600080fd5b5081356001600160401b0381111561131357600080fd5b60208301915083602082850101111561132b57600080fd5b9250929050565b60008060006040848603121561134757600080fd5b83356001600160401b038082111561135e57600080fd5b908501906040828803121561137257600080fd5b9093506020850135908082111561138857600080fd5b50611395868287016112ea565b9497909650939450505050565b60005b838110156113bd5781810151838201526020016113a5565b83811115610e005750506000910152565b600081518084526113e68160208601602086016113a2565b601f01601f19169290920160200192915050565b805182526000602082015160018060a01b03808216602086015280604085015116604086015250506060820151606084015263ffffffff608083015116608084015260a082015160c060a085015261145560c08501826113ce565b949350505050565b6000602080830181845280855180835260408601915060408160051b870101925083870160005b828110156114b257603f198886030184526114a08583516113fa565b94509285019290850190600101611484565b5092979650505050505050565b6001600160a01b03811681146109e457600080fd5b80356114df816114bf565b919050565b6000806000806000606086880312156114fc57600080fd5b85356001600160401b038082111561151357600080fd5b818801915088601f83011261152757600080fd5b81358181111561153657600080fd5b8960208260051b850101111561154b57600080fd5b60208301975080965050611561602089016114d4565b9450604088013591508082111561157757600080fd5b50611584888289016112ea565b969995985093965092949392505050565b634e487b7160e01b600052604160045260246000fd5b604081018181106001600160401b03821117156115ca576115ca611595565b60405250565b606081018181106001600160401b03821117156115ca576115ca611595565b601f8201601f191681016001600160401b038111828210171561161457611614611595565b6040525050565b60006001600160401b0382111561163457611634611595565b50601f01601f191660200190565b6000604080833603121561165557600080fd5b8051611660816115ab565b83356001600160401b038082111561167757600080fd5b9085019036601f83011261168a57600080fd5b813560208282111561169e5761169e611595565b8160051b86516116b0838301826115ef565b928352848101820192828101368511156116c957600080fd5b83870192505b8483101561179d578235868111156116e75760008081fd5b8701606036829003601f19018113156117005760008081fd5b8a5161170b816115d0565b8287013581528b8301358188015290820135908882111561172c5760008081fd5b9181019136603f84011261174257600091508182fd5b8683013591506117518261161b565b8c5161175d82826115ef565b838152368e85870101111561177457600091508182fd5b838e86018a830137600093810189019390935250808c01919091528252509183019183016116cf565b508652506117ac8882016114d4565b90850152509195945050505050565b634e487b7160e01b600052601160045260246000fd5b600082198211156117e4576117e46117bb565b500190565b634e487b7160e01b600052603260045260246000fd5b805163ffffffff811681146114df57600080fd5b6000806000806080858703121561182957600080fd5b8451611834816114bf565b6020860151909450925061184a604086016117ff565b915060608501516001600160401b0381111561186557600080fd5b8501601f8101871361187657600080fd5b80516118818161161b565b60405161188e82826115ef565b8281528960208486010111156118a357600080fd5b6118b48360208301602087016113a2565b969995985093965050505050565b6000600182016118d4576118d46117bb565b5060010190565b604080825283519082018190526000906020906060840190828701845b8281101561191d5781516001600160a01b0316845292840192908401906001016118f8565b5050508381038285015284518082528583019183019060005b8181101561195257835183529284019291840191600101611936565b5090979650505050505050565b60208152600061114460208301846113fa565b805180151581146114df57600080fd5b60006060828403121561199457600080fd5b604051606081018181106001600160401b03821117156119b6576119b6611595565b60405282516001600160801b03811681146119d057600080fd5b81526119de602084016117ff565b60208201526119ef60408401611972565b60408201529392505050565b600082601f830112611a0c57600080fd5b604051611a18816115ab565b806040840185811115611a2a57600080fd5b845b81811015611a44578035835260209283019201611a2c565b509195945050505050565b600082601f830112611a6057600080fd5b6040516101408082018281106001600160401b0382111715611a8457611a84611595565b60405283018185821115611a9757600080fd5b845b82811015611a44578035825260209182019101611a99565b6000818303610240811215611ac557600080fd5b60408051611ad2816115ab565b61010080841215611ae257600080fd5b82519350611aef846115d0565b611af987876119fb565b845286605f870112611b0a57600080fd5b8251611b15816115ab565b8060c0880189811115611b2757600080fd5b8589015b81811015611b4c57611b3d8b826119fb565b83526020909201918601611b2b565b50826020880152611b5d8a826119fb565b86880152505050838252611b7387828801611a4f565b60208301525095945050505050565b600060208284031215611b9457600080fd5b8135611144816114bf565b600060208284031215611bb157600080fd5b61114482611972565b600060408284031215611bcc57600080fd5b82601f830112611bdb57600080fd5b604051611be7816115ab565b806040840185811115611bf957600080fd5b845b81811015611a44578051835260209283019201611bfb565b8060005b6002811015610e00578151845260209384019390910190600101611c17565b6102408101611c458287611c13565b60408083018660005b6002811015611c7557611c62838351611c13565b9183019160209190910190600101611c4e565b50505050611c8660c0830185611c13565b61010082018360005b600a811015611cae578151835260209283019290910190600101611c8f565b50505095945050505050565b600060033d1115611cd35760046000803e5060005160e01c5b90565b600060443d1015611ce45790565b6040516003193d81016004833e81513d6001600160401b038160248401118184111715611d1357505050505090565b8285019150815181811115611d2b5750505050505090565b843d8701016020828501011115611d455750505050505090565b611d54602082860101876115ef565b509095945050505050565b60208152600061114460208301846113ce565b60008060233d1115611d8e576020600460003e50506000516001905b9091565b600082611daf57634e487b7160e01b600052601260045260246000fd5b50069056fea26469706673582212206f25f22d1700579027a3b154c953a64f2dd7c5743b363da74b5173ab9c3e655764736f6c634300080e0033",
  "devdoc": {
    "author": "Sismo",
    "errors": {
      "CollectionIdOutOfBound(uint256)": [
        {
          "details": "Error when the collectionId of an attestation overflow the AUTHORIZED_COLLECTION_ID_LAST*"
        }
      ],
      "TicketUsed(uint256)": [
        {
          "details": "Error when the userTicket (or nullifierHash) is already used for a destination address*"
        }
      ]
    },
    "kind": "dev",
    "methods": {
      "buildAttestations(((uint256,uint256,bytes)[],address),bytes)": {
        "details": "Returns attestations that will be recorded, constructed from the user request",
        "params": {
          "request": "users request. Claim of having an account part of a group of accounts"
        }
      },
      "constructor": {
        "details": "Constructor. Initializes the contract",
        "params": {
          "attestationsRegistryAddress": "Attestations Registry contract on which the attester will write attestations",
          "availableRootsRegistryAddress": "Registry storing the available groups for this attester (e.g roots of registry merkle trees)",
          "collectionIdFirst": "Id of the first collection in which the attester is supposed to record",
          "collectionIdLast": "Id of the last collection in which the attester is supposed to record",
          "commitmentMapperAddress": "commitment mapper's public key registry",
          "hydraS1VerifierAddress": "ZK Snark Hydra-S1 Verifier contract"
        }
      },
      "deleteAttestations(uint256[],address,bytes)": {
        "details": "External facing function. Allows to delete attestations by submitting proof",
        "params": {
          "attestationsOwner": "Owner of attestations to delete",
          "collectionIds": "Collection identifier of attestations to delete",
          "proofData": "Data sent along the deletion request to prove its validity"
        },
        "returns": {
          "_0": "attestations Attestations that were deleted"
        }
      },
      "generateAttestations(((uint256,uint256,bytes)[],address),bytes)": {
        "details": "Main external function. Allows to generate attestations by making a request and submitting proof",
        "params": {
          "proofData": "Data sent along the request to prove its validity",
          "request": "User request"
        },
        "returns": {
          "_0": "attestations Attestations that has been recorded"
        }
      },
      "getAttestationRegistry()": {
        "details": "Attestation registry getter",
        "returns": {
          "_0": "attestationRegistry"
        }
      },
      "getAvailableRootsRegistry()": {
        "details": "Getter of Roots Registry Contract"
      },
      "getCommitmentMapperRegistry()": {
        "details": "Getter of Commitment Mapper Registry contract"
      },
      "getDestinationOfTicket(uint256)": {
        "details": "Getter, returns the last attestation destination of a ticket",
        "params": {
          "userTicket": "ticket used*"
        }
      },
      "getVerifier()": {
        "details": "Getter of Hydra-S1 Verifier contract"
      }
    },
    "stateVariables": {
      "AUTHORIZED_COLLECTION_ID_FIRST": {
        "details": "Getter returns of the first collection in which the attester is supposed to record*"
      },
      "AUTHORIZED_COLLECTION_ID_LAST": {
        "details": "Getter returns of the last collection in which the attester is supposed to record*"
      }
    },
    "title": "Hydra-S1 Simple Attester",
    "version": 1
  },
  "userdoc": {
    "kind": "user",
    "methods": {},
    "notice": "This attester is part of the family of the Hydra-S1 Attesters. Hydra-S1 attesters enable users to prove they have an account in a group in a privacy preserving way. The Hydra-S1 Base abstract contract is inherited and holds the complex Hydra S1 verification logic. We invite readers to refer to:    - https://hydra-s1.docs.sismo.io for a full guide through the Hydra-S1 ZK Attestations    - https://hydra-s1-circuits.docs.sismo.io for circuits, prover and verifiers of Hydra-S1 This specific attester has the following characteristics: - Zero Knowledge   One cannot deduct from an attestation what source account was used to generate the underlying proof - Non Strict (scores)   If a user can generate an attestation of max value 100, they can also generate any attestation with value < 100.   This attester generate attestations of scores - Ticketed   Each source account gets one userTicket per claim (i.e only one attestation per source account per claim)   For people used to semaphore/ tornado cash people:   userTicket = hash(sourceSecret, ticketIdentifier) <=> nullifierHash = hash(IdNullifier, externalNullifier) - Renewable   A userTicket can actually be reused as long as the destination of the attestation remains the same   It enables users to renew their attestations*",
    "version": 1
  },
  "storageLayout": {
    "storage": [
      {
        "astId": 936,
        "contract": "contracts/attesters/hydra-s1/HydraS1SimpleAttester.sol:HydraS1SimpleAttester",
        "label": "_initialized",
        "offset": 0,
        "slot": "0",
        "type": "t_bool"
      },
      {
        "astId": 939,
        "contract": "contracts/attesters/hydra-s1/HydraS1SimpleAttester.sol:HydraS1SimpleAttester",
        "label": "_initializing",
        "offset": 1,
        "slot": "0",
        "type": "t_bool"
      },
      {
        "astId": 6335,
        "contract": "contracts/attesters/hydra-s1/HydraS1SimpleAttester.sol:HydraS1SimpleAttester",
        "label": "_ticketsDestinations",
        "offset": 0,
        "slot": "1",
        "type": "t_mapping(t_uint256,t_address)"
      }
    ],
    "types": {
      "t_address": {
        "encoding": "inplace",
        "label": "address",
        "numberOfBytes": "20"
      },
      "t_bool": {
        "encoding": "inplace",
        "label": "bool",
        "numberOfBytes": "1"
      },
      "t_mapping(t_uint256,t_address)": {
        "encoding": "mapping",
        "key": "t_uint256",
        "label": "mapping(uint256 => address)",
        "numberOfBytes": "32",
        "value": "t_address"
      },
      "t_uint256": {
        "encoding": "inplace",
        "label": "uint256",
        "numberOfBytes": "32"
      }
    }
  }
}