{
  "address": "0x268669Ac1bAb63ea492F47428b778514F08508a8",
  "abi": [
    {
      "inputs": [
        {
          "internalType": "address",
          "name": "attestationsRegistryAddress",
          "type": "address"
        },
        {
          "internalType": "uint256",
          "name": "collectionIdFirst",
          "type": "uint256"
        },
        {
          "internalType": "uint256",
          "name": "collectionIdLast",
          "type": "uint256"
        },
        {
          "internalType": "address",
          "name": "pythia1VerifierAddress",
          "type": "address"
        },
        {
          "internalType": "uint256[2]",
          "name": "commitmentSignerPubKey",
          "type": "uint256[2]"
        },
        {
          "internalType": "address",
          "name": "owner",
          "type": "address"
        }
      ],
      "stateMutability": "nonpayable",
      "type": "constructor"
    },
    {
      "inputs": [],
      "name": "AttestationDeletionNotImplemented",
      "type": "error"
    },
    {
      "inputs": [
        {
          "internalType": "uint256",
          "name": "expectedChainId",
          "type": "uint256"
        },
        {
          "internalType": "uint256",
          "name": "chainId",
          "type": "uint256"
        }
      ],
      "name": "ChainIdMismatch",
      "type": "error"
    },
    {
      "inputs": [
        {
          "internalType": "uint256",
          "name": "collectionId",
          "type": "uint256"
        }
      ],
      "name": "CollectionIdOutOfBound",
      "type": "error"
    },
    {
      "inputs": [
        {
          "internalType": "uint256",
          "name": "expectedX",
          "type": "uint256"
        },
        {
          "internalType": "uint256",
          "name": "expectedY",
          "type": "uint256"
        },
        {
          "internalType": "uint256",
          "name": "inputX",
          "type": "uint256"
        },
        {
          "internalType": "uint256",
          "name": "inputY",
          "type": "uint256"
        }
      ],
      "name": "CommitmentSignerPubKeyMismatch",
      "type": "error"
    },
    {
      "inputs": [
        {
          "internalType": "address",
          "name": "expectedDestination",
          "type": "address"
        },
        {
          "internalType": "address",
          "name": "inputDestination",
          "type": "address"
        }
      ],
      "name": "DestinationMismatch",
      "type": "error"
    },
    {
      "inputs": [
        {
          "internalType": "uint256",
          "name": "expectedGroupId",
          "type": "uint256"
        },
        {
          "internalType": "uint256",
          "name": "groupId",
          "type": "uint256"
        }
      ],
      "name": "GroupIdAndPropertiesMismatch",
      "type": "error"
    },
    {
      "inputs": [
        {
          "internalType": "uint256",
          "name": "expectedAccountsTreeValue",
          "type": "uint256"
        },
        {
          "internalType": "uint256",
          "name": "inputAccountsTreeValue",
          "type": "uint256"
        }
      ],
      "name": "GroupIdMismatch",
      "type": "error"
    },
    {
      "inputs": [
        {
          "internalType": "string",
          "name": "reason",
          "type": "string"
        }
      ],
      "name": "InvalidGroth16Proof",
      "type": "error"
    },
    {
      "inputs": [
        {
          "internalType": "bool",
          "name": "expectedStrictness",
          "type": "bool"
        },
        {
          "internalType": "bool",
          "name": "strictNess",
          "type": "bool"
        }
      ],
      "name": "IsStrictMismatch",
      "type": "error"
    },
    {
      "inputs": [
        {
          "internalType": "uint256",
          "name": "expectedTicketIdentifier",
          "type": "uint256"
        },
        {
          "internalType": "uint256",
          "name": "ticketIdentifier",
          "type": "uint256"
        }
      ],
      "name": "TicketIdentifierMismatch",
      "type": "error"
    },
    {
      "inputs": [
        {
          "internalType": "uint256",
          "name": "userTicket",
          "type": "uint256"
        }
      ],
      "name": "TicketUsed",
      "type": "error"
    },
    {
      "inputs": [
        {
          "internalType": "address",
          "name": "sender",
          "type": "address"
        },
        {
          "internalType": "address",
          "name": "inputdestination",
          "type": "address"
        }
      ],
      "name": "UserShouldOwnItsDestination",
      "type": "error"
    },
    {
      "inputs": [
        {
          "internalType": "uint256",
          "name": "expectedValue",
          "type": "uint256"
        },
        {
          "internalType": "uint256",
          "name": "inputValue",
          "type": "uint256"
        }
      ],
      "name": "ValueMismatch",
      "type": "error"
    },
    {
      "anonymous": false,
      "inputs": [
        {
          "components": [
            {
              "internalType": "uint256",
              "name": "collectionId",
              "type": "uint256"
            },
            {
              "internalType": "address",
              "name": "owner",
              "type": "address"
            },
            {
              "internalType": "address",
              "name": "issuer",
              "type": "address"
            },
            {
              "internalType": "uint256",
              "name": "value",
              "type": "uint256"
            },
            {
              "internalType": "uint32",
              "name": "timestamp",
              "type": "uint32"
            },
            {
              "internalType": "bytes",
              "name": "extraData",
              "type": "bytes"
            }
          ],
          "indexed": false,
          "internalType": "struct Attestation",
          "name": "attestation",
          "type": "tuple"
        }
      ],
      "name": "AttestationDeleted",
      "type": "event"
    },
    {
      "anonymous": false,
      "inputs": [
        {
          "components": [
            {
              "internalType": "uint256",
              "name": "collectionId",
              "type": "uint256"
            },
            {
              "internalType": "address",
              "name": "owner",
              "type": "address"
            },
            {
              "internalType": "address",
              "name": "issuer",
              "type": "address"
            },
            {
              "internalType": "uint256",
              "name": "value",
              "type": "uint256"
            },
            {
              "internalType": "uint32",
              "name": "timestamp",
              "type": "uint32"
            },
            {
              "internalType": "bytes",
              "name": "extraData",
              "type": "bytes"
            }
          ],
          "indexed": false,
          "internalType": "struct Attestation",
          "name": "attestation",
          "type": "tuple"
        }
      ],
      "name": "AttestationGenerated",
      "type": "event"
    },
    {
      "anonymous": false,
      "inputs": [
        {
          "indexed": false,
          "internalType": "uint256[2]",
          "name": "newCommitmentSignerPubKey",
          "type": "uint256[2]"
        }
      ],
      "name": "CommitmentSignerPubKeyUpdated",
      "type": "event"
    },
    {
      "anonymous": false,
      "inputs": [
        {
          "indexed": true,
          "internalType": "address",
          "name": "previousOwner",
          "type": "address"
        },
        {
          "indexed": true,
          "internalType": "address",
          "name": "newOwner",
          "type": "address"
        }
      ],
      "name": "OwnershipTransferred",
      "type": "event"
    },
    {
      "anonymous": false,
      "inputs": [
        {
          "indexed": false,
          "internalType": "uint256",
          "name": "ticket",
          "type": "uint256"
        },
        {
          "indexed": false,
          "internalType": "address",
          "name": "newOwner",
          "type": "address"
        }
      ],
      "name": "TicketDestinationUpdated",
      "type": "event"
    },
    {
      "inputs": [],
      "name": "AUTHORIZED_COLLECTION_ID_FIRST",
      "outputs": [
        {
          "internalType": "uint256",
          "name": "",
          "type": "uint256"
        }
      ],
      "stateMutability": "view",
      "type": "function"
    },
    {
      "inputs": [],
      "name": "AUTHORIZED_COLLECTION_ID_LAST",
      "outputs": [
        {
          "internalType": "uint256",
          "name": "",
          "type": "uint256"
        }
      ],
      "stateMutability": "view",
      "type": "function"
    },
    {
      "inputs": [
        {
          "components": [
            {
              "components": [
                {
                  "internalType": "uint256",
                  "name": "groupId",
                  "type": "uint256"
                },
                {
                  "internalType": "uint256",
                  "name": "claimedValue",
                  "type": "uint256"
                },
                {
                  "internalType": "bytes",
                  "name": "extraData",
                  "type": "bytes"
                }
              ],
              "internalType": "struct Claim[]",
              "name": "claims",
              "type": "tuple[]"
            },
            {
              "internalType": "address",
              "name": "destination",
              "type": "address"
            }
          ],
          "internalType": "struct Request",
          "name": "request",
          "type": "tuple"
        },
        {
          "internalType": "bytes",
          "name": "",
          "type": "bytes"
        }
      ],
      "name": "buildAttestations",
      "outputs": [
        {
          "components": [
            {
              "internalType": "uint256",
              "name": "collectionId",
              "type": "uint256"
            },
            {
              "internalType": "address",
              "name": "owner",
              "type": "address"
            },
            {
              "internalType": "address",
              "name": "issuer",
              "type": "address"
            },
            {
              "internalType": "uint256",
              "name": "value",
              "type": "uint256"
            },
            {
              "internalType": "uint32",
              "name": "timestamp",
              "type": "uint32"
            },
            {
              "internalType": "bytes",
              "name": "extraData",
              "type": "bytes"
            }
          ],
          "internalType": "struct Attestation[]",
          "name": "",
          "type": "tuple[]"
        }
      ],
      "stateMutability": "view",
      "type": "function"
    },
    {
      "inputs": [
        {
          "internalType": "uint256[]",
          "name": "collectionIds",
          "type": "uint256[]"
        },
        {
          "internalType": "address",
          "name": "attestationsOwner",
          "type": "address"
        },
        {
          "internalType": "bytes",
          "name": "proofData",
          "type": "bytes"
        }
      ],
      "name": "deleteAttestations",
      "outputs": [
        {
          "components": [
            {
              "internalType": "uint256",
              "name": "collectionId",
              "type": "uint256"
            },
            {
              "internalType": "address",
              "name": "owner",
              "type": "address"
            },
            {
              "internalType": "address",
              "name": "issuer",
              "type": "address"
            },
            {
              "internalType": "uint256",
              "name": "value",
              "type": "uint256"
            },
            {
              "internalType": "uint32",
              "name": "timestamp",
              "type": "uint32"
            },
            {
              "internalType": "bytes",
              "name": "extraData",
              "type": "bytes"
            }
          ],
          "internalType": "struct Attestation[]",
          "name": "",
          "type": "tuple[]"
        }
      ],
      "stateMutability": "nonpayable",
      "type": "function"
    },
    {
      "inputs": [
        {
          "components": [
            {
              "components": [
                {
                  "internalType": "uint256",
                  "name": "groupId",
                  "type": "uint256"
                },
                {
                  "internalType": "uint256",
                  "name": "claimedValue",
                  "type": "uint256"
                },
                {
                  "internalType": "bytes",
                  "name": "extraData",
                  "type": "bytes"
                }
              ],
              "internalType": "struct Claim[]",
              "name": "claims",
              "type": "tuple[]"
            },
            {
              "internalType": "address",
              "name": "destination",
              "type": "address"
            }
          ],
          "internalType": "struct Request",
          "name": "request",
          "type": "tuple"
        },
        {
          "internalType": "bytes",
          "name": "proofData",
          "type": "bytes"
        }
      ],
      "name": "generateAttestations",
      "outputs": [
        {
          "components": [
            {
              "internalType": "uint256",
              "name": "collectionId",
              "type": "uint256"
            },
            {
              "internalType": "address",
              "name": "owner",
              "type": "address"
            },
            {
              "internalType": "address",
              "name": "issuer",
              "type": "address"
            },
            {
              "internalType": "uint256",
              "name": "value",
              "type": "uint256"
            },
            {
              "internalType": "uint32",
              "name": "timestamp",
              "type": "uint32"
            },
            {
              "internalType": "bytes",
              "name": "extraData",
              "type": "bytes"
            }
          ],
          "internalType": "struct Attestation[]",
          "name": "",
          "type": "tuple[]"
        }
      ],
      "stateMutability": "nonpayable",
      "type": "function"
    },
    {
      "inputs": [],
      "name": "getAttestationRegistry",
      "outputs": [
        {
          "internalType": "contract IAttestationsRegistry",
          "name": "",
          "type": "address"
        }
      ],
      "stateMutability": "view",
      "type": "function"
    },
    {
      "inputs": [],
      "name": "getCommitmentSignerPubKey",
      "outputs": [
        {
          "internalType": "uint256[2]",
          "name": "",
          "type": "uint256[2]"
        }
      ],
      "stateMutability": "view",
      "type": "function"
    },
    {
      "inputs": [
        {
          "internalType": "uint256",
          "name": "userTicket",
          "type": "uint256"
        }
      ],
      "name": "getDestinationOfTicket",
      "outputs": [
        {
          "internalType": "address",
          "name": "",
          "type": "address"
        }
      ],
      "stateMutability": "view",
      "type": "function"
    },
    {
      "inputs": [],
      "name": "getVerifier",
      "outputs": [
        {
          "internalType": "contract Pythia1Verifier",
          "name": "",
          "type": "address"
        }
      ],
      "stateMutability": "view",
      "type": "function"
    },
    {
      "inputs": [
        {
          "internalType": "uint256[2]",
          "name": "commitmentSignerPubKey",
          "type": "uint256[2]"
        },
        {
          "internalType": "address",
          "name": "owner",
          "type": "address"
        }
      ],
      "name": "initialize",
      "outputs": [],
      "stateMutability": "nonpayable",
      "type": "function"
    },
    {
      "inputs": [],
      "name": "owner",
      "outputs": [
        {
          "internalType": "address",
          "name": "",
          "type": "address"
        }
      ],
      "stateMutability": "view",
      "type": "function"
    },
    {
      "inputs": [],
      "name": "renounceOwnership",
      "outputs": [],
      "stateMutability": "nonpayable",
      "type": "function"
    },
    {
      "inputs": [
        {
          "internalType": "address",
          "name": "newOwner",
          "type": "address"
        }
      ],
      "name": "transferOwnership",
      "outputs": [],
      "stateMutability": "nonpayable",
      "type": "function"
    },
    {
      "inputs": [
        {
          "internalType": "uint256[2]",
          "name": "commitmentSignerPubKey",
          "type": "uint256[2]"
        }
      ],
      "name": "updateCommitmentSignerPubKey",
      "outputs": [],
      "stateMutability": "nonpayable",
      "type": "function"
    }
  ],
  "transactionHash": "0x5445e69c2d005ddb9d33087dd1e9146f8b0f920b3780f93b8b6fee8160858ded",
  "args": [
    "0xf576E42E5b2682B8f606B1840c3A982610C29a3f",
    "30000001",
    "30000100",
    "0x115dFa344C877fF74e970F06BE10FF5A59EAba02",
    [
      "0x038d3d596875c66eb90608bbe04e4e238607fd32ad61f4278bdaf47aadc28d60",
      "0x1b46b55a0ce3f35d6025cdd4554aaac1fc7180b14d51b0f15aa51a6929bdb952"
    ],
    "0x4e070E9b85a659F0B7B47cde33152ad6c2F63954"
  ],
  "numDeployments": 1,
  "solcInputHash": "c7c67c4a1ddf53de4ef76f8a114dfc39",
  "bytecode": "0x6101006040523480156200001257600080fd5b50604051620024a2380380620024a28339810160408190526200003591620002b6565b6001600160a01b03838116608052861660a052620000533362000075565b60c085905260e0849052620000698282620000d0565b505050505050620003b7565b600080546001600160a01b038381166201000081810262010000600160b01b0319851617855560405193049190911692909183917f8be0079c531659141344cd1fd0a4f28419497f9722a3daafe3b4186f6b6457e091a35050565b600054610100900460ff16620000ed5760005460ff1615620000f7565b620000f7620001b0565b6200015f5760405162461bcd60e51b815260206004820152602e60248201527f496e697469616c697a61626c653a20636f6e747261637420697320616c72656160448201526d191e481a5b9a5d1a585b1a5e995960921b606482015260840160405180910390fd5b600054610100900460ff1615801562000182576000805461ffff19166101011790555b6200018d8262000075565b6200019883620001ce565b8015620001ab576000805461ff00191690555b505050565b6000620001c8306200021a60201b62000ad01760201c565b15905090565b620001dd600182600262000229565b507fda2ca1df50078dd7395bf2d1fe6c66f2133d7b56d4d1e671f564010981f204df816040516200020f919062000384565b60405180910390a150565b6001600160a01b03163b151590565b82600281019282156200025a579160200282015b828111156200025a5782518255916020019190600101906200023d565b50620002689291506200026c565b5090565b5b808211156200026857600081556001016200026d565b80516001600160a01b03811681146200029b57600080fd5b919050565b634e487b7160e01b600052604160045260246000fd5b60008060008060008060e08789031215620002d057600080fd5b620002db8762000283565b9550602080880151955060408801519450620002fa6060890162000283565b935088609f8901126200030c57600080fd5b604080519081016001600160401b0381118282101715620003315762000331620002a0565b6040528060c08a018b8111156200034757600080fd5b60808b015b818110156200036557805183529184019184016200034c565b50829550620003748162000283565b9450505050509295509295509295565b60408101818360005b6002811015620003ae5781518352602092830192909101906001016200038d565b50505092915050565b60805160a05160c05160e0516120876200041b600039600081816101a901526103c0015260008181610161015261039801526000818161020c01528181610584015281816107650152610953015260008181610124015261108701526120876000f3fe608060405234801561001057600080fd5b50600436106100ea5760003560e01c80638da5cb5b1161008c578063c776adde11610066578063c776adde14610230578063c9cdef0414610243578063e60f999f14610256578063f2fde38b1461026957600080fd5b80638da5cb5b146101d3578063af411a30146101ea578063bfa665851461020a57600080fd5b806354846d7a116100c857806354846d7a1461015c57806363e4afc2146101915780637000b051146101a4578063715018a6146101cb57600080fd5b8063124d7199146100ef5780632785e3221461010457806346657fe914610122575b600080fd5b6101026100fd366004611600565b61027c565b005b61010c6102c2565b604051610119919061163f565b60405180910390f35b7f00000000000000000000000000000000000000000000000000000000000000005b6040516001600160a01b039091168152602001610119565b6101837f000000000000000000000000000000000000000000000000000000000000000081565b604051908152602001610119565b61014461019f36600461164d565b6102d7565b6101837f000000000000000000000000000000000000000000000000000000000000000081565b6101026102f6565b6000546201000090046001600160a01b0316610144565b6101fd6101f83660046116ae565b610333565b60405161011991906117d9565b7f0000000000000000000000000000000000000000000000000000000000000000610144565b6101fd61023e366004611860565b61048d565b610102610251366004611911565b610848565b6101fd6102643660046116ae565b610915565b610102610277366004611949565b610a31565b6000546001600160a01b03620100009091041633146102b65760405162461bcd60e51b81526004016102ad90611966565b60405180910390fd5b6102bf81610adf565b50565b6102ca6113f7565b6102d2610b27565b905090565b6000818152600360205260408120546001600160a01b03165b92915050565b6000546001600160a01b03620100009091041633146103275760405162461bcd60e51b81526004016102ad90611966565b6103316000610b61565b565b60606000610348610343866119c2565b610bbc565b60408051600180825281830190925291925060009190816020015b61036b611415565b8152602001906001900390816103635750506060830151519091506000906103bc906001600160801b03167f0000000000000000000000000000000000000000000000000000000000000000611b51565b90507f000000000000000000000000000000000000000000000000000000000000000081111561040257604051637bbf29e360e01b8152600481018290526024016102ad565b60003090506040518060c0016040528083815260200185604001516001600160a01b03168152602001826001600160a01b03168152602001856020015181526020014263ffffffff168152602001604051806020016040528060008152508152508360008151811061047657610476611b69565b602090810291909101015250909695505050505050565b60606000856001600160401b038111156104a9576104a961150b565b6040519080825280602002602001820160405280156104d2578160200160208202803683370190505b5090506000866001600160401b038111156104ef576104ef61150b565b604051908082528060200260200182016040528015610518578160200160208202803683370190505b5090506000876001600160401b038111156105355761053561150b565b60405190808252806020026020018201604052801561056e57816020015b61055b611415565b8152602001906001900390816105535790505b50905060005b88811015610742576000806000807f00000000000000000000000000000000000000000000000000000000000000006001600160a01b0316633be1ced78f8f888181106105c3576105c3611b69565b905060200201358e6040518363ffffffff1660e01b81526004016105fa9291909182526001600160a01b0316602082015260400190565b600060405180830381865afa158015610617573d6000803e3d6000fd5b505050506040513d6000823e601f3d908101601f1916820160405261063f9190810190611b7f565b93509350935093508b88868151811061065a5761065a611b69565b60200260200101906001600160a01b031690816001600160a01b0316815250508d8d8681811061068c5761068c611b69565b905060200201358786815181106106a5576106a5611b69565b6020026020010181815250506040518060c001604052808f8f888181106106ce576106ce611b69565b9050602002013581526020018d6001600160a01b03168152602001856001600160a01b031681526020018481526020018363ffffffff1681526020018281525086868151811061072057610720611b69565b602002602001018190525050505050808061073a90611c3a565b915050610574565b5061074e818787610c70565b60405163811a6af760e01b81526001600160a01b037f0000000000000000000000000000000000000000000000000000000000000000169063811a6af79061079c9086908690600401611c53565b600060405180830381600087803b1580156107b657600080fd5b505af11580156107ca573d6000803e3d6000fd5b5050505060005b8881101561083b577f01cba57fa881d11e8be5640b6abefb9709f2dd45f776051b2cf5cb8ea23fa56b82828151811061080c5761080c611b69565b60200260200101516040516108219190611cd7565b60405180910390a18061083381611c3a565b9150506107d1565b5098975050505050505050565b600054610100900460ff166108635760005460ff1615610867565b303b155b6108ca5760405162461bcd60e51b815260206004820152602e60248201527f496e697469616c697a61626c653a20636f6e747261637420697320616c72656160448201526d191e481a5b9a5d1a585b1a5e995960921b60648201526084016102ad565b600054610100900460ff161580156108ec576000805461ffff19166101011790555b6108f582610b61565b6108fe83610adf565b8015610910576000805461ff00191690555b505050565b6060610922848484610c89565b600061092f858585610333565b905061093c858585610cd1565b60405163ebc5c09360e01b81526001600160a01b037f0000000000000000000000000000000000000000000000000000000000000000169063ebc5c093906109889084906004016117d9565b600060405180830381600087803b1580156109a257600080fd5b505af11580156109b6573d6000803e3d6000fd5b5050505060005b8151811015610a28577f336e708b72b2b4a27a0c25e8cce7f97512e7f1e8dcaf800b100075e62c1eb1fc8282815181106109f9576109f9611b69565b6020026020010151604051610a0e9190611cd7565b60405180910390a180610a2081611c3a565b9150506109bd565b50949350505050565b6000546001600160a01b0362010000909104163314610a625760405162461bcd60e51b81526004016102ad90611966565b6001600160a01b038116610ac75760405162461bcd60e51b815260206004820152602660248201527f4f776e61626c653a206e6577206f776e657220697320746865207a65726f206160448201526564647265737360d01b60648201526084016102ad565b6102bf81610b61565b6001600160a01b03163b151590565b610aec6001826002611463565b507fda2ca1df50078dd7395bf2d1fe6c66f2133d7b56d4d1e671f564010981f204df81604051610b1c919061163f565b60405180910390a150565b610b2f6113f7565b60408051808201918290529060019060029082845b815481526020019060010190808311610b44575050505050905090565b600080546001600160a01b038381166201000081810262010000600160b01b0319851617855560405193049190911692909183917f8be0079c531659141344cd1fd0a4f28419497f9722a3daafe3b4186f6b6457e091a35050565b610bf36040805160808101825260008082526020808301829052828401829052835180850190945281845283015290606082015290565b60008260000151600081518110610c0c57610c0c611b69565b60200260200101519050610c1f81610d3a565b60008160400151806020019051810190610c399190611cfa565b60408051608081018252845181526020948501518582015295909301516001600160a01b0316928501929092525060608301525090565b604051630d5cd8d960e11b815260040160405180910390fd5b6000610c9782840184611dc4565b90506000610ca482610d7e565b90506000610cb4610343876119c2565b9050610cc08183610e1a565b610cc98361105d565b505050505050565b6000610cdd83836111f6565b6000818152600360205260409020549091506001600160a01b03168015610d1a57604051631f5d53e360e01b8152600481018390526024016102ad565b610d3382610d2e6040880160208901611949565b61121b565b5050505050565b6000610d498260400151611281565b82519091508114610d7a5781516040516337e3d1ab60e01b81526102ad918391600401918252602082015260400190565b5050565b610d866114a6565b604051806101000160405280610d9b846112b6565b6001600160a01b03168152602001610db2846112cb565b8152602001610dc0846112da565b8152602001610dce846112e9565b8152602001610ddc846112f8565b8152602001610dea84611307565b8152602001610e028460200151610100015160011490565b15158152602001610e1284611316565b905292915050565b8151604082015114610e4f57815160408281015190516347a9715d60e01b8152600481019290925260248201526044016102ad565b81606001516020015115158160c00151151503610e985760608201516020015160c0820151604051634629f1b560e11b81529115156004830152151560248201526044016102ad565b81604001516001600160a01b031681600001516001600160a01b031614610eec57604082810151825191516370a8d99b60e11b81526001600160a01b039182166004820152911660248201526044016102ad565b60408201516001600160a01b03163314610f30576040808301519051632bfa317f60e11b81523360048201526001600160a01b0390911660248201526044016102ad565b46816020015114610f63576020810151604051630432cec160e31b815246600482015260248101919091526044016102ad565b81602001518160a0015114610f9e57602082015160a0820151604051630626ade360e41b8152600481019290925260248201526044016102ad565b6000610fa8610b27565b805160e084015151919250141580610fcd575060208082015160e08401519091015114155b1561101657805160208083015160e0850151805192015160405163f71cb0f760e01b815260048101949094526024840191909152604483019190915260648201526084016102ad565b60006110218461136e565b9050808360600151146110575760608301516040516377bb6d2760e11b81526102ad918391600401918252602082015260400190565b50505050565b8051805160208083015160409384015191850151935163c542c93b60e01b81526001600160a01b037f0000000000000000000000000000000000000000000000000000000000000000169463c542c93b946110c094909392909190600401611e95565b602060405180830381865afa9250505080156110f9575060408051601f3d908101601f191682019092526110f691810190611f3c565b60015b6111cf57611105611f57565b806308c379a00361113e5750611119611f73565b80611124575061117d565b8060405162dd577760e81b81526004016102ad9190611ffc565b634e487b710361117d5761115061200f565b9061115b575061117d565b60405162dd577760e81b815260206004820152600060248201526044016102ad565b3d8080156111a7576040519150601f19603f3d011682016040523d82523d6000602084013e6111ac565b606091505b5060405162dd577760e81b815260206004820152600060248201526044016102ad565b80610d7a5760405162dd577760e81b815260206004820152600060248201526044016102ad565b60008061120583850185611dc4565b90506000611212826112f8565b95945050505050565b60008281526003602090815260409182902080546001600160a01b0319166001600160a01b0385169081179091558251858152918201527f38ff70eda64ebd48cbf0a5a4e1be5c5d509a7cdb60258e5a9210c1c0508dcbef910160405180910390a15050565b805160208201206000906102f0907f30644e72e131a029b85045b68181585d2833e84879b9709143e1f593f00000019061202f565b6020810151600090815b602002015192915050565b602081015160009060016112c0565b602081015160009060046112c0565b602081015160009060056112c0565b602081015160009060066112c0565b602081015160009060076112c0565b61131e6113f7565b6040518060400160405280836020015160026009811061134057611340611b69565b60200201518152602001836020015160036009811061136157611361611b69565b6020020151905292915050565b60008061138c308460600151600001516001600160801b0316611393565b9392505050565b604080516001600160a01b03841660208201529081018290526000907f30644e72e131a029b85045b68181585d2833e84879b9709143e1f593f0000001906060016040516020818303038152906040528051906020012060001c61138c919061202f565b60405180604001604052806002906020820280368337509192915050565b6040518060c001604052806000815260200160006001600160a01b0316815260200160006001600160a01b0316815260200160008152602001600063ffffffff168152602001606081525090565b8260028101928215611491579160200282015b82811115611491578251825591602001919060010190611476565b5061149d9291506114f6565b5090565b905290565b60405180610100016040528060006001600160a01b0316815260200160008152602001600081526020016000815260200160008152602001600081526020016000151581526020016114a16113f7565b5b8082111561149d57600081556001016114f7565b634e487b7160e01b600052604160045260246000fd5b604081018181106001600160401b03821117156115405761154061150b565b60405250565b606081018181106001600160401b03821117156115405761154061150b565b601f8201601f191681016001600160401b038111828210171561158a5761158a61150b565b6040525050565b600082601f8301126115a257600080fd5b604051604081018181106001600160401b03821117156115c4576115c461150b565b80604052508060408401858111156115db57600080fd5b845b818110156115f55780358352602092830192016115dd565b509195945050505050565b60006040828403121561161257600080fd5b61138c8383611591565b8060005b6002811015611057578151845260209384019390910190600101611620565b604081016102f0828461161c565b60006020828403121561165f57600080fd5b5035919050565b60008083601f84011261167857600080fd5b5081356001600160401b0381111561168f57600080fd5b6020830191508360208285010111156116a757600080fd5b9250929050565b6000806000604084860312156116c357600080fd5b83356001600160401b03808211156116da57600080fd5b90850190604082880312156116ee57600080fd5b9093506020850135908082111561170457600080fd5b5061171186828701611666565b9497909650939450505050565b60005b83811015611739578181015183820152602001611721565b838111156110575750506000910152565b6000815180845261176281602086016020860161171e565b601f01601f19169290920160200192915050565b805182526000602082015160018060a01b03808216602086015280604085015116604086015250506060820151606084015263ffffffff608083015116608084015260a082015160c060a08501526117d160c085018261174a565b949350505050565b6000602080830181845280855180835260408601915060408160051b870101925083870160005b8281101561182e57603f1988860301845261181c858351611776565b94509285019290850190600101611800565b5092979650505050505050565b6001600160a01b03811681146102bf57600080fd5b803561185b8161183b565b919050565b60008060008060006060868803121561187857600080fd5b85356001600160401b038082111561188f57600080fd5b818801915088601f8301126118a357600080fd5b8135818111156118b257600080fd5b8960208260051b85010111156118c757600080fd5b602083019750809650506118dd60208901611850565b945060408801359150808211156118f357600080fd5b5061190088828901611666565b969995985093965092949392505050565b6000806060838503121561192457600080fd5b61192e8484611591565b9150604083013561193e8161183b565b809150509250929050565b60006020828403121561195b57600080fd5b813561138c8161183b565b6020808252818101527f4f776e61626c653a2063616c6c6572206973206e6f7420746865206f776e6572604082015260600190565b60006001600160401b038211156119b4576119b461150b565b50601f01601f191660200190565b600060408083360312156119d557600080fd5b80516119e081611521565b83356001600160401b03808211156119f757600080fd5b9085019036601f830112611a0a57600080fd5b8135602082821115611a1e57611a1e61150b565b8160051b8651611a3083830182611565565b92835284810182019282810136851115611a4957600080fd5b83870192505b84831015611b1d57823586811115611a675760008081fd5b8701606036829003601f1901811315611a805760008081fd5b8a51611a8b81611546565b8287013581528b83013581880152908201359088821115611aac5760008081fd5b9181019136603f840112611ac257600091508182fd5b868301359150611ad18261199b565b8c51611add8282611565565b838152368e858701011115611af457600091508182fd5b838e86018a830137600093810189019390935250808c0191909152825250918301918301611a4f565b50865250611b2c888201611850565b90850152509195945050505050565b634e487b7160e01b600052601160045260246000fd5b60008219821115611b6457611b64611b3b565b500190565b634e487b7160e01b600052603260045260246000fd5b60008060008060808587031215611b9557600080fd5b8451611ba08161183b565b60208601516040870151919550935063ffffffff81168114611bc157600080fd5b60608601519092506001600160401b03811115611bdd57600080fd5b8501601f81018713611bee57600080fd5b8051611bf98161199b565b604051611c068282611565565b828152896020848601011115611c1b57600080fd5b611c2c83602083016020870161171e565b969995985093965050505050565b600060018201611c4c57611c4c611b3b565b5060010190565b604080825283519082018190526000906020906060840190828701845b82811015611c955781516001600160a01b031684529284019290840190600101611c70565b5050508381038285015284518082528583019183019060005b81811015611cca57835183529284019291840191600101611cae565b5090979650505050505050565b60208152600061138c6020830184611776565b8051801515811461185b57600080fd5b600060408284031215611d0c57600080fd5b604051604081018181106001600160401b0382111715611d2e57611d2e61150b565b60405282516001600160801b0381168114611d4857600080fd5b8152611d5660208401611cea565b60208201529392505050565b600082601f830112611d7357600080fd5b6040516101208082018281106001600160401b0382111715611d9757611d9761150b565b60405283018185821115611daa57600080fd5b845b828110156115f5578035825260209182019101611dac565b6000818303610220811215611dd857600080fd5b60408051611de581611521565b61010080841215611df557600080fd5b82519350611e0284611546565b611e0c8787611591565b845286605f870112611e1d57600080fd5b8251611e2881611521565b8060c0880189811115611e3a57600080fd5b8589015b81811015611e5f57611e508b82611591565b83526020909201918601611e3e565b50826020880152611e708a82611591565b86880152505050838252611e8687828801611d62565b60208301525095945050505050565b6102208101611ea4828761161c565b60408083018660005b6002808210611ebc5750611ef7565b82518460005b83811015611ee0578251825260209283019290910190600101611ec2565b505050928401925060209190910190600101611ead565b50505050611f0860c083018561161c565b61010082018360005b6009811015611f30578151835260209283019290910190600101611f11565b50505095945050505050565b600060208284031215611f4e57600080fd5b61138c82611cea565b600060033d1115611f705760046000803e5060005160e01c5b90565b600060443d1015611f815790565b6040516003193d81016004833e81513d6001600160401b038160248401118184111715611fb057505050505090565b8285019150815181811115611fc85750505050505090565b843d8701016020828501011115611fe25750505050505090565b611ff160208286010187611565565b509095945050505050565b60208152600061138c602083018461174a565b60008060233d111561202b576020600460003e50506000516001905b9091565b60008261204c57634e487b7160e01b600052601260045260246000fd5b50069056fea2646970667358221220202c7874d91a345d5d1d262476c8976188ed40687e181d4b647f63471e63576b64736f6c634300080e0033",
  "devdoc": {
    "author": "Sismo",
    "kind": "dev",
    "methods": {
      "buildAttestations(((uint256,uint256,bytes)[],address),bytes)": {
        "details": "Returns attestations that will be recorded, constructed from the user request",
        "params": {
          "request": "users request. Claim of having an account part of a group of accounts"
        }
      },
      "constructor": {
        "details": "Constructor. Initializes the contract",
        "params": {
          "attestationsRegistryAddress": "Attestations Registry contract on which the attester will write attestations",
          "collectionIdFirst": "Id of the first collection in which the attester is supposed to record",
          "collectionIdLast": "Id of the last collection in which the attester is supposed to record",
          "commitmentSignerPubKey": "The EdDSA public key of the commitment signer for the Pythia 1 Proving Scheme",
          "owner": "The owner of the contract that can update the commitment signer pub key",
          "pythia1VerifierAddress": "ZK Snark Pythia-1 Verifier contract"
        }
      },
      "deleteAttestations(uint256[],address,bytes)": {
        "details": "External facing function. Allows to delete attestations by submitting proof",
        "params": {
          "attestationsOwner": "Owner of attestations to delete",
          "collectionIds": "Collection identifier of attestations to delete",
          "proofData": "Data sent along the deletion request to prove its validity"
        },
        "returns": {
          "_0": "attestations Attestations that were deleted"
        }
      },
      "generateAttestations(((uint256,uint256,bytes)[],address),bytes)": {
        "details": "Main external function. Allows to generate attestations by making a request and submitting proof",
        "params": {
          "proofData": "Data sent along the request to prove its validity",
          "request": "User request"
        },
        "returns": {
          "_0": "attestations Attestations that has been recorded"
        }
      },
      "getAttestationRegistry()": {
        "details": "Attestation registry getter",
        "returns": {
          "_0": "attestationRegistry"
        }
      },
      "getCommitmentSignerPubKey()": {
        "details": "Getter of the Commitment signer Eddsa Public key"
      },
      "getDestinationOfTicket(uint256)": {
        "details": "Getter, returns the last attestation destination of a ticket",
        "params": {
          "userTicket": "ticket used*"
        }
      },
      "getVerifier()": {
        "details": "Getter of Pythia-1 Verifier contract"
      },
      "initialize(uint256[2],address)": {
        "details": "Initializes the contract, to be called by the proxy delegating calls to this implementation",
        "params": {
          "commitmentSignerPubKey": "EdDSA public key of the commitment signer",
          "owner": "Owner of the contract, can update public key and address"
        }
      },
      "owner()": {
        "details": "Returns the address of the current owner."
      },
      "renounceOwnership()": {
        "details": "Leaves the contract without owner. It will not be possible to call `onlyOwner` functions anymore. Can only be called by the current owner. NOTE: Renouncing ownership will leave the contract without an owner, thereby removing any functionality that is only available to the owner."
      },
      "transferOwnership(address)": {
        "details": "Transfers ownership of the contract to a new account (`newOwner`). Can only be called by the current owner."
      }
    },
    "stateVariables": {
      "AUTHORIZED_COLLECTION_ID_FIRST": {
        "details": "Getter returns of the first collection in which the attester is supposed to record*"
      },
      "AUTHORIZED_COLLECTION_ID_LAST": {
        "details": "Getter returns of the last collection in which the attester is supposed to record*"
      }
    },
    "title": "Pythia-1 Simple Attester",
    "version": 1
  },
  "userdoc": {
    "kind": "user",
    "methods": {},
    "notice": "This attester is part of the family of the Pythia-1 Attesters. Pythia-1 attesters enable users to prove they have a claim and its proof issued by an  offchain service in a privacy preserving way.  That means no-one can make the link between the account used in the offchain service and the onchain account where the attestation is stored. The Pythia-1 Base abstract contract is inherited and holds the complex Pythia 1 verification logic. We invite readers to refer to:    - https://pythia-1.docs.sismo.io for a full guide through the Pythia-1 ZK Attestations    - https://pythia-1-circuits.docs.sismo.io for circuits, prover and verifiers of Pythia-1 This specific attester has the following characteristics: - Zero Knowledge   One cannot deduct from an attestation what offchain issuer's account was used to generate the underlying proof - Non Strict (scores)   If a user can generate an attestation of max value 100, they can also generate any attestation with value < 100.   This attester generate attestations of scores - Ticketed   Each users gets one userTicket per claim   For people used to semaphore/ tornado cash people:   userTicket = hash(secret, ticketIdentifier) <=> nullifierHash = hash(IdNullifier, externalNullifier)*",
    "version": 1
  },
  "storageLayout": {
    "storage": [
      {
        "astId": 936,
        "contract": "contracts/attesters/pythia-1/Pythia1SimpleAttester.sol:Pythia1SimpleAttester",
        "label": "_initialized",
        "offset": 0,
        "slot": "0",
        "type": "t_bool"
      },
      {
        "astId": 939,
        "contract": "contracts/attesters/pythia-1/Pythia1SimpleAttester.sol:Pythia1SimpleAttester",
        "label": "_initializing",
        "offset": 1,
        "slot": "0",
        "type": "t_bool"
      },
      {
        "astId": 389,
        "contract": "contracts/attesters/pythia-1/Pythia1SimpleAttester.sol:Pythia1SimpleAttester",
        "label": "_owner",
        "offset": 2,
        "slot": "0",
        "type": "t_address"
      },
      {
        "astId": 8437,
        "contract": "contracts/attesters/pythia-1/Pythia1SimpleAttester.sol:Pythia1SimpleAttester",
        "label": "_commitmentSignerPubKey",
        "offset": 0,
        "slot": "1",
        "type": "t_array(t_uint256)2_storage"
      },
      {
        "astId": 8441,
        "contract": "contracts/attesters/pythia-1/Pythia1SimpleAttester.sol:Pythia1SimpleAttester",
        "label": "_ticketsDestinations",
        "offset": 0,
        "slot": "3",
        "type": "t_mapping(t_uint256,t_address)"
      }
    ],
    "types": {
      "t_address": {
        "encoding": "inplace",
        "label": "address",
        "numberOfBytes": "20"
      },
      "t_array(t_uint256)2_storage": {
        "base": "t_uint256",
        "encoding": "inplace",
        "label": "uint256[2]",
        "numberOfBytes": "64"
      },
      "t_bool": {
        "encoding": "inplace",
        "label": "bool",
        "numberOfBytes": "1"
      },
      "t_mapping(t_uint256,t_address)": {
        "encoding": "mapping",
        "key": "t_uint256",
        "label": "mapping(uint256 => address)",
        "numberOfBytes": "32",
        "value": "t_address"
      },
      "t_uint256": {
        "encoding": "inplace",
        "label": "uint256",
        "numberOfBytes": "32"
      }
    }
  }
}