{
  "address": "0x43043E3A1EbD6966f133AE67D1822f99874A191d",
  "abi": [
    {
      "inputs": [
        {
          "internalType": "uint256[2]",
          "name": "a",
          "type": "uint256[2]"
        },
        {
          "internalType": "uint256[2][2]",
          "name": "b",
          "type": "uint256[2][2]"
        },
        {
          "internalType": "uint256[2]",
          "name": "c",
          "type": "uint256[2]"
        },
        {
          "internalType": "uint256[9]",
          "name": "input",
          "type": "uint256[9]"
        }
      ],
      "name": "verifyProof",
      "outputs": [
        {
          "internalType": "bool",
          "name": "r",
          "type": "bool"
        }
      ],
      "stateMutability": "view",
      "type": "function"
    }
  ],
  "transactionHash": "0x5e39f2e754b536f5a232a84b0f543499a432e4e1115e4e867ae71b34b288ba6d",
  "args": [],
  "numDeployments": 1,
  "solcInputHash": "70d5ec851bd4311fac67c09b114b9c0c",
  "bytecode": "0x608060405234801561001057600080fd5b5061151f806100206000396000f3fe608060405234801561001057600080fd5b506004361061002b5760003560e01c8063c542c93b14610030575b600080fd5b61004361003e366004611356565b610057565b604051901515815260200160405180910390f35b6000610061611169565b60408051808201825287518152602080890151818301529083528151608081018352875151818401908152885183015160608301528152825180840184528883018051518252518301518184015281830152838201528151808301835286518152868201518183015283830152815160098082526101408201909352600092909182016101208036833701905050905060005b60098110156101435784816009811061010f5761010f611434565b602002015182828151811061012657610126611434565b60209081029190910101528061013b81611460565b9150506100f4565b5061014e818361016f565b60000361016057600192505050610167565b6000925050505b949350505050565b60007f30644e72e131a029b85045b68181585d2833e84879b9709143e1f593f00000018161019b610366565b9050806080015151855160016101b19190611479565b146101f85760405162461bcd60e51b81526020600482015260126024820152711d995c9a599a595c8b5898590b5a5b9c1d5d60721b60448201526064015b60405180910390fd5b604080518082019091526000808252602082018190525b86518110156102e9578387828151811061022b5761022b611434565b6020026020010151106102805760405162461bcd60e51b815260206004820152601f60248201527f76657269666965722d6774652d736e61726b2d7363616c61722d6669656c640060448201526064016101ef565b6102d5826102d085608001518460016102999190611479565b815181106102a9576102a9611434565b60200260200101518a85815181106102c3576102c3611434565b6020026020010151610ab8565b610b4e565b9150806102e181611460565b91505061020f565b5061031281836080015160008151811061030557610305611434565b6020026020010151610b4e565b90506103486103248660000151610be7565b8660200151846000015185602001518587604001518b604001518960600151610c86565b6103585760019350505050610360565b600093505050505b92915050565b61036e6111ba565b6040805180820182527f2d4d9aa7e302d9df41749d5507949d05dbea33fbb16c643b22f599a2be6df2e281527f14bedd503c37ceb061d8ec60209fe345ce89830a19230301f076caff004d19266020808301919091529083528151608080820184527f0967032fcbf776d1afc985f88877f182d38480a653f2decaa9794cbc3bf3060c8285019081527f0e187847ad4c798374d0d6732bf501847dd68bc0e071241e0213bc7fc13db7ab606080850191909152908352845180860186527f304cfbd1e08a704a99f5e847d93f8c3caafddec46b7a0d379da69a4d112346a781527f1739c1b1a457a8c7313123d24d2f9192f896b7c63eea05a9d57f06547ad0cec8818601528385015285840192909252835180820185527f198e9393920d483a7260bfb731fb5d25f1aa493335a9e71297e485b7aef312c28186019081527f1800deef121f1e76426a00665e5c4479674322d4f75edadd46debd5cd992f6ed828501528152845180860186527f090689d0585ff075ec9e99ad690c3395bc4b313370b38ef355acdadcd122975b81527f12c85ea5db8c6deb4aab71808dcb408fe3d1e7690c43d37b4ce6cc0166fa7daa818601528185015285850152835190810184527f174892b5bad4ddcfd89eda92cc1a5fb630cfd006cdb1659b082e3fae39df9b9c8185019081527f256176846e5a9b02d671495ae4d617f2bd45ce621c1a181cb505f4b5b8b785ae828401528152835180850185527f02ca7609b5aecf9430434e2f4ecb35f1d85090b34f1e9db416b6ed27a47211ac81527f232e1bb08a19b6cc0e639c831b21a6fefdb07f9361801b61dcab9871483b7c528185015281840152908401528151600a8082526101608201909352919082015b60408051808201909152600080825260208201528152602001906001900390816105ea57505060808201908152604080518082019091527f0c32e6a2033cd6027d1a46a68265e41b8a47bfb7a3e130a2c0f533ef102de83d81527f0cc770fbf603ef9467a0c6e6cc28e85214afd8411c933e69178479d2841e976c60208201529051805160009061067d5761067d611434565b602002602001018190525060405180604001604052807f1c12c8210513044ddb9ea2a7cfb8f3b529b6d43abe416e35c005a63a6fffc83a81526020017f11921fe7e6b849a03a0428e49a6465a87f3c98016eb6d13ad110ab15ee0cb5bd81525081608001516001815181106106f4576106f4611434565b602002602001018190525060405180604001604052807e3ae0b7e630d0708e4da300f02dd27c42654381541ab974a678042eb4fadb3f81526020017e0ad667b81d05c6e95487a6140ca0dc3ba85d47509073a2c1b457cfbf67a1ea815250816080015160028151811061076957610769611434565b602002602001018190525060405180604001604052807f0bea1f762ed1b817dddb25a7b7e60f69ff7671eb72fe695a8a24b620fae6515381526020017f069f91831bbeea0bcb8e658c68c110e35e033ae01637be60803083e3696b439181525081608001516003815181106107e0576107e0611434565b602002602001018190525060405180604001604052807f1d8a4973e60e7186c4dd89fd553304f628ebac9870b43dead962ce96064803a681526020017f1ce0f6623640030a2a8210d5e37d04e983127c85dd0bca8f503b2b24c8ad04d1815250816080015160048151811061085757610857611434565b602002602001018190525060405180604001604052807f1955b5fc797055fe5682e71ee08375742622a371f736e40a827fde747dbc7b1881526020017f259ab98a8122832a5779c0c1373733a1d9204803eabd831c550583852bab2c1e81525081608001516005815181106108ce576108ce611434565b602002602001018190525060405180604001604052807f0f2d07869bdb9a50651a2ad87da88a78d29bc7f5abb0c866769189f94f3b37d581526020017f3042b79c235d1a7e6781dde92773e7a52276a8912fe06de16a781d3995ed1319815250816080015160068151811061094557610945611434565b602002602001018190525060405180604001604052807f14dde6710af95fd2d6c49a1cadc761ae8b093e2b80fe9d7b980538baf49b854981526020017f0c4f6f112e147b22270b3c65f5d65a07842b81682deb09f6d4236dac4b9b1fd081525081608001516007815181106109bc576109bc611434565b602002602001018190525060405180604001604052807f1239824d3a77d0e97d55504525df59d36e148fab147bc75b41e74e47478c5f6c81526020017f25393a4bf81046bad1869efc59edfb1a6b379d1d1eab45fcb634b73c0108ebf98152508160800151600881518110610a3357610a33611434565b602002602001018190525060405180604001604052807f13ae19e280548637b1ce4de3d1405ffdd1d8838f2c34a3017cb05810880cd9a481526020017f0803bdf0743261ea96d28d68f7f3cce9505ad2dbce28eb78ba7ccc002c93991a8152508160800151600981518110610aaa57610aaa611434565b602002602001018190525090565b6040805180820190915260008082526020820152610ad461120b565b835181526020808501519082015260408101839052600060608360808460076107d05a03fa90508080610b0357fe5b5080610b465760405162461bcd60e51b81526020600482015260126024820152711c185a5c9a5b99cb5b5d5b0b59985a5b195960721b60448201526064016101ef565b505092915050565b6040805180820190915260008082526020820152610b6a611229565b8351815260208085015181830152835160408301528301516060808301919091526000908360c08460066107d05a03fa90508080610ba457fe5b5080610b465760405162461bcd60e51b81526020600482015260126024820152711c185a5c9a5b99cb5859190b59985a5b195960721b60448201526064016101ef565b604080518082019091526000808252602082015281517f30644e72e131a029b85045b68181585d97816a916871ca8d3c208c16d87cfd4790158015610c2e57506020830151155b15610c4e5750506040805180820190915260008082526020820152919050565b604051806040016040528084600001518152602001828560200151610c739190611491565b610c7d90846114b3565b90529392505050565b60408051600480825260a08201909252600091829190816020015b6040805180820190915260008082526020820152815260200190600190039081610ca157505060408051600480825260a0820190925291925060009190602082015b610ceb611247565b815260200190600190039081610ce35790505090508a82600081518110610d1457610d14611434565b60200260200101819052508882600181518110610d3357610d33611434565b60200260200101819052508682600281518110610d5257610d52611434565b60200260200101819052508482600381518110610d7157610d71611434565b60200260200101819052508981600081518110610d9057610d90611434565b60200260200101819052508781600181518110610daf57610daf611434565b60200260200101819052508581600281518110610dce57610dce611434565b60200260200101819052508381600381518110610ded57610ded611434565b6020026020010181905250610e028282610e11565b9b9a5050505050505050505050565b60008151835114610e5d5760405162461bcd60e51b81526020600482015260166024820152751c185a5c9a5b99cb5b195b99dd1a1ccb59985a5b195960521b60448201526064016101ef565b82516000610e6c8260066114ca565b905060008167ffffffffffffffff811115610e8957610e896112a3565b604051908082528060200260200182016040528015610eb2578160200160208202803683370190505b50905060005b838110156110ed57868181518110610ed257610ed2611434565b60200260200101516000015182826006610eec91906114ca565b610ef7906000611479565b81518110610f0757610f07611434565b602002602001018181525050868181518110610f2557610f25611434565b60200260200101516020015182826006610f3f91906114ca565b610f4a906001611479565b81518110610f5a57610f5a611434565b602002602001018181525050858181518110610f7857610f78611434565b6020908102919091010151515182610f918360066114ca565b610f9c906002611479565b81518110610fac57610fac611434565b602002602001018181525050858181518110610fca57610fca611434565b60209081029190910181015151015182610fe58360066114ca565b610ff0906003611479565b8151811061100057611000611434565b60200260200101818152505085818151811061101e5761101e611434565b60200260200101516020015160006002811061103c5761103c611434565b60200201518261104d8360066114ca565b611058906004611479565b8151811061106857611068611434565b60200260200101818152505085818151811061108657611086611434565b6020026020010151602001516001600281106110a4576110a4611434565b6020020151826110b58360066114ca565b6110c0906005611479565b815181106110d0576110d0611434565b6020908102919091010152806110e581611460565b915050610eb8565b506110f6611267565b6000602082602086026020860160086107d05a03fa9050808061111557fe5b508061115b5760405162461bcd60e51b81526020600482015260156024820152741c185a5c9a5b99cb5bdc18dbd9194b59985a5b1959605a1b60448201526064016101ef565b505115159695505050505050565b6040805160a081019091526000606082018181526080830191909152815260208101611193611247565b81526020016111b5604051806040016040528060008152602001600081525090565b905290565b6040805160e08101909152600060a0820181815260c08301919091528152602081016111e4611247565b81526020016111f1611247565b81526020016111fe611247565b8152602001606081525090565b60405180606001604052806003906020820280368337509192915050565b60405180608001604052806004906020820280368337509192915050565b604051806040016040528061125a611285565b81526020016111b5611285565b60405180602001604052806001906020820280368337509192915050565b60405180604001604052806002906020820280368337509192915050565b634e487b7160e01b600052604160045260246000fd5b6040805190810167ffffffffffffffff811182821017156112dc576112dc6112a3565b60405290565b604051610120810167ffffffffffffffff811182821017156112dc576112dc6112a3565b600082601f83011261131757600080fd5b61131f6112b9565b80604084018581111561133157600080fd5b845b8181101561134b578035845260209384019301611333565b509095945050505050565b60008060008061022080868803121561136e57600080fd5b6113788787611306565b9450604087605f88011261138b57600080fd5b6113936112b9565b8060c089018a8111156113a557600080fd5b838a015b818110156113ca576113bb8c82611306565b845260209093019284016113a9565b508197506113d88b82611306565b9650505050508661011f8701126113ee57600080fd5b6113f66112e2565b90860190808883111561140857600080fd5b61010088015b8381101561142657803583526020928301920161140e565b509598949750929550505050565b634e487b7160e01b600052603260045260246000fd5b634e487b7160e01b600052601160045260246000fd5b6000600182016114725761147261144a565b5060010190565b6000821982111561148c5761148c61144a565b500190565b6000826114ae57634e487b7160e01b600052601260045260246000fd5b500690565b6000828210156114c5576114c561144a565b500390565b60008160001904831182151516156114e4576114e461144a565b50029056fea264697066735822122064ca8e728369809bbfe58b0cff27a54a0e5e793919a8ed928a392738c3f2924564736f6c634300080e0033",
  "devdoc": {
    "kind": "dev",
    "methods": {
      "verifyProof(uint256[2],uint256[2][2],uint256[2],uint256[9])": {
        "returns": {
          "r": " bool true if proof is valid"
        }
      }
    },
    "version": 1
  },
  "userdoc": {
    "kind": "user",
    "methods": {},
    "version": 1
  },
  "storageLayout": {
    "storage": [],
    "types": null
  }
}