{
  "address": "0x5722fEa81027533721BA161964622271560da1aC",
  "abi": [
    {
      "inputs": [
        {
          "internalType": "string",
          "name": "uri",
          "type": "string"
        },
        {
          "internalType": "address",
          "name": "owner",
          "type": "address"
        }
      ],
      "stateMutability": "nonpayable",
      "type": "constructor"
    },
    {
      "inputs": [],
      "name": "BadgesNonTransferrable",
      "type": "error"
    },
    {
      "anonymous": false,
      "inputs": [
        {
          "indexed": true,
          "internalType": "address",
          "name": "account",
          "type": "address"
        },
        {
          "indexed": true,
          "internalType": "address",
          "name": "operator",
          "type": "address"
        },
        {
          "indexed": false,
          "internalType": "bool",
          "name": "approved",
          "type": "bool"
        }
      ],
      "name": "ApprovalForAll",
      "type": "event"
    },
    {
      "anonymous": false,
      "inputs": [
        {
          "indexed": false,
          "internalType": "uint8",
          "name": "version",
          "type": "uint8"
        }
      ],
      "name": "Initialized",
      "type": "event"
    },
    {
      "anonymous": false,
      "inputs": [
        {
          "indexed": true,
          "internalType": "bytes32",
          "name": "role",
          "type": "bytes32"
        },
        {
          "indexed": true,
          "internalType": "bytes32",
          "name": "previousAdminRole",
          "type": "bytes32"
        },
        {
          "indexed": true,
          "internalType": "bytes32",
          "name": "newAdminRole",
          "type": "bytes32"
        }
      ],
      "name": "RoleAdminChanged",
      "type": "event"
    },
    {
      "anonymous": false,
      "inputs": [
        {
          "indexed": true,
          "internalType": "bytes32",
          "name": "role",
          "type": "bytes32"
        },
        {
          "indexed": true,
          "internalType": "address",
          "name": "account",
          "type": "address"
        },
        {
          "indexed": true,
          "internalType": "address",
          "name": "sender",
          "type": "address"
        }
      ],
      "name": "RoleGranted",
      "type": "event"
    },
    {
      "anonymous": false,
      "inputs": [
        {
          "indexed": true,
          "internalType": "bytes32",
          "name": "role",
          "type": "bytes32"
        },
        {
          "indexed": true,
          "internalType": "address",
          "name": "account",
          "type": "address"
        },
        {
          "indexed": true,
          "internalType": "address",
          "name": "sender",
          "type": "address"
        }
      ],
      "name": "RoleRevoked",
      "type": "event"
    },
    {
      "anonymous": false,
      "inputs": [
        {
          "indexed": true,
          "internalType": "address",
          "name": "operator",
          "type": "address"
        },
        {
          "indexed": true,
          "internalType": "address",
          "name": "from",
          "type": "address"
        },
        {
          "indexed": true,
          "internalType": "address",
          "name": "to",
          "type": "address"
        },
        {
          "indexed": false,
          "internalType": "uint256[]",
          "name": "ids",
          "type": "uint256[]"
        },
        {
          "indexed": false,
          "internalType": "uint256[]",
          "name": "values",
          "type": "uint256[]"
        }
      ],
      "name": "TransferBatch",
      "type": "event"
    },
    {
      "anonymous": false,
      "inputs": [
        {
          "indexed": true,
          "internalType": "address",
          "name": "operator",
          "type": "address"
        },
        {
          "indexed": true,
          "internalType": "address",
          "name": "from",
          "type": "address"
        },
        {
          "indexed": true,
          "internalType": "address",
          "name": "to",
          "type": "address"
        },
        {
          "indexed": false,
          "internalType": "uint256",
          "name": "id",
          "type": "uint256"
        },
        {
          "indexed": false,
          "internalType": "uint256",
          "name": "value",
          "type": "uint256"
        }
      ],
      "name": "TransferSingle",
      "type": "event"
    },
    {
      "anonymous": false,
      "inputs": [
        {
          "indexed": false,
          "internalType": "string",
          "name": "value",
          "type": "string"
        },
        {
          "indexed": true,
          "internalType": "uint256",
          "name": "id",
          "type": "uint256"
        }
      ],
      "name": "URI",
      "type": "event"
    },
    {
      "inputs": [],
      "name": "DEFAULT_ADMIN_ROLE",
      "outputs": [
        {
          "internalType": "bytes32",
          "name": "",
          "type": "bytes32"
        }
      ],
      "stateMutability": "view",
      "type": "function"
    },
    {
      "inputs": [],
      "name": "EVENT_TRIGGERER_ROLE",
      "outputs": [
        {
          "internalType": "bytes32",
          "name": "",
          "type": "bytes32"
        }
      ],
      "stateMutability": "view",
      "type": "function"
    },
    {
      "inputs": [],
      "name": "IMPLEMENTATION_VERSION",
      "outputs": [
        {
          "internalType": "uint8",
          "name": "",
          "type": "uint8"
        }
      ],
      "stateMutability": "view",
      "type": "function"
    },
    {
      "inputs": [
        {
          "internalType": "address",
          "name": "account",
          "type": "address"
        },
        {
          "internalType": "uint256",
          "name": "id",
          "type": "uint256"
        }
      ],
      "name": "balanceOf",
      "outputs": [
        {
          "internalType": "uint256",
          "name": "",
          "type": "uint256"
        }
      ],
      "stateMutability": "view",
      "type": "function"
    },
    {
      "inputs": [
        {
          "internalType": "address[]",
          "name": "accounts",
          "type": "address[]"
        },
        {
          "internalType": "uint256[]",
          "name": "ids",
          "type": "uint256[]"
        }
      ],
      "name": "balanceOfBatch",
      "outputs": [
        {
          "internalType": "uint256[]",
          "name": "",
          "type": "uint256[]"
        }
      ],
      "stateMutability": "view",
      "type": "function"
    },
    {
      "inputs": [],
      "name": "getAttestationsRegistry",
      "outputs": [
        {
          "internalType": "address",
          "name": "",
          "type": "address"
        }
      ],
      "stateMutability": "view",
      "type": "function"
    },
    {
      "inputs": [
        {
          "internalType": "uint256",
          "name": "id",
          "type": "uint256"
        },
        {
          "internalType": "uint8",
          "name": "index",
          "type": "uint8"
        }
      ],
      "name": "getAttributeValueForBadge",
      "outputs": [
        {
          "internalType": "uint8",
          "name": "",
          "type": "uint8"
        }
      ],
      "stateMutability": "view",
      "type": "function"
    },
    {
      "inputs": [
        {
          "internalType": "uint256",
          "name": "id",
          "type": "uint256"
        }
      ],
      "name": "getAttributesNamesAndValuesForBadge",
      "outputs": [
        {
          "internalType": "bytes32[]",
          "name": "",
          "type": "bytes32[]"
        },
        {
          "internalType": "uint8[]",
          "name": "",
          "type": "uint8[]"
        }
      ],
      "stateMutability": "view",
      "type": "function"
    },
    {
      "inputs": [
        {
          "internalType": "address",
          "name": "account",
          "type": "address"
        },
        {
          "internalType": "uint256",
          "name": "id",
          "type": "uint256"
        }
      ],
      "name": "getBadgeExtraData",
      "outputs": [
        {
          "internalType": "bytes",
          "name": "",
          "type": "bytes"
        }
      ],
      "stateMutability": "view",
      "type": "function"
    },
    {
      "inputs": [
        {
          "internalType": "address",
          "name": "account",
          "type": "address"
        },
        {
          "internalType": "uint256",
          "name": "id",
          "type": "uint256"
        }
      ],
      "name": "getBadgeIssuer",
      "outputs": [
        {
          "internalType": "address",
          "name": "",
          "type": "address"
        }
      ],
      "stateMutability": "view",
      "type": "function"
    },
    {
      "inputs": [
        {
          "internalType": "address",
          "name": "account",
          "type": "address"
        },
        {
          "internalType": "uint256",
          "name": "id",
          "type": "uint256"
        }
      ],
      "name": "getBadgeTimestamp",
      "outputs": [
        {
          "internalType": "uint32",
          "name": "",
          "type": "uint32"
        }
      ],
      "stateMutability": "view",
      "type": "function"
    },
    {
      "inputs": [
        {
          "internalType": "bytes32",
          "name": "role",
          "type": "bytes32"
        }
      ],
      "name": "getRoleAdmin",
      "outputs": [
        {
          "internalType": "bytes32",
          "name": "",
          "type": "bytes32"
        }
      ],
      "stateMutability": "view",
      "type": "function"
    },
    {
      "inputs": [
        {
          "internalType": "bytes32",
          "name": "role",
          "type": "bytes32"
        },
        {
          "internalType": "address",
          "name": "account",
          "type": "address"
        }
      ],
      "name": "grantRole",
      "outputs": [],
      "stateMutability": "nonpayable",
      "type": "function"
    },
    {
      "inputs": [
        {
          "internalType": "bytes32",
          "name": "role",
          "type": "bytes32"
        },
        {
          "internalType": "address",
          "name": "account",
          "type": "address"
        }
      ],
      "name": "hasRole",
      "outputs": [
        {
          "internalType": "bool",
          "name": "",
          "type": "bool"
        }
      ],
      "stateMutability": "view",
      "type": "function"
    },
    {
      "inputs": [
        {
          "internalType": "string",
          "name": "uri",
          "type": "string"
        },
        {
          "internalType": "address",
          "name": "owner",
          "type": "address"
        }
      ],
      "name": "initialize",
      "outputs": [],
      "stateMutability": "nonpayable",
      "type": "function"
    },
    {
      "inputs": [
        {
          "internalType": "address",
          "name": "account",
          "type": "address"
        },
        {
          "internalType": "address",
          "name": "operator",
          "type": "address"
        }
      ],
      "name": "isApprovedForAll",
      "outputs": [
        {
          "internalType": "bool",
          "name": "",
          "type": "bool"
        }
      ],
      "stateMutability": "view",
      "type": "function"
    },
    {
      "inputs": [
        {
          "internalType": "bytes32",
          "name": "role",
          "type": "bytes32"
        },
        {
          "internalType": "address",
          "name": "account",
          "type": "address"
        }
      ],
      "name": "renounceRole",
      "outputs": [],
      "stateMutability": "nonpayable",
      "type": "function"
    },
    {
      "inputs": [
        {
          "internalType": "bytes32",
          "name": "role",
          "type": "bytes32"
        },
        {
          "internalType": "address",
          "name": "account",
          "type": "address"
        }
      ],
      "name": "revokeRole",
      "outputs": [],
      "stateMutability": "nonpayable",
      "type": "function"
    },
    {
      "inputs": [
        {
          "internalType": "address",
          "name": "from",
          "type": "address"
        },
        {
          "internalType": "address",
          "name": "to",
          "type": "address"
        },
        {
          "internalType": "uint256[]",
          "name": "ids",
          "type": "uint256[]"
        },
        {
          "internalType": "uint256[]",
          "name": "amounts",
          "type": "uint256[]"
        },
        {
          "internalType": "bytes",
          "name": "data",
          "type": "bytes"
        }
      ],
      "name": "safeBatchTransferFrom",
      "outputs": [],
      "stateMutability": "nonpayable",
      "type": "function"
    },
    {
      "inputs": [
        {
          "internalType": "address",
          "name": "from",
          "type": "address"
        },
        {
          "internalType": "address",
          "name": "to",
          "type": "address"
        },
        {
          "internalType": "uint256",
          "name": "id",
          "type": "uint256"
        },
        {
          "internalType": "uint256",
          "name": "amount",
          "type": "uint256"
        },
        {
          "internalType": "bytes",
          "name": "data",
          "type": "bytes"
        }
      ],
      "name": "safeTransferFrom",
      "outputs": [],
      "stateMutability": "nonpayable",
      "type": "function"
    },
    {
      "inputs": [
        {
          "internalType": "address",
          "name": "operator",
          "type": "address"
        },
        {
          "internalType": "bool",
          "name": "approved",
          "type": "bool"
        }
      ],
      "name": "setApprovalForAll",
      "outputs": [],
      "stateMutability": "nonpayable",
      "type": "function"
    },
    {
      "inputs": [
        {
          "internalType": "address",
          "name": "attestationsRegistry",
          "type": "address"
        }
      ],
      "name": "setAttestationsRegistry",
      "outputs": [],
      "stateMutability": "nonpayable",
      "type": "function"
    },
    {
      "inputs": [
        {
          "internalType": "string",
          "name": "uri",
          "type": "string"
        }
      ],
      "name": "setUri",
      "outputs": [],
      "stateMutability": "nonpayable",
      "type": "function"
    },
    {
      "inputs": [
        {
          "internalType": "bytes4",
          "name": "interfaceId",
          "type": "bytes4"
        }
      ],
      "name": "supportsInterface",
      "outputs": [
        {
          "internalType": "bool",
          "name": "",
          "type": "bool"
        }
      ],
      "stateMutability": "view",
      "type": "function"
    },
    {
      "inputs": [
        {
          "internalType": "address",
          "name": "operator",
          "type": "address"
        },
        {
          "internalType": "address",
          "name": "from",
          "type": "address"
        },
        {
          "internalType": "address",
          "name": "to",
          "type": "address"
        },
        {
          "internalType": "uint256",
          "name": "id",
          "type": "uint256"
        },
        {
          "internalType": "uint256",
          "name": "value",
          "type": "uint256"
        }
      ],
      "name": "triggerTransferEvent",
      "outputs": [],
      "stateMutability": "nonpayable",
      "type": "function"
    },
    {
      "inputs": [
        {
          "internalType": "uint256",
          "name": "",
          "type": "uint256"
        }
      ],
      "name": "uri",
      "outputs": [
        {
          "internalType": "string",
          "name": "",
          "type": "string"
        }
      ],
      "stateMutability": "view",
      "type": "function"
    }
  ],
  "transactionHash": "0xe6ede11f9bb84c6196c423e8f968bb588de965109953129484ff04390ae68c5e",
  "args": [
    "https://hub.staging.zikies.io/badges/mumbai/{id}.json",
    "0x4e070E9b85a659F0B7B47cde33152ad6c2F63954"
  ],
  "numDeployments": 4,
  "solcInputHash": "6edb98fea2bf424a369954d0e80655f6",
  "bytecode": "0x60806040523480156200001157600080fd5b50604051620027eb380380620027eb833981016040819052620000349162000395565b81620000408162000055565b506200004d82826200006e565b5050620004c2565b80516200006a906004906020840190620002bc565b5050565b600054600390610100900460ff1615801562000091575060005460ff8083169116105b620000f95760405162461bcd60e51b815260206004820152602e60248201527f496e697469616c697a61626c653a20636f6e747261637420697320616c72656160448201526d191e481a5b9a5d1a585b1a5e995960921b606482015260840160405180910390fd5b6000805461ffff191660ff83161761010017815562000127906200051d62000198602090811b91909117901c565b511580620001345750303b155b156200015257620001458362000055565b6200015260008362000234565b6000805461ff001916905560405160ff821681527f7f26b83ff96e1f2b6a682f133852f6798a09c465da95921460cefb38474024989060200160405180910390a1505050565b606060048054620001a99062000486565b80601f0160208091040260200160405190810160405280929190818152602001828054620001d79062000486565b8015620002285780601f10620001fc5761010080835404028352916020019162000228565b820191906000526020600020905b8154815290600101906020018083116200020a57829003601f168201915b50505050509050919050565b60008281526001602090815260408083206001600160a01b038516845290915290205460ff166200006a5760008281526001602081815260408084206001600160a01b0386168086529252808420805460ff19169093179092559051339285917f2f8788117e7eff1d82e926ec794901d17c78024a50270940304540a733656f0d9190a45050565b828054620002ca9062000486565b90600052602060002090601f016020900481019282620002ee576000855562000339565b82601f106200030957805160ff191683800117855562000339565b8280016001018555821562000339579182015b82811115620003395782518255916020019190600101906200031c565b50620003479291506200034b565b5090565b5b808211156200034757600081556001016200034c565b634e487b7160e01b600052604160045260246000fd5b80516001600160a01b03811681146200039057600080fd5b919050565b60008060408385031215620003a957600080fd5b82516001600160401b0380821115620003c157600080fd5b818501915085601f830112620003d657600080fd5b815181811115620003eb57620003eb62000362565b604051601f8201601f19908116603f0116810190838211818310171562000416576200041662000362565b816040528281526020935088848487010111156200043357600080fd5b600091505b8282101562000457578482018401518183018501529083019062000438565b82821115620004695760008484830101525b95506200047b91505085820162000378565b925050509250929050565b600181811c908216806200049b57607f821691505b602082108103620004bc57634e487b7160e01b600052602260045260246000fd5b50919050565b61231980620004d26000396000f3fe608060405234801561001057600080fd5b506004361061018d5760003560e01c8063754b377c116100de578063aed8c6bc11610097578063e37ffe7c11610071578063e37ffe7c146103aa578063e985e9c5146103cb578063f242432a146103de578063ff4468c4146103f157600080fd5b8063aed8c6bc14610371578063b3c1cb2114610384578063d547741f1461039757600080fd5b8063754b377c146103035780637ab4339d1461031d57806391d14854146103305780639b642de114610343578063a217fddf14610356578063a22cb4651461035e57600080fd5b80632f2ff15d1161014b57806344112ed81161012557806344112ed8146102985780634e1273f4146102bf578063710b3096146102df578063730cb7d5146102f257600080fd5b80632f2ff15d1461025f57806336568abe146102725780633e1f3c271461028557600080fd5b8062fdd58e1461019257806301ffc9a7146101b85780630e064366146101db5780630e89341c14610206578063248a9ca3146102265780632eb2c2d61461024a575b600080fd5b6101a56101a0366004611618565b610419565b6040519081526020015b60405180910390f35b6101cb6101c636600461165a565b610496565b60405190151581526020016101af565b6101ee6101e9366004611618565b6104a7565b6040516001600160a01b0390911681526020016101af565b610219610214366004611677565b61051d565b6040516101af91906116ec565b6101a5610234366004611677565b6000908152600160208190526040909120015490565b61025d610258366004611858565b6105b1565b005b61025d61026d366004611905565b610606565b61025d610280366004611905565b610631565b610219610293366004611618565b6106af565b6101a57fe6cd5415a09470f57cb652d653ef635ecd9a997fef2537decaf18eb7545b7fa481565b6102d26102cd366004611935565b610729565b6040516101af9190611a3c565b61025d6102ed366004611a4f565b610852565b6005546001600160a01b03166101ee565b61030b600381565b60405160ff90911681526020016101af565b61025d61032b366004611aaa565b6108e4565b6101cb61033e366004611905565b6109f1565b61025d610351366004611af0565b610a1c565b6101a5600081565b61025d61036c366004611b2c565b610a30565b61030b61037f366004611b6e565b610a49565b61025d610392366004611b93565b610ac0565b61025d6103a5366004611905565b610aee565b6103bd6103b8366004611677565b610b14565b6040516101af929190611bb0565b6101cb6103d9366004611c2e565b610b93565b61025d6103ec366004611c5c565b610bae565b6104046103ff366004611618565b610bf3565b60405163ffffffff90911681526020016101af565b60055460405163461e4f1960e11b8152600481018390526001600160a01b0384811660248301526000921690638c3c9e3290604401602060405180830381865afa15801561046b573d6000803e3d6000fd5b505050506040513d601f19601f8201168201806040525081019061048f9190611cc4565b9392505050565b60006104a182610c69565b92915050565b6005546040516363ed4d5360e11b8152600481018390526001600160a01b038481166024830152600092169063c7da9aa690604401602060405180830381865afa1580156104f9573d6000803e3d6000fd5b505050506040513d601f19601f8201168201806040525081019061048f9190611cdd565b60606004805461052c90611cfa565b80601f016020809104026020016040519081016040528092919081815260200182805461055890611cfa565b80156105a55780601f1061057a576101008083540402835291602001916105a5565b820191906000526020600020905b81548152906001019060200180831161058857829003601f168201915b50505050509050919050565b6001600160a01b0385163314806105cd57506105cd8533610b93565b6105f25760405162461bcd60e51b81526004016105e990611d34565b60405180910390fd5b6105ff8585858585610ca9565b5050505050565b6000828152600160208190526040909120015461062281610e97565b61062c8383610ea4565b505050565b6001600160a01b03811633146106a15760405162461bcd60e51b815260206004820152602f60248201527f416363657373436f6e74726f6c3a2063616e206f6e6c792072656e6f756e636560448201526e103937b632b9903337b91039b2b63360891b60648201526084016105e9565b6106ab8282610f0f565b5050565b600554604051636d7fbb6760e01b8152600481018390526001600160a01b0384811660248301526060921690636d7fbb6790604401600060405180830381865afa158015610701573d6000803e3d6000fd5b505050506040513d6000823e601f3d908101601f1916820160405261048f9190810190611d82565b6060815183511461078e5760405162461bcd60e51b815260206004820152602960248201527f455243313135353a206163636f756e747320616e6420696473206c656e677468604482015268040dad2e6dac2e8c6d60bb1b60648201526084016105e9565b600083516001600160401b038111156107a9576107a96116ff565b6040519080825280602002602001820160405280156107d2578160200160208202803683370190505b50905060005b845181101561084a5761081d8582815181106107f6576107f6611e03565b602002602001015185838151811061081057610810611e03565b6020026020010151610419565b82828151811061082f5761082f611e03565b602090810291909101015261084381611e2f565b90506107d8565b509392505050565b7fe6cd5415a09470f57cb652d653ef635ecd9a997fef2537decaf18eb7545b7fa461087c81610e97565b836001600160a01b0316856001600160a01b0316876001600160a01b03167fc3d58168c5ae7397731d063d5bbf3d657854427343f4c083240f7aacaa2d0f6286866040516108d4929190918252602082015260400190565b60405180910390a4505050505050565b600054600390610100900460ff16158015610906575060005460ff8083169116105b6109695760405162461bcd60e51b815260206004820152602e60248201527f496e697469616c697a61626c653a20636f6e747261637420697320616c72656160448201526d191e481a5b9a5d1a585b1a5e995960921b60648201526084016105e9565b6000805461ffff191660ff8316176101001781556109869061051d565b5115806109925750303b155b156109ab576109a083610f76565b6109ab600083610ea4565b6000805461ff001916905560405160ff821681527f7f26b83ff96e1f2b6a682f133852f6798a09c465da95921460cefb38474024989060200160405180910390a1505050565b60009182526001602090815260408084206001600160a01b0393909316845291905290205460ff1690565b6000610a2781610e97565b6106ab82610f76565b6040516309a711b960e31b815260040160405180910390fd5b600554604051630e972f9160e41b81526004810184905260ff831660248201526000916001600160a01b03169063e972f91090604401602060405180830381865afa158015610a9c573d6000803e3d6000fd5b505050506040513d601f19601f8201168201806040525081019061048f9190611e48565b6000610acb81610e97565b50600580546001600160a01b0319166001600160a01b0392909216919091179055565b60008281526001602081905260409091200154610b0a81610e97565b61062c8383610f0f565b600554604051632b2bf81b60e11b81526004810183905260609182916001600160a01b0390911690635657f03690602401600060405180830381865afa158015610b62573d6000803e3d6000fd5b505050506040513d6000823e601f3d908101601f19168201604052610b8a9190810190611ed4565b91509150915091565b60006040516309a711b960e31b815260040160405180910390fd5b6001600160a01b038516331480610bca5750610bca8533610b93565b610be65760405162461bcd60e51b81526004016105e990611d34565b6105ff8585858585610f89565b6005546040516314067f8b60e01b8152600481018390526001600160a01b03848116602483015260009216906314067f8b90604401602060405180830381865afa158015610c45573d6000803e3d6000fd5b505050506040513d601f19601f8201168201806040525081019061048f9190611f90565b60006001600160e01b03198216636cdb3d1360e11b1480610c9a57506001600160e01b031982166303a24d0760e21b145b806104a157506104a1826110c5565b8151835114610d0b5760405162461bcd60e51b815260206004820152602860248201527f455243313135353a2069647320616e6420616d6f756e7473206c656e677468206044820152670dad2e6dac2e8c6d60c31b60648201526084016105e9565b6001600160a01b038416610d315760405162461bcd60e51b81526004016105e990611fb6565b33610d40818787878787610a30565b60005b8451811015610e29576000858281518110610d6057610d60611e03565b602002602001015190506000858381518110610d7e57610d7e611e03565b60209081029190910181015160008481526002835260408082206001600160a01b038e168352909352919091205490915081811015610dcf5760405162461bcd60e51b81526004016105e990611ffb565b60008381526002602090815260408083206001600160a01b038e8116855292528083208585039055908b16825281208054849290610e0e908490612045565b9250508190555050505080610e2290611e2f565b9050610d43565b50846001600160a01b0316866001600160a01b0316826001600160a01b03167f4a39dc06d4c0dbc64b70af90fd698a233a518aa5d07e595d983b8c0526c8f7fb8787604051610e7992919061205d565b60405180910390a4610e8f8187878787876110fa565b505050505050565b610ea1813361125e565b50565b610eae82826109f1565b6106ab5760008281526001602081815260408084206001600160a01b0386168086529252808420805460ff19169093179092559051339285917f2f8788117e7eff1d82e926ec794901d17c78024a50270940304540a733656f0d9190a45050565b610f1982826109f1565b156106ab5760008281526001602090815260408083206001600160a01b0385168085529252808320805460ff1916905551339285917ff6391f5c32d9c69d2a47ea670b442974b53935d1edc7fd64eb21e047a839171b9190a45050565b80516106ab90600490602084019061156a565b6001600160a01b038416610faf5760405162461bcd60e51b81526004016105e990611fb6565b336000610fbb856112b7565b90506000610fc8856112b7565b9050610fd8838989858589610a30565b60008681526002602090815260408083206001600160a01b038c1684529091529020548581101561101b5760405162461bcd60e51b81526004016105e990611ffb565b60008781526002602090815260408083206001600160a01b038d8116855292528083208985039055908a1682528120805488929061105a908490612045565b909155505060408051888152602081018890526001600160a01b03808b16928c821692918816917fc3d58168c5ae7397731d063d5bbf3d657854427343f4c083240f7aacaa2d0f62910160405180910390a46110ba848a8a8a8a8a611302565b505050505050505050565b60006001600160e01b03198216637965db0b60e01b14806104a157506301ffc9a760e01b6001600160e01b03198316146104a1565b6001600160a01b0384163b15610e8f5760405163bc197c8160e01b81526001600160a01b0385169063bc197c819061113e908990899088908890889060040161208b565b6020604051808303816000875af1925050508015611179575060408051601f3d908101601f19168201909252611176918101906120e9565b60015b61122557611185612106565b806308c379a0036111be5750611199612122565b806111a457506111c0565b8060405162461bcd60e51b81526004016105e991906116ec565b505b60405162461bcd60e51b815260206004820152603460248201527f455243313135353a207472616e7366657220746f206e6f6e2d455243313135356044820152732932b1b2b4bb32b91034b6b83632b6b2b73a32b960611b60648201526084016105e9565b6001600160e01b0319811663bc197c8160e01b146112555760405162461bcd60e51b81526004016105e9906121ab565b50505050505050565b61126882826109f1565b6106ab57611275816113bd565b6112808360206113cf565b6040516020016112919291906121f3565b60408051601f198184030181529082905262461bcd60e51b82526105e9916004016116ec565b604080516001808252818301909252606091600091906020808301908036833701905050905082816000815181106112f1576112f1611e03565b602090810291909101015292915050565b6001600160a01b0384163b15610e8f5760405163f23a6e6160e01b81526001600160a01b0385169063f23a6e61906113469089908990889088908890600401612268565b6020604051808303816000875af1925050508015611381575060408051601f3d908101601f1916820190925261137e918101906120e9565b60015b61138d57611185612106565b6001600160e01b0319811663f23a6e6160e01b146112555760405162461bcd60e51b81526004016105e9906121ab565b60606104a16001600160a01b03831660145b606060006113de8360026122ad565b6113e9906002612045565b6001600160401b03811115611400576114006116ff565b6040519080825280601f01601f19166020018201604052801561142a576020820181803683370190505b509050600360fc1b8160008151811061144557611445611e03565b60200101906001600160f81b031916908160001a905350600f60fb1b8160018151811061147457611474611e03565b60200101906001600160f81b031916908160001a90535060006114988460026122ad565b6114a3906001612045565b90505b600181111561151b576f181899199a1a9b1b9c1cb0b131b232b360811b85600f16601081106114d7576114d7611e03565b1a60f81b8282815181106114ed576114ed611e03565b60200101906001600160f81b031916908160001a90535060049490941c93611514816122cc565b90506114a6565b50831561048f5760405162461bcd60e51b815260206004820181905260248201527f537472696e67733a20686578206c656e67746820696e73756666696369656e7460448201526064016105e9565b82805461157690611cfa565b90600052602060002090601f01602090048101928261159857600085556115de565b82601f106115b157805160ff19168380011785556115de565b828001600101855582156115de579182015b828111156115de5782518255916020019190600101906115c3565b506115ea9291506115ee565b5090565b5b808211156115ea57600081556001016115ef565b6001600160a01b0381168114610ea157600080fd5b6000806040838503121561162b57600080fd5b823561163681611603565b946020939093013593505050565b6001600160e01b031981168114610ea157600080fd5b60006020828403121561166c57600080fd5b813561048f81611644565b60006020828403121561168957600080fd5b5035919050565b60005b838110156116ab578181015183820152602001611693565b838111156116ba576000848401525b50505050565b600081518084526116d8816020860160208601611690565b601f01601f19169290920160200192915050565b60208152600061048f60208301846116c0565b634e487b7160e01b600052604160045260246000fd5b601f8201601f191681016001600160401b038111828210171561173a5761173a6116ff565b6040525050565b60006001600160401b0382111561175a5761175a6116ff565b5060051b60200190565b600082601f83011261177557600080fd5b8135602061178282611741565b60405161178f8282611715565b83815260059390931b85018201928281019150868411156117af57600080fd5b8286015b848110156117ca57803583529183019183016117b3565b509695505050505050565b60006001600160401b038211156117ee576117ee6116ff565b50601f01601f191660200190565b600082601f83011261180d57600080fd5b8135611818816117d5565b6040516118258282611715565b82815285602084870101111561183a57600080fd5b82602086016020830137600092810160200192909252509392505050565b600080600080600060a0868803121561187057600080fd5b853561187b81611603565b9450602086013561188b81611603565b935060408601356001600160401b03808211156118a757600080fd5b6118b389838a01611764565b945060608801359150808211156118c957600080fd5b6118d589838a01611764565b935060808801359150808211156118eb57600080fd5b506118f8888289016117fc565b9150509295509295909350565b6000806040838503121561191857600080fd5b82359150602083013561192a81611603565b809150509250929050565b6000806040838503121561194857600080fd5b82356001600160401b038082111561195f57600080fd5b818501915085601f83011261197357600080fd5b8135602061198082611741565b60405161198d8282611715565b83815260059390931b85018201928281019150898411156119ad57600080fd5b948201945b838610156119d45785356119c581611603565b825294820194908201906119b2565b965050860135925050808211156119ea57600080fd5b506119f785828601611764565b9150509250929050565b600081518084526020808501945080840160005b83811015611a3157815187529582019590820190600101611a15565b509495945050505050565b60208152600061048f6020830184611a01565b600080600080600060a08688031215611a6757600080fd5b8535611a7281611603565b94506020860135611a8281611603565b93506040860135611a9281611603565b94979396509394606081013594506080013592915050565b60008060408385031215611abd57600080fd5b82356001600160401b03811115611ad357600080fd5b611adf858286016117fc565b925050602083013561192a81611603565b600060208284031215611b0257600080fd5b81356001600160401b03811115611b1857600080fd5b611b24848285016117fc565b949350505050565b60008060408385031215611b3f57600080fd5b8235611b4a81611603565b91506020830135801515811461192a57600080fd5b60ff81168114610ea157600080fd5b60008060408385031215611b8157600080fd5b82359150602083013561192a81611b5f565b600060208284031215611ba557600080fd5b813561048f81611603565b604080825283519082018190526000906020906060840190828701845b82811015611be957815184529284019290840190600101611bcd565b5050508381038285015284518082528583019183019060005b81811015611c2157835160ff1683529284019291840191600101611c02565b5090979650505050505050565b60008060408385031215611c4157600080fd5b8235611c4c81611603565b9150602083013561192a81611603565b600080600080600060a08688031215611c7457600080fd5b8535611c7f81611603565b94506020860135611c8f81611603565b9350604086013592506060860135915060808601356001600160401b03811115611cb857600080fd5b6118f8888289016117fc565b600060208284031215611cd657600080fd5b5051919050565b600060208284031215611cef57600080fd5b815161048f81611603565b600181811c90821680611d0e57607f821691505b602082108103611d2e57634e487b7160e01b600052602260045260246000fd5b50919050565b6020808252602e908201527f455243313135353a2063616c6c6572206973206e6f7420746f6b656e206f776e60408201526d195c881bdc88185c1c1c9bdd995960921b606082015260800190565b600060208284031215611d9457600080fd5b81516001600160401b03811115611daa57600080fd5b8201601f81018413611dbb57600080fd5b8051611dc6816117d5565b604051611dd38282611715565b828152866020848601011115611de857600080fd5b611df9836020830160208701611690565b9695505050505050565b634e487b7160e01b600052603260045260246000fd5b634e487b7160e01b600052601160045260246000fd5b600060018201611e4157611e41611e19565b5060010190565b600060208284031215611e5a57600080fd5b815161048f81611b5f565b600082601f830112611e7657600080fd5b81516020611e8382611741565b604051611e908282611715565b83815260059390931b8501820192828101915086841115611eb057600080fd5b8286015b848110156117ca578051611ec781611b5f565b8352918301918301611eb4565b60008060408385031215611ee757600080fd5b82516001600160401b0380821115611efe57600080fd5b818501915085601f830112611f1257600080fd5b81516020611f1f82611741565b604051611f2c8282611715565b83815260059390931b8501820192828101915089841115611f4c57600080fd5b948201945b83861015611f6a57855182529482019490820190611f51565b91880151919650909350505080821115611f8357600080fd5b506119f785828601611e65565b600060208284031215611fa257600080fd5b815163ffffffff8116811461048f57600080fd5b60208082526025908201527f455243313135353a207472616e7366657220746f20746865207a65726f206164604082015264647265737360d81b606082015260800190565b6020808252602a908201527f455243313135353a20696e73756666696369656e742062616c616e636520666f60408201526939103a3930b739b332b960b11b606082015260800190565b6000821982111561205857612058611e19565b500190565b6040815260006120706040830185611a01565b82810360208401526120828185611a01565b95945050505050565b6001600160a01b0386811682528516602082015260a0604082018190526000906120b790830186611a01565b82810360608401526120c98186611a01565b905082810360808401526120dd81856116c0565b98975050505050505050565b6000602082840312156120fb57600080fd5b815161048f81611644565b600060033d111561211f5760046000803e5060005160e01c5b90565b600060443d10156121305790565b6040516003193d81016004833e81513d6001600160401b03816024840111818411171561215f57505050505090565b82850191508151818111156121775750505050505090565b843d87010160208285010111156121915750505050505090565b6121a060208286010187611715565b509095945050505050565b60208082526028908201527f455243313135353a204552433131353552656365697665722072656a656374656040820152676420746f6b656e7360c01b606082015260800190565b7f416363657373436f6e74726f6c3a206163636f756e742000000000000000000081526000835161222b816017850160208801611690565b7001034b99036b4b9b9b4b733903937b6329607d1b601791840191820152835161225c816028840160208801611690565b01602801949350505050565b6001600160a01b03868116825285166020820152604081018490526060810183905260a0608082018190526000906122a2908301846116c0565b979650505050505050565b60008160001904831182151516156122c7576122c7611e19565b500290565b6000816122db576122db611e19565b50600019019056fea26469706673582212209e33646a1ed2d51fcc749870e94aa69546c518fc5bfee43d37014ebc54dd767864736f6c634300080e0033",
  "devdoc": {
    "author": "Sismo",
    "kind": "dev",
    "methods": {
      "balanceOf(address,uint256)": {
        "details": "Main function of the ERC1155 badge The balance of a user is equal to the value of the underlying attestation. attestationCollectionId == badgeId",
        "params": {
          "account": "Address to check badge balance (= value of attestation)",
          "id": "Badge Id to check (= attestationCollectionId)"
        }
      },
      "balanceOfBatch(address[],uint256[])": {
        "details": "See {IERC1155-balanceOfBatch}. Requirements: - `accounts` and `ids` must have the same length."
      },
      "constructor": {
        "details": "Constructor",
        "params": {
          "owner": "Owner of the contract, super admin, can setup roles and update the attestation registry",
          "uri": "Uri for the metadata of badges"
        }
      },
      "getAttestationsRegistry()": {
        "details": "Getter of the attestations registry"
      },
      "getAttributeValueForBadge(uint256,uint8)": {
        "details": "Getter of the value of a specific badge attribute",
        "params": {
          "id": "Badge Id to check (= attestationCollectionId)",
          "index": "Index of the attribute"
        }
      },
      "getAttributesNamesAndValuesForBadge(uint256)": {
        "details": "Getter of all badge attributes and their values for a specific badge",
        "params": {
          "id": "Badge Id to check (= attestationCollectionId)"
        }
      },
      "getBadgeExtraData(address,uint256)": {
        "details": "Getter of the badge extra data (it can store nullifier and burnCount)",
        "params": {
          "account": "Address that holds the badge",
          "id": "Badge Id to check (= attestationCollectionId)"
        }
      },
      "getBadgeIssuer(address,uint256)": {
        "details": "Getter of the badge issuer",
        "params": {
          "account": "Address that holds the badge",
          "id": "Badge Id to check (= attestationCollectionId)"
        }
      },
      "getBadgeTimestamp(address,uint256)": {
        "details": "Getter of the badge timestamp",
        "params": {
          "account": "Address that holds the badge",
          "id": "Badge Id to check (= attestationCollectionId)"
        }
      },
      "getRoleAdmin(bytes32)": {
        "details": "Returns the admin role that controls `role`. See {grantRole} and {revokeRole}. To change a role's admin, use {_setRoleAdmin}."
      },
      "grantRole(bytes32,address)": {
        "details": "Grants `role` to `account`. If `account` had not been already granted `role`, emits a {RoleGranted} event. Requirements: - the caller must have ``role``'s admin role. May emit a {RoleGranted} event."
      },
      "hasRole(bytes32,address)": {
        "details": "Returns `true` if `account` has been granted `role`."
      },
      "initialize(string,address)": {
        "details": "Initializes the contract, to be called by the proxy delegating calls to this implementation",
        "params": {
          "owner": "Owner of the contract, super admin, can setup roles and update the attestation registry",
          "uri": "Uri for the metadata of badges"
        }
      },
      "isApprovedForAll(address,address)": {
        "details": "Reverts, this is a non transferable ERC115 contract"
      },
      "renounceRole(bytes32,address)": {
        "details": "Revokes `role` from the calling account. Roles are often managed via {grantRole} and {revokeRole}: this function's purpose is to provide a mechanism for accounts to lose their privileges if they are compromised (such as when a trusted device is misplaced). If the calling account had been revoked `role`, emits a {RoleRevoked} event. Requirements: - the caller must be `account`. May emit a {RoleRevoked} event."
      },
      "revokeRole(bytes32,address)": {
        "details": "Revokes `role` from `account`. If `account` had been granted `role`, emits a {RoleRevoked} event. Requirements: - the caller must have ``role``'s admin role. May emit a {RoleRevoked} event."
      },
      "safeBatchTransferFrom(address,address,uint256[],uint256[],bytes)": {
        "details": "See {IERC1155-safeBatchTransferFrom}."
      },
      "safeTransferFrom(address,address,uint256,uint256,bytes)": {
        "details": "See {IERC1155-safeTransferFrom}."
      },
      "setApprovalForAll(address,bool)": {
        "details": "Reverts, this is a non transferable ERC115 contract"
      },
      "setAttestationsRegistry(address)": {
        "details": "Set the attestations registry address. Can only be called by owner (default admin)",
        "params": {
          "attestationsRegistry": "new attestations registry address"
        }
      },
      "setUri(string)": {
        "details": "Set the URI. Can only be called by owner (default admin)",
        "params": {
          "uri": "new attestations registry address"
        }
      },
      "supportsInterface(bytes4)": {
        "details": "ERC165"
      },
      "triggerTransferEvent(address,address,address,uint256,uint256)": {
        "details": "Emits a TransferSingle event, so subgraphs and other off-chain apps relying on events can see badge minting/burning can only be called by address having the EVENT_TRIGGERER_ROLE (attestations registry address)",
        "params": {
          "from": "address(0) if minting, address of the badge holder if burning",
          "id": "badgeId for which to trigger the event",
          "operator": "who is calling the TransferEvent",
          "to": "address of the badge holder is minting, address(0) if burning",
          "value": "minted/burned balance"
        }
      },
      "uri(uint256)": {
        "details": "See {IERC1155MetadataURI-uri}. This implementation returns the same URI for *all* token types. It relies on the token type ID substitution mechanism https://eips.ethereum.org/EIPS/eip-1155#metadata[defined in the EIP]. Clients calling this function must replace the `\\{id\\}` substring with the actual token type ID."
      }
    },
    "title": "Badges contract",
    "version": 1
  },
  "userdoc": {
    "kind": "user",
    "methods": {
      "initialize(string,address)": {
        "notice": "The reinitializer modifier is needed to configure modules that are added through upgrades and that require initialization."
      }
    },
    "notice": "Stateless, Non-transferrable ERC1155 contract. Reads balance from the values of attestations The associated attestations registry triggers TransferSingle events from this contract It allows badge \"shadow mints and burns\" to be caught by off-chain platforms For more information: https://badges.docs.sismo.io",
    "version": 1
  },
  "storageLayout": {
    "storage": [
      {
        "astId": 935,
        "contract": "contracts/core/Badges.sol:Badges",
        "label": "_initialized",
        "offset": 0,
        "slot": "0",
        "type": "t_uint8"
      },
      {
        "astId": 938,
        "contract": "contracts/core/Badges.sol:Badges",
        "label": "_initializing",
        "offset": 1,
        "slot": "0",
        "type": "t_bool"
      },
      {
        "astId": 24,
        "contract": "contracts/core/Badges.sol:Badges",
        "label": "_roles",
        "offset": 0,
        "slot": "1",
        "type": "t_mapping(t_bytes32,t_struct(RoleData)19_storage)"
      },
      {
        "astId": 1231,
        "contract": "contracts/core/Badges.sol:Badges",
        "label": "_balances",
        "offset": 0,
        "slot": "2",
        "type": "t_mapping(t_uint256,t_mapping(t_address,t_uint256))"
      },
      {
        "astId": 1237,
        "contract": "contracts/core/Badges.sol:Badges",
        "label": "_operatorApprovals",
        "offset": 0,
        "slot": "3",
        "type": "t_mapping(t_address,t_mapping(t_address,t_bool))"
      },
      {
        "astId": 1239,
        "contract": "contracts/core/Badges.sol:Badges",
        "label": "_uri",
        "offset": 0,
        "slot": "4",
        "type": "t_string_storage"
      },
      {
        "astId": 11990,
        "contract": "contracts/core/Badges.sol:Badges",
        "label": "_attestationsRegistry",
        "offset": 0,
        "slot": "5",
        "type": "t_contract(IAttestationsRegistry)12822"
      }
    ],
    "types": {
      "t_address": {
        "encoding": "inplace",
        "label": "address",
        "numberOfBytes": "20"
      },
      "t_bool": {
        "encoding": "inplace",
        "label": "bool",
        "numberOfBytes": "1"
      },
      "t_bytes32": {
        "encoding": "inplace",
        "label": "bytes32",
        "numberOfBytes": "32"
      },
      "t_contract(IAttestationsRegistry)12822": {
        "encoding": "inplace",
        "label": "contract IAttestationsRegistry",
        "numberOfBytes": "20"
      },
      "t_mapping(t_address,t_bool)": {
        "encoding": "mapping",
        "key": "t_address",
        "label": "mapping(address => bool)",
        "numberOfBytes": "32",
        "value": "t_bool"
      },
      "t_mapping(t_address,t_mapping(t_address,t_bool))": {
        "encoding": "mapping",
        "key": "t_address",
        "label": "mapping(address => mapping(address => bool))",
        "numberOfBytes": "32",
        "value": "t_mapping(t_address,t_bool)"
      },
      "t_mapping(t_address,t_uint256)": {
        "encoding": "mapping",
        "key": "t_address",
        "label": "mapping(address => uint256)",
        "numberOfBytes": "32",
        "value": "t_uint256"
      },
      "t_mapping(t_bytes32,t_struct(RoleData)19_storage)": {
        "encoding": "mapping",
        "key": "t_bytes32",
        "label": "mapping(bytes32 => struct AccessControl.RoleData)",
        "numberOfBytes": "32",
        "value": "t_struct(RoleData)19_storage"
      },
      "t_mapping(t_uint256,t_mapping(t_address,t_uint256))": {
        "encoding": "mapping",
        "key": "t_uint256",
        "label": "mapping(uint256 => mapping(address => uint256))",
        "numberOfBytes": "32",
        "value": "t_mapping(t_address,t_uint256)"
      },
      "t_string_storage": {
        "encoding": "bytes",
        "label": "string",
        "numberOfBytes": "32"
      },
      "t_struct(RoleData)19_storage": {
        "encoding": "inplace",
        "label": "struct AccessControl.RoleData",
        "members": [
          {
            "astId": 16,
            "contract": "contracts/core/Badges.sol:Badges",
            "label": "members",
            "offset": 0,
            "slot": "0",
            "type": "t_mapping(t_address,t_bool)"
          },
          {
            "astId": 18,
            "contract": "contracts/core/Badges.sol:Badges",
            "label": "adminRole",
            "offset": 0,
            "slot": "1",
            "type": "t_bytes32"
          }
        ],
        "numberOfBytes": "64"
      },
      "t_uint256": {
        "encoding": "inplace",
        "label": "uint256",
        "numberOfBytes": "32"
      },
      "t_uint8": {
        "encoding": "inplace",
        "label": "uint8",
        "numberOfBytes": "1"
      }
    }
  }
}