{
  "address": "0x299DDFdE5f62Abb56D2f3Dd8b42E525494e5455B",
  "abi": [
    {
      "inputs": [
        {
          "internalType": "address",
          "name": "hydraS1AccountboundAttester",
          "type": "address"
        }
      ],
      "stateMutability": "nonpayable",
      "type": "constructor"
    },
    {
      "inputs": [
        {
          "internalType": "uint256[]",
          "name": "nullifiers",
          "type": "uint256[]"
        }
      ],
      "name": "getHydraS1AccountboundAttesterDestinationOfNullifierBatch",
      "outputs": [
        {
          "internalType": "address[]",
          "name": "",
          "type": "address[]"
        }
      ],
      "stateMutability": "view",
      "type": "function"
    }
  ],
  "transactionHash": "0x0363be8297be0b83416a50ef8b0123540051dbe2d00f2acaf0c690a26e0bb73c",
  "args": [
    "0x069e6B99f4DA543156f66274FC6673442803C587"
  ],
  "numDeployments": 1,
  "solcInputHash": "61c38ae61d36c4e0fe74ede913f00b14",
  "bytecode": "0x60a060405234801561001057600080fd5b5060405161039d38038061039d83398101604081905261002f91610040565b6001600160a01b0316608052610070565b60006020828403121561005257600080fd5b81516001600160a01b038116811461006957600080fd5b9392505050565b60805161031361008a600039600060af01526103136000f3fe608060405234801561001057600080fd5b506004361061002b5760003560e01c8063263c310314610030575b600080fd5b61004361003e366004610198565b610059565b604051610050919061020d565b60405180910390f35b606060008267ffffffffffffffff8111156100765761007661025a565b60405190808252806020026020018201604052801561009f578160200160208202803683370190505b50905060005b83811015610190577f00000000000000000000000000000000000000000000000000000000000000006001600160a01b031663063599db8686848181106100ee576100ee610270565b905060200201356040518263ffffffff1660e01b815260040161011391815260200190565b602060405180830381865afa158015610130573d6000803e3d6000fd5b505050506040513d601f19601f820116820180604052508101906101549190610286565b82828151811061016657610166610270565b6001600160a01b039092166020928302919091019091015280610188816102b6565b9150506100a5565b509392505050565b600080602083850312156101ab57600080fd5b823567ffffffffffffffff808211156101c357600080fd5b818501915085601f8301126101d757600080fd5b8135818111156101e657600080fd5b8660208260051b85010111156101fb57600080fd5b60209290920196919550909350505050565b6020808252825182820181905260009190848201906040850190845b8181101561024e5783516001600160a01b031683529284019291840191600101610229565b50909695505050505050565b634e487b7160e01b600052604160045260246000fd5b634e487b7160e01b600052603260045260246000fd5b60006020828403121561029857600080fd5b81516001600160a01b03811681146102af57600080fd5b9392505050565b6000600182016102d657634e487b7160e01b600052601160045260246000fd5b506001019056fea2646970667358221220463be86b8426e254f33e5e69d8fd5b72286b4caa30a89e9e8584061e169b17fb64736f6c634300080e0033",
  "devdoc": {
    "kind": "dev",
    "methods": {},
    "version": 1
  },
  "userdoc": {
    "kind": "user",
    "methods": {},
    "version": 1
  },
  "storageLayout": {
    "storage": [],
    "types": null
  }
}