{
  "address": "0x4Bc1C75CdB08d05Cb93bE6c400210d932b7F9f2C",
  "abi": [
    {
      "inputs": [
        {
          "internalType": "address",
          "name": "attestationsRegistryAddress",
          "type": "address"
        },
        {
          "internalType": "address",
          "name": "hydraS1VerifierAddress",
          "type": "address"
        },
        {
          "internalType": "address",
          "name": "availableRootsRegistryAddress",
          "type": "address"
        },
        {
          "internalType": "address",
          "name": "commitmentMapperAddress",
          "type": "address"
        },
        {
          "internalType": "uint256",
          "name": "collectionIdFirst",
          "type": "uint256"
        },
        {
          "internalType": "uint256",
          "name": "collectionIdLast",
          "type": "uint256"
        },
        {
          "internalType": "address",
          "name": "owner",
          "type": "address"
        }
      ],
      "stateMutability": "nonpayable",
      "type": "constructor"
    },
    {
      "inputs": [
        {
          "internalType": "uint256",
          "name": "expectedAccountsTreeValue",
          "type": "uint256"
        },
        {
          "internalType": "uint256",
          "name": "inputAccountsTreeValue",
          "type": "uint256"
        }
      ],
      "name": "AccountsTreeValueMismatch",
      "type": "error"
    },
    {
      "inputs": [],
      "name": "AttestationDeletionNotImplemented",
      "type": "error"
    },
    {
      "inputs": [
        {
          "internalType": "uint256",
          "name": "expectedChainId",
          "type": "uint256"
        },
        {
          "internalType": "uint256",
          "name": "chainId",
          "type": "uint256"
        }
      ],
      "name": "ChainIdMismatch",
      "type": "error"
    },
    {
      "inputs": [
        {
          "internalType": "uint256",
          "name": "claimLength",
          "type": "uint256"
        }
      ],
      "name": "ClaimsLengthDifferentThanOne",
      "type": "error"
    },
    {
      "inputs": [
        {
          "internalType": "uint256",
          "name": "collectionId",
          "type": "uint256"
        }
      ],
      "name": "CollectionIdOutOfBound",
      "type": "error"
    },
    {
      "inputs": [
        {
          "internalType": "uint256",
          "name": "expectedX",
          "type": "uint256"
        },
        {
          "internalType": "uint256",
          "name": "expectedY",
          "type": "uint256"
        },
        {
          "internalType": "uint256",
          "name": "inputX",
          "type": "uint256"
        },
        {
          "internalType": "uint256",
          "name": "inputY",
          "type": "uint256"
        }
      ],
      "name": "CommitmentMapperPubKeyMismatch",
      "type": "error"
    },
    {
      "inputs": [
        {
          "internalType": "uint256",
          "name": "groupIndex",
          "type": "uint256"
        }
      ],
      "name": "CooldownDurationNotSetForGroupIndex",
      "type": "error"
    },
    {
      "inputs": [
        {
          "internalType": "address",
          "name": "expectedDestination",
          "type": "address"
        },
        {
          "internalType": "address",
          "name": "inputDestination",
          "type": "address"
        }
      ],
      "name": "DestinationMismatch",
      "type": "error"
    },
    {
      "inputs": [
        {
          "internalType": "uint256",
          "name": "expectedExternalNullifier",
          "type": "uint256"
        },
        {
          "internalType": "uint256",
          "name": "externalNullifier",
          "type": "uint256"
        }
      ],
      "name": "ExternalNullifierMismatch",
      "type": "error"
    },
    {
      "inputs": [
        {
          "internalType": "uint256",
          "name": "expectedGroupId",
          "type": "uint256"
        },
        {
          "internalType": "uint256",
          "name": "groupId",
          "type": "uint256"
        }
      ],
      "name": "GroupIdAndPropertiesMismatch",
      "type": "error"
    },
    {
      "inputs": [
        {
          "internalType": "string",
          "name": "reason",
          "type": "string"
        }
      ],
      "name": "InvalidGroth16Proof",
      "type": "error"
    },
    {
      "inputs": [
        {
          "internalType": "bool",
          "name": "expectedStrictness",
          "type": "bool"
        },
        {
          "internalType": "bool",
          "name": "strictNess",
          "type": "bool"
        }
      ],
      "name": "IsStrictMismatch",
      "type": "error"
    },
    {
      "inputs": [
        {
          "internalType": "uint256",
          "name": "nullifier",
          "type": "uint256"
        },
        {
          "internalType": "address",
          "name": "destination",
          "type": "address"
        },
        {
          "internalType": "uint16",
          "name": "burnCount",
          "type": "uint16"
        },
        {
          "internalType": "uint32",
          "name": "cooldownStart",
          "type": "uint32"
        }
      ],
      "name": "NullifierOnCooldown",
      "type": "error"
    },
    {
      "inputs": [
        {
          "internalType": "uint256",
          "name": "nullifier",
          "type": "uint256"
        }
      ],
      "name": "NullifierUsed",
      "type": "error"
    },
    {
      "inputs": [
        {
          "internalType": "uint256",
          "name": "inputRoot",
          "type": "uint256"
        }
      ],
      "name": "RegistryRootMismatch",
      "type": "error"
    },
    {
      "inputs": [
        {
          "internalType": "uint256",
          "name": "expectedValue",
          "type": "uint256"
        },
        {
          "internalType": "uint256",
          "name": "inputValue",
          "type": "uint256"
        }
      ],
      "name": "ValueMismatch",
      "type": "error"
    },
    {
      "anonymous": false,
      "inputs": [
        {
          "components": [
            {
              "internalType": "uint256",
              "name": "collectionId",
              "type": "uint256"
            },
            {
              "internalType": "address",
              "name": "owner",
              "type": "address"
            },
            {
              "internalType": "address",
              "name": "issuer",
              "type": "address"
            },
            {
              "internalType": "uint256",
              "name": "value",
              "type": "uint256"
            },
            {
              "internalType": "uint32",
              "name": "timestamp",
              "type": "uint32"
            },
            {
              "internalType": "bytes",
              "name": "extraData",
              "type": "bytes"
            }
          ],
          "indexed": false,
          "internalType": "struct Attestation",
          "name": "attestation",
          "type": "tuple"
        }
      ],
      "name": "AttestationDeleted",
      "type": "event"
    },
    {
      "anonymous": false,
      "inputs": [
        {
          "components": [
            {
              "internalType": "uint256",
              "name": "collectionId",
              "type": "uint256"
            },
            {
              "internalType": "address",
              "name": "owner",
              "type": "address"
            },
            {
              "internalType": "address",
              "name": "issuer",
              "type": "address"
            },
            {
              "internalType": "uint256",
              "name": "value",
              "type": "uint256"
            },
            {
              "internalType": "uint32",
              "name": "timestamp",
              "type": "uint32"
            },
            {
              "internalType": "bytes",
              "name": "extraData",
              "type": "bytes"
            }
          ],
          "indexed": false,
          "internalType": "struct Attestation",
          "name": "attestation",
          "type": "tuple"
        }
      ],
      "name": "AttestationGenerated",
      "type": "event"
    },
    {
      "anonymous": false,
      "inputs": [
        {
          "indexed": true,
          "internalType": "uint256",
          "name": "groupIndex",
          "type": "uint256"
        },
        {
          "indexed": false,
          "internalType": "uint32",
          "name": "cooldownDuration",
          "type": "uint32"
        }
      ],
      "name": "CooldownDurationSetForGroupIndex",
      "type": "event"
    },
    {
      "anonymous": false,
      "inputs": [
        {
          "indexed": false,
          "internalType": "uint8",
          "name": "version",
          "type": "uint8"
        }
      ],
      "name": "Initialized",
      "type": "event"
    },
    {
      "anonymous": false,
      "inputs": [
        {
          "indexed": false,
          "internalType": "uint256",
          "name": "nullifier",
          "type": "uint256"
        },
        {
          "indexed": false,
          "internalType": "address",
          "name": "newOwner",
          "type": "address"
        }
      ],
      "name": "NullifierDestinationUpdated",
      "type": "event"
    },
    {
      "anonymous": false,
      "inputs": [
        {
          "indexed": true,
          "internalType": "uint256",
          "name": "nullifier",
          "type": "uint256"
        },
        {
          "indexed": false,
          "internalType": "uint16",
          "name": "burnCount",
          "type": "uint16"
        }
      ],
      "name": "NullifierSetOnCooldown",
      "type": "event"
    },
    {
      "anonymous": false,
      "inputs": [
        {
          "indexed": true,
          "internalType": "address",
          "name": "previousOwner",
          "type": "address"
        },
        {
          "indexed": true,
          "internalType": "address",
          "name": "newOwner",
          "type": "address"
        }
      ],
      "name": "OwnershipTransferred",
      "type": "event"
    },
    {
      "inputs": [],
      "name": "AUTHORIZED_COLLECTION_ID_FIRST",
      "outputs": [
        {
          "internalType": "uint256",
          "name": "",
          "type": "uint256"
        }
      ],
      "stateMutability": "view",
      "type": "function"
    },
    {
      "inputs": [],
      "name": "AUTHORIZED_COLLECTION_ID_LAST",
      "outputs": [
        {
          "internalType": "uint256",
          "name": "",
          "type": "uint256"
        }
      ],
      "stateMutability": "view",
      "type": "function"
    },
    {
      "inputs": [],
      "name": "IMPLEMENTATION_VERSION",
      "outputs": [
        {
          "internalType": "uint8",
          "name": "",
          "type": "uint8"
        }
      ],
      "stateMutability": "view",
      "type": "function"
    },
    {
      "inputs": [
        {
          "internalType": "uint256",
          "name": "nullifier",
          "type": "uint256"
        },
        {
          "internalType": "address",
          "name": "claimDestination",
          "type": "address"
        }
      ],
      "name": "_getNextBurnCount",
      "outputs": [
        {
          "internalType": "uint16",
          "name": "",
          "type": "uint16"
        }
      ],
      "stateMutability": "view",
      "type": "function"
    },
    {
      "inputs": [
        {
          "components": [
            {
              "components": [
                {
                  "internalType": "uint256",
                  "name": "groupId",
                  "type": "uint256"
                },
                {
                  "internalType": "uint256",
                  "name": "claimedValue",
                  "type": "uint256"
                },
                {
                  "internalType": "bytes",
                  "name": "extraData",
                  "type": "bytes"
                }
              ],
              "internalType": "struct Claim[]",
              "name": "claims",
              "type": "tuple[]"
            },
            {
              "internalType": "address",
              "name": "destination",
              "type": "address"
            }
          ],
          "internalType": "struct Request",
          "name": "request",
          "type": "tuple"
        },
        {
          "internalType": "bytes",
          "name": "proofData",
          "type": "bytes"
        }
      ],
      "name": "buildAttestations",
      "outputs": [
        {
          "components": [
            {
              "internalType": "uint256",
              "name": "collectionId",
              "type": "uint256"
            },
            {
              "internalType": "address",
              "name": "owner",
              "type": "address"
            },
            {
              "internalType": "address",
              "name": "issuer",
              "type": "address"
            },
            {
              "internalType": "uint256",
              "name": "value",
              "type": "uint256"
            },
            {
              "internalType": "uint32",
              "name": "timestamp",
              "type": "uint32"
            },
            {
              "internalType": "bytes",
              "name": "extraData",
              "type": "bytes"
            }
          ],
          "internalType": "struct Attestation[]",
          "name": "",
          "type": "tuple[]"
        }
      ],
      "stateMutability": "view",
      "type": "function"
    },
    {
      "inputs": [
        {
          "internalType": "uint256[]",
          "name": "collectionIds",
          "type": "uint256[]"
        },
        {
          "internalType": "address",
          "name": "attestationsOwner",
          "type": "address"
        },
        {
          "internalType": "bytes",
          "name": "proofData",
          "type": "bytes"
        }
      ],
      "name": "deleteAttestations",
      "outputs": [
        {
          "components": [
            {
              "internalType": "uint256",
              "name": "collectionId",
              "type": "uint256"
            },
            {
              "internalType": "address",
              "name": "owner",
              "type": "address"
            },
            {
              "internalType": "address",
              "name": "issuer",
              "type": "address"
            },
            {
              "internalType": "uint256",
              "name": "value",
              "type": "uint256"
            },
            {
              "internalType": "uint32",
              "name": "timestamp",
              "type": "uint32"
            },
            {
              "internalType": "bytes",
              "name": "extraData",
              "type": "bytes"
            }
          ],
          "internalType": "struct Attestation[]",
          "name": "",
          "type": "tuple[]"
        }
      ],
      "stateMutability": "nonpayable",
      "type": "function"
    },
    {
      "inputs": [
        {
          "components": [
            {
              "components": [
                {
                  "internalType": "uint256",
                  "name": "groupId",
                  "type": "uint256"
                },
                {
                  "internalType": "uint256",
                  "name": "claimedValue",
                  "type": "uint256"
                },
                {
                  "internalType": "bytes",
                  "name": "extraData",
                  "type": "bytes"
                }
              ],
              "internalType": "struct Claim[]",
              "name": "claims",
              "type": "tuple[]"
            },
            {
              "internalType": "address",
              "name": "destination",
              "type": "address"
            }
          ],
          "internalType": "struct Request",
          "name": "request",
          "type": "tuple"
        },
        {
          "internalType": "bytes",
          "name": "proofData",
          "type": "bytes"
        }
      ],
      "name": "generateAttestations",
      "outputs": [
        {
          "components": [
            {
              "internalType": "uint256",
              "name": "collectionId",
              "type": "uint256"
            },
            {
              "internalType": "address",
              "name": "owner",
              "type": "address"
            },
            {
              "internalType": "address",
              "name": "issuer",
              "type": "address"
            },
            {
              "internalType": "uint256",
              "name": "value",
              "type": "uint256"
            },
            {
              "internalType": "uint32",
              "name": "timestamp",
              "type": "uint32"
            },
            {
              "internalType": "bytes",
              "name": "extraData",
              "type": "bytes"
            }
          ],
          "internalType": "struct Attestation[]",
          "name": "",
          "type": "tuple[]"
        }
      ],
      "stateMutability": "nonpayable",
      "type": "function"
    },
    {
      "inputs": [],
      "name": "getAttestationRegistry",
      "outputs": [
        {
          "internalType": "contract IAttestationsRegistry",
          "name": "",
          "type": "address"
        }
      ],
      "stateMutability": "view",
      "type": "function"
    },
    {
      "inputs": [],
      "name": "getAvailableRootsRegistry",
      "outputs": [
        {
          "internalType": "contract IAvailableRootsRegistry",
          "name": "",
          "type": "address"
        }
      ],
      "stateMutability": "view",
      "type": "function"
    },
    {
      "inputs": [
        {
          "internalType": "bytes",
          "name": "extraData",
          "type": "bytes"
        }
      ],
      "name": "getBurnCountFromExtraData",
      "outputs": [
        {
          "internalType": "uint16",
          "name": "",
          "type": "uint16"
        }
      ],
      "stateMutability": "pure",
      "type": "function"
    },
    {
      "inputs": [],
      "name": "getCommitmentMapperRegistry",
      "outputs": [
        {
          "internalType": "contract ICommitmentMapperRegistry",
          "name": "",
          "type": "address"
        }
      ],
      "stateMutability": "view",
      "type": "function"
    },
    {
      "inputs": [
        {
          "internalType": "uint256",
          "name": "groupIndex",
          "type": "uint256"
        }
      ],
      "name": "getCooldownDurationForGroupIndex",
      "outputs": [
        {
          "internalType": "uint32",
          "name": "",
          "type": "uint32"
        }
      ],
      "stateMutability": "view",
      "type": "function"
    },
    {
      "inputs": [
        {
          "internalType": "uint256",
          "name": "nullifier",
          "type": "uint256"
        }
      ],
      "name": "getDestinationOfNullifier",
      "outputs": [
        {
          "internalType": "address",
          "name": "",
          "type": "address"
        }
      ],
      "stateMutability": "view",
      "type": "function"
    },
    {
      "inputs": [
        {
          "internalType": "uint256",
          "name": "nullifier",
          "type": "uint256"
        }
      ],
      "name": "getNullifierBurnCount",
      "outputs": [
        {
          "internalType": "uint16",
          "name": "",
          "type": "uint16"
        }
      ],
      "stateMutability": "view",
      "type": "function"
    },
    {
      "inputs": [
        {
          "internalType": "uint256",
          "name": "nullifier",
          "type": "uint256"
        }
      ],
      "name": "getNullifierCooldownStart",
      "outputs": [
        {
          "internalType": "uint32",
          "name": "",
          "type": "uint32"
        }
      ],
      "stateMutability": "view",
      "type": "function"
    },
    {
      "inputs": [
        {
          "internalType": "bytes",
          "name": "extraData",
          "type": "bytes"
        }
      ],
      "name": "getNullifierFromExtraData",
      "outputs": [
        {
          "internalType": "uint256",
          "name": "",
          "type": "uint256"
        }
      ],
      "stateMutability": "pure",
      "type": "function"
    },
    {
      "inputs": [],
      "name": "getVerifier",
      "outputs": [
        {
          "internalType": "contract HydraS1Verifier",
          "name": "",
          "type": "address"
        }
      ],
      "stateMutability": "view",
      "type": "function"
    },
    {
      "inputs": [
        {
          "internalType": "address",
          "name": "ownerAddress",
          "type": "address"
        }
      ],
      "name": "initialize",
      "outputs": [],
      "stateMutability": "nonpayable",
      "type": "function"
    },
    {
      "inputs": [
        {
          "components": [
            {
              "components": [
                {
                  "internalType": "uint256",
                  "name": "groupId",
                  "type": "uint256"
                },
                {
                  "internalType": "uint256",
                  "name": "claimedValue",
                  "type": "uint256"
                },
                {
                  "internalType": "bytes",
                  "name": "extraData",
                  "type": "bytes"
                }
              ],
              "internalType": "struct Claim[]",
              "name": "claims",
              "type": "tuple[]"
            },
            {
              "internalType": "address",
              "name": "destination",
              "type": "address"
            }
          ],
          "internalType": "struct Request",
          "name": "request",
          "type": "tuple"
        },
        {
          "internalType": "bytes",
          "name": "proofData",
          "type": "bytes"
        }
      ],
      "name": "mintBadges",
      "outputs": [
        {
          "internalType": "address",
          "name": "",
          "type": "address"
        },
        {
          "internalType": "uint256[]",
          "name": "",
          "type": "uint256[]"
        },
        {
          "internalType": "uint256[]",
          "name": "",
          "type": "uint256[]"
        }
      ],
      "stateMutability": "nonpayable",
      "type": "function"
    },
    {
      "inputs": [],
      "name": "owner",
      "outputs": [
        {
          "internalType": "address",
          "name": "",
          "type": "address"
        }
      ],
      "stateMutability": "view",
      "type": "function"
    },
    {
      "inputs": [],
      "name": "renounceOwnership",
      "outputs": [],
      "stateMutability": "nonpayable",
      "type": "function"
    },
    {
      "inputs": [
        {
          "internalType": "uint256",
          "name": "groupIndex",
          "type": "uint256"
        },
        {
          "internalType": "uint32",
          "name": "cooldownDuration",
          "type": "uint32"
        }
      ],
      "name": "setCooldownDurationForGroupIndex",
      "outputs": [],
      "stateMutability": "nonpayable",
      "type": "function"
    },
    {
      "inputs": [
        {
          "internalType": "address",
          "name": "newOwner",
          "type": "address"
        }
      ],
      "name": "transferOwnership",
      "outputs": [],
      "stateMutability": "nonpayable",
      "type": "function"
    }
  ],
  "transactionHash": "0x38a6f222f1150aef4c56544da197ef020ce53c5e5886d27b727265e103e414d7",
  "args": [
    "0xB62F00e4e637e0E1031420D86B84e46BaE2a139F",
    "0x9338459cD17c9cE309D47d776e5B5A705586c62C",
    "0x5E5e0CEfB86c39dbf3AFf31a61375e2D8eF4D001",
    "0x485ccCC5088873b74d622f505141d950297EC64a",
    "10000001",
    "20000000",
    "0x8955932af66f3961625BE192bee9cc5264aF09Fa"
  ],
  "numDeployments": 1,
  "solcInputHash": "17323799ce052e363180ed575741910c",
  "bytecode": "0x6101406040523480156200001257600080fd5b5060405162002d9238038062002d9283398101604081905262000035916200020f565b6001600160a01b0387811660805286811660a05285811660e052841660c0526101008390526101208290526200006b3362000083565b6200007681620000d5565b5050505050505062000292565b601580546001600160a01b038381166001600160a01b0319831681179093556040519116919082907f8be0079c531659141344cd1fd0a4f28419497f9722a3daafe3b4186f6b6457e090600090a35050565b600054600590610100900460ff16158015620000f8575060005460ff8083169116105b620001605760405162461bcd60e51b815260206004820152602e60248201527f496e697469616c697a61626c653a20636f6e747261637420697320616c72656160448201526d191e481a5b9a5d1a585b1a5e995960921b606482015260840160405180910390fd5b6000805461ffff191660ff831617610100178155620001876015546001600160a01b031690565b6001600160a01b031614806200019c5750303b155b15620001ad57620001ad8262000083565b6000805461ff001916905560405160ff821681527f7f26b83ff96e1f2b6a682f133852f6798a09c465da95921460cefb38474024989060200160405180910390a15050565b80516001600160a01b03811681146200020a57600080fd5b919050565b600080600080600080600060e0888a0312156200022b57600080fd5b6200023688620001f2565b96506200024660208901620001f2565b95506200025660408901620001f2565b94506200026660608901620001f2565b93506080880151925060a088015191506200028460c08901620001f2565b905092959891949750929550565b60805160a05160c05160e0516101005161012051612a6a62000328600039600081816102690152610f3701526000818161024201528181610f0f01526118c50152600081816102e8015261149f015260008181610184015261153b015260008181610204015261169c0152600081816103500152818161092701528181610b0801528181610c8d015261191e0152612a6a6000f3fe608060405234801561001057600080fd5b506004361061014d5760003560e01c80638b159099116100c3578063c4d66de81161007c578063c4d66de814610374578063c776adde14610387578063ca1cc6461461039a578063e60f999f146103ad578063f2fde38b146103c0578063f7e420b3146103d357600080fd5b80638b159099146102ad5780638da5cb5b146102d5578063918447af146102e6578063af411a301461030c578063b9e1e0251461032c578063bfa665851461034e57600080fd5b806346657fe91161011557806346657fe914610202578063524a32481461022857806354846d7a1461023d5780637000b05114610264578063715018a61461028b578063754b377c1461029357600080fd5b8063063599db146101525780632254f98e14610182578063345dd989146101a85780633800a4b9146101c95780633c4a9854146101ef575b600080fd5b610165610160366004611d64565b6103e6565b6040516001600160a01b0390911681526020015b60405180910390f35b7f0000000000000000000000000000000000000000000000000000000000000000610165565b6101bb6101b6366004611e86565b610405565b604051908152602001610179565b6101dc6101d7366004611d64565b61043d565b60405161ffff9091168152602001610179565b6101dc6101fd366004611e86565b610455565b7f0000000000000000000000000000000000000000000000000000000000000000610165565b61023b610236366004611ecc565b61046c565b005b6101bb7f000000000000000000000000000000000000000000000000000000000000000081565b6101bb7f000000000000000000000000000000000000000000000000000000000000000081565b61023b6104d2565b61029b600581565b60405160ff9091168152602001610179565b6102c06102bb366004611d64565b6104e6565b60405163ffffffff9091168152602001610179565b6015546001600160a01b0316610165565b7f0000000000000000000000000000000000000000000000000000000000000000610165565b61031f61031a366004611f44565b610500565b6040516101799190612067565b61033f61033a366004611f44565b6105b1565b60405161017993929190612104565b7f0000000000000000000000000000000000000000000000000000000000000000610165565b61023b610382366004612169565b610718565b61031f610395366004612186565b610830565b6101dc6103a8366004612237565b610beb565b61031f6103bb366004611f44565b610c4f565b61023b6103ce366004612169565b610d6b565b6102c06103e1366004611d64565b610de4565b6000818152600160205260408120546001600160a01b03165b92915050565b6000808280602001905181019061041c91906122bd565b509050600081806020019051810190610435919061230a565b949350505050565b6000818152603e602052604081205461ffff166103ff565b600080828060200190518101906104359190612323565b610474610dfe565b600082815260296020908152604091829020805463ffffffff191663ffffffff8516908117909155915191825283917f893e2a4c394b497c1a2b041d18acc02d05deb2cc7ae3ea0f85d001aa93dff48b910160405180910390a25050565b6104da610dfe565b6104e46000610e58565b565b60008181526029602052604081205463ffffffff166103ff565b6060600061050f858585610eaa565b9050600061051d8585611029565b90508160008151811061053257610532612346565b602002602001015160a00151610566828460008151811061055557610555612346565b602002602001015160200151610beb565b60405160200161057792919061235c565b6040516020818303038152906040528260008151811061059957610599612346565b602090810291909101015160a0015250949350505050565b600060608060006105c3878787610c4f565b9050600081516001600160401b038111156105e0576105e0611d7d565b604051908082528060200260200182016040528015610609578160200160208202803683370190505b509050600082516001600160401b0381111561062757610627611d7d565b604051908082528060200260200182016040528015610650578160200160208202803683370190505b50905060005b83518110156106e85783818151811061067157610671612346565b60200260200101516000015183828151811061068f5761068f612346565b6020026020010181815250508381815181106106ad576106ad612346565b6020026020010151606001518282815181106106cb576106cb612346565b6020908102919091010152806106e081612398565b915050610656565b50826000815181106106fc576106fc612346565b6020908102919091018101510151999198509650945050505050565b600054600590610100900460ff1615801561073a575060005460ff8083169116105b6107a25760405162461bcd60e51b815260206004820152602e60248201527f496e697469616c697a61626c653a20636f6e747261637420697320616c72656160448201526d191e481a5b9a5d1a585b1a5e995960921b60648201526084015b60405180910390fd5b6000805461ffff191660ff8316176101001781556107c86015546001600160a01b031690565b6001600160a01b031614806107dc5750303b155b156107ea576107ea82610e58565b6000805461ff001916905560405160ff821681527f7f26b83ff96e1f2b6a682f133852f6798a09c465da95921460cefb3847402498906020015b60405180910390a15050565b60606000856001600160401b0381111561084c5761084c611d7d565b604051908082528060200260200182016040528015610875578160200160208202803683370190505b5090506000866001600160401b0381111561089257610892611d7d565b6040519080825280602002602001820160405280156108bb578160200160208202803683370190505b5090506000876001600160401b038111156108d8576108d8611d7d565b60405190808252806020026020018201604052801561091157816020015b6108fe611c42565b8152602001906001900390816108f65790505b50905060005b88811015610ae5576000806000807f00000000000000000000000000000000000000000000000000000000000000006001600160a01b0316633be1ced78f8f8881811061096657610966612346565b905060200201358e6040518363ffffffff1660e01b815260040161099d9291909182526001600160a01b0316602082015260400190565b600060405180830381865afa1580156109ba573d6000803e3d6000fd5b505050506040513d6000823e601f3d908101601f191682016040526109e291908101906123b1565b93509350935093508b8886815181106109fd576109fd612346565b60200260200101906001600160a01b031690816001600160a01b0316815250508d8d86818110610a2f57610a2f612346565b90506020020135878681518110610a4857610a48612346565b6020026020010181815250506040518060c001604052808f8f88818110610a7157610a71612346565b9050602002013581526020018d6001600160a01b03168152602001856001600160a01b031681526020018481526020018363ffffffff16815260200182815250868681518110610ac357610ac3612346565b6020026020010181905250505050508080610add90612398565b915050610917565b50610af1818787611045565b60405163811a6af760e01b81526001600160a01b037f0000000000000000000000000000000000000000000000000000000000000000169063811a6af790610b3f908690869060040161241e565b600060405180830381600087803b158015610b5957600080fd5b505af1158015610b6d573d6000803e3d6000fd5b5050505060005b88811015610bde577f01cba57fa881d11e8be5640b6abefb9709f2dd45f776051b2cf5cb8ea23fa56b828281518110610baf57610baf612346565b6020026020010151604051610bc49190612474565b60405180910390a180610bd681612398565b915050610b74565b5098975050505050505050565b600082815260016020908152604080832054603e9092528220546001600160a01b039091169061ffff168115801590610c365750836001600160a01b0316826001600160a01b031614155b1561043557610c46600182612487565b95945050505050565b6060610c5c84848461105e565b6000610c69858585610500565b9050610c768585856110a6565b60405163ebc5c09360e01b81526001600160a01b037f0000000000000000000000000000000000000000000000000000000000000000169063ebc5c09390610cc2908490600401612067565b600060405180830381600087803b158015610cdc57600080fd5b505af1158015610cf0573d6000803e3d6000fd5b5050505060005b8151811015610d62577f336e708b72b2b4a27a0c25e8cce7f97512e7f1e8dcaf800b100075e62c1eb1fc828281518110610d3357610d33612346565b6020026020010151604051610d489190612474565b60405180910390a180610d5a81612398565b915050610cf7565b50949350505050565b610d73610dfe565b6001600160a01b038116610dd85760405162461bcd60e51b815260206004820152602660248201527f4f776e61626c653a206e6577206f776e657220697320746865207a65726f206160448201526564647265737360d01b6064820152608401610799565b610de181610e58565b50565b6000818152603d602052604081205463ffffffff166103ff565b6015546001600160a01b031633146104e45760405162461bcd60e51b815260206004820181905260248201527f4f776e61626c653a2063616c6c6572206973206e6f7420746865206f776e65726044820152606401610799565b601580546001600160a01b038381166001600160a01b0319831681179093556040519116919082907f8be0079c531659141344cd1fd0a4f28419497f9722a3daafe3b4186f6b6457e090600090a35050565b60606000610ebf610eba866124ad565b6111fc565b60408051600180825281830190925291925060009190816020015b610ee2611c42565b815260200190600190039081610eda575050606083015151909150600090610f33906001600160801b03167f00000000000000000000000000000000000000000000000000000000000000006125d6565b90507f0000000000000000000000000000000000000000000000000000000000000000811115610f7957604051637bbf29e360e01b815260048101829052602401610799565b306000610f868888611029565b90506040518060c0016040528084815260200186604001516001600160a01b03168152602001836001600160a01b031681526020018660200151815260200186606001516020015163ffffffff16815260200182604051602001610fec91815260200190565b6040516020818303038152906040528152508460008151811061101157611011612346565b60209081029190910101525091979650505050505050565b600080611038838501856126a4565b90506000610c4682611281565b604051630d5cd8d960e11b815260040160405180910390fd5b600061106c828401846126a4565b9050600061107982611297565b90506000611089610eba876124ad565b90506110958183611341565b61109e83611672565b505050505050565b60006110b28383611029565b6000818152600160205260408120549192506001600160a01b03909116906110dc610eba876124ad565b90506001600160a01b0382161580159061110c575080604001516001600160a01b0316826001600160a01b031614155b156111e3576060810151516001600160801b031660009081526029602052604081205463ffffffff16908190036111685760608201515160405163065ef5f360e01b81526001600160801b039091166004820152602401610799565b611172848261180f565b156111ce576000848152603e602052604081205461ffff16604051630d16862d60e11b8152600481018790526001600160a01b038616602482015261ffff8216604482015263ffffffff84166064820152909150608401610799565b6111d8828461183f565b6111e18461198d565b505b61109e836111f76040890160208a01612169565b611a34565b611204611c90565b6000826000015160008151811061121d5761121d612346565b6020026020010151905061123081611a93565b6000816040015180602001905181019061124a9190612785565b60408051608081018252845181526020948501518582015295909301516001600160a01b0316928501929092525060608301525090565b602081015160009060065b602002015192915050565b61129f611cf3565b6040518061012001604052806112b484611ad3565b6001600160a01b031681526020016112cb84611ae1565b81526020016112d984611af0565b81526020016112e784611aff565b81526020016112f584611281565b815260200161130384611b0e565b815260200161131184611b1d565b81526020016113298460200151610120015160011490565b1515815260200161133984611b2c565b905292915050565b815160c08201511461137657815160c082015160405163fe405c7760e01b815260048101929092526024820152604401610799565b81606001516040015115158160e001511515036113c157606082015160409081015160e08301519151634629f1b560e11b815290151560048201529015156024820152604401610799565b81604001516001600160a01b031681600001516001600160a01b03161461141557604082810151825191516370a8d99b60e11b81526001600160a01b03918216600482015291166024820152604401610799565b46816020015114611448576020810151604051630432cec160e31b81524660048201526024810191909152604401610799565b81602001518160a001511461148357602082015160a0820151604051630626ade360e41b815260048101929092526024820152604401610799565b604081810151905163072f23bd60e51b815260048101919091527f00000000000000000000000000000000000000000000000000000000000000006001600160a01b03169063e5e477a090602401602060405180830381865afa1580156114ee573d6000803e3d6000fd5b505050506040513d601f19601f820116820180604052508101906115129190612800565b61153757806040015160405163cbfe7bc360e01b815260040161079991815260200190565b60007f00000000000000000000000000000000000000000000000000000000000000006001600160a01b03166359a80d0d6040518163ffffffff1660e01b81526004016040805180830381865afa158015611596573d6000803e3d6000fd5b505050506040513d601f19601f820116820180604052508101906115ba919061281b565b8051610100840151519192501415806115e157506020808201516101008401519091015114155b1561162b578051602080830151610100850151805192015160405163318d812b60e01b81526004810194909452602484019190915260448301919091526064820152608401610799565b600061163684611b84565b90508083606001511461166c576060830151604051630e6efbdd60e21b8152610799918391600401918252602082015260400190565b50505050565b805180516020808301516040938401519185015193516379ddb87b60e11b81526001600160a01b037f0000000000000000000000000000000000000000000000000000000000000000169463f3bb70f6946116d594909392909190600401612897565b602060405180830381865afa92505050801561170e575060408051601f3d908101601f1916820190925261170b91810190612800565b60015b6117e45761171a61291b565b806308c379a003611753575061172e612937565b806117395750611792565b8060405162dd577760e81b815260040161079991906129c0565b634e487b7103611792576117656129d3565b906117705750611792565b60405162dd577760e81b81526020600482015260006024820152604401610799565b3d8080156117bc576040519150601f19603f3d011682016040523d82523d6000602084013e6117c1565b606091505b5060405162dd577760e81b81526020600482015260006024820152604401610799565b8061180b5760405162dd577760e81b81526020600482015260006024820152604401610799565b5050565b6000828152603d6020526040812054429061183190849063ffffffff166129f3565b63ffffffff16119392505050565b604080516001808252818301909252600091602080830190803683375050604080516001808252818301909252929350600092915060208083019080368337019050509050828260008151811061189857611898612346565b6001600160a01b03909216602092830291909101909101526060840151516118e9906001600160801b03167f00000000000000000000000000000000000000000000000000000000000000006125d6565b816000815181106118fc576118fc612346565b602090810291909101015260405163811a6af760e01b81526001600160a01b037f0000000000000000000000000000000000000000000000000000000000000000169063811a6af790611955908590859060040161241e565b600060405180830381600087803b15801561196f57600080fd5b505af1158015611983573d6000803e3d6000fd5b5050505050505050565b6000818152603d60209081526040808320805463ffffffff19164263ffffffff16179055603e90915281208054600192906119cd90849061ffff16612487565b82546101009290920a61ffff8181021990931691831602179091556000838152603e60209081526040918290205491519190921681528392507f85183f8abad8891335fb845d2e6b4f84a9c7f7409f242f4e5ec138a84abffacf910160405180910390a250565b60008281526001602090815260409182902080546001600160a01b0319166001600160a01b0385169081179091558251858152918201527f0c5a122814a29e22d1363dacdd6f7c95345b70890f97e65eacb5565da28116ac9101610824565b6000611aa28260400151611ba9565b8251909150811461180b5781516040516337e3d1ab60e01b8152610799918391600401918252602082015260400190565b60208101516000908161128c565b6020810151600090600161128c565b6020810151600090600461128c565b6020810151600090600561128c565b6020810151600090600761128c565b6020810151600090600861128c565b611b34611d46565b604051806040016040528083602001516002600a8110611b5657611b56612346565b6020020151815260200183602001516003600a8110611b7757611b77612346565b6020020151905292915050565b600080611ba2308460600151600001516001600160801b0316611bde565b9392505050565b805160208201206000906103ff907f30644e72e131a029b85045b68181585d2833e84879b9709143e1f593f000000190612a12565b604080516001600160a01b03841660208201529081018290526000907f30644e72e131a029b85045b68181585d2833e84879b9709143e1f593f0000001906060016040516020818303038152906040528051906020012060001c611ba29190612a12565b6040518060c001604052806000815260200160006001600160a01b0316815260200160006001600160a01b0316815260200160008152602001600063ffffffff168152602001606081525090565b6040518060800160405280600081526020016000815260200160006001600160a01b03168152602001611cee604051806060016040528060006001600160801b03168152602001600063ffffffff1681526020016000151581525090565b905290565b60405180610120016040528060006001600160a01b03168152602001600081526020016000815260200160008152602001600081526020016000815260200160008152602001600015158152602001611cee5b60405180604001604052806002906020820280368337509192915050565b600060208284031215611d7657600080fd5b5035919050565b634e487b7160e01b600052604160045260246000fd5b604081018181106001600160401b0382111715611db257611db2611d7d565b60405250565b606081018181106001600160401b0382111715611db257611db2611d7d565b601f8201601f191681016001600160401b0381118282101715611dfc57611dfc611d7d565b6040525050565b60006001600160401b03821115611e1c57611e1c611d7d565b50601f01601f191660200190565b600082601f830112611e3b57600080fd5b8135611e4681611e03565b604051611e538282611dd7565b828152856020848701011115611e6857600080fd5b82602086016020830137600092810160200192909252509392505050565b600060208284031215611e9857600080fd5b81356001600160401b03811115611eae57600080fd5b61043584828501611e2a565b63ffffffff81168114610de157600080fd5b60008060408385031215611edf57600080fd5b823591506020830135611ef181611eba565b809150509250929050565b60008083601f840112611f0e57600080fd5b5081356001600160401b03811115611f2557600080fd5b602083019150836020828501011115611f3d57600080fd5b9250929050565b600080600060408486031215611f5957600080fd5b83356001600160401b0380821115611f7057600080fd5b9085019060408288031215611f8457600080fd5b90935060208501359080821115611f9a57600080fd5b50611fa786828701611efc565b9497909650939450505050565b60005b83811015611fcf578181015183820152602001611fb7565b8381111561166c5750506000910152565b60008151808452611ff8816020860160208601611fb4565b601f01601f19169290920160200192915050565b805182526000602082015160018060a01b03808216602086015280604085015116604086015250506060820151606084015263ffffffff608083015116608084015260a082015160c060a085015261043560c0850182611fe0565b6000602080830181845280855180835260408601915060408160051b870101925083870160005b828110156120bc57603f198886030184526120aa85835161200c565b9450928501929085019060010161208e565b5092979650505050505050565b600081518084526020808501945080840160005b838110156120f9578151875295820195908201906001016120dd565b509495945050505050565b6001600160a01b0384168152606060208201819052600090612128908301856120c9565b828103604084015261213a81856120c9565b9695505050505050565b6001600160a01b0381168114610de157600080fd5b803561216481612144565b919050565b60006020828403121561217b57600080fd5b8135611ba281612144565b60008060008060006060868803121561219e57600080fd5b85356001600160401b03808211156121b557600080fd5b818801915088601f8301126121c957600080fd5b8135818111156121d857600080fd5b8960208260051b85010111156121ed57600080fd5b6020830197508096505061220360208901612159565b9450604088013591508082111561221957600080fd5b5061222688828901611efc565b969995985093965092949392505050565b6000806040838503121561224a57600080fd5b823591506020830135611ef181612144565b600082601f83011261226d57600080fd5b815161227881611e03565b6040516122858282611dd7565b82815285602084870101111561229a57600080fd5b610c46836020830160208801611fb4565b805161ffff8116811461216457600080fd5b600080604083850312156122d057600080fd5b82516001600160401b038111156122e657600080fd5b6122f28582860161225c565b925050612301602084016122ab565b90509250929050565b60006020828403121561231c57600080fd5b5051919050565b6000806040838503121561233657600080fd5b82519150612301602084016122ab565b634e487b7160e01b600052603260045260246000fd5b60408152600061236f6040830185611fe0565b905061ffff831660208301529392505050565b634e487b7160e01b600052601160045260246000fd5b6000600182016123aa576123aa612382565b5060010190565b600080600080608085870312156123c757600080fd5b84516123d281612144565b6020860151604087015191955093506123ea81611eba565b60608601519092506001600160401b0381111561240657600080fd5b6124128782880161225c565b91505092959194509250565b604080825283519082018190526000906020906060840190828701845b828110156124605781516001600160a01b03168452928401929084019060010161243b565b5050508381038285015261213a81866120c9565b602081526000611ba2602083018461200c565b600061ffff8083168185168083038211156124a4576124a4612382565b01949350505050565b600060408083360312156124c057600080fd5b80516124cb81611d93565b83356001600160401b03808211156124e257600080fd5b9085019036601f8301126124f557600080fd5b813560208282111561250957612509611d7d565b8160051b865161251b83830182611dd7565b9283528481018201928281013685111561253457600080fd5b83870192505b848310156125b8578235868111156125525760008081fd5b8701606036829003601f190181131561256b5760008081fd5b8a5161257681611db8565b8287013581528b830135818801529082013590888211156125975760008081fd5b6125a5368884860101611e2a565b818d01528352505091830191830161253a565b508652506125c7888201612159565b90850152509195945050505050565b600082198211156125e9576125e9612382565b500190565b600082601f8301126125ff57600080fd5b60405161260b81611d93565b80604084018581111561261d57600080fd5b845b8181101561263757803583526020928301920161261f565b509195945050505050565b600082601f83011261265357600080fd5b6040516101408082018281106001600160401b038211171561267757612677611d7d565b6040528301818582111561268a57600080fd5b845b8281101561263757803582526020918201910161268c565b60008183036102408112156126b857600080fd5b604080516126c581611d93565b610100808412156126d557600080fd5b825193506126e284611db8565b6126ec87876125ee565b845286605f8701126126fd57600080fd5b825161270881611d93565b8060c088018981111561271a57600080fd5b8589015b8181101561273f576127308b826125ee565b8352602090920191860161271e565b508260208801526127508a826125ee565b8688015250505083825261276687828801612642565b60208301525095945050505050565b8051801515811461216457600080fd5b60006060828403121561279757600080fd5b604051606081018181106001600160401b03821117156127b9576127b9611d7d565b60405282516001600160801b03811681146127d357600080fd5b815260208301516127e381611eba565b60208201526127f460408401612775565b60408201529392505050565b60006020828403121561281257600080fd5b611ba282612775565b60006040828403121561282d57600080fd5b82601f83011261283c57600080fd5b60405161284881611d93565b80604084018581111561285a57600080fd5b845b8181101561263757805183526020928301920161285c565b8060005b600281101561166c578151845260209384019390910190600101612878565b61024081016128a68287612874565b60408083018660005b60028110156128d6576128c3838351612874565b91830191602091909101906001016128af565b505050506128e760c0830185612874565b61010082018360005b600a81101561290f5781518352602092830192909101906001016128f0565b50505095945050505050565b600060033d11156129345760046000803e5060005160e01c5b90565b600060443d10156129455790565b6040516003193d81016004833e81513d6001600160401b03816024840111818411171561297457505050505090565b828501915081518181111561298c5750505050505090565b843d87010160208285010111156129a65750505050505090565b6129b560208286010187611dd7565b509095945050505050565b602081526000611ba26020830184611fe0565b60008060233d11156129ef576020600460003e50506000516001905b9091565b600063ffffffff8083168185168083038211156124a4576124a4612382565b600082612a2f57634e487b7160e01b600052601260045260246000fd5b50069056fea2646970667358221220bde432e577dfdfb11c2eb2cc0557a80240afe6831edba5b06f2562ea29e0518864736f6c634300080e0033",
  "devdoc": {
    "author": "Sismo",
    "errors": {
      "CollectionIdOutOfBound(uint256)": [
        {
          "details": "Error when the collectionId of an attestation overflow the AUTHORIZED_COLLECTION_ID_LAST*"
        }
      ],
      "CooldownDurationNotSetForGroupIndex(uint256)": [
        {
          "details": "Error when the cooldown duration for a given groupIndex is equal to zero. The HydraS1AccountboundAttester behaves like the HydraS1SimpleAttester.*"
        }
      ],
      "NullifierOnCooldown(uint256,address,uint16,uint32)": [
        {
          "details": "Error when the nullifier is on cooldown. The user have to wait the cooldownDuration before being able to change again the destination address.*"
        }
      ],
      "NullifierUsed(uint256)": [
        {
          "details": "Error when the nullifier is already used for a destination address*"
        }
      ]
    },
    "kind": "dev",
    "methods": {
      "_getNextBurnCount(uint256,address)": {
        "details": "returns burn count or burn count + 1 if new burn will happen",
        "params": {
          "claimDestination": "destination referenced in the user claim",
          "nullifier": "user nullifier"
        }
      },
      "buildAttestations(((uint256,uint256,bytes)[],address),bytes)": {
        "details": "Returns the actual attestations constructed from the user request",
        "params": {
          "proofData": "snark public input as well as snark proof",
          "request": "users request. Claim of having an account part of a group of accounts"
        }
      },
      "constructor": {
        "details": "Constructor. Initializes the contract",
        "params": {
          "attestationsRegistryAddress": "Attestations Registry contract on which the attester will write attestations",
          "availableRootsRegistryAddress": "Registry storing the available groups for this attester (e.g roots of registry merkle trees)",
          "collectionIdFirst": "Id of the first attestation collection in which the attester is supposed to record",
          "collectionIdLast": "Id of the last attestation collection in which the attester is supposed to record",
          "commitmentMapperAddress": "commitment mapper's public key registry",
          "hydraS1VerifierAddress": "ZK Snark Hydra-S1 Verifier contract",
          "owner": "Address of attester's owner"
        }
      },
      "deleteAttestations(uint256[],address,bytes)": {
        "details": "External facing function. Allows to delete attestations by submitting proof",
        "params": {
          "attestationsOwner": "Owner of attestations to delete",
          "collectionIds": "Collection identifier of attestations to delete",
          "proofData": "Data sent along the deletion request to prove its validity"
        },
        "returns": {
          "_0": "attestations Attestations that were deleted"
        }
      },
      "generateAttestations(((uint256,uint256,bytes)[],address),bytes)": {
        "details": "Main external function. Allows to generate attestations by making a request and submitting proof",
        "params": {
          "proofData": "Data sent along the request to prove its validity",
          "request": "User request"
        },
        "returns": {
          "_0": "attestations Attestations that has been recorded"
        }
      },
      "getAttestationRegistry()": {
        "details": "Attestation registry getter",
        "returns": {
          "_0": "attestationRegistry"
        }
      },
      "getAvailableRootsRegistry()": {
        "details": "Getter of Roots Registry Contract"
      },
      "getBurnCountFromExtraData(bytes)": {
        "details": "Returns the burn count for a given extraData",
        "params": {
          "extraData": "bytes where the burnCount is encoded"
        }
      },
      "getCommitmentMapperRegistry()": {
        "details": "Getter of Commitment Mapper Registry contract"
      },
      "getCooldownDurationForGroupIndex(uint256)": {
        "details": "Getter, get the cooldown duration of a groupIndex",
        "params": {
          "groupIndex": "internal collection id*"
        }
      },
      "getDestinationOfNullifier(uint256)": {
        "details": "Getter, returns the last attestation destination of a nullifier",
        "params": {
          "nullifier": "nullifier used*"
        }
      },
      "getNullifierBurnCount(uint256)": {
        "details": "Getter, returns the burnCount of a nullifier",
        "params": {
          "nullifier": "nullifier used*"
        }
      },
      "getNullifierCooldownStart(uint256)": {
        "details": "Getter, returns the cooldown start of a nullifier",
        "params": {
          "nullifier": "nullifier used*"
        }
      },
      "getNullifierFromExtraData(bytes)": {
        "details": "returns the nullifier for a given extraData",
        "params": {
          "extraData": "bytes where the nullifier is encoded"
        }
      },
      "getVerifier()": {
        "details": "Getter of Hydra-S1 Verifier contract"
      },
      "initialize(address)": {
        "details": "Initialize function, to be called by the proxy delegating calls to this implementation",
        "params": {
          "ownerAddress": "Owner of the contract, has the right to authorize/unauthorize attestations issuers"
        }
      },
      "mintBadges(((uint256,uint256,bytes)[],address),bytes)": {
        "details": "High level function to generate attestations by making a request and submitting proof",
        "params": {
          "proofData": "Data sent along the request to prove its validity",
          "request": "User request"
        },
        "returns": {
          "_0": "badges owner, badges tokenIds and badges values"
        }
      },
      "owner()": {
        "details": "Returns the address of the current owner."
      },
      "renounceOwnership()": {
        "details": "Leaves the contract without owner. It will not be possible to call `onlyOwner` functions anymore. Can only be called by the current owner. NOTE: Renouncing ownership will leave the contract without an owner, thereby removing any functionality that is only available to the owner."
      },
      "setCooldownDurationForGroupIndex(uint256,uint32)": {
        "details": "Setter, sets the cooldown duration of a groupIndex",
        "params": {
          "cooldownDuration": "cooldown duration we want to set for the groupIndex*",
          "groupIndex": "internal collection id"
        }
      },
      "transferOwnership(address)": {
        "details": "Transfers ownership of the contract to a new account (`newOwner`). Can only be called by the current owner."
      }
    },
    "title": "Hydra-S1 Accountbound Attester",
    "version": 1
  },
  "userdoc": {
    "kind": "user",
    "methods": {
      "getCooldownDurationForGroupIndex(uint256)": {
        "notice": "returns 0 when the accountbound feature is deactivated for this group"
      },
      "initialize(address)": {
        "notice": "The reinitializer modifier is needed to configure modules that are added through upgrades and that require initialization."
      },
      "setCooldownDurationForGroupIndex(uint256,uint32)": {
        "notice": "set to 0 to deactivate the accountbound feature for this group"
      }
    },
    "notice": "This attester is part of the family of the Hydra-S1 Attesters. Hydra-S1 attesters enable users to prove they have an account in a group in a privacy preserving way. The Hydra-S1 Simple Attester contract is inherited and holds the complex Hydra S1 verification logic. Request verification alongside proof verification is already implemented in the inherited HydraS1SimpleAttester, along with the buildAttestations logic. However, we override the buildAttestations function to encode the nullifier and its burn count in the user attestation. The _beforeRecordAttestations is also overriden to fit the Accountbound logic. We invite readers to refer to:    - https://hydra-s1.docs.sismo.io for a full guide through the Hydra-S1 ZK Attestations    - https://hydra-s1-circuits.docs.sismo.io for circuits, prover and verifiers of Hydra-S1 This specific attester has the following characteristics: - Zero Knowledge   One cannot deduct from an attestation what source account was used to generate the underlying proof - Non Strict (scores)   If a user can generate an attestation of max value 100, they can also generate any attestation with value < 100.   This attester generate attestations of scores - Nullified   Each source account gets one nullifier per claim (i.e only one attestation per source account per claim)   While semaphore/ tornado cash are using the following notations: nullifierHash = hash(IdNullifier, externalNullifier)   We prefered to use the naming 'nullifier' instead of 'nullifierHash' in our contracts and documentation.   We also renamed 'IdNullifier' in 'sourceSecret' (the secret tied to a source account) and we kept the 'externalNullifier' notation.   Finally, here is our notations at Sismo: nullifier = hash(sourceSecret, externalNullifier) - Accountbound (opt-in, with cooldown period)   The owner of this attester can set a cooldown duration for a specific group, activating the accountbound feature for this group.   Users can update their attestation's destination by providing a new Hydra-S1 ZK proof    It means the attestation is bound to the source account, stored on an updatable destination account.   When deleting/ sending to a new destination, the nullifier will enter a cooldown period, so it remains occasional.   A group that has its cooldown duration set to 0 means it has been configured to not feature accountbound attestations, attestations can not be transferred   One can however know that the former and the new destinations were created using the same nullifier, thus creating a link between those two destinations. - Renewable   A nullifier can actually be reused as long as the destination of the attestation remains the same   It enables users to renew or update their attestations*",
    "version": 1
  },
  "storageLayout": {
    "storage": [
      {
        "astId": 935,
        "contract": "contracts/attesters/hydra-s1/HydraS1AccountboundAttester.sol:HydraS1AccountboundAttester",
        "label": "_initialized",
        "offset": 0,
        "slot": "0",
        "type": "t_uint8"
      },
      {
        "astId": 938,
        "contract": "contracts/attesters/hydra-s1/HydraS1AccountboundAttester.sol:HydraS1AccountboundAttester",
        "label": "_initializing",
        "offset": 1,
        "slot": "0",
        "type": "t_bool"
      },
      {
        "astId": 8103,
        "contract": "contracts/attesters/hydra-s1/HydraS1AccountboundAttester.sol:HydraS1AccountboundAttester",
        "label": "_nullifiersDestinations",
        "offset": 0,
        "slot": "1",
        "type": "t_mapping(t_uint256,t_address)"
      },
      {
        "astId": 8107,
        "contract": "contracts/attesters/hydra-s1/HydraS1AccountboundAttester.sol:HydraS1AccountboundAttester",
        "label": "_placeHoldersHydraS1Simple",
        "offset": 0,
        "slot": "2",
        "type": "t_array(t_uint256)19_storage"
      },
      {
        "astId": 396,
        "contract": "contracts/attesters/hydra-s1/HydraS1AccountboundAttester.sol:HydraS1AccountboundAttester",
        "label": "_owner",
        "offset": 0,
        "slot": "21",
        "type": "t_address"
      },
      {
        "astId": 7520,
        "contract": "contracts/attesters/hydra-s1/HydraS1AccountboundAttester.sol:HydraS1AccountboundAttester",
        "label": "_placeHolderBeforeHydraS1Accountbound",
        "offset": 0,
        "slot": "22",
        "type": "t_array(t_uint256)19_storage"
      },
      {
        "astId": 7524,
        "contract": "contracts/attesters/hydra-s1/HydraS1AccountboundAttester.sol:HydraS1AccountboundAttester",
        "label": "_cooldownDurations",
        "offset": 0,
        "slot": "41",
        "type": "t_mapping(t_uint256,t_uint32)"
      },
      {
        "astId": 7528,
        "contract": "contracts/attesters/hydra-s1/HydraS1AccountboundAttester.sol:HydraS1AccountboundAttester",
        "label": "_placeHoldersHydraS1AccountboundConfig",
        "offset": 0,
        "slot": "42",
        "type": "t_array(t_uint256)19_storage"
      },
      {
        "astId": 7532,
        "contract": "contracts/attesters/hydra-s1/HydraS1AccountboundAttester.sol:HydraS1AccountboundAttester",
        "label": "_nullifiersCooldownStart",
        "offset": 0,
        "slot": "61",
        "type": "t_mapping(t_uint256,t_uint32)"
      },
      {
        "astId": 7536,
        "contract": "contracts/attesters/hydra-s1/HydraS1AccountboundAttester.sol:HydraS1AccountboundAttester",
        "label": "_nullifiersBurnCount",
        "offset": 0,
        "slot": "62",
        "type": "t_mapping(t_uint256,t_uint16)"
      },
      {
        "astId": 7540,
        "contract": "contracts/attesters/hydra-s1/HydraS1AccountboundAttester.sol:HydraS1AccountboundAttester",
        "label": "_placeHoldersHydraS1AccountboundLogic",
        "offset": 0,
        "slot": "63",
        "type": "t_array(t_uint256)18_storage"
      }
    ],
    "types": {
      "t_address": {
        "encoding": "inplace",
        "label": "address",
        "numberOfBytes": "20"
      },
      "t_array(t_uint256)18_storage": {
        "base": "t_uint256",
        "encoding": "inplace",
        "label": "uint256[18]",
        "numberOfBytes": "576"
      },
      "t_array(t_uint256)19_storage": {
        "base": "t_uint256",
        "encoding": "inplace",
        "label": "uint256[19]",
        "numberOfBytes": "608"
      },
      "t_bool": {
        "encoding": "inplace",
        "label": "bool",
        "numberOfBytes": "1"
      },
      "t_mapping(t_uint256,t_address)": {
        "encoding": "mapping",
        "key": "t_uint256",
        "label": "mapping(uint256 => address)",
        "numberOfBytes": "32",
        "value": "t_address"
      },
      "t_mapping(t_uint256,t_uint16)": {
        "encoding": "mapping",
        "key": "t_uint256",
        "label": "mapping(uint256 => uint16)",
        "numberOfBytes": "32",
        "value": "t_uint16"
      },
      "t_mapping(t_uint256,t_uint32)": {
        "encoding": "mapping",
        "key": "t_uint256",
        "label": "mapping(uint256 => uint32)",
        "numberOfBytes": "32",
        "value": "t_uint32"
      },
      "t_uint16": {
        "encoding": "inplace",
        "label": "uint16",
        "numberOfBytes": "2"
      },
      "t_uint256": {
        "encoding": "inplace",
        "label": "uint256",
        "numberOfBytes": "32"
      },
      "t_uint32": {
        "encoding": "inplace",
        "label": "uint32",
        "numberOfBytes": "4"
      },
      "t_uint8": {
        "encoding": "inplace",
        "label": "uint8",
        "numberOfBytes": "1"
      }
    }
  }
}